10001069200152110210001APOYOS EMPRESARIALES REJUM S.A. DE  NOMINA 21102021     05                                        C00
2100100000000000852738301700900000000000004986611
300010000000000005866690100000000090298995092                              0000010261JUAN CARLOS ARROYO CORONA                              NOMINA                                                          0000       00
300010000000000002220940100000000090414320251                              0000010278PAULINO URBANO RADILLA                                 NOMINA                                                          0000       00
300010000000000002414550100000000090359067452                              0000010467YOLANDA MAYA PAHUA                                     NOMINA                                                          0000       00
300010000000000004551530100000000090361031457                              0000010490MARBELLA MARILEZ GUILLEN                               NOMINA                                                          0000       00
300010000000000000961160100000000090119109395                              0000010795PAOLA ALVAREZ CARDENAS                                 NOMINA                                                          0000       00
300010000000000003089180100000000090382491911                              0000010947ALEXIS ALBERTO TINOCO CALDERON                         NOMINA                                                          0000       00
300010000000000006510610100000000090239964019                              0000011005CECILIA GIOVANNA RUIZ LOZANO                           NOMINA                                                          0000       00
300010000000000002675400100000000090299592463                              0000011026GRECIA MARGARITA SALAZAR AGUILERA                      NOMINA                                                          0000       00
300010000000000003401080100000000090468868414                              0000011169MARCO ANTONIO LEDESMA HERNANDEZ                        NOMINA                                                          0000       00
300010000000000002242490100000000090101121576                              0000011530VERONICA COLIN GONZALEZ                                NOMINA                                                          0000       00
300010000000000001800180100000000090176736541                              0000011533LIZZET MEZA FIGUEROA                                   NOMINA                                                          0000       00
300010000000000002892230100000000090391018277                              0000011557KAREM ROCIO RODRIGUEZ SERNA                            NOMINA                                                          0000       00
300010000000000005276220100000000090416597781                              0000011603CRISTINA DEL CARMEN QUEZADA AGUILA                     NOMINA                                                          0000       00
300010000000000002364660100000000090405935146                              0000011621ARISBETH RAMIREZ SOTO                                  NOMINA                                                          0000       00
300010000000000004309710100000000070153856514                              0000011645JOSE ANTONIO VALENTIN LORENZO                          NOMINA                                                          0000       00
300010000000000001203630100000000090245396464                              0000011733ROSALBA GENCHI GONZALEZ                                NOMINA                                                          0000       00
300010000000000005276220100000000090362383365                              0000011734BLADIMIR GONZALEZ PALACIOS                             NOMINA                                                          0000       00
300010000000000002675480100000000070131944940                              0000011758BRANDON EDIBALDO RAMOS VAZQUEZ                         NOMINA                                                          0000       00
300010000000000001987730100000000090294657745                              0000011764FELIPE DE JESUS VILLANUEVA CASTRO                      NOMINA                                                          0000       00
300010000000000003089080100000000090434569671                              0000011771MARTHA LAURA ALONSO LOPEZ                              NOMINA                                                          0000       00
300010000000000002892310100000000090424828857                              0000011836ARACELI ARCIGA PENA                                    NOMINA                                                          0000       00
300010000000000002565770100000000090273480535                              0000011838VICTOR RAMON DAVILA VALDEZ                             NOMINA                                                          0000       00
300010000000000002235370100000000070161917883                              0000011904PAULINA DIAZ QUIROZ                                    NOMINA                                                          0000       00
300010000000000002892310100000000090444533136                              0000012048DULCE IVETH MACIEL GOMEZ                               NOMINA                                                          0000       00
300010000000000002716920100000000090448951765                              0000037491PALOMA ELIZABETH SALDIERNA MALDONADO                   NOMINA                                                          0000       00
300010000000000002892310100000000090442106257                              0000901852CINTIA YASMIN DIAZ UVILLADA                            NOMINA                                                          0000       00
300010000000000004270070100000000090422567533                              0000903525ISMAEL MEJIA CRUZ                                      NOMINA                                                          0000       00
4001000027000000000008527383000001000000000008527383
