100001E1021202165505232207     10212021
2000020010068BUCIO                         BETANCOURT          JORGE ALFREDO                 60561637253     000000000000343247
2000030010072MEJIA                         GOMEZ               SILVERIO                      60571154183     000000000000085145
2000040010116SANCHEZ                       MEJIA               MARIO ALBERTO                 60583624882     000000000000503563
2000050010545MORFIN                        ANCIRA              MERY ESTEFANIA                60589586912     000000000000308909
2000060011445FLORES                        RODRIGUEZ           LILIANA                       56686075222     000000000000211021
2000070011520BALLESTEROS                   SANCHEZ             LAURA YANETH                  23000456115     000000000000298208
2000080011676VELAZQUEZ                     OLGUIN              VERONICA MARCELA              56780627970     000000000000360106
2000090012024PARDO                         OROZCO              ESTELA                        56721299498     000000000000527642
2000100901836PALOMINO                      VAZQUEZ             JESSICA DEL ROCIO             60614950003     000000000000255014
30001100009000000000002892855
