1000005100000001416271000000000000000000000000000000000000102905760R0510112021092220210922                                                                                                                                              
32646255LOOO000222BG6     4002113300000647845175490000000002035330000000                                                                                OSCAR DANIEL LOPEZ OCEGUERA             PAGO INTERBANCARIO                      
35546187GARL930705P5A     4002113300000646113178540000000002329580000000                                                                                LAURA YANETH GAMBOA RUBIO               PAGO INTERBANCARIO                      
34647393EOVL7209089X5     4002113300000644245778810000000002452450000000                                                                                LEONOR ENCARNACION ESCOBAR VAZQUEZ      PAGO INTERBANCARIO                      
34853412RURR7803318B6     4002113300000637438569120000000005309840000000                                                                                ROMEO FRANCISCO RUIZ RODAS              PAGO INTERBANCARIO                      
34377492SOGI8010115D4     4012713300000012824377450000000002013410000000                                                                                IRMA DANIELA SOTO GUTIERREZ             PAGO INTERBANCARIO                      
35993372MOML900704ESA     4012718000000163328344720000000005325630000000                                                                                LUIS ANTONIO MORALES MEDINA             PAGO INTERBANCARIO                      
33607758LOLS9405277IA     4012710500000139553795380000000002142070000000                                                                                SHIRLEY YESENIA LOPEZ DE LEON           PAGO INTERBANCARIO                      
31809237LOLO901206263     4012713300000011033010020000000003356400000000                                                                                OTNIEL LOPEZ LUNA                       PAGO INTERBANCARIO                      
35601172MAGB7008185K7     4012711400000011517242070000000002725400000000                                                                                BERNARDO MALDONADO GUZMAN               PAGO INTERBANCARIO                      
33021557RIAE931205897     4012713300000132809853000000000002942160000000                                                                                ERVIN OSVALDO RIVAS AGUILERA            PAGO INTERBANCARIO                      
35787476CUSL9610167W0     4012712700000130218328510000000004143870000000                                                                                LORENA CRUZ SANCHO                      PAGO INTERBANCARIO                      
31644631RERR900210C35     4012712100000130578443690000000005325830000000                                                                                RUTH ELIZABETH REYES REYES              PAGO INTERBANCARIO                      
32902265CULE631025MV0     4012712100000131290708380000000001767010000000                                                                                ERICELDA CRUZ LAZARO                    PAGO INTERBANCARIO                      
32721802VAOL920313J27     4012711100000011387137840000000001984560000000                                                                                JOSE LUIS VAZQUEZ OVALLES               PAGO INTERBANCARIO                      
34451377SAPL820718553     4012712100000133842365010000000001984560000000                                                                                JOSE LUIS SALAS PEREZ                   PAGO INTERBANCARIO                      
35205233GOAM900305Q58     4012784100000170148770530000000002019790000000                                                                                MANUEL DE JESUS GOMEZ ARIAS             PAGO INTERBANCARIO                      
31162816PALJ890808R60     4012713300000011466375000000000001948570000000                                                                                JOSUE EMANUEL PALOMEQUE LOPEZ           PAGO INTERBANCARIO                      
33764404CULS8901163G7     4012710500000011392729390000000002097110000000                                                                                SAULO AARON CRUZ LOPEZ                  PAGO INTERBANCARIO                      
33831057COMS9108186E2     4012711400000011599446780000000006326030000000                                                                                SULMA BEATRIZ COTOC MORADO              PAGO INTERBANCARIO                      
31648318CUGI891113KTA     4012712100000010190750810000000001964440000000                                                                                JOSE IGNACIO DE LA CRUZ GOMEZ           PAGO INTERBANCARIO                      
32350983HENY9407174Q8     4012711100000136332495340000000002285370000000                                                                                YASURI HERNANDEZ NINO                   PAGO INTERBANCARIO                      
32126370ROVF9209267W3     4012711100000136273321010000000001945510000000                                                                                FRANCY BERENICE ROBLERO VAZQUEZ         PAGO INTERBANCARIO                      
34347823HEMM880707ED8     4012712200000013567194100000000004100670000000                                                                                MABEL INES HERNANDEZ MORALES            PAGO INTERBANCARIO                      
34155796MOOM880302KR5     4012713300000011100936590000000001285780000000                                                                                MANUEL DE JESUS MOLINA OROZCO           PAGO INTERBANCARIO                      
31020798CUPJ94070469A     4012711100000013283735230000000001934020000000                                                                                JORGE ALBERTO CRUZ PALOMEQUE            PAGO INTERBANCARIO                      
36690014CIGS900907B51     4012711400000013005426960000000001964830000000                                                                                SERGIO CISNEROS GALDAMEZ                PAGO INTERBANCARIO                      
32716967HEAE8308318V1     4012713500000012034937790000000002252310000000                                                                                EDUIN RAMON HERNANDEZ ARREOLA           PAGO INTERBANCARIO                      
34676847RORL801214MV6     4012712100000131347594030000000002725550000000                                                                                LILIANA DE LA ROSA RUIZ                 PAGO INTERBANCARIO                      
31966312OOVJ870424PS4     4012713300000013884770810000000002725550000000                                                                                JUAN ALEJANDRO ORDONEZ VELAZQUEZ        PAGO INTERBANCARIO                      
33172605CIMC921225IV3     4012711100000011130367580000000002725550000000                                                                                CARLOS MANUEL CITALAN MINA              PAGO INTERBANCARIO                      
34041463CAOE960527682     4012712100000013231367390000000002725550000000                                                                                EVELIO CAMPERO OSORIO                   PAGO INTERBANCARIO                      
31780534MAMG890625R5A     4012713300000013189523690000000002664740000000                                                                                GUILLERMO MARTINEZ MEZA                 PAGO INTERBANCARIO                      
32804170RARA970830D37     4012718000000162655622930000000001965490000000                                                                                ANTONIO RAMOS RAMOS                     PAGO INTERBANCARIO                      
31606696GUPS880806TA0     4012713500000011562448420000000003464350000000                                                                                SIXTO GUTIERREZ PINEDA                  PAGO INTERBANCARIO                      
33323740EIRJ940222413     4012712700000137873598850000000002725550000000                                                                                JHOVANI ESPINOZA RAMIREZ                PAGO INTERBANCARIO                      
33628595RARR910809QR4     4012711400000138507169860000000002725550000000                                                                                ROMEO RAMIREZ RAMIREZ                   PAGO INTERBANCARIO                      
32700512GAHS7906271W6     4013711400001040610229280000000002725550000000                                                                                SANDRI GABRIEL HERNANDEZ                PAGO INTERBANCARIO                      
36245979GIGJ730912CK3     4013713300001037757973430000000001786810000000                                                                                JUAN CARLOS GIRON GUERRA                PAGO INTERBANCARIO                      
36456012EOSG900608ME6     4013710000001300123461100000000002675550000000                                                                                GILBERTO ESCOBAR SALAZAR                PAGO INTERBANCARIO                      
32351366PEVR841225BK0     4013712100001040446521590000000005326420000000                                                                                MARIA DEL ROSARIO PEREZ VAZQUEZ         PAGO INTERBANCARIO                      
31439132SAGI96060261A     4013713300001015614142430000000002285370000000                                                                                ITZEL BERENICE SALVADOR GOMEZ           PAGO INTERBANCARIO                      
34984826AELK921202M72     4013712700001039399185890000000003032150000000                                                                                KARLA VIVIANA ARREOLA LOPEZ             PAGO INTERBANCARIO                      
33855322CIOF960716314     4013713300001018684382230000000001983100000000                                                                                FANNY DEL CARMEN CITALAN ORDONEZ        PAGO INTERBANCARIO                      
36988093PARF841024CJ6     4013711400001029609296290000000005326420000000                                                                                FANNY PALMA RAYA                        PAGO INTERBANCARIO                      
33299345PALM841007IK2     4013761600001300183953030000000003139440000000                                                                                MARITZA PASCACIO LORENZANA              PAGO INTERBANCARIO                      
31781310REGM950523LE7     4013713300001016291339030000000002285290000000                                                                                MIRIAM CONSUELO REYNOZA GARCIA          PAGO INTERBANCARIO                      
33094439MERJ800727MJ2     4013713300001030678750670000000002912440000000                                                                                JOSUE IXAEL MEJIA RUBIO                 PAGO INTERBANCARIO                      
31554551AUMG970824NJA     4013713300001023246180810000000002851960000000                                                                                GREYSI NATALY ARGUETA MARTINEZ          PAGO INTERBANCARIO                      
35939259MOGM790605TQ3     4013712100001034943808490000000001808110000000                                                                                MARGARITA MONTES GAMINO                 PAGO INTERBANCARIO                      
31203557PEGE881026F1A     4013711400001006410886290000000001949020000000                                                                                ESTUARDO RAMON PEREZ GODINEZ            PAGO INTERBANCARIO                      
35565820DORG770822PY6     4013711400001038562069760000000001129060000000                                                                                GUSTAVO DOMINGUEZ REYES                 PAGO INTERBANCARIO                      
