000000000263289802000000000116519555MXP0000000006764.89KATIA IVETTE ROSAS HERNANDEZ  4000237 PAGO POR CUENTAY ORDEN SUEL0011249H
000000000220401013000000000116519555MXP0000000009570.09JULIETA PEREZ CASTILLO        4000237 PAGO POR CUENTAY ORDEN SUEL0050449H
000000000239483355000000000116519555MXP0000000003395.50DAVID GARCIA HERNANDEZ        4000237 PAGO POR CUENTAY ORDEN SUEL0080119H
000000000179426934000000000116519555MXP0000000005640.82ROCIO HERNANDEZ HILARIO       4000237 PAGO POR CUENTAY ORDEN SUEL0090068H
000000000410694742000000000116519555MXP0000000004471.50MARIA JOSE GARCIA PALACIOS    4000237 PAGO POR CUENTAY ORDEN SUEL0081005H
000000000329611662000000000116519555MXP0000000004110.87ANA YURITZA VALDEZ TOVAR      4000237 PAGO POR CUENTAY ORDEN SUEL0120027H
000000000201203251000000000116519555MXP0000000004370.85ELI MAGALI MEDINA GARCIA      4000237 PAGO POR CUENTAY ORDEN SUEL0200128H
000000000346472781000000000116519555MXP0000000007578.97SANDRA LORENA RAMIREZ VELAZQUE4000237 PAGO POR CUENTAY ORDEN SUEL0200199H
000000000383109999000000000116519555MXP0000000003260.62ANA ROSA DE ANDA MORALES      4000237 PAGO POR CUENTAY ORDEN SUEL0200360H
000000000385271963000000000116519555MXP0000000005276.02MARCO ANTONIO SANCHEZ VAZQUEZ 4000237 PAGO POR CUENTAY ORDEN SUEL0200378H
000000000403598185000000000116519555MXP0000000007578.97ANDREA JULIETA CRUZ ARROYO    4000237 PAGO POR CUENTAY ORDEN SUEL0200613H
000000000208994602000000000116519555MXP0000000003610.15ESTHER MAGDALENA CEDILLO OLIVA4000237 PAGO POR CUENTAY ORDEN SUEL0200732H
000000000144735399000000000116519555MXP0000000005276.42LAURA ISELA ARELLANO BONILLA  4000237 PAGO POR CUENTAY ORDEN SUEL0201472H
000000000421286646000000000116519555MXP0000000004267.74GERARDO RODRIGUEZ LOPEZ       4000237 PAGO POR CUENTAY ORDEN SUEL0301697H
000000000283983071000000000116519555MXP0000000007578.97MARTHA GUADALUPE KUMUL NAHUAT 4000237 PAGO POR CUENTAY ORDEN SUEL0400059H
000000000289687741000000000116519555MXP0000000005276.02LETICIA DEL ANGEL PEREZ       4000237 PAGO POR CUENTAY ORDEN SUEL0400188H
000000000406644102000000000116519555MXP0000000003528.58BRENDA MAGALY AVENDANO GONZALE4000237 PAGO POR CUENTAY ORDEN SUEL0302259H
000000000346682239000000000116519555MXP0000000004945.59DAFNE AGLAE CUAUTLI GARCIA    4000237 PAGO POR CUENTAY ORDEN SUEL0600227H
000000000472916016000000000116519555MXP0000000003157.58ADRIAN SEGURA RAMIREZ         4000237 PAGO POR CUENTAY ORDEN SUEL0600746H
000000000232246668000000000116519555MXP0000000006240.36LUIS ADRIAN ORTIZ ZARZA       4000237 PAGO POR CUENTAY ORDEN SUEL0700257H
000000000250375548000000000116519555MXP0000000007578.97JAVIER LOPEZ RIVAS            4000237 PAGO POR CUENTAY ORDEN SUEL0700319H
000000000287597842000000000116519555MXP0000000004913.43CESAR GARDUNO BARAJAS         4000237 PAGO POR CUENTAY ORDEN SUEL0700452H
000000000368336555000000000116519555MXP0000000006038.64GUADALUPE CITLALI LAZCANO PENA4000237 PAGO POR CUENTAY ORDEN SUEL0700806H
000000000298259388000000000116519555MXP0000000005276.02JOSE DANIEL DURAN ZEPEDA      4000237 PAGO POR CUENTAY ORDEN SUEL0701018H
000000000395108785000000000116519555MXP0000000004471.50LAURA ANGELICA MARTINEZ CABALL4000237 PAGO POR CUENTAY ORDEN SUEL0701021H
000000000274713517000000000116519555MXP0000000007008.50MARIA DE LA CRUZ EMBATI RAMIRE4000237 PAGO POR CUENTAY ORDEN SUEL0701382H
000000000411387266000000000116519555MXP0000000005276.42IGNACIO ROSAS PEREZ           4000237 PAGO POR CUENTAY ORDEN SUEL0701422H
000000000285676192000000000116519555MXP0000000004471.50ADRIANN RENEE PARRAL RODRIGUEZ4000237 PAGO POR CUENTAY ORDEN SUEL0902431H
000000000122036986000000000116519555MXP0000000008018.97SANDRA PAOLA CHAVEZ MORALES   4000237 PAGO POR CUENTAY ORDEN SUEL0902940H
000000000453743739000000000116519555MXP0000000003306.64MARGARITA SILVIA LINARES LOPEZ4000237 PAGO POR CUENTAY ORDEN SUEL0903509H
000000000435985237000000000116519555MXP0000000008076.32REYNA MANDUJANO GONZALEZ      4000237 PAGO POR CUENTAY ORDEN SUEL0904154H
000000000455399881000000000116519555MXP0000000005276.42YOBANA SANCHEZ ANTONIO        4000237 PAGO POR CUENTAY ORDEN SUEL0904319H
000000000464744834000000000116519555MXP0000000004471.50DALIA LIZBETH NICIO RUIZ      4000237 PAGO POR CUENTAY ORDEN SUEL0908054H
000000000460716666000000000116519555MXP0000000004868.51OSCAR LUCIANO ALMARAL RODRIGUE4000237 PAGO POR CUENTAY ORDEN SUEL0908513H
000000000147277103000000000116519555MXP0000000005276.42ALEJANDRO SANCHEZ ALQUICIRA   4000237 PAGO POR CUENTAY ORDEN SUEL0909057H
000000000201670305000000000116519555MXP0000000003616.09ARTURO GUZMAN IBANEZ          4000237 PAGO POR CUENTAY ORDEN SUEL0909984H
000000000233162611000000000116519555MXP0000000004471.50MIRIAM FLORES ECHEVERRIA      4000237 PAGO POR CUENTAY ORDEN SUEL0910908H
000000000413570599000000000116519555MXP0000000003306.64INGRID RAQUEL CRUZ SILVA      4000237 PAGO POR CUENTAY ORDEN SUEL0910929H
000000000460345234000000000116519555MXP0000000003616.10LUIS ANTONIO XOSPA RODRIGUEZ  4000237 PAGO POR CUENTAY ORDEN SUEL0911471H
000000000436038401000000000116519555MXP0000000005867.57YOCELYN LAZCANO LOSOYA        4000237 PAGO POR CUENTAY ORDEN SUEL0912435H
000000000298379693000000000116519555MXP0000000005600.85JESUS ALEJANDRO HERNANDEZ REYE4000237 PAGO POR CUENTAY ORDEN SUEL0912519H
000000006462247275000000000116519555MXP0000000007578.97YEIRA LUCAS SALAZAR           4002137 PAGO POR CUENTAY ORDEN SUEL0021253H
000000006451061646000000000116519555MXP0000000004471.50MARTHA PATRICIA DIEGO LARA    4002137 PAGO POR CUENTAY ORDEN SUEL0091822H
000000006344326510000000000116519555MXP0000000005543.30KARINA GRACIA ENRIQUEZ        4002137 PAGO POR CUENTAY ORDEN SUEL0120024H
000000006423024219000000000116519555MXP0000000006681.26VIRIDIANA DEL CARMEN VELAZQUEZ4002137 PAGO POR CUENTAY ORDEN SUEL0120206H
000000006407384050000000000116519555MXP0000000003306.64MARIA DE JESUS GONZALEZ ROSALE4002137 PAGO POR CUENTAY ORDEN SUEL0904108H
000000006480520240000000000116519555MXP0000000003616.10ADRIANA ELIZABETH CAPI GARCIA 4002137 PAGO POR CUENTAY ORDEN SUEL0905425H
000000000002214265000000000116519555MXP0000000004471.50ANGELICA FLORES OLVERA        4003037 PAGO POR CUENTAY ORDEN SUEL0903831H
000000000002023819000000000116519555MXP0000000004050.67DANIEL LONGINO SALVADOR       4003037 PAGO POR CUENTAY ORDEN SUEL0906784H
000000008507989377000000000116519555MXP0000000004050.67LUIS EMMANUEL MALDONADO ALCAZA4004437 PAGO POR CUENTAY ORDEN SUEL0903458H
000000005603042665000000000116519555MXP0000000004051.30VICTOR ALONSO AYALA RUELAS    4004437 PAGO POR CUENTAY ORDEN SUEL0120545H
000000000322652794000000000116519555MXP0000000005276.42MARIA INES HERNANDEZ SANCHEZ  4007237 PAGO POR CUENTAY ORDEN SUEL0091103H
000000001023208187000000000116519555MXP0000000004471.50GUILLERMO LARA AVENDANO       4007237 PAGO POR CUENTAY ORDEN SUEL0090290H
000000000357104044000000000116519555MXP0000000006438.04MARCO ANTONIO BAUTISTA VICENCI4007237 PAGO POR CUENTAY ORDEN SUEL0050312H
000000000289261431000000000116519555MXP0000000005276.42MARIA TRINIDAD ASCENCIO MEDINA4007237 PAGO POR CUENTAY ORDEN SUEL0080338H
000000000255390363000000000116519555MXP0000000007578.97MARCO ANTONIO SEVILLA VAZQUEZ 4007237 PAGO POR CUENTAY ORDEN SUEL0020005H
000000000288716998000000000116519555MXP0000000007947.83MONICA LIZBETH BEDOLLA HERNAND4007237 PAGO POR CUENTAY ORDEN SUEL0020504H
000000001143817405000000000116519555MXP0000000004045.32SUGHEY GUADALUPE VELASCO ROBAL4007237 PAGO POR CUENTAY ORDEN SUEL0907943H
000000000592973416000000000116519555MXP0000000003616.10MIGUEL ALEJANDRO RUIZ RUIZ    4007237 PAGO POR CUENTAY ORDEN SUEL0910077H
000000001151384359000000000116519555MXP0000000004050.67MARIA FERNANDA COUOH DIAZ     4007237 PAGO POR CUENTAY ORDEN SUEL0911339H
000000001353935113000000000116519555MXP0000000003616.10PAMELA VIANEY OLVERA GARCIA   4012737 PAGO POR CUENTAY ORDEN SUEL0911642H
000000001393582987000000000116519555MXP0000000004050.67LAURA BERENICE SANCHEZ ESQUIVE4012737 PAGO POR CUENTAY ORDEN SUEL0911204H
000000001370585827000000000116519555MXP0000000004050.67FERNANDO EMMANUEL MARTINEZ CEJ4012737 PAGO POR CUENTAY ORDEN SUEL0911982H
000000000157605464000000000116519555MXP0000000003616.10DANIEL NUNEZ OLIVARES         4012737 PAGO POR CUENTAY ORDEN SUEL0910728H
000000001371741898000000000116519555MXP0000000004050.69HASIBI DENNIS DIAZ CRUZ       4012737 PAGO POR CUENTAY ORDEN SUEL0909707H
000000000159505726000000000116519555MXP0000000003053.13ARMANDO MANUEL SANCHEZ TORRES 4012737 PAGO POR CUENTAY ORDEN SUEL0909171H
000000001316831790000000000116519555MXP0000000004471.50GLORIA IVONNE ALAVEZ BARRERA  4012737 PAGO POR CUENTAY ORDEN SUEL0020625H
000000000121546147000000000116519555MXP0000000003616.10LILIANA ALDANA BAUTISTA       4012737 PAGO POR CUENTAY ORDEN SUEL0022591H
000000001350556139000000000116519555MXP0000000003849.84SHUBERT IBRAHIM MOO CHI       4012737 PAGO POR CUENTAY ORDEN SUEL0041016H
000000000138386398000000000116519555MXP0000000007969.26CAROLINA MARTINEZ HILARIO     4012737 PAGO POR CUENTAY ORDEN SUEL0090493H
000000001359143476000000000116519555MXP0000000005276.42ANTONIO EDUARDO AGUILAR BUENFI4012737 PAGO POR CUENTAY ORDEN SUEL0040563H
000000000133949960000000000116519555MXP0000000004471.50ANEL SAHIAN RIZO GALINDO      4012737 PAGO POR CUENTAY ORDEN SUEL0080896H
000000000129325982000000000116519555MXP0000000003630.47SANDRA LIZBETH PEREZ FLORES   4012737 PAGO POR CUENTAY ORDEN SUEL0093000H
000000001322320714000000000116519555MXP0000000004878.61JADE SHUHEI TEC CHAN          4012737 PAGO POR CUENTAY ORDEN SUEL0130531H
000000001315080092000000000116519555MXP0000000004471.50VIRGINIA DE LA ROSA PARRA     4012737 PAGO POR CUENTAY ORDEN SUEL0202195H
000000000155634426000000000116519555MXP0000000002675.55OSSIEL MENDEZ ALVAREZ         4012737 PAGO POR CUENTAY ORDEN SUEL0906865H
000000001350705641000000000116519555MXP0000000003616.10CARLOS ALBERTO CORTES QUIROZ  4012737 PAGO POR CUENTAY ORDEN SUEL0907101H
000000001360206291000000000116519555MXP0000000005278.01JAIMY GABRIELA GUERRERO ALVARE4012737 PAGO POR CUENTAY ORDEN SUEL0909017H
000000000124563526000000000116519555MXP0000000004358.36FERNANDA LEYVA HERNANDEZ      4012737 PAGO POR CUENTAY ORDEN SUEL0301826H
000000000140891625000000000116519555MXP0000000011243.25IVAN HERNANDEZ PEREZ          4012737 PAGO POR CUENTAY ORDEN SUEL0302492H
000000001333997381000000000116519555MXP0000000004471.50MIRIAM RIVAS GONZALEZ         4012737 PAGO POR CUENTAY ORDEN SUEL0701947H
000000001344281006000000000116519555MXP0000000006438.04GADIEL UZIEL TOVILLA LOPEZ    4012737 PAGO POR CUENTAY ORDEN SUEL0800419H
000000001336386538000000000116519555MXP0000000003616.10RICARDO BECERRA CRUZ          4012737 PAGO POR CUENTAY ORDEN SUEL0902935H
000000000418457452000000000116519555MXP0000000005638.55CLAUDIA ADRIANA VEGA SERRET   4013737 PAGO POR CUENTAY ORDEN SUEL0700474H
000000000110030539000000000116519555MXP0000000004471.50KARLA ISABEL GODINEZ RADILLA  4013737 PAGO POR CUENTAY ORDEN SUEL0400920H
000000000407899526000000000116519555MXP0000000004471.50CAROL SHUNASHI GUTIERREZ CIRIA4013737 PAGO POR CUENTAY ORDEN SUEL0521378H
000000000180871220000000000116519555MXP0000000004471.50REYNA GUADALUPE NUNEZ GARCIA  4013737 PAGO POR CUENTAY ORDEN SUEL0903518H
000000000404394172000000000116519555MXP0000000004050.67JOSELYNE ALEJANDRA RUIZ ROMERO4013737 PAGO POR CUENTAY ORDEN SUEL0905481H
000000000418425089000000000116519555MXP0000000005276.42MARCO ANTONIO JIMENEZ CASTILLO4013737 PAGO POR CUENTAY ORDEN SUEL0904113H
000000000013107926000000000116519555MXP0000000003798.39ROCIO EUNICE CHAVEZ LOPEZ     4013737 PAGO POR CUENTAY ORDEN SUEL0081051H
000000000174417097000000000116519555MXP0000000002828.32YEREMIT CASANDRA RODRIGUEZ ARE4013737 PAGO POR CUENTAY ORDEN SUEL0080868H
000000000369527865000000000116519555MXP0000000005191.00JAQUELINE JIMENEZ ESPINOZA    4013737 PAGO POR CUENTAY ORDEN SUEL0030082H
000000000214810005000000000116519555MXP0000000004471.50ALONDRA ROMERO GONZALEZ       4013737 PAGO POR CUENTAY ORDEN SUEL0030895H
000000000345787378000000000116519555MXP0000000003615.66EVELIN PILAR RIVERA AVILES    4013737 PAGO POR CUENTAY ORDEN SUEL0020585H
000000000129079890000000000116519555MXP0000000006467.59DIANA ITZEL AGUILAR ESPINOSA  4013737 PAGO POR CUENTAY ORDEN SUEL0912570H
