1000009500000004747542700000000000000000000000000000000000116519555R0510112021122220211222                                                                                                                                              
36963740ROHK900117N11     4000254000009026328980260000000006764890000000                                                                                KATIA IVETTE ROSAS HERNANDEZ            PAGO INTERBANCARIO                      
34684791PECJ940323HJ8     4000218000009022040101390000000009570090000000                                                                                JULIETA PEREZ CASTILLO                  PAGO INTERBANCARIO                      
34323880GAHD891202GN3     4000210000009023948335520000000003395500000000                                                                                DAVID GARCIA HERNANDEZ                  PAGO INTERBANCARIO                      
34426998HEHR921224MX1     4000230300009017942693460000000005640820000000                                                                                ROCIO HERNANDEZ HILARIO                 PAGO INTERBANCARIO                      
31845158GAPJ940318GM3     4000210000009041069474270000000004471500000000                                                                                MARIA JOSE GARCIA PALACIOS              PAGO INTERBANCARIO                      
35524071VATA870720H61     4000277000009032961166250000000004110870000000                                                                                ANA YURITZA VALDEZ TOVAR                PAGO INTERBANCARIO                      
35412424MEGE830521TK5     4000253700009020120325120000000004370850000000                                                                                ELI MAGALI MEDINA GARCIA                PAGO INTERBANCARIO                      
32925245RAVS8912173V2     4000201000009034647278100000000007578970000000                                                                                SANDRA LORENA RAMIREZ VELAZQUEZ         PAGO INTERBANCARIO                      
33129477AAMA861020R60     4000232000009038310999970000000003260620000000                                                                                ANA ROSA DE ANDA MORALES                PAGO INTERBANCARIO                      
34342302SAVM880203F29     4000226000009038527196330000000005276020000000                                                                                MARCO ANTONIO SANCHEZ VAZQUEZ           PAGO INTERBANCARIO                      
33418684CUAA8008161I9     4000265000009040359818550000000007578970000000                                                                                ANDREA JULIETA CRUZ ARROYO              PAGO INTERBANCARIO                      
32573270CEOE790701TD9     4000232000009020899460260000000003610150000000                                                                                ESTHER MAGDALENA CEDILLO OLIVARES       PAGO INTERBANCARIO                      
36228439AEBL940823SP6     4000222500007014473539970000000005276420000000                                                                                LAURA ISELA ARELLANO BONILLA            PAGO INTERBANCARIO                      
32243198ROLG9706016I1     4000268000009042128664620000000004267740000000                                                                                GERARDO RODRIGUEZ LOPEZ                 PAGO INTERBANCARIO                      
34321151KUNM9011118A2     4000269100009028398307100000000007578970000000                                                                                MARTHA GUADALUPE KUMUL NAHUAT           PAGO INTERBANCARIO                      
34252471AEPL920117E82     4000288800009028968774190000000005276020000000                                                                                LETICIA DEL ANGEL PEREZ                 PAGO INTERBANCARIO                      
35352837AEGB960212LB2     4000218000009040664410250000000003528580000000                                                                                BRENDA MAGALY AVENDANO GONZALEZ         PAGO INTERBANCARIO                      
31951802CUGD8803212S1     4000232000009034668223930000000004945590000000                                                                                DAFNE AGLAE CUAUTLI GARCIA              PAGO INTERBANCARIO                      
33653135SERA900731SF9     4000226100009047291601640000000003157580000000                                                                                ADRIAN SEGURA RAMIREZ                   PAGO INTERBANCARIO                      
34808190OIZL821229211     4000230800009023224666830000000006240360000000                                                                                LUIS ADRIAN ORTIZ ZARZA                 PAGO INTERBANCARIO                      
33534036LORJ870214DF8     4000218000009025037554830000000007578970000000                                                                                JAVIER LOPEZ RIVAS                      PAGO INTERBANCARIO                      
31846447GABC800918GR0     4000218000009028759784220000000004913430000000                                                                                CESAR GARDUNO BARAJAS                   PAGO INTERBANCARIO                      
35029260LAPG90121251A     4000245000009036833655580000000006038640000000                                                                                GUADALUPE CITLALI LAZCANO PENA          PAGO INTERBANCARIO                      
31738149DUZD960918D80     4000218000009029825938840000000005276020000000                                                                                JOSE DANIEL DURAN ZEPEDA                PAGO INTERBANCARIO                      
36616881MACL910207SR3     4000218000009039510878540000000004471500000000                                                                                LAURA ANGELICA MARTINEZ CABALLERO       PAGO INTERBANCARIO                      
31758568EARC900720RY6     4000244100009027471351710000000007008500000000                                                                                MARIA DE LA CRUZ EMBATI RAMIREZ         PAGO INTERBANCARIO                      
36228165ROPI880731KY6     4000242400009041138726690000000005276420000000                                                                                IGNACIO ROSAS PEREZ                     PAGO INTERBANCARIO                      
34945944PARA960305PHA     4000218000009028567619200000000004471500000000                                                                                ADRIANN RENEE PARRAL RODRIGUEZ          PAGO INTERBANCARIO                      
31990184CAMS870123SL7     4000218000009012203698650000000008018970000000                                                                                SANDRA PAOLA CHAVEZ MORALES             PAGO INTERBANCARIO                      
34111666LILM960721CL7     4000254200009045374373970000000003306640000000                                                                                MARGARITA SILVIA LINARES LOPEZ          PAGO INTERBANCARIO                      
33181322MAGR910117E37     4000210000009043598523720000000008076320000000                                                                                REYNA MANDUJANO GONZALEZ                PAGO INTERBANCARIO                      
32897788SAAY920828IJ7     4000261600009045539988140000000005276420000000                                                                                YOBANA SANCHEZ ANTONIO                  PAGO INTERBANCARIO                      
34169544NIRD900121IN1     4000218000009046474483400000000004471500000000                                                                                DALIA LIZBETH NICIO RUIZ                PAGO INTERBANCARIO                      
34956697AARO9306017F8     4000273000009046071666690000000004868510000000                                                                                OSCAR LUCIANO ALMARAL RODRIGUEZ         PAGO INTERBANCARIO                      
32318699SAAA980515BE0     4000218000007014727710320000000005276420000000                                                                                ALEJANDRO SANCHEZ ALQUICIRA             PAGO INTERBANCARIO                      
36884483GUIA910104V71     4000218000009020167030580000000003616090000000                                                                                ARTURO GUZMAN IBANEZ                    PAGO INTERBANCARIO                      
31107444FOEM910822KB5     4000218000009023316261110000000004471500000000                                                                                MIRIAM FLORES ECHEVERRIA                PAGO INTERBANCARIO                      
32450381CUSI960919RJ2     4000229000009041357059930000000003306640000000                                                                                INGRID RAQUEL CRUZ SILVA                PAGO INTERBANCARIO                      
33016359XORL950123UI2     4000218000009046034523410000000003616100000000                                                                                LUIS ANTONIO XOSPA RODRIGUEZ            PAGO INTERBANCARIO                      
31467189LALY9801034KA     4000202800009043603840180000000005867570000000                                                                                YOCELYN LAZCANO LOSOYA                  PAGO INTERBANCARIO                      
34587524HERJ9507107K6     4000218000009029837969360000000005600850000000                                                                                JESUS ALEJANDRO HERNANDEZ REYES         PAGO INTERBANCARIO                      
36696258LUSY870919P7A     4002142000000646224727500000000007578970000000                                                                                YEIRA LUCAS SALAZAR                     PAGO INTERBANCARIO                      
36826645DILM950627T60     4002188800000645106164640000000004471500000000                                                                                MARTHA PATRICIA DIEGO LARA              PAGO INTERBANCARIO                      
32007664GAEK850903AQ2     4002177700000634432651040000000005543300000000                                                                                KARINA GRACIA ENRIQUEZ                  PAGO INTERBANCARIO                      
36506701VEMV9109262Y9     4002177000000642302421900000000006681260000000                                                                                VIRIDIANA DEL CARMEN VELAZQUEZ MACIAS   PAGO INTERBANCARIO                      
31634238GORJ901220197     4002154000000640738405070000000003306640000000                                                                                MARIA DE JESUS GONZALEZ ROSALES         PAGO INTERBANCARIO                      
32493935CAGX870708716     4002118000000648052024010000000003616100000000                                                                                ADRIANA ELIZABETH CAPI GARCIA           PAGO INTERBANCARIO                      
33806641FOOA970819GJ6     4003029000009000221426510000000004471500000000                                                                                ANGELICA FLORES OLVERA                  PAGO INTERBANCARIO                      
33604101LOSD921211HQ2     4003018000009000202381980000000004050670000000                                                                                DANIEL LONGINO SALVADOR                 PAGO INTERBANCARIO                      
34076252MAAL8907039H5     4004410000000850798937760000000004050670000000                                                                                LUIS EMMANUEL MALDONADO ALCAZAR         PAGO INTERBANCARIO                      
31308703AARV9208071Y9     4004477700002560304266580000000004051300000000                                                                                VICTOR ALONSO AYALA RUELAS              PAGO INTERBANCARIO                      
34890012HESI931021MM9     4007265000000032265279460000000005276420000000                                                                                MARIA INES HERNANDEZ SANCHEZ            PAGO INTERBANCARIO                      
33931106LAAG941120GD7     4007284000000102320818710000000004471500000000                                                                                GUILLERMO LARA AVENDANO                 PAGO INTERBANCARIO                      
36145022BAVM891221U49     4007218000000035710404440000000006438040000000                                                                                MARCO ANTONIO BAUTISTA VICENCIO         PAGO INTERBANCARIO                      
31680992AEMT900705B23     4007265000000028926143100000000005276420000000                                                                                MARIA TRINIDAD ASCENCIO MEDINA          PAGO INTERBANCARIO                      
36117293SEVM890105E45     4007218000000025539036360000000007578970000000                                                                                MARCO ANTONIO SEVILLA VAZQUEZ           PAGO INTERBANCARIO                      
36655530BEHM8702159G4     4007254200000028871699880000000007947830000000                                                                                MONICA LIZBETH BEDOLLA HERNANDEZ        PAGO INTERBANCARIO                      
33585731VERS8504228JA     4007270000000114381740580000000004045320000000                                                                                SUGHEY GUADALUPE VELASCO ROBALDINO      PAGO INTERBANCARIO                      
34810116RURM940217FZ1     4007210000000059297341600000000003616100000000                                                                                MIGUEL ALEJANDRO RUIZ RUIZ              PAGO INTERBANCARIO                      
31086590CODF920410RK2     4007269100000115138435910000000004050670000000                                                                                MARIA FERNANDA COUOH DIAZ               PAGO INTERBANCARIO                      
36295906OEGP9811084C0     4012718000000135393511330000000003616100000000                                                                                PAMELA VIANEY OLVERA GARCIA             PAGO INTERBANCARIO                      
31466479SAEL850530692     4012758000000139358298720000000004050670000000                                                                                LAURA BERENICE SANCHEZ ESQUIVEL         PAGO INTERBANCARIO                      
31935061MACF941108UA9     4012732000000137058582750000000004050670000000                                                                                FERNANDO EMMANUEL MARTINEZ CEJA         PAGO INTERBANCARIO                      
36017810NUOD950525N3A     4012718000000015760546410000000003616100000000                                                                                DANIEL NUNEZ OLIVARES                   PAGO INTERBANCARIO                      
32160979DICH9811222N9     4012718000000137174189820000000004050690000000                                                                                HASIBI DENNIS DIAZ CRUZ                 PAGO INTERBANCARIO                      
31520895SATA990519MU8     4012718000000015950572630000000003053130000000                                                                                ARMANDO MANUEL SANCHEZ TORRES           PAGO INTERBANCARIO                      
35403726AABG92022076A     4012718000000131683179040000000004471500000000                                                                                GLORIA IVONNE ALAVEZ BARRERA            PAGO INTERBANCARIO                      
32271742AABL940306LZ9     4012754200000012154614760000000003616100000000                                                                                LILIANA ALDANA BAUTISTA                 PAGO INTERBANCARIO                      
36924498MOCS920407VA3     4012791000000135055613920000000003849840000000                                                                                SHUBERT IBRAHIM MOO CHI                 PAGO INTERBANCARIO                      
34436668MAHC8311171F3     4012785500000013838639810000000007969260000000                                                                                CAROLINA MARTINEZ HILARIO               PAGO INTERBANCARIO                      
34145027AUBA9306184HA     4012791000000135914347630000000005276420000000                                                                                ANTONIO EDUARDO AGUILAR BUENFIL         PAGO INTERBANCARIO                      
33902455RIGA970108RPA     4012710000000013394996010000000004471500000000                                                                                ANEL SAHIAN RIZO GALINDO                PAGO INTERBANCARIO                      
35935442PEFS9205061M7     4012765000000012932598220000000003630470000000                                                                                SANDRA LIZBETH PEREZ FLORES             PAGO INTERBANCARIO                      
33185945TECJ941127672     4012769100000132232071470000000004878610000000                                                                                JADE SHUHEI TEC CHAN                    PAGO INTERBANCARIO                      
31220665ROPV8204187I9     4012765000000131508009200000000004471500000000                                                                                VIRGINIA DE LA ROSA PARRA               PAGO INTERBANCARIO                      
33837778MEAO960826KC2     4012771100000015563442610000000002675550000000                                                                                OSSIEL MENDEZ ALVAREZ                   PAGO INTERBANCARIO                      
32019802COQC960813PY6     4012718000000135070564150000000003616100000000                                                                                CARLOS ALBERTO CORTES QUIROZ            PAGO INTERBANCARIO                      
34021596GUAJ870517PKA     4012718000000136020629190000000005278010000000                                                                                JAIMY GABRIELA GUERRERO ALVAREZ         PAGO INTERBANCARIO                      
32231447LEHF921125AJ4     4012718000000012456352650000000004358360000000                                                                                FERNANDA LEYVA HERNANDEZ                PAGO INTERBANCARIO                      
35982643HEPI801105512     4012718000000014089162550000000011243250000000                                                                                IVAN HERNANDEZ PEREZ                    PAGO INTERBANCARIO                      
36264633RIGM941003C43     4012743000000133399738140000000004471500000000                                                                                MIRIAM RIVAS GONZALEZ                   PAGO INTERBANCARIO                      
33421523TOLG920807K57     4012713000000134428100670000000006438040000000                                                                                GADIEL UZIEL TOVILLA LOPEZ              PAGO INTERBANCARIO                      
32341842BECR970318RB2     4012718000000133638653870000000003616100000000                                                                                RICARDO BECERRA CRUZ                    PAGO INTERBANCARIO                      
34913931VESC910215NV5     4013718000001041845745230000000005638550000000                                                                                CLAUDIA ADRIANA VEGA SERRET             PAGO INTERBANCARIO                      
33802963GORK920320984     4013726100001011003053970000000004471500000000                                                                                KARLA ISABEL GODINEZ RADILLA            PAGO INTERBANCARIO                      
35291310GUCC9609016N6     4013710000001040789952690000000004471500000000                                                                                CAROL SHUNASHI GUTIERREZ CIRIACO        PAGO INTERBANCARIO                      
35966681NUGR820820MX1     4013784900001018087122060000000004471500000000                                                                                REYNA GUADALUPE NUNEZ GARCIA            PAGO INTERBANCARIO                      
35024522RURJ911008NS7     4013718000001040439417210000000004050670000000                                                                                JOSELYNE ALEJANDRA RUIZ ROMERO          PAGO INTERBANCARIO                      
34275705JICM930716RH2     4013781300001041842508970000000005276420000000                                                                                MARCO ANTONIO JIMENEZ CASTILLO          PAGO INTERBANCARIO                      
33201406CALR861128LQA     4013778000001001310792680000000003798390000000                                                                                ROCIO EUNICE CHAVEZ LOPEZ               PAGO INTERBANCARIO                      
31228953ROAY960318E97     4013710000001017441709710000000002828320000000                                                                                YEREMIT CASANDRA RODRIGUEZ ARELLANO     PAGO INTERBANCARIO                      
34521712JIEJ8508032R4     4013767100001036952786530000000005191000000000                                                                                JAQUELINE JIMENEZ ESPINOZA              PAGO INTERBANCARIO                      
34640264ROGA961218NH4     4013765000001021481000540000000004471500000000                                                                                ALONDRA ROMERO GONZALEZ                 PAGO INTERBANCARIO                      
32929769RIAE921012QP9     4013742000001034578737800000000003615660000000                                                                                EVELIN PILAR RIVERA AVILES              PAGO INTERBANCARIO                      
32171283AUED900313QN5     4013710000001012907989040000000006467590000000                                                                                DIANA ITZEL AGUILAR ESPINOSA            PAGO INTERBANCARIO                      
