100001E1015202165507451972     10152021
2000020031108VALDEZ                        MEJIA               LUIS LEONARDO                 56733955028     000000000000528469
2000030301647BERNABE                       VELAZQUEZ           SUSANA LISSET                 60559148264     000000000000289610
2000040302096ALVAREZ                       RAMIREZ             HECTOR PATRIK                 56714577361     000000000000478410
2000050302438YESCAS                        GONZALEZ            RICARDO                       60615313870     000000000000289617
2000060302522BARRIOS                       MORALES             RAYMUNDO EDUARDO              60566338582     000000000001324014
2000070302612COTE                          ROLON               JOSE LEOPOLDO                 56771876607     000000000000267907
2000080302665ALVAREZ                       ESPINOZA            ERIC                          60613067768     000000000000447817
2000090902671RAMIREZ                       FRANCISCO           ALEJANDRO                     60570311478     000000000000267907
2000100902777PEREZ                         MORALES             GABRIELA                      55504067036     000000000000232907
2000110903075BARRERA                       ARCIGA              ADRIANA                       60554370277     000000000000835431
2000120903114MARQUEZ                       CORONADO            RUBEN                         56723983724     000000000000447817
2000130903645KURI                          SHIMIDZU            ALFREDO                       26028452953     000000000000383710
2000140903693MAYA                          SANDOVAL            MAYRA                         56755144018     000000000000447817
2000150904344HERRERA                       MARTINEZ            HUGO                          25000513983     000000000000267907
2000160904656TELLEZ                        ROMAN               MOISES                        56734530411     000000000000478410
2000170905706RAMIREZ                       GARCIA              DAVID                         56772722592     000000000000478410
2000180905831ROSETE                        MONDRAGON           NALLELY GUADALUPE             56809079627     000000000000289617
2000190906290SALINAS                       AYALA               ERICK GEOVANNIE               56800713148     000000000000239617
2000200906570CERON                         MUNOZ               LLUVIA LEYDI                  60599015252     000000000000289617
2000210906769VALENZUELA                    MATIAS              ALEXANDRA                     56787519700     000000000000223909
2000220907120SALAZAR                       MENDOZA             MIGUEL ANGEL                  56790594381     000000000000331118
2000230907679DEL RIO                       FLORES              JOSE QUIRINO                  56795042426     000000000000331118
2000240907918MATA                          GALVAN              MISAEL                        60615904643     000000000000289617
2000250907996ARIAS                         GANDARILLA          LUIS DANIEL                   60621617278     000000000000478410
2000260908111MIRANDA                       CHAVARRIA           ULISES YOLAO                  56803389199     000000000000217731
2000270908197LOPEZ                         RAMIREZ             PEDRO                         56753176775     000000000000289617
2000280908279JUAREZ                        GUERRA              LUIS EDUARDO                  60584588758     000000000000292381
2000290908297HERRERA                       MAYORAL             MELISSA ALEJANDRA             60619288236     000000000000223909
2000300908979SANDOVAL                      ACEVES              ANTONIA                       56793297974     000000000000267907
2000310909051GARCIA                        POBLANO             ANGEL                         56793019736     000000000000267907
2000320909329ACOSTA                        MEJIA               SANDRA                        56817305005     000000000000310660
2000330909526ASCENCIO                      RAMOS               ESMERALDA NAZIA NOEMI         56766663806     000000000000478410
2000340909540RAMOS                         DEL PRADO           ANGELES                       20011646261     000000000000410013
2000350909589GAZQUE                        ESPINOSA DE LOS MON EDGAR AMILKAR                 20013748590     000000000000528469
2000360909715CASTILLO                      MARTINEZ            PASCUAL                       60588995564     000000000000309355
2000370909825RESENDIZ                      ALDACO              JOSE RAFAEL                   25011211704     000000000000309355
2000380909843SANCHEZ                       VAZQUEZ             JUAN RICARDO                  56773049542     000000000000292381
2000390909918ARIAS                         RAMIREZ             MANUEL ISRAEL                 60617396797     000000000000528469
2000400910141RIOS                          ZALDIVAR            MARIA TERESA                  60615050969     000000000000336151
2000410910257SANCHEZ                       ESTRADA             GUADALUPE EMANUELA            60598151011     000000000000313854
2000420910303GARCIA                        VASQUEZ             SANDRA NALLELY                25001944374     000000000000480732
2000430910394PALACIOS                      HERNANDEZ           ALEJANDRO                     60622768574     000000000000322469
2000440910503OLIVARES                      CONTRERAS           HUGO                          60611126083     000000000000220567
2000450910556ROJAS                         VASQUEZ             JUAN DANIEL                   56799396026     000000000000175884
2000460910583RAMOS                         FERRER              ANTONIO DE JESUS              56774058510     000000000000304918
30004700045000000000016820322
