000000001                991133173690          000000000357329JORGE ESPARZA HERNANDEZ                 001001
000000002                992751157892          000000000528469ULISES FERNANDO RUBIO GARCIA            001001
000000003                992776664776          000000000313854CARLOS SANDOVAL SANDOVAL                001001
000000004                991565051770          000000000289617LILIA BAHENA GARCIA                     001001
000000005                991542505395          000000000267907JAVIER ESCOBAR LORA                     001001
000000006                991532023811          000000000267907FABIAN      GASPARIANO TLATELPA         001001
000000007                992851162454          000000000309355CARLOS HERNANDEZ CRUZ                   001001
000000008                991420039519          000000000258564ESTELA SOTO ROSAS                       001001
000000009                991494132661          000000000275776DAVID ZARATE GARCIA                     001001
000000010                991503212907          000000000290208LUIS DARIO ESTRADA GREGORIO             001001
000000011                992688688443          000000000750032ANGELICA HERNANDEZ CAZAREZ              001001
000000012                991550892804          000000000874932CYNTHIA LIDIA TRUJILLO MUNOZ            001001
000000013                991509126658          000000000329084GERARDO DANIEL GUTIERREZ GOMEZ          001001
000000014                991577160909          000000000359610FRANCISCO REYES ARISTA                  001001
000000015                991519458144          000000000070273LINDA CHAVEZ SIFUENTES                  001001
000000016                991121480251          000000000607960MARIA GUADALUPE FLORES CASTILLO         001001
000000017                992985358221          000000000238552NOEMI MIGUEL ORTIZ                      001001
000000018                991164153324          000000000682959SANDRA MARTINEZ FERRER                  001001
000000019                991162976757          000000000267899LUCERO VALENCIA ARIAS                   001001
000000020                992690988707          000000000389280GRACIELA CAMACHO GONZALEZ               001001
000000021                991512135922          000000000397952LIZBETH GARCIA LEON                     001001
000000022                990458111308          000000000321490ROSA ISELA LUNA MAYA                    001001
000000023                991504838866          000000000203669VERONICA MARTINEZ HERNANDEZ             001001
000000024                992998258910          000000000157174NOEMI CASTRO OLVERA                     001001
000000025                991516592201          000000000528450GLADIS KARINA SOTO HERNANDEZ            001001
000000026                991541574337          000000000322911LILIA TINAJERO VAZQUEZ                  001001
000000027                991545860407          000000000267899ALMA JOSEFINA LUCERO BRAVO              001001
000000028                991578928754          000000000321490MARIA TERESA GARCIA DOMINGUEZ           001001
000000029                991534864433          000000000286512MARISELA MARCIAL ESQUIVEL               001001
000000030                991572277239          000000000321490MARBELL DE JESUS ROJAS PEREZ            001001
000000031                991554742080          000000000145232GUILLERMO ORTUNO MENA                   001001
000000032                991553681955          000000000478393MARIA DEL PILAR PASTRANA OTAMENDI       001001
000000033                991580005509          000000000339858BLANCA ESTELA REYES HERNANDEZ           001001
000000034                991505631696          000000000287673NADIA GRISEL PEREZ SANDOVAL             001001
000000035                991570457116          000000000282210HERMELINDA ROSALES VARGAS               001001
000000036                991510974355          000000000797289ERIC OBED PARRA COTA                    001001
000000037                991579359110          000000000595032CRISTINA VAZQUEZ ORTIZ                  001001
000000038                991504329619          000000004388566ILIANA DE SILVA MUNOZ                   001001
000000039                992957771150          000000000301743MARIA GUADALUPE DONATO CONTRERAS        001001
000000040                991549080155          000000000700111OSCAR EMIR CRUZ ILLESCAS                001001
000000041                991538013357          000000000267899ERIKA MERARI REYES SAMPERIO             001001
000000042                991588758801          000000000267899ILCE AVILA VILLEGAS                     001001
000000043                991548671386          000000000289617TANIA MICHEL SANTOS FLORES              001001
000000044                991525818567          000000000947915JOSE ALFREDO PERALTA MORALES            001001
000000045                991574276124          000000000144241FRANCISCO JAVIER HURTADO LUNA           001001
000000046                990462030381          000000000313699PAUL JORGE BERMUDEZ HERNANDEZ           001001
000000047                991526104282          000000000209566JORGE LUIS HERNANDEZ TIBURCIO           001001
000000048                992968608717          000000000478393ELIZABETH SANCHEZ PEREZ                 001001
000000049                992852152592          000000000493497RODRIGO ULLOA TERAN                     001001
000000050                991538665730          000000000267899BENJAMIN MIROS GONZALEZ                 001001
000000051                991501642642          000000000478696JESUS ZAMORA GONZALEZ                   001001
000000052                991528273670          000000000267907JOSE DE JESUS MENDEZ YEPEZ              001001
000000053                991134991532          000000000283053ARSENIO MORENO SOLANO                   001001
000000054                991520771503          000000000112488RAUL ARVIZU GONZALEZ                    001001
000000055                991545383831          000000000267907RUBEN ANGEL HERRERA VEGA                001001
000000056                991152097656          000000000095596CARMELO DE LUNA CORTES                  001001
000000057                992977397917          000000000331118RAFAEL DOMINGUEZ PALACIOS               001001
000000058                991503161300          000000000289617MARGARITA SERRALDE ESPINOZA             001001
000000059                992905302757          000000000267907FRANCISCO JAVIER PEREZ SANCHEZ          001001
000000060                991578839905          000000000245387PAOLA SANCHEZ SANCHEZ                   001001
000000061                990463520919          000000000320587LUIS ANGEL GARCES JIMENEZ               001001
000000062                991550801341          000000000844085RAFAEL ALEJANDRO RUIZ MENDOZA           001001
000000063                991516389635          000000000528469ALEJANDRO PALOMO MARINO                 001001
000000064                992994978048          000000000267907JOSE ROBERTO HERNANDEZ HERNANDEZ        001001
000000065                991517835950          000000000267907OLIVA HERNANDEZ VASQUEZ                 001001
000000066                991539236794          000000000267907NIDIA LAURA VILLANUEVA FERNANDEZ        001001
000000067                991500237861          000000000388563LUIS ALBERTO LOPEZ RODRIGUEZ            001001
000000068                991538656185          000000000436487YARA GEORGINA AGUILAR GALEANA           001001
000000069                991503950557          000000000523478SOFIA LIZBETH CORDOBA GONZALEZ          001001
000000070                991514320867          000000000521980GRACIELA PASTRANA GONZALEZ              001001
000000071                991576425766          000000000267907LIZBETH DANIELA GODINEZ HERNANDEZ       001001
000000072                991525404408          000000000071494JOSE JUAN CUAMATZI PEREZ                001001
000000073                991595278981          000000000284249FERNANDO PEREZ GARCIA                   001001
000000074                991500679727          000000000267907MARIO ALBERTO DIAZ QUINTERO             001001
000000075                991521778178          000000000355796JOSE VICENTE RODRIGUEZ RODRIGUEZ        001001
000000076                991501390859          000000000267907VANESA OVANDO ESPINOSA                  001001
000000077                991533106571          000000000410013JAZMIN VENECIA CAMARENA SORIA           001001
000000078                992837129688          000000000448035JUVENCIO MEDINA AGUILAR                 001001
000000079                992981655167          000000001758601VANIA SALAS GARCIA                      001001
000000080                991559204884          000000000188410VERONICA GONZALEZ PONCE                 001001
000000081                991512515315          000000000267907JOSE MANUEL ALANIS RODRIGUEZ            001001
000000082                991547854126          000000000267907ERIK EDUARDO SANCHEZ CASTANEDA          001001
000000083                992704072200          000000001724816ANEDI SUSED CRUZ GARCIA                 001001
000000084                991502040972          000000000683176FERNANDO REYES MORUA                    001001
000000085                991526997913          000000000155987EMANUEL AURELIO AYALA ARROYO            001001
000000086                991510708387          000000000252731LUIS ROBERTO QUINTANA CARRETO           001001
000000087                992774063813          000000000267907JOSE JESUS MARTINEZ ESTRADA             001001
000000088                992907976755          000000000289617JONATHAN DANIEL RIVERA ROMERO           001001
000000089                991498192286          000000000873541SANDRA ANGELES RAMIREZ                  001001
000000090                991514975177          000000000309355MARIO DE JESUS CANO GUTIERREZ           001001
000000091                991560253793          000000000528469BETSABE NALLELY TORNES MONTALVO         001001
000000092                991535798747          000000000267907ALEXIS JUAREZ PEREZ                     001001
000000093                992759379967          000000001263390JOSE SALVADOR TELLEZ RODRIGUEZ          001001
000000094                991520568429          000000000267907JAQUELINE GARCIA SANCHEZ                001001
000000095                991551729874          000000000644873JOSE ADOLFO MORENO BECERRIL             001001
000000096                990472073838          000000000219892GUADALUPE YAZMIN DE LA CRUZ GOMEZ       001001
000000097                991122138107          000000000464617JUAN ANGEL MARQUEZ GARCIA               001001
000000098                992622070758          000000000397960VERELISA GUEVARA RUIZ                   001001
000000099                992715681847          000000000405660JAVIER GONZALEZ NORIEGA                 001001
000000100                991590213678          000000000235826FABIOLA CASTILLO OCAMPO                 001001
000000101                991553147665          000000000289617JAZMIN GALICIA MILLAN                   001001
000000102                991143212408          000000001728391ANAYANSI BERENICE REYES LOPEZ           001001
000000103                991516894995          000000000528469UBALDO ROA MENDEZ                       001001
000000104                992799510311          000000000267907ERIKA NATALIA JARAMILLO HERNANDEZ       001001
000000105                991527789251          000000000289617GERARDO ANTONIO CHAVARRIA CASTILLO      001001
000000106                991532004523          000000000289617LUIS DE JESUS CONSUEGRA PEREZ           001001
000000107                991534373517          000000000267907YESSICA GONZALEZ PEREZ                  001001
000000108                991539988061          000000000267907LESLIE SALVADOR ABAD                    001001
000000109                992881291785          000000000267907VERONICA RAMOS HERNANDEZ                001001
000000110                991582381567          000000000447817RAUL CRUZ JAVIER                        001001
000000111                992948672601          000000000416831JUAN FERNANDO DE LA ROSA AVILA          001001
000000112                991554733978          000000000252731MONICA LOPEZ RODRIGUEZ                  001001
000000113                991507564565          000000000289617MARIA EUGENIA ALEJANDRA GARCIA GOMEZ    001001
000000114                992988916853          000000000447817OSCAR DAVID DE LOERA SEGUNDO            001001
000000115                991552127733          000000000267907BLANCA ALELI ROSAS DE LOS SANTOS        001001
000000116                991594067897          000000000103705EDGAR SAUL GUEVARA LARA                 001001
000000117                991531732869          000000000355263LIZBETH CASTILLO ZAMORA                 001001
000000118                991599631804          000000000309355JONATHAN COLUNGA SANTIAGO               001001
000000119                991586826116          000000000267907ARACELI MEDINA RIVERA                   001001
000000120                991532729268          000000000245447KARLA EDNEY HERNANDEZ GARCIA            001001
000000121                991589779259          000000000267907CRISTIAN TEJA PEREZ                     001001
000000122                991528518648          000000000410013MARIO REYNA BARRIOS                     001001
000000123                991518988045          000000000345410CARLOS ALBERTO RODRIGUEZ CRUZ           001001
000000124                991591530006          000000000289617JULIO CESAR REYES LEON                  001001
000000125                991579096453          000000000289617SONIA LESLIE MENDEZ CASTRO              001001
000000126                991122802341          000000000309355LEOBARDO FRANKLIN OLIVARES HERNANDEZ    001001
000000127                991582140624          000000000331118BLANCA MONICA GUERRERO CASTILLO         001001
000000128                991501553879          000000000267907NANCY BERENICE SANCHEZ CANO             001001
000000129                991254824865          000000000289617MISAEL RAMIREZ RIOS                     001001
000000130                992735329965          000000000478410SERGIO MEDINA SOTO                      001001
000000131                991550310859          000000000273382HILDA GUADALUPE DIAZ PEREZ              001001
000000132                991552970671          000000000289617EDGAR ROMERO ZERMENO                    001001
000000133                991510517239          000000000289617ISAIAS FELIX PEREZ GUTIERREZ            001001
000000134                991536321014          000000000447817ALINE DEL CARMEN VALDEZ VARGAS          001001
000000135                991540465383          000000000289617SAMANTHA SEVILLA CORDOVA                001001
000000136                992995487005          000000000267907CRISTOPHER GARCIA ALVAREZ               001001
000000137                991546829411          000000000267907MARIA DEL CARMEN PACHECO GREGORIO       001001
000000138                991578787860          000000000267907LIZBETH SARAI BALDERAS BRIONES          001001
000000139                991538091940          000000000267907ANTONIA SARAI CRUZ LUNA                 001001
000000140                991577479169          000000000267907DIANA GONZALEZ MAGANA                   001001
000000141                991560410179          000000000226717KARLA VIANEY CASTILLO RODRIGUEZ         001001
000000142                991507740839          000000000309355DELFINA GUADALUPE GARCIA VEGA           001001
000000143                991516028672          000000000284249JENIFER BAEZ GUEVARA                    001001
000000144                991515387007          000000000071941DANIELA ABIGAIL AMAYA SALVADOR          001001
000000145                991509319775          000000000255591BRAULIO JAFET HERMOSILLO MORENO         001001
000000146                991543349702          000000000289617GUADALUPE JENIFFER MARTINEZ JIMENEZ     001001
000000147                991525529295          000000000289617ALFONSO ANDRES JIMENEZ                  001001
000000148                991549139041          000000000331118EVELINE CAROLINA DE LA ROSA VELAZQUEZ   001001
000000149                991536829934          000000000528469EDILBERTO MENDOZA ESPINOSA              001001
000000150                991570003341          000000000267907OMAR EDGAR BARRIOS PATINO               001001
000000151                991536655480          000000000528469RODRIGO RIOS MIRANDA                    001001
000000152                992798115974          000000000267907ERIKA CARRETO DIEGO                     001001
000000153                991589437480          000000000289617NAYELI ALVAREZ RIVERA                   001001
000000154                991578851144          000000000528469EDUARDO DANIEL PAZ ESTRADA              001001
000000155                991501444682          000000000289617JUAN OMAR BARCENAS MARQUEZ              001001
000000156                991551944093          000000000252731LEOPOLDO ISRAEL ORDONEZ AGUILAR         001001
000000157                991557638135          000000000223909ARELI ZURITA LOAEZA                     001001
000000158                991557320356          000000000267907JOSE JUAN DURAN LIRA                    001001
000000159                991521966169          000000000292381ARI DANIEL REBOLLAR SANCHEZ             001001
000000160                991242216957          000000000478410ROSARIO LARA RAMIREZ                    001001
000000161                991511134374          000000000289617VIRGINIA MARTINEZ LOPEZ                 001001
000000162                991503158376          000000000309355MIGUEL ANGEL MAZATZI NAVA               001001
000000163                991547548920          000000000331118JENNY  DEL  ROCIO MORENO GALLARDO       001001
000000164                991552997718          000000000279171ABRAHAM CRUZ LOPEZ                      001001
000000165                991580272698          000000000252731SALVADOR ALEXIS CRUZ OCANA              001001
000000166                991537445547          000000000267907PATRICIA PAZARAN ALVAREZ                001001
000000167                991549689288          000000000528469ALEJANDRO SUAREZ MENDOZA                001001
000000168                991503900614          000000000428469RUBEN MISAEL GOMEZ LOPEZ                001001
000000169                992944447689          000000000331118RAFAEL ANGELES CARRANZA                 001001
000000170                991515013511          000000000410013FATIMA MONSERRAD RIOS AVILA             001001
000000171                991556343015          000000000289617JOSE LUIS ARTURO SANCHEZ MAXIMO         001001
000000172                991535226616          000000000267907ANDREA VICTORIO CUELLAR                 001001
000000173                991555371411          000000000267907MARIA GUADALUPE TEJADIO SANCHEZ         001001
000000174                991533847210          000000000309355ALICIA RESENDIZ ALVARADO                001001
000000175                991514658895          000000000267907MOISES PEREZ HUERTA                     001001
000000176                991556139784          000000000267907LUIS ANGEL AGUIRRE CRUZ                 001001
000000177                991556114217          000000000267907RODRIGO MONTOYA BOCANEGRA               001001
000000178                991557720486          000000000289617XOCHITL RUIZ VELAZQUEZ                  001001
000000179                991586148794          000000000336350ISAUL ARZATE CEBALLOS                   001001
000000180                991556191050          000000000309355ERIKA YAZMIN SAUCEDA GARCIA             001001
000000181                991530751289          000000000267907ANGELICA FABIOLA IZARRARAS VERA         001001
000000182                991509432854          000000000289617KATIA BERENICE PUEBLAS SEGURA           001001
000000183                991500505673          000000000309355CASSANDRA HERNANDEZ BOTELLO             001001
000000184                991501242660          000000000331118YASUNARI YAHOLLOSI FABILA               001001
000000185                991592352454          000000000289617HERMELINDO ESTEBAN VELASCO LOPEZ        001001
000000186                991568047718          000000000289617MARIA FERNANDA RAMOS RAMOS              001001
000000187                991502200399          000000000284249NESTOR ABELARDO GUZMAN RAMIREZ          001001
000000188                991559729367          000000000267907ALEJANDRA TOBON BELLO                   001001
000000189                991563062786          000000000289617DULCE MARIA ZANABRIGA MENDOZA           001001
000000190                992933254216          000000000914880JUAN GERARDO SILVA DEL ANGEL            001001
000000191                992955040485          000000000267907ALFREDO HUSIM KU ALBARRAN               001001
000000192                991559758788          000000000309355ERIKA JOCELYN MONSIVAIS AVILA           001001
000000193                991553144097          000000000682984LUIS ENRIQUE ALCALA RAMIREZ             001001
000000194                991562058793          000000000289617CELIA URSULA DE LOS ANGELES VELAZQUEZ   001001
000000195                991591577363          000000000267907HECTOR  VAZQUEZ SANCHEZ                 001001
000000196                991546107369          000000000528469ABRAHAM MAXIMILIANO MENDOZA DURAN       001001
000000197                991551726714          000000000272078VICTOR HUGO CRUZ VALDOVINOS             001001
000000198                991564189854          000000000255134JOSE JUAN CASTANON NIGENDA              001001
000000199                992889709231          000000000304172JUAN MANUEL RIOS CRUZ                   001001
000000200                991560698013          000000000267907BRISA ITZEL TELLEZ HUERTA               001001
000000201                991561452743          000000000267907LUIS ALBERTO JUAREZ MENDOZA             001001
000000202                991561428993          000000000220362JOSE LUIS SALGADO  RODRIGUEZ            001001
000000203                991563435451          000000000267907LUIS REY CARRERA GONZALEZ               001001
000000204                991509337172          000000000267907JONATAN MISAEL MENDOZA REYES            001001
000000205                991592551482          000000000410013ADRIAN ACEVEDO RETA                     001001
000000206                991550158839          000000000280912MIRIAM ITZEL MARTINEZ HERRERA           001001
000000207                991595865614          000000000273382JOAN OLIVAN GARCIA                      001001
000000208                991520249224          000000000447817OLGA BEATRIZ HERNANDEZ VAZQUEZ          001001
000000209                991532663276          000000000447817LIZET DANIELA BERRUECOS  PEREZ          001001
000000210                991562444582          000000000447817VICTOR MANUEL MARTINEZ ROSAS            001001
000000211                991573601873          000000000267907BRAYAN JOVANNY SALAZAR HERNANDEZ        001001
000000212                991582867519          000000000148660HECTOR MAURICIO HERNANDEZ PERALES       001001
000000213                991521782085          000000000267907YAZMIN ISABEL MONTIEL LOPEZ             001001
000000214                991518587191          000000000447817MARIA NANCY GONZALEZ MENDEZ             001001
000000215                991485140463          000000000447817JORGE ALVAREZ FELICIANO                 001001
000000216                991563417057          000000000267907WILBERT ALEXIS GARCIA SANCHEZ           001001
000000217                991542102975          000000000289617MICHELLE GUADALUPE  GONZALEZ  SALAS     001001
000000218                991533482517          000000000289617SONIA HERNANDEZ  MORENO                 001001
000000219                991530889873          000000000200866VIRIDIANA YOSAJANDI SANCHEZ  AVALOS     001001
000000220                992751541757          000000000528469FELIPE DE JESUS  VELASCO  GONZALEZ      001001
000000221                991556751779          000000000289617CARLOS ALBERTO  RAMIREZ MORA            001001
000000222                991555632109          000000000252731ALISSON ZARATE  SOTO                    001001
000000223                991555838803          000000000478410DAVID MARTINEZ REYES                    001001
000000224                991536521093          000000000309355EZEQUIEL HERNANDEZ  CAMACHO             001001
000000225                991567010440          000000000213961LIZETH NOHEMI TAVERA SILVA              001001
000000226                991562171333          000000000309355PEDRO ALEJANDRO CAMPUZANO GARCIA        001001
000000227                991550136193          000000000331118ADRIAN CARRASCO REYNA                   001001
000000228                991574709457          000000000568300YOSTING FABRIZZIO MARROQUIN FABIANI     001001
000000229                991175356520          000000000289617CLAUDIA LUCERO TORRENTERA ZAMUDIO       001001
000000230                991582818216          000000000436487LILIANA TORRES VINALAY                  001001
000000231                991563766494          000000000267907JULIO CESAR ORTIZ QUINTERO              001001
000000232                991546212928          000000000267907ELVIA SAENZ JUAREZ                      001001
000000233                991552542924          000000000309355MARIA TERESA SANCHEZ ALVAREZ            001001
000000234                991578351263          000000000267907MARIA ASUNCION CRUZ MARTINEZ            001001
000000235                991539529176          000000000289617JUDITH ALVARADO GALLARDO                001001
000000236                991180117528          000000000447817ERNESTO FRANCO GOMEZ                    001001
000000237                991517143357          000000000267907CARLOS JOSEPH MARTINEZ FLORES           001001
000000238                992899176985          000000000417540JOSE ANTONIO SOTO BARBOSA               001001
000000239                991541644320          000000000447817SELENE AGUIRRE REYES                    001001
000000240                991568217486          000000000289617YAHIR RUIZ LOPEZ                        001001
000000241                991550740850          000000000289617MIRIAM BIELMA RAMIREZ                   001001
000000242                991551693921          000000000528629JUANA LIZBETH HERNANDEZ HERNANDEZ       001001
000000243                991576995578          000000000528469ANA LAURA OSORIO ROSALES                001001
000000244                991508604819          000000000528469VIRIDIANA LUNA ROMERO                   001001
000000245                991592938891          000000000528469PEDRO ANDRES CAMPOS BARRERA             001001
000000246                991582552925          000000000267907GRISEL HARUMI LIMA PEDRAZA              001001
000000247                991533479754          000000000436487SLIM CRUZ BELTRAN                       001001
000000248                991533486362          000000000331118CLAUDIA  GUADALUPE ESPINOSA SALAZAR     001001
000000249                991586257739          000000000528469JESSICA SARAHI GONZALEZ GARCIA          001001
000000250                991563811359          000000000289617JUAN MANUEL SANCHEZ RANGEL              001001
000000251                991504981151          000000000331118LUIS ANTONIO RAMIREZ TORRES             001001
000000252                991570302361          000000000644873EDGAR ZARAGOZA LICEA                    001001
000000253                990466986404          000000000223909ANA BENETH ROJAS ALBERTO                001001
000000254                991516667511          000000000267907ALEXIS MICHEL AGUAS ESTRADA             001001
000000255                991436554997          000000000267907KARLA ALEJANDRA CRUZ MALDONADO          001001
000000256                991544937985          000000000309355ELIZABETH VAZQUEZ BENAVIDES             001001
000000257                991546982864          000000000267907AMELIA CABRERA PARRA                    001001
000000258                991544113805          000000000446729JOSE DANIEL LEON PEREZ                  001001
000000259                991585197280          000000000381296EDGAR MANUEL MUNOZ REYES                001001
000000260                991599628579          000000000381296FRANCISCO JAVIER BARBOSA ZEPEDA         001001
000000261                992963125785          000000000381296ALFONSO DARIO ROJAS SALGADO             001001
000000262                991527837375          000000000381296TONANZIN OLIVARES CRUZ                  001001
000000263                991551659428          000000000324925LAURA JESSENIA HERRERA NAVA             001001
000000264                991570837676          000000000365304ITALIA MARQUEZ MORENO                   001001
000000265                991556380057          000000000379628EVA LUCIA VELEZ VAZQUEZ                 001001
000000266                991570501554          000000000313854RODRIGO SALAZAR LUNA                    001001
000000267                991522995843          000000000622426MARIA FERNANDA GUTIERREZ ZAVALA         001001
000000268                991529900309          000000000622426JORGE ALBERTO SANCHEZ BAEZ              001001
000000269                991500139228          000000000322469BRICIA NARAHI MUNOZ OLVERA              001001
000000270                991541402602          000000000322469NAYELI MAGALLON HERNANDEZ               001001
000000271                991519952613          000000000334624MA GUADALUPE GUTIERREZ ROMERO           001001
000000272                991507568452          000000000322468CARLOS HERNANDEZ MARTINEZ               001001
000000273                991553372413          000000000297863ISELA GUADALUPE CRUZ HERRERA            001001
000000274                991511854922          000000000322469MARIBEL ZAMORANO HERNANDEZ              001001
000000275                991548377995          000000000297863KARLA MARINA DIAZ SERNA                 001001
000000276                990464419146          000000000334624CARLOS ALBERTO GRACIA CAMPOS            001001
000000277                992990602345          000000000591796JESUS DEMETRIO FLORES GARCIA            001001
000000278                991526868319          000000000332962DIANA CECILIA JIMENEZ MEJIA             001001
000000279                991572976559          000000000205223SARAI MARTINEZ ESTEVEZ                  001001
000000280                991573029880          000000000220567FRANCISCO VELASCO MARTINEZ              001001
000000281                991504560684          000000000220567JUAN CARLOS LOPEZ GUZMAN                001001
000000282                991558458194          000000000163229REBECA LORENA HUERTA DELGADO            001001
