04911543       000000000011614668610000270090438075894200000000381118000912202146 PAGO POR CUENTA Y ORDEN SUE11ALK171019HN1 00000000000000dgarcia@gruposeri.com                  09122021FANY ESMERALDA MUNIZ LARA                                             
04200366       000000000011614668610000201090384059669400000000698192000912202146 PAGO POR CUENTA Y ORDEN SUE11ALK171019HN1 00000000000000dgarcia@gruposeri.com                  09122021AMADOR ALONSO ARCEO                                                   
04200450       000000000011614668610000232090376700525900000000682959000912202146 PAGO POR CUENTA Y ORDEN SUE11ALK171019HN1 00000000000000dgarcia@gruposeri.com                  09122021EMMANUEL SANDOVAL SOLTERO                                             
04600005       000000000011614668610000270090111925142200000000438597000912202146 PAGO POR CUENTA Y ORDEN SUE11ALK171019HN1 00000000000000dgarcia@gruposeri.com                  09122021JOSE DE JESUS PEREZ TORRES                                            
04911468       000000000011614668610000258070163991606500000000381118000912202146 PAGO POR CUENTA Y ORDEN SUE11ALK171019HN1 00000000000000dgarcia@gruposeri.com                  09122021ERNESTO OLIVA MONTENEGRO                                              
04911470       000000000011614668610000293490368563268200000000359355000912202146 PAGO POR CUENTA Y ORDEN SUE11ALK171019HN1 00000000000000dgarcia@gruposeri.com                  09122021MARGARITA RAMIREZ ROBLEDO                                             
04600029       000000000011614668610000270090208855041500000000727093000912202146 PAGO POR CUENTA Y ORDEN SUE11ALK171019HN1 00000000000000dgarcia@gruposeri.com                  09122021BLANCA ESTELA HERRERA GUTIERREZ                                       
04600047       000000000011614668610000270090120250301600000000218297000912202146 PAGO POR CUENTA Y ORDEN SUE11ALK171019HN1 00000000000000dgarcia@gruposeri.com                  09122021MARIA DE LOURDES VALADEZ ARELLANO                                     
04600050       000000000011614668610000289590398298674300000000292062000912202146 PAGO POR CUENTA Y ORDEN SUE11ALK171019HN1 00000000000000dgarcia@gruposeri.com                  09122021JUAN MANUEL LUNA GASPAR                                               
04600067       000000000011614668610000281090252805744900000000317618000912202146 PAGO POR CUENTA Y ORDEN SUE11ALK171019HN1 00000000000000dgarcia@gruposeri.com                  09122021JESUS FIDENCIO ZAPATA LERMA                                           
04600079       000000000011614668610000258090265174832400000000409656000912202146 PAGO POR CUENTA Y ORDEN SUE11ALK171019HN1 00000000000000dgarcia@gruposeri.com                  09122021CARLOS TENORIO RANGEL                                                 
04600082       000000000011614668610000206890267837162300000000310492000912202146 PAGO POR CUENTA Y ORDEN SUE11ALK171019HN1 00000000000000dgarcia@gruposeri.com                  09122021VANESSA DE JESUS FUENTES ORTIZ                                        
04600083       000000000011614668610000258090267476348300000000375559000912202146 PAGO POR CUENTA Y ORDEN SUE11ALK171019HN1 00000000000000dgarcia@gruposeri.com                  09122021CARMEN DE LA ROSA MARTINEZ                                            
04600089       000000000011614668610000270590272527406200000000700310000912202146 PAGO POR CUENTA Y ORDEN SUE11ALK171019HN1 00000000000000dgarcia@gruposeri.com                  09122021JUAN FRANCISCO VELAZQUEZ CHAVEZ                                       
04600125       000000000011614668610000258090343214854000000000494553000912202146 PAGO POR CUENTA Y ORDEN SUE11ALK171019HN1 00000000000000dgarcia@gruposeri.com                  09122021JOSE GUADALUPE GARZA AMAYA                                            
04600212       000000000011614668610000281090380109351400000000359266000912202146 PAGO POR CUENTA Y ORDEN SUE11ALK171019HN1 00000000000000dgarcia@gruposeri.com                  09122021PERLA DEYANIRA DE LA FUENTE GARCIA                                    
04600169       000000000011614668610000202890372250568500000000636451000912202146 PAGO POR CUENTA Y ORDEN SUE11ALK171019HN1 00000000000000dgarcia@gruposeri.com                  09122021FRANCISCO JAVIER GONZALEZ RAMOS                                       
04600680       000000000011614668610000202890236044253800000000670775000912202146 PAGO POR CUENTA Y ORDEN SUE11ALK171019HN1 00000000000000dgarcia@gruposeri.com                  09122021ROCIO SAMANTHA QUINTEROS LOPEZ                                        
04600795       000000000011614668610000256690423621213200000000661972000912202146 PAGO POR CUENTA Y ORDEN SUE11ALK171019HN1 00000000000000dgarcia@gruposeri.com                  09122021PATRICIA RIVERA HERNANDEZ                                             
04601216       000000000011614668610000202790384343979600000000423200000912202146 PAGO POR CUENTA Y ORDEN SUE11ALK171019HN1 00000000000000dgarcia@gruposeri.com                  09122021REYNA VIRIDIANA LOPEZ RODRIGUEZ                                       
04601225       000000000011614668610000293990423970951200000000427788000912202146 PAGO POR CUENTA Y ORDEN SUE11ALK171019HN1 00000000000000dgarcia@gruposeri.com                  09122021ANGELICA MORENO ALVAREZ                                               
04601328       000000000011614668610000256090442038227200000000480320000912202146 PAGO POR CUENTA Y ORDEN SUE11ALK171019HN1 00000000000000dgarcia@gruposeri.com                  09122021CELINA MONSERRAT SANCHEZ VALLE                                        
04601345       000000000011614668610000256090442287324200000000246040000912202146 PAGO POR CUENTA Y ORDEN SUE11ALK171019HN1 00000000000000dgarcia@gruposeri.com                  09122021MARIA LOURDES PEREZ FLORES                                            
04601452       000000000011614668610000281370155384342800000000423989000912202146 PAGO POR CUENTA Y ORDEN SUE11ALK171019HN1 00000000000000dgarcia@gruposeri.com                  09122021MARIA DEL ROCIO ESTRADA ARMENTA                                       
04902611       000000000011614668610000201090436728815400000000443890000912202146 PAGO POR CUENTA Y ORDEN SUE11ALK171019HN1 00000000000000dgarcia@gruposeri.com                  09122021ALMA ELIZABETH LEDON NIEBLAS                                          
04902703       000000000011614668610000232090435814777400000000379221000912202146 PAGO POR CUENTA Y ORDEN SUE11ALK171019HN1 00000000000000dgarcia@gruposeri.com                  09122021ARIANNA KRISTAL LOPEZ ORTIZ                                           
04903401       000000000011614668610000270070160924592800000000464078000912202146 PAGO POR CUENTA Y ORDEN SUE11ALK171019HN1 00000000000000dgarcia@gruposeri.com                  09122021BRENDA GUADALUPE ZAMARRIPA MARTINEZ                                   
04903577       000000000011614668610000258070168591878700000000341435000912202146 PAGO POR CUENTA Y ORDEN SUE11ALK171019HN1 00000000000000dgarcia@gruposeri.com                  09122021JENNIFER  YAJAIRA LOREDO VALDEZ                                       
04903355       000000000011614668610000258090421925207200000000633672000912202146 PAGO POR CUENTA Y ORDEN SUE11ALK171019HN1 00000000000000dgarcia@gruposeri.com                  09122021ARTURO CASTILLO VAZQUEZ                                               
04903725       000000000011614668610000258070168740113700000000272725000912202146 PAGO POR CUENTA Y ORDEN SUE11ALK171019HN1 00000000000000dgarcia@gruposeri.com                  09122021CESAR ISRAEL CABRERA RAMIREZ                                          
04903785       000000000011614668610000281090372287828700000000374169000912202146 PAGO POR CUENTA Y ORDEN SUE11ALK171019HN1 00000000000000dgarcia@gruposeri.com                  09122021JOEL AGUILAR DIMAS                                                    
04904162       000000000011614668610000202270123620230000000000566646000912202146 PAGO POR CUENTA Y ORDEN SUE11ALK171019HN1 00000000000000dgarcia@gruposeri.com                  09122021ABRIL LIZET SANTANA VALDEZ                                            
04906735       000000000011614668610000201090440287076000000000591418000912202146 PAGO POR CUENTA Y ORDEN SUE11ALK171019HN1 00000000000000dgarcia@gruposeri.com                  09122021BRENDA CRISTINA JUAREZ ZAVALA                                         
04908345       000000000011614668610000258090127712939900000000218156000912202146 PAGO POR CUENTA Y ORDEN SUE11ALK171019HN1 00000000000000dgarcia@gruposeri.com                  09122021JOSE DE JESUS CEDILLO RANGEL                                          
04908752       000000000011614668610000281370171421428100000000476307000912202146 PAGO POR CUENTA Y ORDEN SUE11ALK171019HN1 00000000000000dgarcia@gruposeri.com                  09122021ALAN YAIR CERVANTES RODRIGUEZ                                         
04909237       000000000011614668610000270570145196009000000000320041000912202146 PAGO POR CUENTA Y ORDEN SUE11ALK171019HN1 00000000000000dgarcia@gruposeri.com                  09122021ZAIRA CRISTINA ESPINOZA HERNANDEZ                                     
0430953        000000000011614668610000206090298304642100000000152499000912202146 PAGO POR CUENTA Y ORDEN SUE11ALK171019HN1 00000000000000dgarcia@gruposeri.com                  09122021SANJUANA MARICELA SANCHEZ VILLARREAL                                  
04100015       000000000011614668610000270070138548471500000000883516000912202146 PAGO POR CUENTA Y ORDEN SUE11ALK171019HN1 00000000000000dgarcia@gruposeri.com                  09122021CARLOS ALBERTO REYNA CARRERA                                          
0430261        000000000011614668610000219090375927755500000000303217000912202146 PAGO POR CUENTA Y ORDEN SUE11ALK171019HN1 00000000000000dgarcia@gruposeri.com                  09122021BEATRIZ ADRIANA SERRANO LEYVA                                         
04100365       000000000011614668610000270090411734195900000000353447000912202146 PAGO POR CUENTA Y ORDEN SUE11ALK171019HN1 00000000000000dgarcia@gruposeri.com                  09122021JOSE FERNANDO ANGUIANO RODRIGUEZ                                      
04100377       000000000011614668610000270090439924739200000000731118000912202146 PAGO POR CUENTA Y ORDEN SUE11ALK171019HN1 00000000000000dgarcia@gruposeri.com                  09122021LAURA SONIA RIOS TENORIO                                              
04100397       000000000011614668610000270990410889098600000000465991000912202146 PAGO POR CUENTA Y ORDEN SUE11ALK171019HN1 00000000000000dgarcia@gruposeri.com                  09122021JUAN JOSE RODRIGUEZ MENDOZA                                           
04120045       000000000011614668610000276090173094522500000000253528000912202146 PAGO POR CUENTA Y ORDEN SUE11ALK171019HN1 00000000000000dgarcia@gruposeri.com                  09122021CUTBERTO ANDRADE VILLA                                                
04120196       000000000011614668610000276790352333823100000000847125000912202146 PAGO POR CUENTA Y ORDEN SUE11ALK171019HN1 00000000000000dgarcia@gruposeri.com                  09122021JORGE ALBERTO SARMIENTO COTA                                          
04120631       000000000011614668610000278090252794459900000000233461000912202146 PAGO POR CUENTA Y ORDEN SUE11ALK171019HN1 00000000000000dgarcia@gruposeri.com                  09122021JESSICA ALEJANDRA LIMONES ROSAS                                       
04120653       000000000011614668610000276070144388184700000000678217000912202146 PAGO POR CUENTA Y ORDEN SUE11ALK171019HN1 00000000000000dgarcia@gruposeri.com                  09122021CRISTIAN DEMETRIO LAYJA GOMEZ                                         
04120708       000000000011614668610000277070136650856900000000244063000912202146 PAGO POR CUENTA Y ORDEN SUE11ALK171019HN1 00000000000000dgarcia@gruposeri.com                  09122021JOHANY ADILENNE CASTANEDA MENDOZA                                     
04600012       000000000011614668610000206090115269975200000000539617000912202146 PAGO POR CUENTA Y ORDEN SUE11ALK171019HN1 00000000000000dgarcia@gruposeri.com                  09122021VERONICA DOMINGUEZ DAVILA                                             
04600030       000000000011614668610000206090209045515400000000533798000912202146 PAGO POR CUENTA Y ORDEN SUE11ALK171019HN1 00000000000000dgarcia@gruposeri.com                  09122021CHRISTIAN RODRIGUEZ GUERRERO                                          
04600073       000000000011614668610000206090258870068300000000439850000912202146 PAGO POR CUENTA Y ORDEN SUE11ALK171019HN1 00000000000000dgarcia@gruposeri.com                  09122021LUIS EDUARDO VILLEGAS RANGEL                                          
04600725       000000000011614668610000273090421299942500000000637907000912202146 PAGO POR CUENTA Y ORDEN SUE11ALK171019HN1 00000000000000dgarcia@gruposeri.com                  09122021MARIA CONCEPCION MARTINEZ ANDRADE                                     
04601166       000000000011614668610000206090245687086500000000403042000912202146 PAGO POR CUENTA Y ORDEN SUE11ALK171019HN1 00000000000000dgarcia@gruposeri.com                  09122021SERGIO MIGUEL CENICEROS ROSALES                                       
04803840       000000000011614668610000258070142907958100000000667907000912202146 PAGO POR CUENTA Y ORDEN SUE11ALK171019HN1 00000000000000dgarcia@gruposeri.com                  09122021MYRNA LEONOR CORPUS HERNANDEZ                                         
04904232       000000000011614668610000270970171115440300000000284967000912202146 PAGO POR CUENTA Y ORDEN SUE11ALK171019HN1 00000000000000dgarcia@gruposeri.com                  09122021MARGARITA  GODINEZ                                                    
04906475       000000000011614668610000270590462250486200000000241195000912202146 PAGO POR CUENTA Y ORDEN SUE11ALK171019HN1 00000000000000dgarcia@gruposeri.com                  09122021EDUARDO PEREZ HERRERA                                                 
04907339       000000000011614668610000270990373430217900000000393194000912202146 PAGO POR CUENTA Y ORDEN SUE11ALK171019HN1 00000000000000dgarcia@gruposeri.com                  09122021SERGIO MONTANEZ MIRELES                                               
04907875       000000000011614668610000281390438124992300000000417210000912202146 PAGO POR CUENTA Y ORDEN SUE11ALK171019HN1 00000000000000dgarcia@gruposeri.com                  09122021LUIS ANGEL TURRUBIARTES MELENDEZ                                      
04908852       000000000011614668610000270990418872933600000000377811000912202146 PAGO POR CUENTA Y ORDEN SUE11ALK171019HN1 00000000000000dgarcia@gruposeri.com                  09122021AIDEE GALLEGOS AMBRIZ                                                 
0492725        000000000011614668610000258090377646087400000000294724000912202146 PAGO POR CUENTA Y ORDEN SUE11ALK171019HN1 00000000000000dgarcia@gruposeri.com                  09122021MAURITANIA DESHIDU AGUIRRE SALAZAR                                    
04120315       000000000011614668610000277190383178486400000000642014000912202146 PAGO POR CUENTA Y ORDEN SUE11ALK171019HN1 00000000000000dgarcia@gruposeri.com                  09122021DANIELA GUADALUPE VERDUZCO SILVA                                      
04120504       000000000011614668610000215090401369383000000000705994000912202146 PAGO POR CUENTA Y ORDEN SUE11ALK171019HN1 00000000000000dgarcia@gruposeri.com                  09122021BRENDA JANETH BEJARANO DE LA ROSA                                     
04120030       000000000011614668610000276990226241522300000000707369000912202146 PAGO POR CUENTA Y ORDEN SUE11ALK171019HN1 00000000000000dgarcia@gruposeri.com                  09122021TANIA YSMENE LOPEZ MONTOYA                                            
04905568       000000000011614668610000274370172768529400000000168829000912202146 PAGO POR CUENTA Y ORDEN SUE11ALK171019HN1 00000000000000dgarcia@gruposeri.com                  09122021MIRTHA URIAS INZUNZA                                                  
04908901       000000000011614668610000277190466249997400000000409355000912202146 PAGO POR CUENTA Y ORDEN SUE11ALK171019HN1 00000000000000dgarcia@gruposeri.com                  09122021OSCAR ANTONIO PAREDES CIFUENTES                                       
04912088       000000000011614668610000207356019012490500000000292492000912202146 PAGO POR CUENTA Y ORDEN SUE11ALK171019HN1 00000000000000dgarcia@gruposeri.com                  09122021ORLANDO JURADO SANCHEZ                                                
04600157       000000000011614668610000258090250204549300000000729931000912202146 PAGO POR CUENTA Y ORDEN SUE11ALK171019HN1 00000000000000dgarcia@gruposeri.com                  09122021FLOR ELISA DE LA ROSA SANDOVAL                                        
04909044       000000000011614668610001274101568947808100000000470683000912202146 PAGO POR CUENTA Y ORDEN SUE11ALK171019HN1 00000000000000dgarcia@gruposeri.com                  09122021GRISSEL YUDIRIA BELTRAN FLORES                                        
04909204       000000000011614668610001218001514222187300000000350573000912202146 PAGO POR CUENTA Y ORDEN SUE11ALK171019HN1 00000000000000dgarcia@gruposeri.com                  09122021ALMA REBECA LARA FELICIANO                                            
04909560       000000000011614668610001215502995990505700000000349118000912202146 PAGO POR CUENTA Y ORDEN SUE11ALK171019HN1 00000000000000dgarcia@gruposeri.com                  09122021GRISELDA PULIDO MATA                                                  
04906974       000000000011614668610001242001558028808600000000349117000912202146 PAGO POR CUENTA Y ORDEN SUE11ALK171019HN1 00000000000000dgarcia@gruposeri.com                  09122021IVAN ALEXIS FERNANDEZ ACEVEDO                                         
04907846       000000000011614668610001218001533260024600000000331118000912202146 PAGO POR CUENTA Y ORDEN SUE11ALK171019HN1 00000000000000dgarcia@gruposeri.com                  09122021JESSICA ELENA GUERRERO GONZALEZ                                       
04908050       000000000011614668610001277301541036079200000000359355000912202146 PAGO POR CUENTA Y ORDEN SUE11ALK171019HN1 00000000000000dgarcia@gruposeri.com                  09122021JONATHAN AXEL CAZAREZ VERDUGO                                         
04908664       000000000011614668610001281301514576698700000000730969000912202146 PAGO POR CUENTA Y ORDEN SUE11ALK171019HN1 00000000000000dgarcia@gruposeri.com                  09122021OSCAR IVAN HERNANDEZ HERNANDEZ                                        
04905320       000000000011614668610001218001500142673500000000205652000912202146 PAGO POR CUENTA Y ORDEN SUE11ALK171019HN1 00000000000000dgarcia@gruposeri.com                  09122021MYRNA GUADALUPE VALDEZ BARRERAS                                       
04909581       000000000011614668610001215001566905958700000000399118000912202146 PAGO POR CUENTA Y ORDEN SUE11ALK171019HN1 00000000000000dgarcia@gruposeri.com                  09122021LUISA VIRIDIANA OLIVAS MARTINEZ                                       
04909638       000000000011614668610001218001560933494400000000555968000912202146 PAGO POR CUENTA Y ORDEN SUE11ALK171019HN1 00000000000000dgarcia@gruposeri.com                  09122021MARIA REBECA SALCIDO MIRANDA                                          
04912052       000000000011614668610001277301546223893700000000381118000912202146 PAGO POR CUENTA Y ORDEN SUE11ALK171019HN1 00000000000000dgarcia@gruposeri.com                  09122021CARMEN  SOCORRO SOLIS VALENCIA                                        
04912087       000000000011614668610001218001584126111800000000211637000912202146 PAGO POR CUENTA Y ORDEN SUE11ALK171019HN1 00000000000000dgarcia@gruposeri.com                  09122021TERESITA GUADALUPE PEREZ CABRERA                                      
04905901       000000000011614668610001276901535708567800000000338078000912202146 PAGO POR CUENTA Y ORDEN SUE11ALK171019HN1 00000000000000dgarcia@gruposeri.com                  09122021PRISCILA YITCEL SAMANIEGO RODRIGUEZ                                   
04906725       000000000011614668610001277101520801549700000000412367000912202146 PAGO POR CUENTA Y ORDEN SUE11ALK171019HN1 00000000000000dgarcia@gruposeri.com                  09122021GUADALUPE MARIA LEYVA ZAZUETA                                         
04120699       000000000011614668610001218001541669072900000000289634000912202146 PAGO POR CUENTA Y ORDEN SUE11ALK171019HN1 00000000000000dgarcia@gruposeri.com                  09122021JESSICA GUTIERREZ MILLANES                                            
04903626       000000000011614668610001215001574216067800000000559296000912202146 PAGO POR CUENTA Y ORDEN SUE11ALK171019HN1 00000000000000dgarcia@gruposeri.com                  09122021ANA KAREN TORRES MORALES                                              
04904643       000000000011614668610001242001534188254000000000624617000912202146 PAGO POR CUENTA Y ORDEN SUE11ALK171019HN1 00000000000000dgarcia@gruposeri.com                  09122021RIGOBERTO QUEZADA SAUCEDO                                             
04120072       000000000011614668610001277100470412945800000000889429000912202146 PAGO POR CUENTA Y ORDEN SUE11ALK171019HN1 00000000000000dgarcia@gruposeri.com                  09122021MARIANA GUADALUPE ROMAN ANGUAMEA                                      
04120645       000000000011614668610001215801162159406000000000625485000912202146 PAGO POR CUENTA Y ORDEN SUE11ALK171019HN1 00000000000000dgarcia@gruposeri.com                  09122021MARIA DEL SOCORRO PEREZ AGUIRRE                                       
04120668       000000000011614668610001276101509603166400000000385497000912202146 PAGO POR CUENTA Y ORDEN SUE11ALK171019HN1 00000000000000dgarcia@gruposeri.com                  09122021GUSTAVO AARON HERNANDEZ GUZMAN                                        
04803329       000000000011614668610001274001521580881900000000365969000912202146 PAGO POR CUENTA Y ORDEN SUE11ALK171019HN1 00000000000000dgarcia@gruposeri.com                  09122021ANDREA CECILIA LOPEZ GARCIA                                           
04120544       000000000011614668610001277101551921510600000000598746000912202146 PAGO POR CUENTA Y ORDEN SUE11ALK171019HN1 00000000000000dgarcia@gruposeri.com                  09122021JESUS ANTONIO BAZQUEZ MORALES                                         
0497655        000000000011614668610001276901528185042900000000287717000912202146 PAGO POR CUENTA Y ORDEN SUE11ALK171019HN1 00000000000000dgarcia@gruposeri.com                  09122021ISRAEL ABDIEL PACHECO PERAZA                                          
04120016       000000000011614668610001277702959395911900000000608171000912202146 PAGO POR CUENTA Y ORDEN SUE11ALK171019HN1 00000000000000dgarcia@gruposeri.com                  09122021SAUL AGUILAR LEY                                                      
04911984       000000000011614668610001270401512720623100000000435731000912202146 PAGO POR CUENTA Y ORDEN SUE11ALK171019HN1 00000000000000dgarcia@gruposeri.com                  09122021IRAM CAMACHO MORENO                                                   
04911985       000000000011614668610001218001581628590900000000718179000912202146 PAGO POR CUENTA Y ORDEN SUE11ALK171019HN1 00000000000000dgarcia@gruposeri.com                  09122021GUADALUPE AVILA HERMOSILLO                                            
04912030       000000000011614668610001218001553885736900000000431118000912202146 PAGO POR CUENTA Y ORDEN SUE11ALK171019HN1 00000000000000dgarcia@gruposeri.com                  09122021GLADIZ RUBI SANCHEZ GARCIA                                            
04912033       000000000011614668610001207801519999822900000000331118000912202146 PAGO POR CUENTA Y ORDEN SUE11ALK171019HN1 00000000000000dgarcia@gruposeri.com                  09122021JOSUE HERNANDEZ CABRERA                                               
04912041       000000000011614668610001281301558317697700000000578469000912202146 PAGO POR CUENTA Y ORDEN SUE11ALK171019HN1 00000000000000dgarcia@gruposeri.com                  09122021JOSE DE JESUS RIOS VERBER                                             
04912043       000000000011614668610001270001529528512000000000381118000912202146 PAGO POR CUENTA Y ORDEN SUE11ALK171019HN1 00000000000000dgarcia@gruposeri.com                  09122021ROBERTO MARTINEZ PEREZ                                                
04909175       000000000011614668610001258001506857962300000000539617000912202146 PAGO POR CUENTA Y ORDEN SUE11ALK171019HN1 00000000000000dgarcia@gruposeri.com                  09122021LAURA JAQUELINE ESPINOZA SANCHEZ                                      
04909383       000000000011614668610001218001564831698100000000710660000912202146 PAGO POR CUENTA Y ORDEN SUE11ALK171019HN1 00000000000000dgarcia@gruposeri.com                  09122021YISSEL GUADALUPE HERMOSILLO ROMAN                                     
04909403       000000000011614668610001276001516991704300000000569318000912202146 PAGO POR CUENTA Y ORDEN SUE11ALK171019HN1 00000000000000dgarcia@gruposeri.com                  09122021VERONICA ARAUJO RODRIGUEZ                                             
04909494       000000000011614668610001277701532345567700000000519217000912202146 PAGO POR CUENTA Y ORDEN SUE11ALK171019HN1 00000000000000dgarcia@gruposeri.com                  09122021MARIEL ANGELICA YOCUPICIO                                             
04911934       000000000011614668610001270401582938003100000000480177000912202146 PAGO POR CUENTA Y ORDEN SUE11ALK171019HN1 00000000000000dgarcia@gruposeri.com                  09122021LIMNA JARET RUIZ MORALES                                              
04911938       000000000011614668610001293001435746086100000000460177000912202146 PAGO POR CUENTA Y ORDEN SUE11ALK171019HN1 00000000000000dgarcia@gruposeri.com                  09122021JUAN PABLO VILLAGRANA TORRES                                          
04911942       000000000011614668610001218001583177790000000000470307000912202146 PAGO POR CUENTA Y ORDEN SUE11ALK171019HN1 00000000000000dgarcia@gruposeri.com                  09122021GEMA LIZETH SILVA ORTIZ                                               
04911951       000000000011614668610001270901551722533500000000309355000912202146 PAGO POR CUENTA Y ORDEN SUE11ALK171019HN1 00000000000000dgarcia@gruposeri.com                  09122021ELSA MARISOL ZAVALA DOMINGUEZ                                         
04911964       000000000011614668610001258001595861856800000000349343000912202146 PAGO POR CUENTA Y ORDEN SUE11ALK171019HN1 00000000000000dgarcia@gruposeri.com                  09122021HECTOR MAURICIO HERNANDEZ GUTIERREZ                                   
04908945       000000000011614668610001277401552161931500000000426818000912202146 PAGO POR CUENTA Y ORDEN SUE11ALK171019HN1 00000000000000dgarcia@gruposeri.com                  09122021ADRIANA BERENICE CABANAS PACHECO                                      
04908576       000000000011614668610001218001559758788700000000362530000912202146 PAGO POR CUENTA Y ORDEN SUE11ALK171019HN1 00000000000000dgarcia@gruposeri.com                  09122021ERIKA JOCELYN MONSIVAIS AVILA                                         
04908716       000000000011614668610001276001545507308600000000438613000912202146 PAGO POR CUENTA Y ORDEN SUE11ALK171019HN1 00000000000000dgarcia@gruposeri.com                  09122021GUILLERMO ANTONIO GUTIERREZ QUILIHUA                                  
04908831       000000000011614668610001219001577168896100000000370960000912202146 PAGO POR CUENTA Y ORDEN SUE11ALK171019HN1 00000000000000dgarcia@gruposeri.com                  09122021FATIMA QUINONES VAZQUEZ                                               
04908057       000000000011614668610001218001556191050300000000529355000912202146 PAGO POR CUENTA Y ORDEN SUE11ALK171019HN1 00000000000000dgarcia@gruposeri.com                  09122021ERIKA YAZMIN SAUCEDA GARCIA                                           
04907495       000000000011614668610001218001547548920100000000322224000912202146 PAGO POR CUENTA Y ORDEN SUE11ALK171019HN1 00000000000000dgarcia@gruposeri.com                  09122021JENNY  DEL  ROCIO MORENO GALLARDO                                     
04906961       000000000011614668610001218001528570759700000000609355000912202146 PAGO POR CUENTA Y ORDEN SUE11ALK171019HN1 00000000000000dgarcia@gruposeri.com                  09122021PEDRO ALBERTO ESPARZA MARTINEZ                                        
04907188       000000000011614668610001215001520115137700000000193985000912202146 PAGO POR CUENTA Y ORDEN SUE11ALK171019HN1 00000000000000dgarcia@gruposeri.com                  09122021ARELY NOHEMI BONILLA GONZALEZ                                         
04907203       000000000011614668610001206001564256093400000000552617000912202146 PAGO POR CUENTA Y ORDEN SUE11ALK171019HN1 00000000000000dgarcia@gruposeri.com                  09122021IVAN MORALES SAENZPARDO                                               
04905118       000000000011614668610001218001537503161000000000709355000912202146 PAGO POR CUENTA Y ORDEN SUE11ALK171019HN1 00000000000000dgarcia@gruposeri.com                  09122021SARAHI ANTELO LOYA                                                    
04905299       000000000011614668610001218001599631804200000000509105000912202146 PAGO POR CUENTA Y ORDEN SUE11ALK171019HN1 00000000000000dgarcia@gruposeri.com                  09122021JONATHAN COLUNGA SANTIAGO                                             
04905570       000000000011614668610001232001122802341600000000417755000912202146 PAGO POR CUENTA Y ORDEN SUE11ALK171019HN1 00000000000000dgarcia@gruposeri.com                  09122021LEOBARDO FRANKLIN OLIVARES HERNANDEZ                                  
04903405       000000000011614668610001270201457094523600000000503582000912202146 PAGO POR CUENTA Y ORDEN SUE11ALK171019HN1 00000000000000dgarcia@gruposeri.com                  09122021LETICIA AQUINO LARA                                                   
04905952       000000000011614668610001281302876340008100000000509617000912202146 PAGO POR CUENTA Y ORDEN SUE11ALK171019HN1 00000000000000dgarcia@gruposeri.com                  09122021MARCO ANTONIO TREVINO REYES                                           
04906178       000000000011614668610001218001534868602100000000294717000912202146 PAGO POR CUENTA Y ORDEN SUE11ALK171019HN1 00000000000000dgarcia@gruposeri.com                  09122021OMAR SAMORI RAMIREZ GARCIA                                            
04904427       000000000011614668610001270001586583141200000000564737000912202146 PAGO POR CUENTA Y ORDEN SUE11ALK171019HN1 00000000000000dgarcia@gruposeri.com                  09122021DANIELA EDITH DE LA CRUZ MASCORRO                                     
04902143       000000000011614668610001218001506975884300000000514041000912202146 PAGO POR CUENTA Y ORDEN SUE11ALK171019HN1 00000000000000dgarcia@gruposeri.com                  09122021GILBERTO MANUEL LUGO ANDRADE                                          
04901044       000000000011614668610001218001587509360800000000902759000912202146 PAGO POR CUENTA Y ORDEN SUE11ALK171019HN1 00000000000000dgarcia@gruposeri.com                  09122021CINTIA NADYA QUIRINO LOPEZ                                            
04100012       000000000011614668610001271101557312222400000000692288000912202146 PAGO POR CUENTA Y ORDEN SUE11ALK171019HN1 00000000000000dgarcia@gruposeri.com                  09122021DIANA CRISTINA VAZQUEZ PECINA                                         
04901702       000000000011614668610001206001535721563900000000709805000912202146 PAGO POR CUENTA Y ORDEN SUE11ALK171019HN1 00000000000000dgarcia@gruposeri.com                  09122021EDGAR GUILLERMO ARAGON NAVARRO                                        
04120092       000000000011614668610001277701127632304100000000586937000912202146 PAGO POR CUENTA Y ORDEN SUE11ALK171019HN1 00000000000000dgarcia@gruposeri.com                  09122021MARLENE GUADALUPE LOPEZ NAVARRO                                       
04120132       000000000011614668610001277701506270395200000000628369000912202146 PAGO POR CUENTA Y ORDEN SUE11ALK171019HN1 00000000000000dgarcia@gruposeri.com                  09122021JOSE ANGEL SOTO VALDEZ                                                
04120424       000000000011614668610001277701548016334900000000830765000912202146 PAGO POR CUENTA Y ORDEN SUE11ALK171019HN1 00000000000000dgarcia@gruposeri.com                  09122021JESUS RAMON BORBON SAAVEDRA                                           
04120550       000000000011614668610001277701505955863100000000449656000912202146 PAGO POR CUENTA Y ORDEN SUE11ALK171019HN1 00000000000000dgarcia@gruposeri.com                  09122021LUIS DAVID ARMENTA GUTIERREZ                                          
04601292       000000000011614668610001206001579302360500000000246740000912202146 PAGO POR CUENTA Y ORDEN SUE11ALK171019HN1 00000000000000dgarcia@gruposeri.com                  09122021ELIZABETH MIRELES ZARAGOZA                                            
04120049       000000000011614668610001276001155416574700000000857447000912202146 PAGO POR CUENTA Y ORDEN SUE11ALK171019HN1 00000000000000dgarcia@gruposeri.com                  09122021GENSY GUADALUPE PAZ SALCIDO                                           
04120028       000000000011614668610001277001543168115200000000543241000912202146 PAGO POR CUENTA Y ORDEN SUE11ALK171019HN1 00000000000000dgarcia@gruposeri.com                  09122021LEXIE SINAHI GODINEZ SANCHEZ                                          
04100378       000000000011614668610001218001510804421400000000405071000912202146 PAGO POR CUENTA Y ORDEN SUE11ALK171019HN1 00000000000000dgarcia@gruposeri.com                  09122021ALAN ROGELIO CRUZ RUIZ                                                
04100314       000000000011614668610001218001531759283200000000317685000912202146 PAGO POR CUENTA Y ORDEN SUE11ALK171019HN1 00000000000000dgarcia@gruposeri.com                  09122021ADRIANA CARDENAS RODRIGUEZ                                            
04100325       000000000011614668610001270001520157760200000000269445000912202146 PAGO POR CUENTA Y ORDEN SUE11ALK171019HN1 00000000000000dgarcia@gruposeri.com                  09122021ROSA MARIA FLORES HERNANDEZ                                           
04100355       000000000011614668610001270001538514542600000000280654000912202146 PAGO POR CUENTA Y ORDEN SUE11ALK171019HN1 00000000000000dgarcia@gruposeri.com                  09122021PEDRO ANTONIO GARCIA MARTINEZ                                         
0430608        000000000011614668610001219001512458686900000000489101000912202146 PAGO POR CUENTA Y ORDEN SUE11ALK171019HN1 00000000000000dgarcia@gruposeri.com                  09122021NELIDA YANETH PARRA LANDEROS                                          
04100185       000000000011614668610001218002696170722400000000476413000912202146 PAGO POR CUENTA Y ORDEN SUE11ALK171019HN1 00000000000000dgarcia@gruposeri.com                  09122021LAURA EDITH PADRON VILLELA                                            
04100206       000000000011614668610001218001558938687600000000700974000912202146 PAGO POR CUENTA Y ORDEN SUE11ALK171019HN1 00000000000000dgarcia@gruposeri.com                  09122021LUCIA MATIAS FLORES                                                   
04100017       000000000011614668610001271101508179905500000000910396000912202146 PAGO POR CUENTA Y ORDEN SUE11ALK171019HN1 00000000000000dgarcia@gruposeri.com                  09122021JOSE UBALDO MARTINEZ VEGA                                             
04100036       000000000011614668610001271101508603405800000000619450000912202146 PAGO POR CUENTA Y ORDEN SUE11ALK171019HN1 00000000000000dgarcia@gruposeri.com                  09122021ALMA DELIA CASTILLO HERNANDEZ                                         
04100043       000000000011614668610001271101507613261400000000581063000912202146 PAGO POR CUENTA Y ORDEN SUE11ALK171019HN1 00000000000000dgarcia@gruposeri.com                  09122021RAFAEL FIGUEROA VEGA                                                  
04100099       000000000011614668610001271101586910168700000000449092000912202146 PAGO POR CUENTA Y ORDEN SUE11ALK171019HN1 00000000000000dgarcia@gruposeri.com                  09122021JUAN ALBERTO HERNANDEZ GUEVARA                                        
04100156       000000000011614668610001270900464317068200000000706521000912202146 PAGO POR CUENTA Y ORDEN SUE11ALK171019HN1 00000000000000dgarcia@gruposeri.com                  09122021MARIA DE JESUS MARTINEZ RAMIREZ                                       
0490732        000000000011614668610001281301519688323300000000293824000912202146 PAGO POR CUENTA Y ORDEN SUE11ALK171019HN1 00000000000000dgarcia@gruposeri.com                  09122021MARIA DE JESUS PEREZ TICANTE                                          
0490738        000000000011614668610001281301519943641200000000469165000912202146 PAGO POR CUENTA Y ORDEN SUE11ALK171019HN1 00000000000000dgarcia@gruposeri.com                  09122021VERONICA CRUZ CASTILLO                                                
0491118        000000000011614668610001281102942007878600000000684838000912202146 PAGO POR CUENTA Y ORDEN SUE11ALK171019HN1 00000000000000dgarcia@gruposeri.com                  09122021GEORGINA DEL ANGEL MONFIL                                             
04911906       000000000011614668610001270501548393705200000000480177000912202146 PAGO POR CUENTA Y ORDEN SUE11ALK171019HN1 00000000000000dgarcia@gruposeri.com                  09122021LUIS ENRIQUE ROSALES ESCOBAR                                          
04911915       000000000011614668610001281301568929273900000000480177000912202146 PAGO POR CUENTA Y ORDEN SUE11ALK171019HN1 00000000000000dgarcia@gruposeri.com                  09122021ANA LAURA FLORES RAMIREZ                                              
04911830       000000000011614668610001207801525572238400000000696144000912202146 PAGO POR CUENTA Y ORDEN SUE11ALK171019HN1 00000000000000dgarcia@gruposeri.com                  09122021ANTONIO DE JESUS GONZALEZ ARANDA                                      
04911851       000000000011614668610001250401539033912200000000381296000912202146 PAGO POR CUENTA Y ORDEN SUE11ALK171019HN1 00000000000000dgarcia@gruposeri.com                  09122021GRACIELA OLIVOS PEREZ                                                 
04911859       000000000011614668610001258001506835195100000000428926000912202146 PAGO POR CUENTA Y ORDEN SUE11ALK171019HN1 00000000000000dgarcia@gruposeri.com                  09122021ROBERTO OTHONIEL MURILLO COMPEAN                                      
04911870       000000000011614668610001218001531656950700000000397148000912202146 PAGO POR CUENTA Y ORDEN SUE11ALK171019HN1 00000000000000dgarcia@gruposeri.com                  09122021YADIRA YANETH HERRERA LEOS                                            
04911814       000000000011614668610001232001587197406000000000339617000912202146 PAGO POR CUENTA Y ORDEN SUE11ALK171019HN1 00000000000000dgarcia@gruposeri.com                  09122021MARCO ANTONIO SAN JUAN URTIAGA                                        
04911820       000000000011614668610001281302905643120300000000289617000912202146 PAGO POR CUENTA Y ORDEN SUE11ALK171019HN1 00000000000000dgarcia@gruposeri.com                  09122021JULIO CESAR VARGAS DE LA CRUZ                                         
04911884       000000000011614668610001258001573998212500000000596144000912202146 PAGO POR CUENTA Y ORDEN SUE11ALK171019HN1 00000000000000dgarcia@gruposeri.com                  09122021IRMA NELLY GONZALEZ URESTI                                            
04909061       000000000011614668610001258001584982528200000000627393000912202146 PAGO POR CUENTA Y ORDEN SUE11ALK171019HN1 00000000000000dgarcia@gruposeri.com                  09122021MARINA ZARAZUA GARCIA                                                 
04909445       000000000011614668610001281301545521750800000000409574000912202146 PAGO POR CUENTA Y ORDEN SUE11ALK171019HN1 00000000000000dgarcia@gruposeri.com                  09122021ERICK GONZALEZ GUTIERREZ                                              
04911705       000000000011614668610001219001502587564000000000389617000912202146 PAGO POR CUENTA Y ORDEN SUE11ALK171019HN1 00000000000000dgarcia@gruposeri.com                  09122021JORGE ANTONIO DIAZ RAMIREZ                                            
04911736       000000000011614668610001258001506886317700000000289617000912202146 PAGO POR CUENTA Y ORDEN SUE11ALK171019HN1 00000000000000dgarcia@gruposeri.com                  09122021ARTURO CHAVIRA SALINAS                                                
04911739       000000000011614668610001281301586254411000000000317907000912202146 PAGO POR CUENTA Y ORDEN SUE11ALK171019HN1 00000000000000dgarcia@gruposeri.com                  09122021MIRNA YANETT MEDINA MANZANO                                           
04911771       000000000011614668610001218001572029941800000000267907000912202146 PAGO POR CUENTA Y ORDEN SUE11ALK171019HN1 00000000000000dgarcia@gruposeri.com                  09122021GLORIA ANAHI GONZALEZ VEGA                                            
04911786       000000000011614668610001258001561002195600000000331118000912202146 PAGO POR CUENTA Y ORDEN SUE11ALK171019HN1 00000000000000dgarcia@gruposeri.com                  09122021CLAUDIA LOPEZ CUELLAR                                                 
04911783       000000000011614668610001201000459564152100000000431118000912202146 PAGO POR CUENTA Y ORDEN SUE11ALK171019HN1 00000000000000dgarcia@gruposeri.com                  09122021LILIA MIRELES VALLEJO                                                 
04911784       000000000011614668610001258001506815445900000000718179000912202146 PAGO POR CUENTA Y ORDEN SUE11ALK171019HN1 00000000000000dgarcia@gruposeri.com                  09122021CONRADO RAMON MEJIA BARRON                                            
04911765       000000000011614668610001218001548612407600000000290743000912202146 PAGO POR CUENTA Y ORDEN SUE11ALK171019HN1 00000000000000dgarcia@gruposeri.com                  09122021PAULINA GUADALUPE ALBA MARTINEZ                                       
04911803       000000000011614668610001276002689221115700000000407327000912202146 PAGO POR CUENTA Y ORDEN SUE11ALK171019HN1 00000000000000dgarcia@gruposeri.com                  09122021PABLO ARTURO LERMA ESTEVANE                                           
04908769       000000000011614668610001202801510592484200000000536193000912202146 PAGO POR CUENTA Y ORDEN SUE11ALK171019HN1 00000000000000dgarcia@gruposeri.com                  09122021EVELIN DORIELA LOPEZ GUEVARA                                          
04908786       000000000011614668610001258001559647643400000000621257000912202146 PAGO POR CUENTA Y ORDEN SUE11ALK171019HN1 00000000000000dgarcia@gruposeri.com                  09122021MARTIN ARMANDO HERNANDEZ MUNIZ                                        
04908851       000000000011614668610001270001563435451500000000467907000912202146 PAGO POR CUENTA Y ORDEN SUE11ALK171019HN1 00000000000000dgarcia@gruposeri.com                  09122021LUIS REY CARRERA GONZALEZ                                             
04908981       000000000011614668610001201002980116084900000000773544000912202146 PAGO POR CUENTA Y ORDEN SUE11ALK171019HN1 00000000000000dgarcia@gruposeri.com                  09122021HECTOR ANGULO RAMIREZ                                                 
04909019       000000000011614668610001281301521616331200000000343848000912202146 PAGO POR CUENTA Y ORDEN SUE11ALK171019HN1 00000000000000dgarcia@gruposeri.com                  09122021ANTONIO MATEOS ALEJO                                                  
04908648       000000000011614668610001218001560428279000000000868508000912202146 PAGO POR CUENTA Y ORDEN SUE11ALK171019HN1 00000000000000dgarcia@gruposeri.com                  09122021ESMERALDA ESCARENO RIVERA                                             
04908713       000000000011614668610001268001551590352900000000188392000912202146 PAGO POR CUENTA Y ORDEN SUE11ALK171019HN1 00000000000000dgarcia@gruposeri.com                  09122021RICARDO EMMANUEL REYES MOLINA                                         
04907855       000000000011614668610001218001541570277300000000586318000912202146 PAGO POR CUENTA Y ORDEN SUE11ALK171019HN1 00000000000000dgarcia@gruposeri.com                  09122021MARIA ESTRELLA RAMIREZ GALINDEZ                                       
04906928       000000000011614668610001258001501668300800000000724498000912202146 PAGO POR CUENTA Y ORDEN SUE11ALK171019HN1 00000000000000dgarcia@gruposeri.com                  09122021GERMAN GONZALEZ RODRIGUEZ                                             
04907375       000000000011614668610001258001513301377100000000368105000912202146 PAGO POR CUENTA Y ORDEN SUE11ALK171019HN1 00000000000000dgarcia@gruposeri.com                  09122021ANA MARGARITA ACUNA SANTANA                                           
04907376       000000000011614668610001258002886484670900000000272785000912202146 PAGO POR CUENTA Y ORDEN SUE11ALK171019HN1 00000000000000dgarcia@gruposeri.com                  09122021KARLA KARINA GARZA SILVA                                              
04907381       000000000011614668610001281001506845182200000000416852000912202146 PAGO POR CUENTA Y ORDEN SUE11ALK171019HN1 00000000000000dgarcia@gruposeri.com                  09122021FRANCISCO JAVIER ARREOLA SANCHEZ                                      
04907386       000000000011614668610001258001528582538300000000417602000912202146 PAGO POR CUENTA Y ORDEN SUE11ALK171019HN1 00000000000000dgarcia@gruposeri.com                  09122021SANJUANA ARMENDARIZ SOSA                                              
04904165       000000000011614668610001269101543437658500000000948373000912202146 PAGO POR CUENTA Y ORDEN SUE11ALK171019HN1 00000000000000dgarcia@gruposeri.com                  09122021ROSENDO CASTRO SERNA                                                  
04902298       000000000011614668610001281001586131387900000000302574000912202146 PAGO POR CUENTA Y ORDEN SUE11ALK171019HN1 00000000000000dgarcia@gruposeri.com                  09122021MARIA DEL CARMEN CASTRO FLORES                                        
04903809       000000000011614668610001281002979988890900000000355987000912202146 PAGO POR CUENTA Y ORDEN SUE11ALK171019HN1 00000000000000dgarcia@gruposeri.com                  09122021MARILU MARTINEZ ALVAREZ                                               
04903764       000000000011614668610001271101571209046300000000353082000912202146 PAGO POR CUENTA Y ORDEN SUE11ALK171019HN1 00000000000000dgarcia@gruposeri.com                  09122021ALEJANDRO LOPEZ ALONSO                                                
04903578       000000000011614668610001218001525832702700000000497557000912202146 PAGO POR CUENTA Y ORDEN SUE11ALK171019HN1 00000000000000dgarcia@gruposeri.com                  09122021JULIO CESAR RAMOS MORALES                                             
04903581       000000000011614668610001258001516059756100000000626518000912202146 PAGO POR CUENTA Y ORDEN SUE11ALK171019HN1 00000000000000dgarcia@gruposeri.com                  09122021EDGAR ALEJANDRO MORALES LOPEZ                                         
04903694       000000000011614668610001232001585738086900000000335506000912202146 PAGO POR CUENTA Y ORDEN SUE11ALK171019HN1 00000000000000dgarcia@gruposeri.com                  09122021MOISES ALEJANDRO GALINDO QUINONES                                     
04904089       000000000011614668610001258001571992026200000000598817000912202146 PAGO POR CUENTA Y ORDEN SUE11ALK171019HN1 00000000000000dgarcia@gruposeri.com                  09122021ERICK YAMIL RICARDO GARCIA RESENDIZ                                   
04905019       000000000011614668610001281102797345631000000000464301000912202146 PAGO POR CUENTA Y ORDEN SUE11ALK171019HN1 00000000000000dgarcia@gruposeri.com                  09122021GLENDA IVONE PACHECO PANTOJA                                          
04905592       000000000011614668610001270001582140624700000000420879000912202146 PAGO POR CUENTA Y ORDEN SUE11ALK171019HN1 00000000000000dgarcia@gruposeri.com                  09122021BLANCA MONICA GUERRERO CASTILLO                                       
04906565       000000000011614668610001270001560410179800000000452819000912202146 PAGO POR CUENTA Y ORDEN SUE11ALK171019HN1 00000000000000dgarcia@gruposeri.com                  09122021KARLA VIANEY CASTILLO RODRIGUEZ                                       
04906597       000000000011614668610001218001571162071100000000440193000912202146 PAGO POR CUENTA Y ORDEN SUE11ALK171019HN1 00000000000000dgarcia@gruposeri.com                  09122021EVANGELINA GARCIA RODRIGUEZ                                           
04902799       000000000011614668610001285402907448570800000000861843000912202146 PAGO POR CUENTA Y ORDEN SUE11ALK171019HN1 00000000000000dgarcia@gruposeri.com                  09122021ALBERTO ALONSO MENDOZA VAZQUEZ                                        
04901812       000000000011614668610001293302875833531300000000636737000912202146 PAGO POR CUENTA Y ORDEN SUE11ALK171019HN1 00000000000000dgarcia@gruposeri.com                  09122021SANDRA IBARRA GARCIA                                                  
04901897       000000000011614668610001256000462286629500000000524767000912202146 PAGO POR CUENTA Y ORDEN SUE11ALK171019HN1 00000000000000dgarcia@gruposeri.com                  09122021JULIAN  MORA                                                          
04901992       000000000011614668610001206201526258304300000000318529000912202146 PAGO POR CUENTA Y ORDEN SUE11ALK171019HN1 00000000000000dgarcia@gruposeri.com                  09122021GREGORIA ELIZABETH GARCIA HERNANDEZ                                   
04901378       000000000011614668610001202801580022306800000000428899000912202146 PAGO POR CUENTA Y ORDEN SUE11ALK171019HN1 00000000000000dgarcia@gruposeri.com                  09122021BULMARO DANIEL ELIZARRARAS GONZALEZ                                   
04803548       000000000011614668610001270002974414357600000000844873000912202146 PAGO POR CUENTA Y ORDEN SUE11ALK171019HN1 00000000000000dgarcia@gruposeri.com                  09122021FRANCISCO JAVIER SANDOVAL PERALTA                                     
04601487       000000000011614668610001270001535217584300000000560569000912202146 PAGO POR CUENTA Y ORDEN SUE11ALK171019HN1 00000000000000dgarcia@gruposeri.com                  09122021LIZETH GUADALUPE PEREZ CARREON                                        
04803394       000000000011614668610001270902895698936800000000583932000912202146 PAGO POR CUENTA Y ORDEN SUE11ALK171019HN1 00000000000000dgarcia@gruposeri.com                  09122021JOSE LUIS CURA FUENTES                                                
04601214       000000000011614668610001256001564488571900000000378203000912202146 PAGO POR CUENTA Y ORDEN SUE11ALK171019HN1 00000000000000dgarcia@gruposeri.com                  09122021MARIA DEL REFUGIO MOLINA IBOA                                         
04601441       000000000011614668610001258001477432399900000000331118000912202146 PAGO POR CUENTA Y ORDEN SUE11ALK171019HN1 00000000000000dgarcia@gruposeri.com                  09122021JUANITA ALEJANDRA ZAMUDIO REYES                                       
04601241       000000000011614668610001258001551962035100000000578435000912202146 PAGO POR CUENTA Y ORDEN SUE11ALK171019HN1 00000000000000dgarcia@gruposeri.com                  09122021FRANCISCO GUERRA GONZALEZ                                             
04600907       000000000011614668610001256002723086011000000000347947000912202146 PAGO POR CUENTA Y ORDEN SUE11ALK171019HN1 00000000000000dgarcia@gruposeri.com                  09122021ELIZABETH TORRES RAMOS                                                
04600692       000000000011614668610001202002899365125700000000566636000912202146 PAGO POR CUENTA Y ORDEN SUE11ALK171019HN1 00000000000000dgarcia@gruposeri.com                  09122021LILIANA MONTANO GARCIA                                                
04600730       000000000011614668610001270501513114934100000000787684000912202146 PAGO POR CUENTA Y ORDEN SUE11ALK171019HN1 00000000000000dgarcia@gruposeri.com                  09122021BLANCA ESTELA GARCIA HERNANDEZ                                        
04600253       000000000011614668610001270001530044865800000000488926000912202146 PAGO POR CUENTA Y ORDEN SUE11ALK171019HN1 00000000000000dgarcia@gruposeri.com                  09122021MARIA GUADALUPE LOPEZ ZAMBRANO                                        
04600257       000000000011614668610001202701568061460700000000371115000912202146 PAGO POR CUENTA Y ORDEN SUE11ALK171019HN1 00000000000000dgarcia@gruposeri.com                  09122021ELIZABET DIAZ VILLANUEVA                                              
04600530       000000000011614668610001202000465162025600000000355429000912202146 PAGO POR CUENTA Y ORDEN SUE11ALK171019HN1 00000000000000dgarcia@gruposeri.com                  09122021KARLA YADIRA ESPARZA ALONSO                                           
04600585       000000000011614668610001270001531856815100000000524173000912202146 PAGO POR CUENTA Y ORDEN SUE11ALK171019HN1 00000000000000dgarcia@gruposeri.com                  09122021HUGO GUERRERO IZAGUIRRE                                               
04600136       000000000011614668610001271100458056137100000000552611000912202146 PAGO POR CUENTA Y ORDEN SUE11ALK171019HN1 00000000000000dgarcia@gruposeri.com                  09122021MIGUEL ANGEL GUTIERREZ MARTINEZ                                       
04600155       000000000011614668610001258001142508044500000000243567000912202146 PAGO POR CUENTA Y ORDEN SUE11ALK171019HN1 00000000000000dgarcia@gruposeri.com                  09122021FELICITAS RIOS CASTILLO                                               
04911395       000000000011614668610001218001527209824800000000267907000912202146 PAGO POR CUENTA Y ORDEN SUE11ALK171019HN1 00000000000000dgarcia@gruposeri.com                  09122021MAYRA ELISA VAZQUEZ SALAZAR                                           
04911459       000000000011614668610001215001583760963300000000359355000912202146 PAGO POR CUENTA Y ORDEN SUE11ALK171019HN1 00000000000000dgarcia@gruposeri.com                  09122021MIGUEL CASAS RIVERA                                                   
04911460       000000000011614668610001207802959946217600000000397069000912202146 PAGO POR CUENTA Y ORDEN SUE11ALK171019HN1 00000000000000dgarcia@gruposeri.com                  09122021MARCO ANTONIO MONSIVAIS LOPEZ                                         
04911477       000000000011614668610001206001561034421800000000362134000912202146 PAGO POR CUENTA Y ORDEN SUE11ALK171019HN1 00000000000000dgarcia@gruposeri.com                  09122021JOSE GERARDO CUELLAR DE LEON                                          
04911502       000000000011614668610001271101138347727300000000699986000912202146 PAGO POR CUENTA Y ORDEN SUE11ALK171019HN1 00000000000000dgarcia@gruposeri.com                  09122021SAUL SANCHEZ LOREDO                                                   
04911504       000000000011614668610001218001512174657300000000317907000912202146 PAGO POR CUENTA Y ORDEN SUE11ALK171019HN1 00000000000000dgarcia@gruposeri.com                  09122021ROSA GUADALUPE LUMBRERAS HERNANDEZ                                    
04911473       000000000011614668610001218001525848047200000000245363000912202146 PAGO POR CUENTA Y ORDEN SUE11ALK171019HN1 00000000000000dgarcia@gruposeri.com                  09122021FILIBERTO GOMEZ LOPEZ                                                 
04911346       000000000011614668610001218001531369196000000000289617000912202146 PAGO POR CUENTA Y ORDEN SUE11ALK171019HN1 00000000000000dgarcia@gruposeri.com                  09122021DANIEL DOLORES MATIAS                                                 
04911410       000000000011614668610001207801565987274600000000426585000912202146 PAGO POR CUENTA Y ORDEN SUE11ALK171019HN1 00000000000000dgarcia@gruposeri.com                  09122021JUANA ESTHER REYNA SOTO                                               
04911418       000000000011614668610001206001511705532700000000263151000912202146 PAGO POR CUENTA Y ORDEN SUE11ALK171019HN1 00000000000000dgarcia@gruposeri.com                  09122021CARMEN LILIANA MARTINEZ VALDEZ                                        
04911290       000000000011614668610001219001577541772700000000383517000912202146 PAGO POR CUENTA Y ORDEN SUE11ALK171019HN1 00000000000000dgarcia@gruposeri.com                  09122021MAYRA MARISOL RESENDIZ SIDA                                           
04911291       000000000011614668610001261002943437094300000000128874000912202146 PAGO POR CUENTA Y ORDEN SUE11ALK171019HN1 00000000000000dgarcia@gruposeri.com                  09122021JOEL DIAZ ARIAS                                                       
04911292       000000000011614668610001202802968245924000000000366661000912202146 PAGO POR CUENTA Y ORDEN SUE11ALK171019HN1 00000000000000dgarcia@gruposeri.com                  09122021IRENE ZULEMA CORTEZ DIAZ                                              
04911246       000000000011614668610001201001544944663800000000495118000912202146 PAGO POR CUENTA Y ORDEN SUE11ALK171019HN1 00000000000000dgarcia@gruposeri.com                  09122021LUIS ANGEL HERNANDEZ QUINTERO                                         
04911325       000000000011614668610001232002724661214900000000320696000912202146 PAGO POR CUENTA Y ORDEN SUE11ALK171019HN1 00000000000000dgarcia@gruposeri.com                  09122021EMMA PATRICIA MONTIEL GUTIERREZ                                       
04301195       000000000011614668610001253701579359110700000000691532000912202146 PAGO POR CUENTA Y ORDEN SUE11ALK171019HN1 00000000000000dgarcia@gruposeri.com                  09122021CRISTINA VAZQUEZ ORTIZ                                                
04600000       000000000011614668610001270001505963535600000000503748000912202146 PAGO POR CUENTA Y ORDEN SUE11ALK171019HN1 00000000000000dgarcia@gruposeri.com                  09122021JUAN ALBERTO MEJIA SARABIA                                            
04911707       000000000011614668610001270401507592755200000000359355000912202146 PAGO POR CUENTA Y ORDEN SUE11ALK171019HN1 00000000000000dgarcia@gruposeri.com                  09122021EDITH GAMEZ BARRIENTOS                                                
04911654       000000000011614668610001270501556401985700000000309355000912202146 PAGO POR CUENTA Y ORDEN SUE11ALK171019HN1 00000000000000dgarcia@gruposeri.com                  09122021ALBA NYDIA VAZQUEZ MARTINEZ                                           
04911661       000000000011614668610001258001541795225700000000289617000912202146 PAGO POR CUENTA Y ORDEN SUE11ALK171019HN1 00000000000000dgarcia@gruposeri.com                  09122021BLANCA LIZBETH LOPEZ MAYO                                             
04911626       000000000011614668610001276001528382872000000000360660000912202146 PAGO POR CUENTA Y ORDEN SUE11ALK171019HN1 00000000000000dgarcia@gruposeri.com                  09122021RICARDO ROMERO CADENA                                                 
04911591       000000000011614668610001270401534103099500000000359355000912202146 PAGO POR CUENTA Y ORDEN SUE11ALK171019HN1 00000000000000dgarcia@gruposeri.com                  09122021NATALY AYALA ESCOBAR                                                  
04911593       000000000011614668610001258001585154014400000000323944000912202146 PAGO POR CUENTA Y ORDEN SUE11ALK171019HN1 00000000000000dgarcia@gruposeri.com                  09122021CLAUDIA JENNY RANGEL MOYA                                             
04201293       000000000011614668610001201601526392702300000000459347000912202146 PAGO POR CUENTA Y ORDEN SUE11ALK171019HN1 00000000000000dgarcia@gruposeri.com                  09122021MARIA DEL ROSARIO OCON CASTILLO                                       
04100055       000000000011614668610001271102851162454800000000513767000912202146 PAGO POR CUENTA Y ORDEN SUE11ALK171019HN1 00000000000000dgarcia@gruposeri.com                  09122021CARLOS HERNANDEZ CRUZ                                                 
04100308       000000000011614668610001270500467542143900000000172930000912202146 PAGO POR CUENTA Y ORDEN SUE11ALK171019HN1 00000000000000dgarcia@gruposeri.com                  09122021LAMBERTO IVAN HERNANDEZ MARTINEZ                                      
04911563       000000000011614668610001406056819734052300000000718578000912202146 PAGO POR CUENTA Y ORDEN SUE11ALK171019HN1 00000000000000dgarcia@gruposeri.com                  09122021JUAN MANUEL CARDIEL CHAVEZ                                            
04911541       000000000011614668610001407556741302725700000000381118000912202146 PAGO POR CUENTA Y ORDEN SUE11ALK171019HN1 00000000000000dgarcia@gruposeri.com                  09122021URIEL HERNANDEZ DEL TORO                                              
04911691       000000000011614668610001458060605857884700000000360660000912202146 PAGO POR CUENTA Y ORDEN SUE11ALK171019HN1 00000000000000dgarcia@gruposeri.com                  09122021ISAIAS DOMINGUEZ SAYAGO                                               
04911699       000000000011614668610001481356820227147500000000364407000912202146 PAGO POR CUENTA Y ORDEN SUE11ALK171019HN1 00000000000000dgarcia@gruposeri.com                  09122021JUAN JOSE BUSTOS DOMINGUEZ                                            
04600928       000000000011614668610001458056764955320000000000543939000912202146 PAGO POR CUENTA Y ORDEN SUE11ALK171019HN1 00000000000000dgarcia@gruposeri.com                  09122021ROSA ISELA GARAY GONZALEZ                                             
04601439       000000000011614668610001458056761733575100000000678410000912202146 PAGO POR CUENTA Y ORDEN SUE11ALK171019HN1 00000000000000dgarcia@gruposeri.com                  09122021ARMANDO BADILLO TREJO                                                 
04601027       000000000011614668610001481060562853900000000000256445000912202146 PAGO POR CUENTA Y ORDEN SUE11ALK171019HN1 00000000000000dgarcia@gruposeri.com                  09122021FERNANDO DAMIAN ARANDA GARCIA                                         
04901776       000000000011614668610001481060609541383900000000736284000912202146 PAGO POR CUENTA Y ORDEN SUE11ALK171019HN1 00000000000000dgarcia@gruposeri.com                  09122021EMILIO DE JESUS RAMIREZ ZAVALA                                        
04902964       000000000011614668610001458060573228651100000000486162000912202146 PAGO POR CUENTA Y ORDEN SUE11ALK171019HN1 00000000000000dgarcia@gruposeri.com                  09122021DAVID LOERA SOLIS                                                     
04905740       000000000011614668610001458060585578104500000000442006000912202146 PAGO POR CUENTA Y ORDEN SUE11ALK171019HN1 00000000000000dgarcia@gruposeri.com                  09122021ERIKA YUDITH CHAIRES CONTRERAS                                        
04906298       000000000011614668610001407825009415886200000000377739000912202146 PAGO POR CUENTA Y ORDEN SUE11ALK171019HN1 00000000000000dgarcia@gruposeri.com                  09122021LUDMILA BERENICE ZUMARRAGA HERNANDEZ                                  
04904809       000000000011614668610001481356813254492600000000467907000912202146 PAGO POR CUENTA Y ORDEN SUE11ALK171019HN1 00000000000000dgarcia@gruposeri.com                  09122021CARLOS ALBERTO DIAZ CONTRERAS                                         
04904577       000000000011614668610001407860619121277600000000683969000912202146 PAGO POR CUENTA Y ORDEN SUE11ALK171019HN1 00000000000000dgarcia@gruposeri.com                  09122021MAYRA YUDIT LOPEZ LAUREANO                                            
04904250       000000000011614668610001401056744535412800000000594118000912202146 PAGO POR CUENTA Y ORDEN SUE11ALK171019HN1 00000000000000dgarcia@gruposeri.com                  09122021SONIA MARIBEL GIRON SALAZAR                                           
04903380       000000000011614668610001458060611364341300000000321826000912202146 PAGO POR CUENTA Y ORDEN SUE11ALK171019HN1 00000000000000dgarcia@gruposeri.com                  09122021PEDRO LOPEZ HERNANDEZ                                                 
04907255       000000000011614668610001401056807757949300000000382576000912202146 PAGO POR CUENTA Y ORDEN SUE11ALK171019HN1 00000000000000dgarcia@gruposeri.com                  09122021VIANEY JULIETA RODRIGUEZ HERNANDEZ                                    
04907679       000000000011614668610001470056795042426400000000542247000912202146 PAGO POR CUENTA Y ORDEN SUE11ALK171019HN1 00000000000000dgarcia@gruposeri.com                  09122021JOSE QUIRINO DEL RIO FLORES                                           
04907989       000000000011614668610001407860617099942100000000682984000912202146 PAGO POR CUENTA Y ORDEN SUE11ALK171019HN1 00000000000000dgarcia@gruposeri.com                  09122021YADIRA LILIANA GARCIA CARLOS                                          
04908622       000000000011614668610001456060616763147500000000569817000912202146 PAGO POR CUENTA Y ORDEN SUE11ALK171019HN1 00000000000000dgarcia@gruposeri.com                  09122021SIGIFREDO CORTES VARGAS                                               
04908354       000000000011614668610001406856780903796500000000489694000912202146 PAGO POR CUENTA Y ORDEN SUE11ALK171019HN1 00000000000000dgarcia@gruposeri.com                  09122021JUAN DE DIOS CASTILLO VAZQUEZ                                         
04911752       000000000011614668610001470556805887310600000000359355000912202146 PAGO POR CUENTA Y ORDEN SUE11ALK171019HN1 00000000000000dgarcia@gruposeri.com                  09122021RIGOBERTO HERNANDEZ SANTOS                                            
04911718       000000000011614668610001470060581863053100000000252955000912202146 PAGO POR CUENTA Y ORDEN SUE11ALK171019HN1 00000000000000dgarcia@gruposeri.com                  09122021CLAUDIA ISABEL GUTIERREZ JUACHE                                       
0430934        000000000011614668610001406060612781300500000000561284000912202146 PAGO POR CUENTA Y ORDEN SUE11ALK171019HN1 00000000000000dgarcia@gruposeri.com                  09122021LORENA DENNIS BERENICE RIOS DEVORA                                    
04901603       000000000011614668610001406056784878623300000000509617000912202146 PAGO POR CUENTA Y ORDEN SUE11ALK171019HN1 00000000000000dgarcia@gruposeri.com                  09122021ERIKA AGUILAR VARGAS                                                  
04902348       000000000011614668610001406060617370908200000000509617000912202146 PAGO POR CUENTA Y ORDEN SUE11ALK171019HN1 00000000000000dgarcia@gruposeri.com                  09122021CECILIA MEDINA PONCE                                                  
04907071       000000000011614668610001481156783756396200000000674617000912202146 PAGO POR CUENTA Y ORDEN SUE11ALK171019HN1 00000000000000dgarcia@gruposeri.com                  09122021DIANA LAURA RAMOS HERNANDEZ                                           
04908850       000000000011614668610001415056764839765100000000338609000912202146 PAGO POR CUENTA Y ORDEN SUE11ALK171019HN1 00000000000000dgarcia@gruposeri.com                  09122021JESUS GUADALUPE HERRERA CASTRO                                        
04909715       000000000011614668610001471160588995564500000000452381000912202146 PAGO POR CUENTA Y ORDEN SUE11ALK171019HN1 00000000000000dgarcia@gruposeri.com                  09122021PASCUAL CASTILLO MARTINEZ                                             
04909825       000000000011614668610001481425011211704600000000524555000912202146 PAGO POR CUENTA Y ORDEN SUE11ALK171019HN1 00000000000000dgarcia@gruposeri.com                  09122021JOSE RAFAEL RESENDIZ ALDACO                                           
0493170        000000000011614668610001481360562370607100000000594288000912202146 PAGO POR CUENTA Y ORDEN SUE11ALK171019HN1 00000000000000dgarcia@gruposeri.com                  09122021JESSICA MUNOZ SANCHEZ                                                 
04912050       000000000011614668610001407825011917131300000000262197000912202146 PAGO POR CUENTA Y ORDEN SUE11ALK171019HN1 00000000000000dgarcia@gruposeri.com                  09122021JOSE ALFREDO SANCHEZ GALLEGOS                                         
04803438       000000000011614668610002158006432825176200000000744184000912202146 PAGO POR CUENTA Y ORDEN SUE11ALK171019HN1 00000000000000dgarcia@gruposeri.com                  09122021JUAN ANGEL CAZARES SANCHEZ                                            
04908893       000000000011614668610002177106452378817900000000552617000912202146 PAGO POR CUENTA Y ORDEN SUE11ALK171019HN1 00000000000000dgarcia@gruposeri.com                  09122021SIMON FRANCISCO ARMENTA CORRAL                                        
04803330       000000000011614668610002174006490586975700000000835221000912202146 PAGO POR CUENTA Y ORDEN SUE11ALK171019HN1 00000000000000dgarcia@gruposeri.com                  09122021FABIAN ULISES PEREZ FIGUEROA                                          
04803616       000000000011614668610002181306438342721100000001019273000912202146 PAGO POR CUENTA Y ORDEN SUE11ALK171019HN1 00000000000000dgarcia@gruposeri.com                  09122021JORGE RESENDEZ HERNANDEZ                                              
04803617       000000000011614668610002181306470288667900000000692134000912202146 PAGO POR CUENTA Y ORDEN SUE11ALK171019HN1 00000000000000dgarcia@gruposeri.com                  09122021GABINO PINA DEVEZA                                                    
04803620       000000000011614668610002181306302860005100000000530817000912202146 PAGO POR CUENTA Y ORDEN SUE11ALK171019HN1 00000000000000dgarcia@gruposeri.com                  09122021MARIO ALBERTO QUINTERO MEDINA                                         
04803091       000000000011614668610002115206511073236300000000539617000912202146 PAGO POR CUENTA Y ORDEN SUE11ALK171019HN1 00000000000000dgarcia@gruposeri.com                  09122021PAOLA ACOSTA NUNEZ                                                    
04911924       000000000011614668610002170906507393283100000000410177000912202146 PAGO POR CUENTA Y ORDEN SUE11ALK171019HN1 00000000000000dgarcia@gruposeri.com                  09122021ROSA ISABEL RAMIREZ GARAY                                             
04902025       000000000011614668610002171106478464013900000000709355000912202146 PAGO POR CUENTA Y ORDEN SUE11ALK171019HN1 00000000000000dgarcia@gruposeri.com                  09122021EDUARDO SILVA GARCIA                                                  
04803224       000000000011614668610002181406373360638100000000355931000912202146 PAGO POR CUENTA Y ORDEN SUE11ALK171019HN1 00000000000000dgarcia@gruposeri.com                  09122021ADRIANA VIRGINIA MORENO SANCHEZ                                       
04803227       000000000011614668610002181406374032004500000000398864000912202146 PAGO POR CUENTA Y ORDEN SUE11ALK171019HN1 00000000000000dgarcia@gruposeri.com                  09122021JUANA RANGEL GONZALEZ                                                 
04803232       000000000011614668610002176706487352597300000000589440000912202146 PAGO POR CUENTA Y ORDEN SUE11ALK171019HN1 00000000000000dgarcia@gruposeri.com                  09122021LORENZO MORALES CORTEZ                                                
04803242       000000000011614668610002170506400674549800000000825456000912202146 PAGO POR CUENTA Y ORDEN SUE11ALK171019HN1 00000000000000dgarcia@gruposeri.com                  09122021SALVADOR SANCHEZ RODRIGUEZ                                            
04803243       000000000011614668610002170506438308235300000000361917000912202146 PAGO POR CUENTA Y ORDEN SUE11ALK171019HN1 00000000000000dgarcia@gruposeri.com                  09122021ARTURO TORRES CHAVEZ                                                  
04803244       000000000011614668610002170506499218190400000000473742000912202146 PAGO POR CUENTA Y ORDEN SUE11ALK171019HN1 00000000000000dgarcia@gruposeri.com                  09122021EDUARDO GEOVANI ARTEAGA RODRIGUEZ                                     
04803285       000000000011614668610002173006373307308500000001066678000912202146 PAGO POR CUENTA Y ORDEN SUE11ALK171019HN1 00000000000000dgarcia@gruposeri.com                  09122021BEATRIZ ADRIANA CANO MORENO                                           
04803287       000000000011614668610002173006484169499900000000344152000912202146 PAGO POR CUENTA Y ORDEN SUE11ALK171019HN1 00000000000000dgarcia@gruposeri.com                  09122021MARIA DE JESUS FLORES DIAZ                                            
04803289       000000000011614668610002173006504091179900000000677584000912202146 PAGO POR CUENTA Y ORDEN SUE11ALK171019HN1 00000000000000dgarcia@gruposeri.com                  09122021URIEL MORALES GAMERO                                                  
04803291       000000000011614668610002119006373341232500000000442117000912202146 PAGO POR CUENTA Y ORDEN SUE11ALK171019HN1 00000000000000dgarcia@gruposeri.com                  09122021BLANCA JUDITH HERNANDEZ MEZA                                          
04803293       000000000011614668610002119006493110443400000000915273000912202146 PAGO POR CUENTA Y ORDEN SUE11ALK171019HN1 00000000000000dgarcia@gruposeri.com                  09122021KARINA ESCAMILLA SANDOVAL                                             
04803313       000000000011614668610002106006461303830100000000438081000912202146 PAGO POR CUENTA Y ORDEN SUE11ALK171019HN1 00000000000000dgarcia@gruposeri.com                  09122021OLIVIA TINAJERO RIVERA                                                
04803314       000000000011614668610002106006464889298100000000418064000912202146 PAGO POR CUENTA Y ORDEN SUE11ALK171019HN1 00000000000000dgarcia@gruposeri.com                  09122021SONIA ALEJANDRA MOTA BURCIAGA                                         
04803339       000000000011614668610002176006499203770500000000427817000912202146 PAGO POR CUENTA Y ORDEN SUE11ALK171019HN1 00000000000000dgarcia@gruposeri.com                  09122021MARIA GUADALUPE ENRIQUEZ GUTIERREZ                                    
04803345       000000000011614668610002176006505166749700000000649517000912202146 PAGO POR CUENTA Y ORDEN SUE11ALK171019HN1 00000000000000dgarcia@gruposeri.com                  09122021SAUL NIDO VASQUEZ                                                     
04803618       000000000011614668610002181306489321392800000000920869000912202146 PAGO POR CUENTA Y ORDEN SUE11ALK171019HN1 00000000000000dgarcia@gruposeri.com                  09122021JESSICA ESMERALDA RIVERA DEL ANGEL                                    
04100161       000000000011614668610002170006461137378400000000447518000912202146 PAGO POR CUENTA Y ORDEN SUE11ALK171019HN1 00000000000000dgarcia@gruposeri.com                  09122021GUADALUPE VAZQUEZ MONTALVO                                            
04100339       000000000011614668610002171106512236642700000000928469000912202146 PAGO POR CUENTA Y ORDEN SUE11ALK171019HN1 00000000000000dgarcia@gruposeri.com                  09122021KARLA MARIA MARTINEZ ZUNIGA                                           
04120207       000000000011614668610002177006431204415100000000298720000912202146 PAGO POR CUENTA Y ORDEN SUE11ALK171019HN1 00000000000000dgarcia@gruposeri.com                  09122021REY ALEJANDRO ESPINOSA MARTINEZ                                       
04911802       000000000011614668610002115004066536863600000000431118000912202146 PAGO POR CUENTA Y ORDEN SUE11ALK171019HN1 00000000000000dgarcia@gruposeri.com                  09122021JORGE ARTURO LARA PEREZ                                               
04906716       000000000011614668610002106206494489267000000000600718000912202146 PAGO POR CUENTA Y ORDEN SUE11ALK171019HN1 00000000000000dgarcia@gruposeri.com                  09122021LAURA ESTELA GARCIA GARCIA                                            
04904019       000000000011614668610002170006471286306700000000151210000912202146 PAGO POR CUENTA Y ORDEN SUE11ALK171019HN1 00000000000000dgarcia@gruposeri.com                  09122021BELEM SARAI SANTOS GARCIA                                             
04904487       000000000011614668610002182106513030101800000000279452000912202146 PAGO POR CUENTA Y ORDEN SUE11ALK171019HN1 00000000000000dgarcia@gruposeri.com                  09122021SAN JUANA NATTALY TORRES LEZA                                         
04902605       000000000011614668610002168406451256741400000000467907000912202146 PAGO POR CUENTA Y ORDEN SUE11ALK171019HN1 00000000000000dgarcia@gruposeri.com                  09122021MIGUEL ANGEL DEL PRADO LOREDO                                         
04803555       000000000011614668610002170006509429978500000000378467000912202146 PAGO POR CUENTA Y ORDEN SUE11ALK171019HN1 00000000000000dgarcia@gruposeri.com                  09122021FRANCISCO JAVIER ARREGUIN FLORES                                      
04803558       000000000011614668610002170006456774490400000000260659000912202146 PAGO POR CUENTA Y ORDEN SUE11ALK171019HN1 00000000000000dgarcia@gruposeri.com                  09122021MARIA DE LA CONCEPCION IBARRA RAMIREZ                                 
04803559       000000000011614668610002170006478796299300000000489617000912202146 PAGO POR CUENTA Y ORDEN SUE11ALK171019HN1 00000000000000dgarcia@gruposeri.com                  09122021LAURA BERENICE REYNA ROSALES                                          
04803396       000000000011614668610002170906478901956000000000381337000912202146 PAGO POR CUENTA Y ORDEN SUE11ALK171019HN1 00000000000000dgarcia@gruposeri.com                  09122021EMMANUEL REQUENA MEDINA                                               
04803397       000000000011614668610002170906478906385900000000562127000912202146 PAGO POR CUENTA Y ORDEN SUE11ALK171019HN1 00000000000000dgarcia@gruposeri.com                  09122021RUBY GUADALUPE ESTRADA TORRES                                         
04803428       000000000011614668610002106806500100081600000000281473000912202146 PAGO POR CUENTA Y ORDEN SUE11ALK171019HN1 00000000000000dgarcia@gruposeri.com                  09122021FIDENCIA ARACELI GARCIA FRANCO                                        
04803429       000000000011614668610002106506494429073200000000792987000912202146 PAGO POR CUENTA Y ORDEN SUE11ALK171019HN1 00000000000000dgarcia@gruposeri.com                  09122021MARTHA PATRICIA DIAZ GARCIA                                           
04803535       000000000011614668610002107806373347437500000000798605000912202146 PAGO POR CUENTA Y ORDEN SUE11ALK171019HN1 00000000000000dgarcia@gruposeri.com                  09122021ANAYELI SOLANO GAYTAN                                                 
04803542       000000000011614668610002107806472617079500000000531118000912202146 PAGO POR CUENTA Y ORDEN SUE11ALK171019HN1 00000000000000dgarcia@gruposeri.com                  09122021DIANA ALEJANDRA APARICIO SALAZAR                                      
04601502       000000000011614668610002170506449023401000000000779484000912202146 PAGO POR CUENTA Y ORDEN SUE11ALK171019HN1 00000000000000dgarcia@gruposeri.com                  09122021FRANCISCO JAVIER HERNANDEZ MONTOYA                                    
04803245       000000000011614668610002181006507264575900000000639179000912202146 PAGO POR CUENTA Y ORDEN SUE11ALK171019HN1 00000000000000dgarcia@gruposeri.com                  09122021MARTIN CORTINA MIRELES                                                
04803246       000000000011614668610002181006388251657500000000273139000912202146 PAGO POR CUENTA Y ORDEN SUE11ALK171019HN1 00000000000000dgarcia@gruposeri.com                  09122021KARLA PATRICIA HERNANDEZ RODRIGUEZ                                    
04600201       000000000011614668610002102706441855446300000000609951000912202146 PAGO POR CUENTA Y ORDEN SUE11ALK171019HN1 00000000000000dgarcia@gruposeri.com                  09122021ALONDRA DANIELA DURAN GALVAN                                          
04911403       000000000011614668610002181306524024325200000000289617000912202146 PAGO POR CUENTA Y ORDEN SUE11ALK171019HN1 00000000000000dgarcia@gruposeri.com                  09122021CLAUDIA ARACELY BORGES GARCIA                                         
04911670       000000000011614668610002181306514238356600000000223909000912202146 PAGO POR CUENTA Y ORDEN SUE11ALK171019HN1 00000000000000dgarcia@gruposeri.com                  09122021LAURA KARINA TELLO RIOS                                               
04912070       000000000011614668610003070090002849923800000000252823000912202146 PAGO POR CUENTA Y ORDEN SUE11ALK171019HN1 00000000000000dgarcia@gruposeri.com                  09122021NANCI ARACELI SANDOVAL GUERRERO                                       
04601366       000000000011614668610003670050035026386600000000484072000912202146 PAGO POR CUENTA Y ORDEN SUE11ALK171019HN1 00000000000000dgarcia@gruposeri.com                  09122021MARTIN GALVAN REYES                                                   
04907612       000000000011614668610006258000826918039900000000615963000912202146 PAGO POR CUENTA Y ORDEN SUE11ALK171019HN1 00000000000000dgarcia@gruposeri.com                  09122021ERIKA YASMIN NAVA SANCHEZ                                             
04601402       000000000011614668610006258000825832203200000000468725000912202146 PAGO POR CUENTA Y ORDEN SUE11ALK171019HN1 00000000000000dgarcia@gruposeri.com                  09122021LEVINIA VILLARREAL DE LUNA                                            
04902186       000000000011614668610006258000825594191100000000425932000912202146 PAGO POR CUENTA Y ORDEN SUE11ALK171019HN1 00000000000000dgarcia@gruposeri.com                  09122021GLADYS JANETH MORALES RUMBO                                           
04911527       000000000011614668610006258000835265722100000000381118000912202146 PAGO POR CUENTA Y ORDEN SUE11ALK171019HN1 00000000000000dgarcia@gruposeri.com                  09122021TRIXI ALEJANDRA MARTINEZ GARCIA                                       
04911551       000000000011614668610006258000835650235600000000416661000912202146 PAGO POR CUENTA Y ORDEN SUE11ALK171019HN1 00000000000000dgarcia@gruposeri.com                  09122021ANTONIO DE JESUS PINTO HERNANDES                                      
04908438       000000000011614668610006258000814339270800000000482851000912202146 PAGO POR CUENTA Y ORDEN SUE11ALK171019HN1 00000000000000dgarcia@gruposeri.com                  09122021CLAUDIA DEYANIRA TORRES GARCIA                                        
04908644       000000000011614668610006258000834879913500000000616118000912202146 PAGO POR CUENTA Y ORDEN SUE11ALK171019HN1 00000000000000dgarcia@gruposeri.com                  09122021CARLOS ALAN ESQUIVEL MANDUJANO                                        
04907545       000000000011614668610012701000157362000900000000410951000912202146 PAGO POR CUENTA Y ORDEN SUE11ALK171019HN1 00000000000000dgarcia@gruposeri.com                  09122021MINERVA ERNESTINA SANDOVAL ZUNIGA                                     
04907428       000000000011614668610012758001355906351900000000728469000912202146 PAGO POR CUENTA Y ORDEN SUE11ALK171019HN1 00000000000000dgarcia@gruposeri.com                  09122021SERGIO ALEJANDRO ALGUIAR ARREOLA                                      
04904555       000000000011614668610012706500129869386100000000309355000912202146 PAGO POR CUENTA Y ORDEN SUE11ALK171019HN1 00000000000000dgarcia@gruposeri.com                  09122021FERNANDA GUADALUPE REYNA VELAZQUEZ                                    
04905641       000000000011614668610012781001338167991900000000472247000912202146 PAGO POR CUENTA Y ORDEN SUE11ALK171019HN1 00000000000000dgarcia@gruposeri.com                  09122021MARIO ALBERTO SORIANO CANTU                                           
04909357       000000000011614668610012771300159796589800000000309355000912202146 PAGO POR CUENTA Y ORDEN SUE11ALK171019HN1 00000000000000dgarcia@gruposeri.com                  09122021AURORA SEGURA HERNADEZ                                                
04911894       000000000011614668610012774400153039740500000000447148000912202146 PAGO POR CUENTA Y ORDEN SUE11ALK171019HN1 00000000000000dgarcia@gruposeri.com                  09122021LUIS ENRIQUE TAMAYO MURILLO                                           
0491481        000000000011614668610012781101361579629500000000400670000912202146 PAGO POR CUENTA Y ORDEN SUE11ALK171019HN1 00000000000000dgarcia@gruposeri.com                  09122021ANAHI CORTEZ ESCOBAR                                                  
0493287        000000000011614668610012781100135776483000000000539091000912202146 PAGO POR CUENTA Y ORDEN SUE11ALK171019HN1 00000000000000dgarcia@gruposeri.com                  09122021PEDRO SANTIAGO RAMON                                                  
04120062       000000000011614668610012776001386704852500000000682458000912202146 PAGO POR CUENTA Y ORDEN SUE11ALK171019HN1 00000000000000dgarcia@gruposeri.com                  09122021MILCA SANDOVAL ZAMORANO                                               
04601391       000000000011614668610012773000118949579100000000728985000912202146 PAGO POR CUENTA Y ORDEN SUE11ALK171019HN1 00000000000000dgarcia@gruposeri.com                  09122021JOEL FRANCISCO MEDINA ESPINOZA                                        
04100357       000000000011614668610012770100141861147900000000524238000912202146 PAGO POR CUENTA Y ORDEN SUE11ALK171019HN1 00000000000000dgarcia@gruposeri.com                  09122021MARIA DEL ROSARIO SANTIAGO HERNANDEZ                                  
04100394       000000000011614668610012770501300721913700000000666617000912202146 PAGO POR CUENTA Y ORDEN SUE11ALK171019HN1 00000000000000dgarcia@gruposeri.com                  09122021JESUS ROMERO MENDEZ                                                   
04100303       000000000011614668610012770000119145868800000000586490000912202146 PAGO POR CUENTA Y ORDEN SUE11ALK171019HN1 00000000000000dgarcia@gruposeri.com                  09122021BERENICE BERRIOZABAL SANCHEZ                                          
04911458       000000000011614668610012702800160122660000000000741373000912202146 PAGO POR CUENTA Y ORDEN SUE11ALK171019HN1 00000000000000dgarcia@gruposeri.com                  09122021JOSE RICARDO CARBO CORONADO                                           
04911636       000000000011614668610012718001686078362600000000359355000912202146 PAGO POR CUENTA Y ORDEN SUE11ALK171019HN1 00000000000000dgarcia@gruposeri.com                  09122021JORGE ALBERTO HERNANDEZ NAVARRO                                       
04911383       000000000011614668610012758001308152747100000000363946000912202146 PAGO POR CUENTA Y ORDEN SUE11ALK171019HN1 00000000000000dgarcia@gruposeri.com                  09122021JULIA DOMINGUEZ RAMIREZ                                               
04911301       000000000011614668610012781101321388014700000000317907000912202146 PAGO POR CUENTA Y ORDEN SUE11ALK171019HN1 00000000000000dgarcia@gruposeri.com                  09122021EYADIRA RAMIREZ COLUNGA                                               
04911319       000000000011614668610012777000139680566800000000272078000912202146 PAGO POR CUENTA Y ORDEN SUE11ALK171019HN1 00000000000000dgarcia@gruposeri.com                  09122021HUMBERTO EDGAR VAZQUEZ PARRA                                          
04911521       000000000011614668610012718001688098625400000000359355000912202146 PAGO POR CUENTA Y ORDEN SUE11ALK171019HN1 00000000000000dgarcia@gruposeri.com                  09122021ALEJANDRA LACORTE NAVARRO                                             
04911406       000000000011614668610012781000162888543600000000267907000912202146 PAGO POR CUENTA Y ORDEN SUE11ALK171019HN1 00000000000000dgarcia@gruposeri.com                  09122021ISMAEL IBARRA HERNANDEZ                                               
04901979       000000000011614668610012770000115827930500000000510448000912202146 PAGO POR CUENTA Y ORDEN SUE11ALK171019HN1 00000000000000dgarcia@gruposeri.com                  09122021LUIS ANGEL GALINDO PEREZ                                              
04903103       000000000011614668610012770000114246767300000000522940000912202146 PAGO POR CUENTA Y ORDEN SUE11ALK171019HN1 00000000000000dgarcia@gruposeri.com                  09122021ANA ROSA GARCIA RODRIGUEZ                                             
04903273       000000000011614668610012706500118953548100000000548230000912202146 PAGO POR CUENTA Y ORDEN SUE11ALK171019HN1 00000000000000dgarcia@gruposeri.com                  09122021JHOAN NICOLAS GARCIA HERNANDEZ                                        
04902858       000000000011614668610012781000134521880700000000467907000912202146 PAGO POR CUENTA Y ORDEN SUE11ALK171019HN1 00000000000000dgarcia@gruposeri.com                  09122021LAURA REFUGIO RODRIGUEZ SALAS                                         
04901219       000000000011614668610012770501384939002300000000399911000912202146 PAGO POR CUENTA Y ORDEN SUE11ALK171019HN1 00000000000000dgarcia@gruposeri.com                  09122021LUIS FRANCISCO HERNANDEZ MIRELES                                      
04601354       000000000011614668610012702001357618903300000000455228000912202146 PAGO POR CUENTA Y ORDEN SUE11ALK171019HN1 00000000000000dgarcia@gruposeri.com                  09122021ALMA MIRELLA LUNA RUIZ                                                
04600935       000000000011614668610012770500115725069200000000665906000912202146 PAGO POR CUENTA Y ORDEN SUE11ALK171019HN1 00000000000000dgarcia@gruposeri.com                  09122021IRVING ULISES VILLAGOMEZ MANCILLA                                     
04601271       000000000011614668610012771301342076657600000000545715000912202146 PAGO POR CUENTA Y ORDEN SUE11ALK171019HN1 00000000000000dgarcia@gruposeri.com                  09122021SANDRA ROMERO JUAREZ                                                  
04600636       000000000011614668610012770501329534715400000000467899000912202146 PAGO POR CUENTA Y ORDEN SUE11ALK171019HN1 00000000000000dgarcia@gruposeri.com                  09122021JUAN JOSE GOMEZ JUAREZ                                                
04908128       000000000011614668610012770401364287448800000000318855000912202146 PAGO POR CUENTA Y ORDEN SUE11ALK171019HN1 00000000000000dgarcia@gruposeri.com                  09122021ENEDINA VAZQUEZ ESCOBAR                                               
04907889       000000000011614668610012718001631115460700000000454555000912202146 PAGO POR CUENTA Y ORDEN SUE11ALK171019HN1 00000000000000dgarcia@gruposeri.com                  09122021CLISERIO MARTINEZ HERNANDEZ                                           
04907919       000000000011614668610012706001393278446900000000368278000912202146 PAGO POR CUENTA Y ORDEN SUE11ALK171019HN1 00000000000000dgarcia@gruposeri.com                  09122021JANETH AYNOM GUTIERREZ JAQUEZ                                         
04905114       000000000011614668610012774401305113509500000000391512000912202146 PAGO POR CUENTA Y ORDEN SUE11ALK171019HN1 00000000000000dgarcia@gruposeri.com                  09122021CARMEN ARACELI MEZA CHAVEZ                                            
04909118       000000000011614668610012771400115315946100000000322955000912202146 PAGO POR CUENTA Y ORDEN SUE11ALK171019HN1 00000000000000dgarcia@gruposeri.com                  09122021VICTOR GABRIEL PAZ TREJO                                              
04907212       000000000011614668610012770100103665970300000000340617000912202146 PAGO POR CUENTA Y ORDEN SUE11ALK171019HN1 00000000000000dgarcia@gruposeri.com                  09122021ELIBETH REYES BAUTISTA                                                
04120586       000000000011614668610012718001664134675800000000330417000912202146 PAGO POR CUENTA Y ORDEN SUE11ALK171019HN1 00000000000000dgarcia@gruposeri.com                  09122021RAUL ERNESTO PARDINI VILLAESCUSA                                      
04120448       000000000011614668610012776001305060742700000000477248000912202146 PAGO POR CUENTA Y ORDEN SUE11ALK171019HN1 00000000000000dgarcia@gruposeri.com                  09122021CRISANTO JOEL SANDOVAL MANZANARES                                     
04120157       000000000011614668610012777000112040036500000000495252000912202146 PAGO POR CUENTA Y ORDEN SUE11ALK171019HN1 00000000000000dgarcia@gruposeri.com                  09122021VICTOR MANUEL LUNA CUEVAS                                             
04901746       000000000011614668610012777001372767377400000000479760000912202146 PAGO POR CUENTA Y ORDEN SUE11ALK171019HN1 00000000000000dgarcia@gruposeri.com                  09122021JESUS ANTONIO BELTRAN ALVAREZ                                         
04901518       000000000011614668610012718001615795063800000000829515000912202146 PAGO POR CUENTA Y ORDEN SUE11ALK171019HN1 00000000000000dgarcia@gruposeri.com                  09122021HUGO ENRIQUE GOMEZ JUAREZ                                             
04909751       000000000011614668610012788401355451836700000000466917000912202146 PAGO POR CUENTA Y ORDEN SUE11ALK171019HN1 00000000000000dgarcia@gruposeri.com                  09122021LUIS ALBERTO MEDINA RODRIGUEZ                                         
04908804       000000000011614668610012715800132837177900000000346418000912202146 PAGO POR CUENTA Y ORDEN SUE11ALK171019HN1 00000000000000dgarcia@gruposeri.com                  09122021CLAUDIA VALERIA AYALA MENDOZA                                         
04909580       000000000011614668610012777101382076011400000000397490000912202146 PAGO POR CUENTA Y ORDEN SUE11ALK171019HN1 00000000000000dgarcia@gruposeri.com                  09122021MARLENE TRINIDAD GRIJALVA SILVA                                       
04120697       000000000011614668610012718001615373348000000000222080000912202146 PAGO POR CUENTA Y ORDEN SUE11ALK171019HN1 00000000000000dgarcia@gruposeri.com                  09122021FRANCISCA GUADALUPE CAMPILLO LEON                                     
04911928       000000000011614668610012793400126808815500000000298934000912202146 PAGO POR CUENTA Y ORDEN SUE11ALK171019HN1 00000000000000dgarcia@gruposeri.com                  09122021RICARDO SANTOS RANGEL                                                 
04909325       000000000011614668610012770000159791943300000000252439000912202146 PAGO POR CUENTA Y ORDEN SUE11ALK171019HN1 00000000000000dgarcia@gruposeri.com                  09122021FRANCISCO JAVIER MEIZOSO DURAND                                       
04911976       000000000011614668610012770101390382798600000000289617000912202146 PAGO POR CUENTA Y ORDEN SUE11ALK171019HN1 00000000000000dgarcia@gruposeri.com                  09122021FELIPE DE JESUS AGUSTIN HERNANDEZ                                     
04912007       000000000011614668610012701000138754556100000000309355000912202146 PAGO POR CUENTA Y ORDEN SUE11ALK171019HN1 00000000000000dgarcia@gruposeri.com                  09122021SONIA MIRIAM MACIAS VALENCIANO                                        
04903031       000000000011614668610012706800126232746100000000598415000912202146 PAGO POR CUENTA Y ORDEN SUE11ALK171019HN1 00000000000000dgarcia@gruposeri.com                  09122021DANIEL DAVID ZUNIGA REYES                                             
04906803       000000000011614668610012770501330352829200000000709355000912202146 PAGO POR CUENTA Y ORDEN SUE11ALK171019HN1 00000000000000dgarcia@gruposeri.com                  09122021PEDRO EMMANUEL SALAS TREJO                                            
04912090       000000000011614668610013774110138421290400000000322180000912202146 PAGO POR CUENTA Y ORDEN SUE11ALK171019HN1 00000000000000dgarcia@gruposeri.com                  09122021EDGAR ANDREE LOPEZ LOPEZ                                              
04120642       000000000011614668610013777110212411944300000000580617000912202146 PAGO POR CUENTA Y ORDEN SUE11ALK171019HN1 00000000000000dgarcia@gruposeri.com                  09122021CYNTHIA YULISSA GUTIERREZ JOCOBI                                      
04911956       000000000011614668610013771113005754679100000000372398000912202146 PAGO POR CUENTA Y ORDEN SUE11ALK171019HN1 00000000000000dgarcia@gruposeri.com                  09122021JOSUE MARTIN RIVERA GRIMALDO                                          
04911947       000000000011614668610013783210153705203700000000339617000912202146 PAGO POR CUENTA Y ORDEN SUE11ALK171019HN1 00000000000000dgarcia@gruposeri.com                  09122021DULCE TONATHI BARRERA CHINO                                           
04909376       000000000011614668610013770010435779030700000000567918000912202146 PAGO POR CUENTA Y ORDEN SUE11ALK171019HN1 00000000000000dgarcia@gruposeri.com                  09122021MARIA IVETH OVIEDO RODRIGUEZ                                          
04904846       000000000011614668610013777110288935390000000000307747000912202146 PAGO POR CUENTA Y ORDEN SUE11ALK171019HN1 00000000000000dgarcia@gruposeri.com                  09122021PERLA GUADALUPE BUITIMEA LOPEZ                                        
04906890       000000000011614668610013777813002190839500000000315306000912202146 PAGO POR CUENTA Y ORDEN SUE11ALK171019HN1 00000000000000dgarcia@gruposeri.com                  09122021FLOR MARIA ESPINOZA DE LA CRUZ                                        
04901412       000000000011614668610013706013005204598000000000321917000912202146 PAGO POR CUENTA Y ORDEN SUE11ALK171019HN1 00000000000000dgarcia@gruposeri.com                  09122021ROBERTO CARLOS JAQUEZ CASTORENA                                       
04902434       000000000011614668610013770510392222737900000000315104000912202146 PAGO POR CUENTA Y ORDEN SUE11ALK171019HN1 00000000000000dgarcia@gruposeri.com                  09122021MAIRA TERESA MARTINEZ CHICO                                           
04902952       000000000011614668610013770510306845000000000000662382000912202146 PAGO POR CUENTA Y ORDEN SUE11ALK171019HN1 00000000000000dgarcia@gruposeri.com                  09122021USIAS ALEJANDRO VAZQUEZ ANGELES                                       
04903391       000000000011614668610013777010430199620000000000390481000912202146 PAGO POR CUENTA Y ORDEN SUE11ALK171019HN1 00000000000000dgarcia@gruposeri.com                  09122021BRENDA GUADALUPE ALFARO AVENA                                         
04904844       000000000011614668610013781110421130715200000000391617000912202146 PAGO POR CUENTA Y ORDEN SUE11ALK171019HN1 00000000000000dgarcia@gruposeri.com                  09122021LIZBETH GAYOSSO CUEVAS                                                
04905076       000000000011614668610013770910408140051100000000621369000912202146 PAGO POR CUENTA Y ORDEN SUE11ALK171019HN1 00000000000000dgarcia@gruposeri.com                  09122021MELVA NELLY PEDRAZA PEREZ                                             
04803229       000000000011614668610013781413002084915700000000766554000912202146 PAGO POR CUENTA Y ORDEN SUE11ALK171019HN1 00000000000000dgarcia@gruposeri.com                  09122021RICARDO DE LA CRUZ ORTIZ                                              
