100001E0830202165507656897     08302021
2000020000803ROLDAN                        VARGAS              GUADALUPE                     56696044482     000000000000249170
2000030000809RAMOS                         NEGRETE             LEONARDO                      56805083173     000000000000213219
2000040000811GONZALEZ                      SANCHEZ             ADRIANA                       56805083190     000000000000249269
2000050000812MENDOZA                       GONZALEZ            WILBER                        56818946727     000000000000249269
2000060000814FLORES                        BRAVO               ARMANDO                       60566596519     000000000000561857
2000070000815LUIS                          PEREZ               MARISOL                       56805083202     000000000000249321
2000080007001DURAN                         HERNANDEZ           DIANA                         56800385755     000000000000249119
2000090907555LOPEZ                         VICENTENO           ERICK ARMANDO                 56814088205     000000000000249119
200010800562562ARENAS                      HERNANDEZ           JUAN ALBERTO                  60622492227     000000000000280319
200011800562563JUAREZ                      AVILA               LUIS ALFONSO                  56819036282     000000000000219149
30001200010000000000002769811
