65508020750     127375001583587644BAZTEALMA DELIA TELLEZ SANCHEZ               10010000000002971410100148 PAGO POR CUENTA Y ORDEN SUELDO                                                                                                 0000001
65508020750     127528013211090947BAZTEMILAGROS ALVARADO AGUILAR               10010000000003011530100148 PAGO POR CUENTA Y ORDEN SUELDO                                                                                                 0000002
65508020750     127497013728321243BAZTEMA DE JESUS AMBRIS DELGADO              10010000000002896030100148 PAGO POR CUENTA Y ORDEN SUELDO                                                                                                 0000003
65508020750     127060001191407573BAZTEELIZABETH RIVERA ALEMAN                 10010000000004056480100148 PAGO POR CUENTA Y ORDEN SUELDO                                                                                                 0000004
65508020750     127432001427003949BAZTEMANUEL HERNANDEZ RUIZ                   10010000000007748000100148 PAGO POR CUENTA Y ORDEN SUELDO                                                                                                 0000005
65508020750     127427001507872005BAZTEMARTHA GABRIELA PARRALES SORIA          10010000000003125940100148 PAGO POR CUENTA Y ORDEN SUELDO                                                                                                 0000006
65508020750     127449013984003272BAZTEBERENICE FLORES LOPEZ                   10010000000003524990100148 PAGO POR CUENTA Y ORDEN SUELDO                                                                                                 0000007
65508020750     127424013927531357BAZTEMARIA GUADALUPE MALDONADO AGUILA        10010000000003802370100148 PAGO POR CUENTA Y ORDEN SUELDO                                                                                                 0000008
65508020750     127427001507682952BAZTESONIA SANCHEZ PENA                      10010000000002678860100148 PAGO POR CUENTA Y ORDEN SUELDO                                                                                                 0000009
65508020750     127540013417850859BAZTEMARCO ANTONIO SEGURA ZENDEJAS           10010000000003935610100148 PAGO POR CUENTA Y ORDEN SUELDO                                                                                                 0000010
65508020750     127180013271766714BAZTEYAZMANY TONATIUH NAVA YAUTENZY          10010000000002541680100148 PAGO POR CUENTA Y ORDEN SUELDO                                                                                                 0000011
65508020750     127420013105297284BAZTEPATRICIA ABIGAIL HERNANDEZ AREVALO      10010000000002678860100148 PAGO POR CUENTA Y ORDEN SUELDO                                                                                                 0000012
65508020750     127180013267916125BAZTEJANETTE LOPEZ NERI                      10010000000003593310100148 PAGO POR CUENTA Y ORDEN SUELDO                                                                                                 0000013
65508020750     127180013439623356BAZTEAZUCENA REYES NAVA                      10010000000001828360100148 PAGO POR CUENTA Y ORDEN SUELDO                                                                                                 0000014
65508020750     127180013440314201BAZTESANDRA PEREZ CASAS                      10010000000005334320100148 PAGO POR CUENTA Y ORDEN SUELDO                                                                                                 0000015
65508020750     127541013570621429BAZTEJOSE LUIS TAVARES GARCIA                10010000000004710810100148 PAGO POR CUENTA Y ORDEN SUELDO                                                                                                 0000016
65508020750     127180016477535432BAZTELUIS ANTONIO PASCUAL CAYO               10010000000004502490100148 PAGO POR CUENTA Y ORDEN SUELDO                                                                                                 0000017
65508020750     127438013669888817BAZTELESLIE ANAHI ROSALES CHAVEZ             10010000000002365540100148 PAGO POR CUENTA Y ORDEN SUELDO                                                                                                 0000018
65508020750     127180001154318482BAZTEJANET LEYTE SALAS                       10010000000002772000100148 PAGO POR CUENTA Y ORDEN SUELDO                                                                                                 0000019
65508020750     127457013749514927BAZTERUBEN VICTORIA TOLA                     10010000000002138970100148 PAGO POR CUENTA Y ORDEN SUELDO                                                                                                 0000020
65508020750     127180001159963887BAZTEVICTORIA ZUNIGA ALVA                    10010000000004713710100148 PAGO POR CUENTA Y ORDEN SUELDO                                                                                                 0000021
65508020750     127434013244784987BAZTEADRIANA ACOSTA HERNANDEZ                10010000000003593400100148 PAGO POR CUENTA Y ORDEN SUELDO                                                                                                 0000022
65508020750     127462013216993228BAZTESTEPHANIE MERCADO TRUJILLO              10010000000002678930100148 PAGO POR CUENTA Y ORDEN SUELDO                                                                                                 0000023
65508020750     127421013478553722BAZTEDAVID VALENCIA GARCIA                   10010000000003593300100148 PAGO POR CUENTA Y ORDEN SUELDO                                                                                                 0000024
65508020750     127542017034730712BAZTEMONICA AMBROCIA BARRERA VICTORIANO      10010000000002678990100148 PAGO POR CUENTA Y ORDEN SUELDO                                                                                                 0000025
65508020750     127426013453700809BAZTERAFAEL GONZALEZ BAUTISTA                10010000000002635360100148 PAGO POR CUENTA Y ORDEN SUELDO                                                                                                 0000026
65508020750     127180013493516001BAZTEJOAQUIN ALEXANDER SEGURA HERNANDEZ      10010000000003446190100148 PAGO POR CUENTA Y ORDEN SUELDO                                                                                                 0000027
65508020750     127434013555596615BAZTEJESICA SANCHEZ ROSAS                    10010000000002896170100148 PAGO POR CUENTA Y ORDEN SUELDO                                                                                                 0000028
65508020750     127546013660496200BAZTEYENIFER NAVA VALLADARES                 10010000000002690990100148 PAGO POR CUENTA Y ORDEN SUELDO                                                                                                 0000029
65508020750     127506001162919745BAZTEMARIA NALLELY MONROY VELAZQUEZ          10010000000002444520100148 PAGO POR CUENTA Y ORDEN SUELDO                                                                                                 0000030
65508020750     127426013468844239BAZTEEDGAR DANIEL TORRES MUNOZ               10010000000002678990100148 PAGO POR CUENTA Y ORDEN SUELDO                                                                                                 0000031
65508020750     127542001395480898BAZTEMARIA GABRIELA PORRAS LOPEZ             10010000000003039440100148 PAGO POR CUENTA Y ORDEN SUELDO                                                                                                 0000032
65508020750     127434001595977714BAZTECESAR ALEJANDRO MENDOZA MARTINEZ        10010000000003593550100148 PAGO POR CUENTA Y ORDEN SUELDO                                                                                                 0000033
65508020750     127462001243341790BAZTECINTHIA SALOME MONROY                   10010000000003452570100148 PAGO POR CUENTA Y ORDEN SUELDO                                                                                                 0000034
65508020750     127180013380456494BAZTELUISA MARIA ALVAREZ ARZATE              10010000000002239090100148 PAGO POR CUENTA Y ORDEN SUELDO                                                                                                 0000035
65508020750     127545001235285406BAZTEFELICIANO PEREZ DESIDERIO               10010000000003093550100148 PAGO POR CUENTA Y ORDEN SUELDO                                                                                                 0000036
65508020750     127662013971613504BAZTEARTEMIO AGUILAR GARCIA                  10010000000004513010100148 PAGO POR CUENTA Y ORDEN SUELDO                                                                                                 0000037
65508020750     127180013472690456BAZTEERICK VENEGAS CASTREJON                 10010000000002896170100148 PAGO POR CUENTA Y ORDEN SUELDO                                                                                                 0000038
65508020750     127180001394728476BAZTELUCENA VALENCIA VALENCIA                10010000000001023600100148 PAGO POR CUENTA Y ORDEN SUELDO                                                                                                 0000039
65508020750     127180001212462199BAZTEJOCELYN HERNANDEZ FLORES                10010000000002565910100148 PAGO POR CUENTA Y ORDEN SUELDO                                                                                                 0000040
65508020750     127540013020845170BAZTEYULIANA DIAZ RODRIGUEZ                  10010000000003493810100148 PAGO POR CUENTA Y ORDEN SUELDO                                                                                                 0000041
65508020750     127180013325450167BAZTEMIRIAM SELENE FERNANDEZ HERNANDEZ       10010000000002150430100148 PAGO POR CUENTA Y ORDEN SUELDO                                                                                                 0000042
65508020750     127180013590561616BAZTEMIGUEL ANGEL MARTINEZ LANDIN            10010000000002896170100148 PAGO POR CUENTA Y ORDEN SUELDO                                                                                                 0000043
65508020750     127434001337450554BAZTEERIKA SALAZAR MOLINA                    10010000000003593550100148 PAGO POR CUENTA Y ORDEN SUELDO                                                                                                 0000044
65508020750     127457013675846031BAZTEMERCEDES  YETZEL BANUELOS URBINA        10010000000002679070100148 PAGO POR CUENTA Y ORDEN SUELDO                                                                                                 0000045
65508020750     127422001202924376BAZTEHECTOR SANCHEZ REYES                    10010000000003311180100148 PAGO POR CUENTA Y ORDEN SUELDO                                                                                                 0000046
65508020750     127180016656472439BAZTEURIEL MERINO RODRIGUEZ                  10010000000002670570100148 PAGO POR CUENTA Y ORDEN SUELDO                                                                                                 0000047
65508020750     127424013615294553BAZTELORENA GONZALEZ VENTURA                 10010000000002679070100148 PAGO POR CUENTA Y ORDEN SUELDO                                                                                                 0000048
65508020750     127180001358070694BAZTELIZETH GOVEA TELLEZ                     10010000000002919990100148 PAGO POR CUENTA Y ORDEN SUELDO                                                                                                 0000049
65508020750     127180013821217354BAZTEDULCE MARIA GARCIA GOMEZ                10010000000003311180100148 PAGO POR CUENTA Y ORDEN SUELDO                                                                                                 0000050
65508020750     127420001368287124BAZTERUBEN SANCHEZ MORENO                    10010000000001775850100148 PAGO POR CUENTA Y ORDEN SUELDO                                                                                                 0000051
65508020750     127662013875986654BAZTEVICTOR MANUEL FLORES FUENTES            10010000000003593220100148 PAGO POR CUENTA Y ORDEN SUELDO                                                                                                 0000052
65508020750     127886001528521646BAZTEMARIJOSE MELCHOR FLORES                 10010000000002678990100148 PAGO POR CUENTA Y ORDEN SUELDO                                                                                                 0000053
65508020750     127671013655223528BAZTEFERNANDO LOPEZ MEDEL                    10010000000003593300100148 PAGO POR CUENTA Y ORDEN SUELDO                                                                                                 0000054
65508020750     127662013374092939BAZTEJONATHAN TORICES MALDONADO              10010000000004982470100148 PAGO POR CUENTA Y ORDEN SUELDO                                                                                                 0000055
65508020750     127673001321740549BAZTEGERARDO GOMEZ GONZALEZ                  10010000000001918410100148 PAGO POR CUENTA Y ORDEN SUELDO                                                                                                 0000056
65508020750     127180013342456199BAZTEPERLA ATENEA RAMIREZ DIONICIO           10010000000003153070100148 PAGO POR CUENTA Y ORDEN SUELDO                                                                                                 0000057
65508020750     127180001579584503BAZTEMARINA ARIAS BUENROSTRO                 10010000000004459870100148 PAGO POR CUENTA Y ORDEN SUELDO                                                                                                 0000058
65508020750     127180001507283009BAZTEANA LAURA CLAVELLINA FLORES             10010000000006679070100148 PAGO POR CUENTA Y ORDEN SUELDO                                                                                                 0000059
65508020750     127180013655162057BAZTERAFAEL OMAR CUEVAS HERNANDEZ            10010000000005172620100148 PAGO POR CUENTA Y ORDEN SUELDO                                                                                                 0000060
65508020750     127470001418417522BAZTEJAQUELINE LICONA VAZQUEZ                10010000000002154860100148 PAGO POR CUENTA Y ORDEN SUELDO                                                                                                 0000061
65508020750     127832013684711811BAZTECANDELARIA SOSA PEREZ                   10010000000001993210100148 PAGO POR CUENTA Y ORDEN SUELDO                                                                                                 0000062
65508020750     127311001098161629BAZTEMARTIN ESTRADA OLMOS                    10010000000003296010100148 PAGO POR CUENTA Y ORDEN SUELDO                                                                                                 0000063
65508020750     127832013797769909BAZTECECILIA GARCIA FLORES                   10010000000003310920100148 PAGO POR CUENTA Y ORDEN SUELDO                                                                                                 0000064
65508020750     127855013124425916BAZTEMARGARITA MENDOZA RENDON                10010000000002284490100148 PAGO POR CUENTA Y ORDEN SUELDO                                                                                                 0000065
65508020750     127840013030620043BAZTELIZ YUBANY RAZZO JUAREZ                 10010000000002276210100148 PAGO POR CUENTA Y ORDEN SUELDO                                                                                                 0000066
65508020750     127650013091158744BAZTEJORGE XIQUE CABRERA                     10010000000002282890100148 PAGO POR CUENTA Y ORDEN SUELDO                                                                                                 0000067
65508020750     127303013204035655BAZTEKARINA LOPEZ ROSAS                      10010000000004450650100148 PAGO POR CUENTA Y ORDEN SUELDO                                                                                                 0000068
65508020750     127670001563972699BAZTEKAREN SALAZAR LEON                      10010000000001611240100148 PAGO POR CUENTA Y ORDEN SUELDO                                                                                                 0000069
65508020750     127650013637786680BAZTEOSCAR GABRIEL MARTINEZ VALLE            10010000000005784130100148 PAGO POR CUENTA Y ORDEN SUELDO                                                                                                 0000070
65508020750     127877013490136085BAZTEEDUARDO ZUNIGA DE LA CRUZ               10010000000006984320100148 PAGO POR CUENTA Y ORDEN SUELDO                                                                                                 0000071
65508020750     127895001868761814BAZTEARELY AZUARA ALEJANDRE                  10010000000003593400100148 PAGO POR CUENTA Y ORDEN SUELDO                                                                                                 0000072
65508020750     127834013433552481BAZTEMARGARITA ROSETE AYAPANTECATL           10010000000003593400100148 PAGO POR CUENTA Y ORDEN SUELDO                                                                                                 0000073
65508020750     127650001115904093BAZTEMARIA DEL ROCIO LOPEZ SANCHEZ           10010000000003329220100148 PAGO POR CUENTA Y ORDEN SUELDO                                                                                                 0000074
65508020750     127864001616460424BAZTEALMA LIZZETH CRUZ AGUILAR               10010000000001626830100148 PAGO POR CUENTA Y ORDEN SUELDO                                                                                                 0000075
65508020750     127650001375823516BAZTEROCIO SANCHEZ GARCIA                    10010000000002239020100148 PAGO POR CUENTA Y ORDEN SUELDO                                                                                                 0000076
65508020750     127670001066106412BAZTEOSCAR HERNANDEZ GARCIA                  10010000000003588200100148 PAGO POR CUENTA Y ORDEN SUELDO                                                                                                 0000077
65508020750     127854001522463156BAZTEFRANCISCO JAVIER PEREYRA MARTINEZ       10010000000002896100100148 PAGO POR CUENTA Y ORDEN SUELDO                                                                                                 0000078
65508020750     127667013492635891BAZTECRISTIAN SERRANO PEREZ                  10010000000002239040100148 PAGO POR CUENTA Y ORDEN SUELDO                                                                                                 0000079
65508020750     127875013845317752BAZTEOSCAR MANUEL RODRIGUEZ HERNANDEZ        10010000000003178990100148 PAGO POR CUENTA Y ORDEN SUELDO                                                                                                 0000080
65508020750     127834013704832461BAZTEJORGE SANCHEZ JUAREZ                    10010000000002422120100148 PAGO POR CUENTA Y ORDEN SUELDO                                                                                                 0000081
65508020750     127670001150575904BAZTEVIRGINIA DEL CARMEN FELIPE CHIGO        10010000000003093550100148 PAGO POR CUENTA Y ORDEN SUELDO                                                                                                 0000082
65508020750     127650001333824900BAZTEKARLA GARCES JUAREZ                     10010000000002679070100148 PAGO POR CUENTA Y ORDEN SUELDO                                                                                                 0000083
65508020750     127670013652427195BAZTEMARY CARMEN BRAVO ACEVEDO               10010000000002305840100148 PAGO POR CUENTA Y ORDEN SUELDO                                                                                                 0000084
65508020750     127290001267326701BAZTEJOSE JESUS MEJIA LAZCANO                10010000000003085090100148 PAGO POR CUENTA Y ORDEN SUELDO                                                                                                 0000085
65508020750     127832001245263053BAZTEKEVIN CARMONA AVILA                     10010000000002923810100148 PAGO POR CUENTA Y ORDEN SUELDO                                                                                                 0000086
65508020750     127841001168796012BAZTEVERONICA SOTO RAMIREZ                   10010000000002045180100148 PAGO POR CUENTA Y ORDEN SUELDO                                                                                                 0000087
65508020750     127660001367735796BAZTEBRISA TLAPAYA MENESES                   10010000000003811180100148 PAGO POR CUENTA Y ORDEN SUELDO                                                                                                 0000088
65508020750     127546001288413198BAZTEOSCAR HERNANDEZ PEREZ                   10010000000005947370100148 PAGO POR CUENTA Y ORDEN SUELDO                                                                                                 0000089
65508020750     127653001510532193BAZTECARLOS MORALES CHAVEZ                   10010000000002238120100148 PAGO POR CUENTA Y ORDEN SUELDO                                                                                                 0000090
65508020750     127544013178768613BAZTEMIGUEL ANGEL GALVEZ VILLASALDO          10010000000002678990100148 PAGO POR CUENTA Y ORDEN SUELDO                                                                                                 0000091
65508020750     127320001335229192BAZTEMAYRA ALEJANDRA FLORES BECERRA          10010000000007611790100148 PAGO POR CUENTA Y ORDEN SUELDO                                                                                                 0000092
65508020750     127260013673485788BAZTEADRIANA TORRES VEGA                     10010000000004615090100148 PAGO POR CUENTA Y ORDEN SUELDO                                                                                                 0000093
65508020750     127480001277645334BAZTEMARIA ELIZABETH REYES FRASCO            10010000000002678990100148 PAGO POR CUENTA Y ORDEN SUELDO                                                                                                 0000094
65508020750     127320001162282357BAZTELUIS ALBERTO MACIAS ESPINOZA            10010000000008656600100148 PAGO POR CUENTA Y ORDEN SUELDO                                                                                                 0000095
65508020750     127650001130556073BAZTEJUAN CARLOS FLORES OLMOS                10010000000003369160100148 PAGO POR CUENTA Y ORDEN SUELDO                                                                                                 0000096
65508020750     127225001318897565BAZTENANCY ALINE LOPEZ MURILLO               10010000000002583530100148 PAGO POR CUENTA Y ORDEN SUELDO                                                                                                 0000097
65508020750     127671001330678400BAZTESONIA CENTENO REYES                     10010000000002896160100148 PAGO POR CUENTA Y ORDEN SUELDO                                                                                                 0000098
65508020750     127540013938947199BAZTEVICTOR MANUEL GONZALEZ MARTINEZ         10010000000005786100100148 PAGO POR CUENTA Y ORDEN SUELDO                                                                                                 0000099
65508020750     127546001155082500BAZTEKEVIN GEOVANNY ORTIZ PEREZ              10010000000003100170100148 PAGO POR CUENTA Y ORDEN SUELDO                                                                                                 0000100
65508020750     127671001339825898BAZTEREYNA RODRIGUEZ OLIVARES                10010000000002179070100148 PAGO POR CUENTA Y ORDEN SUELDO                                                                                                 0000101
65508020750     127239013447882629BAZTEJESSICA REGINA LOYOLA VILLEGAS          10010000000003379150100148 PAGO POR CUENTA Y ORDEN SUELDO                                                                                                 0000102
65508020750     127671001348998224BAZTEMANUEL ALEJANDRO RITO SALAZAR           10010000000002679070100148 PAGO POR CUENTA Y ORDEN SUELDO                                                                                                 0000103
65508020750     127544001351032819BAZTEPAUL AVILA PINEDA                       10010000000002341250100148 PAGO POR CUENTA Y ORDEN SUELDO                                                                                                 0000104
65508020750     127494001158167817BAZTEVANESSA CRUZ SUSANO                     10010000000003052570100148 PAGO POR CUENTA Y ORDEN SUELDO                                                                                                 0000105
65508020750     127180013766781055BAZTEARTEMIO ROSAS ROSAS                     10010000000006751050100148 PAGO POR CUENTA Y ORDEN SUELDO                                                                                                 0000106
65508020750     127180013439460328BAZTEGUADALUPE LOPEZ TORRES                  10010000000006327410100148 PAGO POR CUENTA Y ORDEN SUELDO                                                                                                 0000107
65508020750     127180001318437853BAZTEMARIO ALBERTO SANCHEZ DIAZ              10010000000009330990100148 PAGO POR CUENTA Y ORDEN SUELDO                                                                                                 0000108
65508020750     127180013775358916BAZTEFELIX DAVID MUNOZ ALONSO                10010000000003619270100148 PAGO POR CUENTA Y ORDEN SUELDO                                                                                                 0000109
65508020750     127180001424304223BAZTENELLY ALEJANDRA OROZCO CORONA           10010000000010728450100148 PAGO POR CUENTA Y ORDEN SUELDO                                                                                                 0000110
65508020750     127180013763703324BAZTEOSCAR ALEXANDER MARTINEZ JIMENEZ        10010000000003202970100148 PAGO POR CUENTA Y ORDEN SUELDO                                                                                                 0000111
65508020750     127180001535165186BAZTEROSARIO ADRIANA LOPEZ SOTO              10010000000003568740100148 PAGO POR CUENTA Y ORDEN SUELDO                                                                                                 0000112
65508020750     127180013478639107BAZTEIRIS MAGDALENA CHAVEZ CONTRERAS         10010000000002208380100148 PAGO POR CUENTA Y ORDEN SUELDO                                                                                                 0000113
65508020750     127290001249834062BAZTELIZBETH HERNANDEZ SERRANO               10010000000003388300100148 PAGO POR CUENTA Y ORDEN SUELDO                                                                                                 0000114
65508020750     127180013561630709BAZTEVIRIDIANA RAMIREZ GOMEZ                 10010000000002822100100148 PAGO POR CUENTA Y ORDEN SUELDO                                                                                                 0000115
65508020750     127290013577331513BAZTEYESENIA MENDOZA PEREZ                   10010000000008097500100148 PAGO POR CUENTA Y ORDEN SUELDO                                                                                                 0000116
65508020750     127180013141030143BAZTEDIANA GABRIELA GARDUNO PUEBLA           10010000000004331390100148 PAGO POR CUENTA Y ORDEN SUELDO                                                                                                 0000117
65508020750     127830013623858148BAZTEBLANCA FLOR JIMENEZ COYOTL              10010000000002717990100148 PAGO POR CUENTA Y ORDEN SUELDO                                                                                                 0000118
65508020750     127180013654087492BAZTEELIZABETH GONZALEZ LIMAS                10010000000004147790100148 PAGO POR CUENTA Y ORDEN SUELDO                                                                                                 0000119
65508020750     127180013871594975BAZTEOMAR GOMEZ LOPEZ                        10010000000000680140100148 PAGO POR CUENTA Y ORDEN SUELDO                                                                                                 0000120
65508020750     127180001300950597BAZTEKARLA FABIOLA RAMIREZ RAMOS             10010000000003249820100148 PAGO POR CUENTA Y ORDEN SUELDO                                                                                                 0000121
65508020750     127666001061602747BAZTEPERLA GABRIELA JUAREZ HUERTA            10010000000005097070100148 PAGO POR CUENTA Y ORDEN SUELDO                                                                                                 0000122
65508020750     127180013459322802BAZTESAMANTHA NICOLE ALCANTARA RANGEL        10010000000002053980100148 PAGO POR CUENTA Y ORDEN SUELDO                                                                                                 0000123
65508020750     127180013014425746BAZTEOSCAR GOMEZ ADAME                       10010000000006679070100148 PAGO POR CUENTA Y ORDEN SUELDO                                                                                                 0000124
65508020750     127180013621740092BAZTEPEDRO QUIJAS AYUZO                      10010000000005954070100148 PAGO POR CUENTA Y ORDEN SUELDO                                                                                                 0000125
65508020750     127180013798057553BAZTEANGELICA GARCIA RANGEL                  10010000000003330070100148 PAGO POR CUENTA Y ORDEN SUELDO                                                                                                 0000126
65508020750     127180001350297459BAZTEMITZI SAMARA XICOTENCATL SANCHEZ        10010000000004086670100148 PAGO POR CUENTA Y ORDEN SUELDO                                                                                                 0000127
65508020750     127180001218688809BAZTEOSCAR GABRIEL CRUZ GAYTAN               10010000000004583070100148 PAGO POR CUENTA Y ORDEN SUELDO                                                                                                 0000128
65508020750     127832013785161849BAZTEANAKAREN LEOS GONZALEZ                  10010000000002689570100148 PAGO POR CUENTA Y ORDEN SUELDO                                                                                                 0000129
65508020750     127180013577171906BAZTEBRENDA BENITEZ SOLIS                    10010000000005107870100148 PAGO POR CUENTA Y ORDEN SUELDO                                                                                                 0000130
65508020750     127180013801986773BAZTEFRANCISCO JAVIER MARTINEZ OCHOA         10010000000003236070100148 PAGO POR CUENTA Y ORDEN SUELDO                                                                                                 0000131
65508020750     127890013742358022BAZTEANAYELI MORALES CHAIRES                 10010000000002896170100148 PAGO POR CUENTA Y ORDEN SUELDO                                                                                                 0000132
65508020750     127865001142168710BAZTESALVADOR FLORES CHACON                  10010000000003045820100148 PAGO POR CUENTA Y ORDEN SUELDO                                                                                                 0000133
65508020750     127091001277876602BAZTECARLOS NOE SANCHEZ VENEGAS              10010000000004038830100148 PAGO POR CUENTA Y ORDEN SUELDO                                                                                                 0000134
65508020750     127291001302446590BAZTEJULIO CESAR CORTES RAMIREZ              10010000000002957370100148 PAGO POR CUENTA Y ORDEN SUELDO                                                                                                 0000135
65508020750     127437001281019349BAZTEADRIANA LAMADRID MACIEL                 10010000000004902790100148 PAGO POR CUENTA Y ORDEN SUELDO                                                                                                 0000136
65508020750     127180013577112279BAZTEEVELIA HERMOSILLO NAVA                  10010000000003911600100148 PAGO POR CUENTA Y ORDEN SUELDO                                                                                                 0000137
65508020750     127460001539760029BAZTEREYNA ANTONIO PEREZ                     10010000000004647250100148 PAGO POR CUENTA Y ORDEN SUELDO                                                                                                 0000138
65508020750     127437001419829673BAZTEJOSE LUIS CONTRERAS MARTINEZ            10010000000006083850100148 PAGO POR CUENTA Y ORDEN SUELDO                                                                                                 0000139
65508020750     127180013228768053BAZTERUBEN GOCHI BADILLO                     10010000000006678990100148 PAGO POR CUENTA Y ORDEN SUELDO                                                                                                 0000140
65508020750     127180001627055230BAZTEANAYELI GALLARDO BENITEZ                10010000000003636850100148 PAGO POR CUENTA Y ORDEN SUELDO                                                                                                 0000141
65508020750     127180013938020311BAZTEDANIEL GERARDO MAYA LOM                 10010000000002424360100148 PAGO POR CUENTA Y ORDEN SUELDO                                                                                                 0000142
65508020750     127446001430223304BAZTEFERMIN DOMINGUEZ GONZALEZ               10010000000005162330100148 PAGO POR CUENTA Y ORDEN SUELDO                                                                                                 0000143
65508020750     127456001282130282BAZTEERICA MIRIAM GRAJALES RONZON            10010000000001595030100148 PAGO POR CUENTA Y ORDEN SUELDO                                                                                                 0000144
65508020750     127180013637609664BAZTELILIANA BAUTISTA JUAREZ                 10010000000003653350100148 PAGO POR CUENTA Y ORDEN SUELDO                                                                                                 0000145
65508020750     127180001295739043BAZTESERGIO ROBERTO MARTINEZ ESPEJEL         10010000000008956120100148 PAGO POR CUENTA Y ORDEN SUELDO                                                                                                 0000146
65508020750     127180013454097394BAZTEANA MARIA REYES HERNANDEZ               10010000000004568490100148 PAGO POR CUENTA Y ORDEN SUELDO                                                                                                 0000147
65508020750     127456001521518675BAZTECARLOS GERMAN GALVAN PEREZ              10010000000002973940100148 PAGO POR CUENTA Y ORDEN SUELDO                                                                                                 0000148
65508020750     127180001227550957BAZTEDIANA PEREZ HERNANDEZ                   10010000000002705070100148 PAGO POR CUENTA Y ORDEN SUELDO                                                                                                 0000149
65508020750     127180001117092428BAZTECARLOS ALBERTO ARIAS HERRERA            10010000000002896100100148 PAGO POR CUENTA Y ORDEN SUELDO                                                                                                 0000150
65508020750     127424001222468166BAZTEKATHERYN VELAZQUEZ MENDIOLA             10010000000007656790100148 PAGO POR CUENTA Y ORDEN SUELDO                                                                                                 0000151
65508020750     127180013431198148BAZTEANABEL SANTIAGO CASTILLO                10010000000002686490100148 PAGO POR CUENTA Y ORDEN SUELDO                                                                                                 0000152
65508020750     127456017010448813BAZTELUIS ANTONIO BOLANOS EVANGELISTA        10010000000002678990100148 PAGO POR CUENTA Y ORDEN SUELDO                                                                                                 0000153
65508020750     127180013317589583BAZTECLAUDIA VILLANUEVA HERNANDEZ            10010000000006248480100148 PAGO POR CUENTA Y ORDEN SUELDO                                                                                                 0000154
65508020750     127180013203602299BAZTECRISTIAN GAONA PUCH                     10010000000006477570100148 PAGO POR CUENTA Y ORDEN SUELDO                                                                                                 0000155
65508020750     127432001619386212BAZTEEVA RODRIGUEZ TORRES                    10010000000002975040100148 PAGO POR CUENTA Y ORDEN SUELDO                                                                                                 0000156
65508020750     127180013629206512BAZTEALFREDO VILLALOBOS MORGADO              10010000000006765220100148 PAGO POR CUENTA Y ORDEN SUELDO                                                                                                 0000157
65508020750     127180001246171809BAZTECESAR HERNANDEZ ACEVEDO                 10010000000002804110100148 PAGO POR CUENTA Y ORDEN SUELDO                                                                                                 0000158
65508020750     127180013041266062BAZTEADELA ANTONIA ALCANTARA RAMOS           10010000000003401990100148 PAGO POR CUENTA Y ORDEN SUELDO                                                                                                 0000159
65508020750     127180013132211214BAZTEERIKA YANET LOPEZ LEDESMA               10010000000002816370100148 PAGO POR CUENTA Y ORDEN SUELDO                                                                                                 0000160
65508020750     127180001107851093BAZTEROBERTO SORIANO MORALES                 10010000000003783470100148 PAGO POR CUENTA Y ORDEN SUELDO                                                                                                 0000161
65508020750     127180001300324783BAZTEJUAN ANTONIO LOPEZ IGLESIAS             10010000000004388870100148 PAGO POR CUENTA Y ORDEN SUELDO                                                                                                 0000162
65508020750     127437013324521889BAZTEMARIA EUGENIA MENDEZ NEYRA              10010000000002822100100148 PAGO POR CUENTA Y ORDEN SUELDO                                                                                                 0000163
65508020750     127460001591893617BAZTESANDRA LOZANO MARISCAL                  10010000000002678990100148 PAGO POR CUENTA Y ORDEN SUELDO                                                                                                 0000164
65508020750     127180001217581790BAZTEFERNANDA GABRIELA CAMILO NIETO          10010000000002809050100148 PAGO POR CUENTA Y ORDEN SUELDO                                                                                                 0000165
65508020750     127432013550596926BAZTELIZBETH COLIN MORENO                    10010000000003475700100148 PAGO POR CUENTA Y ORDEN SUELDO                                                                                                 0000166
65508020750     127180013675491546BAZTEXOCHITL BEATRIZ MARTINEZ TOLENTINO      10010000000003398380100148 PAGO POR CUENTA Y ORDEN SUELDO                                                                                                 0000167
65508020750     127437013380421282BAZTEBELEM VELOZ BARRANCO                    10010000000002433610100148 PAGO POR CUENTA Y ORDEN SUELDO                                                                                                 0000168
65508020750     127463013314403606BAZTEJAQUELINE ITZEL GOMEZ JIMENEZ           10010000000002307150100148 PAGO POR CUENTA Y ORDEN SUELDO                                                                                                 0000169
65508020750     127180001220963680BAZTEMARCOS HERNANDEZ FERMIN                 10010000000002960990100148 PAGO POR CUENTA Y ORDEN SUELDO                                                                                                 0000170
65508020750     127180013595499301BAZTEAMERICA FERNANDA CAMACHO HERNANDEZ      10010000000002497630100148 PAGO POR CUENTA Y ORDEN SUELDO                                                                                                 0000171
65508020750     127180001642289324BAZTEDIANA KARINA GOMEZ HERNANDEZ            10010000000002679070100148 PAGO POR CUENTA Y ORDEN SUELDO                                                                                                 0000172
65508020750     127180013901533039BAZTEJESSICA PALAFOX MENDOZA                 10010000000002679070100148 PAGO POR CUENTA Y ORDEN SUELDO                                                                                                 0000173
65508020750     127460001269099400BAZTEDIANA CHACON FLORES                     10010000000004404660100148 PAGO POR CUENTA Y ORDEN SUELDO                                                                                                 0000174
65508020750     127180001302327131BAZTEAMANDA ESTEFANIA PARRA RANGEL           10010000000002955070100148 PAGO POR CUENTA Y ORDEN SUELDO                                                                                                 0000175
65508020750     127180013391260378BAZTEKARINA MARIA GUADALUPE PEREZ MUNIZ      10010000000006671070100148 PAGO POR CUENTA Y ORDEN SUELDO                                                                                                 0000176
65508020750     127180013549356937BAZTECECILIA ADRIANA RODRIGUEZ GONZALEZ      10010000000002679070100148 PAGO POR CUENTA Y ORDEN SUELDO                                                                                                 0000177
65508020750     127180013235448120BAZTEABDIEL BLAS HERNANDEZ                   10010000000003163910100148 PAGO POR CUENTA Y ORDEN SUELDO                                                                                                 0000178
65508020750     127463013791030650BAZTELUIS ENRIQUE JIMENEZ ROJO               10010000000001288450100148 PAGO POR CUENTA Y ORDEN SUELDO                                                                                                 0000179
65508020750     127180013744568313BAZTEMA EUGENIA AGUILERA BELMAN              10010000000004259390100148 PAGO POR CUENTA Y ORDEN SUELDO                                                                                                 0000180
65508020750     127180013432796455BAZTEKARLA MA ORTEGA VELAZQUEZ               10010000000003562270100148 PAGO POR CUENTA Y ORDEN SUELDO                                                                                                 0000181
65508020750     127180013199416586BAZTEYACXEL QUETZALLI PERALTA DOMINGUEZ      10010000000003746270100148 PAGO POR CUENTA Y ORDEN SUELDO                                                                                                 0000182
65508020750     127180013916221035BAZTEJORGE ALBERTO HERNANDEZ SANCHEZ         10010000000003097460100148 PAGO POR CUENTA Y ORDEN SUELDO                                                                                                 0000183
65508020750     127180013550469664BAZTEDANIEL ESTRADA ROBLES                   10010000000002480840100148 PAGO POR CUENTA Y ORDEN SUELDO                                                                                                 0000184
65508020750     127180001335131132BAZTEDALIA SABRINA LAGUNAS SANTIAGO          10010000000002154040100148 PAGO POR CUENTA Y ORDEN SUELDO                                                                                                 0000185
65508020750     127180013576747991BAZTEUSIEL MARTINEZ SANCHEZ                  10010000000006679070100148 PAGO POR CUENTA Y ORDEN SUELDO                                                                                                 0000186
65508020750     127180013953572530BAZTENAHUM ANTONIO LOPEZ GARCIA              10010000000005609100100148 PAGO POR CUENTA Y ORDEN SUELDO                                                                                                 0000187
65508020750     127449001134423753BAZTECESAR REMEDIOS GOVEA AGUILAR            10010000000003015670100148 PAGO POR CUENTA Y ORDEN SUELDO                                                                                                 0000188
65508020750     127460001337577919BAZTEPAOLA YENIFER ZAMUDIO RAMIREZ           10010000000003057070100148 PAGO POR CUENTA Y ORDEN SUELDO                                                                                                 0000189
65508020750     127180001226126683BAZTEEVETTE PEREZ GONZALEZ                   10010000000005210110100148 PAGO POR CUENTA Y ORDEN SUELDO                                                                                                 0000190
65508020750     127180013910920329BAZTEANGEL EMIR PATINO CORTINA               10010000000003163910100148 PAGO POR CUENTA Y ORDEN SUELDO                                                                                                 0000191
65508020750     127180013828524341BAZTEELENA ORTELA ALEMAN                     10010000000002822180100148 PAGO POR CUENTA Y ORDEN SUELDO                                                                                                 0000192
65508020750     127437013642988829BAZTELORENA LOPEZ VARGAS                     10010000000002996510100148 PAGO POR CUENTA Y ORDEN SUELDO                                                                                                 0000193
65508020750     127180001354486156BAZTEMONSERRAT LEONOR ORDONEZ GONZALEZ       10010000000004211790100148 PAGO POR CUENTA Y ORDEN SUELDO                                                                                                 0000194
65508020750     127180001157527115BAZTEKAREN DE JESUS MAXIMILIANO GOMEZ        10010000000002991870100148 PAGO POR CUENTA Y ORDEN SUELDO                                                                                                 0000195
65508020750     127430001162186851BAZTECHARLY NUNEZ GARCIA                     10010000000003163910100148 PAGO POR CUENTA Y ORDEN SUELDO                                                                                                 0000196
65508020750     127180013327583333BAZTEKARLA MAYELA SALAZAR TORRES             10010000000004173750100148 PAGO POR CUENTA Y ORDEN SUELDO                                                                                                 0000197
65508020750     127180013803201252BAZTENALLELY HABANA AVILA                    10010000000003992830100148 PAGO POR CUENTA Y ORDEN SUELDO                                                                                                 0000198
65508020750     127180013664855724BAZTEEDUARDO DANIEL VELASCO CARRADA          10010000000003461070100148 PAGO POR CUENTA Y ORDEN SUELDO                                                                                                 0000199
65508020750     127180001239077949BAZTEILEANA PAMELA PEREZ CORTEZ              10010000000002679070100148 PAGO POR CUENTA Y ORDEN SUELDO                                                                                                 0000200
65508020750     127180013442229365BAZTESANDRA JUDITH ORTIZ FLORES              10010000000005389750100148 PAGO POR CUENTA Y ORDEN SUELDO                                                                                                 0000201
65508020750     127180013519862794BAZTEGERARDO MICHEL ALVAREZ RAMIREZ          10010000000008194840100148 PAGO POR CUENTA Y ORDEN SUELDO                                                                                                 0000202
65508020750     127180013754686557BAZTEALMA ELIZABETH ESTRADA GARCIA           10010000000004031470100148 PAGO POR CUENTA Y ORDEN SUELDO                                                                                                 0000203
65508020750     127180016114108232BAZTESANDRA DEL PILAR LOPEZ BECERRIL         10010000000003242110100148 PAGO POR CUENTA Y ORDEN SUELDO                                                                                                 0000204
65508020750     127180001121021663BAZTELUIS ALEJANDRO CORTEZ MAZA              10010000000005749100100148 PAGO POR CUENTA Y ORDEN SUELDO                                                                                                 0000205
65508020750     127437013766314052BAZTEJORGE SANTAMARIA MUNOZ                  10010000000002779070100148 PAGO POR CUENTA Y ORDEN SUELDO                                                                                                 0000206
65508020750     127180013528554365BAZTEFLOR CECILIA MANCERA CORTES             10010000000003945910100148 PAGO POR CUENTA Y ORDEN SUELDO                                                                                                 0000207
65508020750     127180013763997279BAZTEVANESSA GALINDO CAYETANO                10010000000001839170100148 PAGO POR CUENTA Y ORDEN SUELDO                                                                                                 0000208
65508020750     127180016038900338BAZTEEMMANUEL SOUZA PAZ                      10010000000003305070100148 PAGO POR CUENTA Y ORDEN SUELDO                                                                                                 0000209
65508020750     127431013393606605BAZTEARMANDO ROLDAN OLIVARES                 10010000000003694750100148 PAGO POR CUENTA Y ORDEN SUELDO                                                                                                 0000210
65508020750     127180013022520303BAZTEELISEO VIVEROS CALDERON                 10010000000003036070100148 PAGO POR CUENTA Y ORDEN SUELDO                                                                                                 0000211
65508020750     127180013413000982BAZTELOURDES APOLONIO SERNA                  10010000000003029580100148 PAGO POR CUENTA Y ORDEN SUELDO                                                                                                 0000212
65508020750     127460013801807459BAZTEMAURILIO DANIEL CHAVEZ DAVILA           10010000000002916070100148 PAGO POR CUENTA Y ORDEN SUELDO                                                                                                 0000213
65508020750     127180013817220847BAZTEROSA ISELA HUIPIO OLIVA                 10010000000002679070100148 PAGO POR CUENTA Y ORDEN SUELDO                                                                                                 0000214
65508020750     127456013814515551BAZTEGUADALUPE ESPINOLA GONZALEZ             10010000000002953570100148 PAGO POR CUENTA Y ORDEN SUELDO                                                                                                 0000215
65508020750     127180013821209391BAZTEMARTHA PATRICIA RUEDA GONZALEZ          10010000000003382870100148 PAGO POR CUENTA Y ORDEN SUELDO                                                                                                 0000216
65508020750     127180001105986643BAZTEYADIRA ENCARNACION MENESES MAGNO        10010000000006472460100148 PAGO POR CUENTA Y ORDEN SUELDO                                                                                                 0000217
65508020750     127180013569560130BAZTEAIRA CECILIA MONTES ADAME               10010000000002239090100148 PAGO POR CUENTA Y ORDEN SUELDO                                                                                                 0000218
65508020750     127650013950266285BAZTEJUAN FERNANDO CUANALO PEREZ             10010000000003224470100148 PAGO POR CUENTA Y ORDEN SUELDO                                                                                                 0000219
65508020750     127420001402610437BAZTEMAXIMINA MARTINEZ SANCHEZ               10010000000002095630100148 PAGO POR CUENTA Y ORDEN SUELDO                                                                                                 0000220
65508020750     127180016056309843BAZTEMARCO ANTONIO MARTINEZ OLIVARES         10010000000006312500100148 PAGO POR CUENTA Y ORDEN SUELDO                                                                                                 0000221
65508020750     127458013527761991BAZTEINDIRA DAYAIN MONDRAGON PEREZ           10010000000003770410100148 PAGO POR CUENTA Y ORDEN SUELDO                                                                                                 0000222
65508020750     127458013339355809BAZTENORMA ARCE GONZALEZ                     10010000000003993910100148 PAGO POR CUENTA Y ORDEN SUELDO                                                                                                 0000223
65508020750     127180013902826185BAZTESOLEDAD HERNANDEZ YESCAS                10010000000004024110100148 PAGO POR CUENTA Y ORDEN SUELDO                                                                                                 0000224
65508020750     127215013712511199BAZTELAURA YESSICA ESTRADA ROSAS             10010000000004840750100148 PAGO POR CUENTA Y ORDEN SUELDO                                                                                                 0000225
65508020750     127544013599306706BAZTEBRENDA VIRGINIA SOTERO TORRES           10010000000003593550100148 PAGO POR CUENTA Y ORDEN SUELDO                                                                                                 0000226
65508020750     127180001138401250BAZTEJESUS ALEJANDRO MARTINEZ ALVAREZ        10010000000004847980100148 PAGO POR CUENTA Y ORDEN SUELDO                                                                                                 0000227
65508020750     127180001142024775BAZTEJESSICA GUADALUPE LOZANO LANTEN         10010000000003593550100148 PAGO POR CUENTA Y ORDEN SUELDO                                                                                                 0000228
65508020750     127180013748761996BAZTEANA MARIA GUADALUPE CAMPOS LOPEZ        10010000000003114070100148 PAGO POR CUENTA Y ORDEN SUELDO                                                                                                 0000229
65508020750     127180001139023912BAZTEPALMIDIA JUAREZ CORONA                  10010000000003133070100148 PAGO POR CUENTA Y ORDEN SUELDO                                                                                                 0000230
65508020750     127180013519428264BAZTEWENDOLYN AMAIRANI BELLO NAVARRO         10010000000003563640100148 PAGO POR CUENTA Y ORDEN SUELDO                                                                                                 0000231
65508020750     127180013051416721BAZTEMARCO JOSAINN BECERRIL MENDOZA          10010000000003479070100148 PAGO POR CUENTA Y ORDEN SUELDO                                                                                                 0000232
65508020750     127180001380405761BAZTEALEJANDRO GAMEZ CASIMIRO                10010000000003025070100148 PAGO POR CUENTA Y ORDEN SUELDO                                                                                                 0000233
65508020750     127180013500519360BAZTEDIANA AZALEA VICHE MORENO               10010000000003223070100148 PAGO POR CUENTA Y ORDEN SUELDO                                                                                                 0000234
65508020750     127652001313787243BAZTEGIOVANNI TELLEZ ROSAS                   10010000000002388500100148 PAGO POR CUENTA Y ORDEN SUELDO                                                                                                 0000235
65508020750     127470013901840461BAZTEEDITH GARCIA PEREZ                      10010000000002896170100148 PAGO POR CUENTA Y ORDEN SUELDO                                                                                                 0000236
65508020750     127180013844186394BAZTECARLOS ALBERTO SOLORZANO LOPEZ          10010000000003202820100148 PAGO POR CUENTA Y ORDEN SUELDO                                                                                                 0000237
65508020750     127180001373354104BAZTEMARIA REMEDIOS TORRES OLIVARES          10010000000003476470100148 PAGO POR CUENTA Y ORDEN SUELDO                                                                                                 0000238
65508020750     127180001154463515BAZTELUIS ENRIQUE PEREZ MALDONADO            10010000000002358260100148 PAGO POR CUENTA Y ORDEN SUELDO                                                                                                 0000239
65508020750     127180013919423403BAZTEMARISELA CRUZ MONTESINOS                10010000000002679070100148 PAGO POR CUENTA Y ORDEN SUELDO                                                                                                 0000240
65508020750     127462001384743765BAZTEADRIANA ELIZABETH SANCHEZ RIVERA        10010000000002365090100148 PAGO POR CUENTA Y ORDEN SUELDO                                                                                                 0000241
65508020750     127540001062049658BAZTEEDDIE GIOVANNI ROMERO MORALES           10010000000003811180100148 PAGO POR CUENTA Y ORDEN SUELDO                                                                                                 0000242
65508020750     127180001385146355BAZTEANEL HERNANDEZ HERNANDEZ                10010000000003887030100148 PAGO POR CUENTA Y ORDEN SUELDO                                                                                                 0000243
65508020750     127180001154506647BAZTEJOSE ARMANDO JUAREZ RAMIREZ             10010000000002572310100148 PAGO POR CUENTA Y ORDEN SUELDO                                                                                                 0000244
65508020750     127180001248948218BAZTEFRANCISCO VIDAL OSORIO                  10010000000003046270100148 PAGO POR CUENTA Y ORDEN SUELDO                                                                                                 0000245
65508020750     127180013939541459BAZTEINGRID DAFNE SORIANO OSORIO             10010000000003320310100148 PAGO POR CUENTA Y ORDEN SUELDO                                                                                                 0000246
65508020750     127426013937284391BAZTEYAMELA PORFIRIO BECERRIL                10010000000002679070100148 PAGO POR CUENTA Y ORDEN SUELDO                                                                                                 0000247
65508020750     127180001388198973BAZTEJOCELIN LUCILA MARTINEZ GONZALEZ        10010000000003507070100148 PAGO POR CUENTA Y ORDEN SUELDO                                                                                                 0000248
65508020750     127180001388629756BAZTECRISTIAN MANUEL TENORIO CORELLA         10010000000003862270100148 PAGO POR CUENTA Y ORDEN SUELDO                                                                                                 0000249
65508020750     127504001263363043BAZTELIZANDRO ALCARAZ ESTRADA                10010000000002810230100148 PAGO POR CUENTA Y ORDEN SUELDO                                                                                                 0000250
65508020750     127540001391090912BAZTEBEATRIZ ADRIANA BRIONES LOPEZ           10010000000002505490100148 PAGO POR CUENTA Y ORDEN SUELDO                                                                                                 0000251
65508020750     127247001247322396BAZTEJORGE LUIS GONZALEZ GAYTAN              10010000000003093550100148 PAGO POR CUENTA Y ORDEN SUELDO                                                                                                 0000252
65508020750     127180013968532044BAZTENORA SOCORRO DEMETRIO MENDIOLA          10010000000003617470100148 PAGO POR CUENTA Y ORDEN SUELDO                                                                                                 0000253
65508020750     127180001391689314BAZTEPEDRO VAZQUEZ JUAREZ                    10010000000003820790100148 PAGO POR CUENTA Y ORDEN SUELDO                                                                                                 0000254
65508020750     127180001390576800BAZTEDULCE MARIA ALVARADO GONZALEZ           10010000000002822180100148 PAGO POR CUENTA Y ORDEN SUELDO                                                                                                 0000255
65508020750     127650013946211697BAZTEJESSICA SANCHEZ PALESTINA               10010000000002647660100148 PAGO POR CUENTA Y ORDEN SUELDO                                                                                                 0000256
65508020750     127537001143805724BAZTEJUAN ANTONIO SANCHEZ RAMIREZ            10010000000008006960100148 PAGO POR CUENTA Y ORDEN SUELDO                                                                                                 0000257
65508020750     127180013671780332BAZTEROBERTO HERNANDEZ GARCIA                10010000000002401150100148 PAGO POR CUENTA Y ORDEN SUELDO                                                                                                 0000258
65508020750     127312013086863829BAZTEMARIA GUADALUPE CORONA LECHUGA          10010000000002809120100148 PAGO POR CUENTA Y ORDEN SUELDO                                                                                                 0000259
65508020750     127180001396968072BAZTEERIK ALEJANDRO DIAZ CANEDO              10010000000001972580100148 PAGO POR CUENTA Y ORDEN SUELDO                                                                                                 0000260
65508020750     127215013010894631BAZTEANDRES JIMENEZ RODRIGUEZ                10010000000002522120100148 PAGO POR CUENTA Y ORDEN SUELDO                                                                                                 0000261
65508020750     127180001144701339BAZTEGUADALUPE CARMONA ANTONIO               10010000000003492350100148 PAGO POR CUENTA Y ORDEN SUELDO                                                                                                 0000262
65508020750     127877001213123300BAZTEJUAN CARLOS PEREZ MORALES               10010000000003125120100148 PAGO POR CUENTA Y ORDEN SUELDO                                                                                                 0000263
65508020750     127180013022276288BAZTEMARELI ALEJANDRA BONILLA DIAZ           10010000000002239090100148 PAGO POR CUENTA Y ORDEN SUELDO                                                                                                 0000264
65508020750     127290001399217791BAZTECESIA GABRIELA MARTINEZ MARTINEZ        10010000000002239090100148 PAGO POR CUENTA Y ORDEN SUELDO                                                                                                 0000265
65508020750     127438001146909632BAZTEBRIAN VILLAGOMEZ CRUZ                   10010000000003398680100148 PAGO POR CUENTA Y ORDEN SUELDO                                                                                                 0000266
65508020750     127180013591598154BAZTEDIEGO ERNESTO GARAY LOPEZ               10010000000002679070100148 PAGO POR CUENTA Y ORDEN SUELDO                                                                                                 0000267
65508020750     127449013043153296BAZTEMARIA ELENA ANTONIO GARCIA              10010000000003697070100148 PAGO POR CUENTA Y ORDEN SUELDO                                                                                                 0000268
65508020750     127180001145046352BAZTEERICK BRANDON OROZCO VACA               10010000000003625310100148 PAGO POR CUENTA Y ORDEN SUELDO                                                                                                 0000269
65508020750     127180013358861121BAZTEEDGAR MUNOZ SERVIN                      10010000000006679070100148 PAGO POR CUENTA Y ORDEN SUELDO                                                                                                 0000270
65508020750     127832001405281228BAZTECARLOS ALEJANDRO PALESTINA LIMA         10010000000002733820100148 PAGO POR CUENTA Y ORDEN SUELDO                                                                                                 0000271
65508020750     127546001121487537BAZTENAYRELI GONZALEZ GONZAGA                10010000000002269630100148 PAGO POR CUENTA Y ORDEN SUELDO                                                                                                 0000272
65508020750     127420001406181315BAZTELINDA ISABEL OROZCO AZOTEA              10010000000002365090100148 PAGO POR CUENTA Y ORDEN SUELDO                                                                                                 0000273
65508020750     127654001404490861BAZTERAYMUNDO ANTONIO HERNANDEZ LOPEZ        10010000000005684690100148 PAGO POR CUENTA Y ORDEN SUELDO                                                                                                 0000274
65508020750     127180013078757353BAZTEROSARIO ALINE CUEVAS CANCINO            10010000000003194830100148 PAGO POR CUENTA Y ORDEN SUELDO                                                                                                 0000275
65508020750     127180001408139760BAZTERUBEN COLIN ARCOVENDAS                  10010000000001275480100148 PAGO POR CUENTA Y ORDEN SUELDO                                                                                                 0000276
65508020750     127180013094734389BAZTELIDIA CRISTINA COVARRUBIAS CALZADA      10010000000003593550100148 PAGO POR CUENTA Y ORDEN SUELDO                                                                                                 0000277
65508020750     127180013881180256BAZTEMARIA GUADALUPE TOSCANO ISLAS           10010000000003396670100148 PAGO POR CUENTA Y ORDEN SUELDO                                                                                                 0000278
65508020750     127180001189537791BAZTEIVAN GASPAR HERRERA                     10010000000003944050100148 PAGO POR CUENTA Y ORDEN SUELDO                                                                                                 0000279
65508020750     127905001414081498BAZTEJERONIMO ROMAN ARRIETA                  10010000000002437000100148 PAGO POR CUENTA Y ORDEN SUELDO                                                                                                 0000280
65508020750     127290013676056715BAZTEBEATRIZ EVELYN CONTRERAS CABRERA        10010000000004223730100148 PAGO POR CUENTA Y ORDEN SUELDO                                                                                                 0000281
65508020750     127541001413797778BAZTEPERLA YAJAIRA TAJONAR HERNANDEZ         10010000000002679070100148 PAGO POR CUENTA Y ORDEN SUELDO                                                                                                 0000282
65508020750     127650001379502655BAZTEMARCELO EMMANUEL BASILIO MIXCOATL       10010000000005279600100148 PAGO POR CUENTA Y ORDEN SUELDO                                                                                                 0000283
65508020750     127670001415067555BAZTEJAVIER FRANCISCO SANCHEZ HERNANDEZ      10010000000003093550100148 PAGO POR CUENTA Y ORDEN SUELDO                                                                                                 0000284
65508020750     127890001295827928BAZTEMARTIN ENRIQUE OLIN GOMEZ               10010000000002896170100148 PAGO POR CUENTA Y ORDEN SUELDO                                                                                                 0000285
65508020750     127890001300316829BAZTELEONARDO MOTO MALAGA                    10010000000002896170100148 PAGO POR CUENTA Y ORDEN SUELDO                                                                                                 0000286
65508020750     127850001207586213BAZTECANDIDO SALVADOR RENDON ARRES           10010000000002896170100148 PAGO POR CUENTA Y ORDEN SUELDO                                                                                                 0000287
65508020750     127890001196435406BAZTEOSWALDO HERNANDEZ CORTES                10010000000004279660100148 PAGO POR CUENTA Y ORDEN SUELDO                                                                                                 0000288
65508020750     127882001212893985BAZTEURIEL NICOLAS ANDRADE                   10010000000002095740100148 PAGO POR CUENTA Y ORDEN SUELDO                                                                                                 0000289
65508020750     127180013175415705BAZTECRISTINA ELIZABETH HERNANDEZ AGUILAR    10010000000008988850100148 PAGO POR CUENTA Y ORDEN SUELDO                                                                                                 0000290
65508020750     127180001228872702BAZTEABIGAIL AMAIRANI MARTINEZ DE LA ROSA    10010000000003589870100148 PAGO POR CUENTA Y ORDEN SUELDO                                                                                                 0000291
65508020750     127654001063161272BAZTERODRIGO YAMARI LOPEZ LOPEZ              10010000000002896170100148 PAGO POR CUENTA Y ORDEN SUELDO                                                                                                 0000292
65508020750     127671001424901148BAZTEJANETT BONILLA CESPEDES                 10010000000002868540100148 PAGO POR CUENTA Y ORDEN SUELDO                                                                                                 0000293
65508020750     127180013141901502BAZTEKAREN ISLAS RODRIGUEZ                   10010000000002835610100148 PAGO POR CUENTA Y ORDEN SUELDO                                                                                                 0000294
65508020750     127840001093316652BAZTEGUSTAVO VELAZQUEZ LANDA                 10010000000006277060100148 PAGO POR CUENTA Y ORDEN SUELDO                                                                                                 0000295
65508020750     127550001212557715BAZTEISAEL FAUSTINO ROMAN                    10010000000004000170100148 PAGO POR CUENTA Y ORDEN SUELDO                                                                                                 0000296
65508020750     127434001114325433BAZTEOFELIA GUTIERREZ GUADARRAMA             10010000000002985670100148 PAGO POR CUENTA Y ORDEN SUELDO                                                                                                 0000297
65508020750     127180001204269151BAZTEDIANA LUCERO MORALES RAMIREZ            10010000000002679070100148 PAGO POR CUENTA Y ORDEN SUELDO                                                                                                 0000298
65508020750     127655001193498830BAZTECESAR ALVAREZ HERRERA                   10010000000003351590100148 PAGO POR CUENTA Y ORDEN SUELDO                                                                                                 0000299
65508020750     127655001214144500BAZTESILVESTRE MUNGUIA FLORES                10010000000002561350100148 PAGO POR CUENTA Y ORDEN SUELDO                                                                                                 0000300
65508020750     127180001640218643BAZTEALFREDO VAZQUEZ VALDEZ                  10010000000003298570100148 PAGO POR CUENTA Y ORDEN SUELDO                                                                                                 0000301
65508020750     127667001157012321BAZTELADISLAO AGUILAR SANCHEZ                10010000000003056170100148 PAGO POR CUENTA Y ORDEN SUELDO                                                                                                 0000302
65508020750     127894001212717101BAZTEJOSE MANUEL ARGUELLES MORALES           10010000000002944270100148 PAGO POR CUENTA Y ORDEN SUELDO                                                                                                 0000303
65508020750     127180001146095166BAZTEJACSIRY SELENE ESCOBAR CALVO            10010000000003593550100148 PAGO POR CUENTA Y ORDEN SUELDO                                                                                                 0000304
65508020750     127434013252722287BAZTEREYNA FLORES JIMENEZ                    10010000000003197650100148 PAGO POR CUENTA Y ORDEN SUELDO                                                                                                 0000305
65508020750     127424001576175370BAZTEJUAN DE DIOS VALENCIA CASTILLO          10010000000002869470100148 PAGO POR CUENTA Y ORDEN SUELDO                                                                                                 0000306
65508020750     127180001173465109BAZTEJOSE LUIS SANTOYO MORA                  10010000000009318290100148 PAGO POR CUENTA Y ORDEN SUELDO                                                                                                 0000307
65508020750     127885001648920500BAZTEEDUARDO OLARTE GARCIA                   10010000000002218140100148 PAGO POR CUENTA Y ORDEN SUELDO                                                                                                 0000308
65508020750     127890001427240001BAZTEMARIBEL ESPINOSA CHAPOL                 10010000000002679070100148 PAGO POR CUENTA Y ORDEN SUELDO                                                                                                 0000309
65508020750     127311013640902842BAZTEFRANCISCO JAVIER RESENDIZ MIRANDA       10010000000002896170100148 PAGO POR CUENTA Y ORDEN SUELDO                                                                                                 0000310
65508020750     127662001406668599BAZTEJENCI BIRIDIANA NAFATE MORENO           10010000000002679070100148 PAGO POR CUENTA Y ORDEN SUELDO                                                                                                 0000311
65508020750     127650001430724958BAZTEGUADALUPE HERNANDEZ DELGADILLO          10010000000002304240100148 PAGO POR CUENTA Y ORDEN SUELDO                                                                                                 0000312
65508020750     127180013040307155BAZTEMARLENE NAYELI RIVERA CORTES            10010000000004566570100148 PAGO POR CUENTA Y ORDEN SUELDO                                                                                                 0000313
65508020750     127180001285180709BAZTEGUADALUPE GONZALEZ GARCIA               10010000000002954130100148 PAGO POR CUENTA Y ORDEN SUELDO                                                                                                 0000314
65508020750     127830001433257718BAZTEMARICRUZ ANGELICA ROSAS SARMIENTO       10010000000002954130100148 PAGO POR CUENTA Y ORDEN SUELDO                                                                                                 0000315
65508020750     127180013773761709BAZTEPRISYEREINA VAZQUEZ SON                 10010000000003372330100148 PAGO POR CUENTA Y ORDEN SUELDO                                                                                                 0000316
65508020750     127894001622370332BAZTEMIGUEL ROBERTO GARCIA GONZALEZ          10010000000003075690100148 PAGO POR CUENTA Y ORDEN SUELDO                                                                                                 0000317
65508020750     127180016605812053BAZTEMARIA DEL CARMEN DERAS RICO             10010000000003196170100148 PAGO POR CUENTA Y ORDEN SUELDO                                                                                                 0000318
65508020750     127180001505231082BAZTEVANIA BERENICE NIEVES GARCIA            10010000000003423330100148 PAGO POR CUENTA Y ORDEN SUELDO                                                                                                 0000319
65508020750     127180013245323497BAZTEMARIA SARAHI FLORES CARRILLO            10010000000004100490100148 PAGO POR CUENTA Y ORDEN SUELDO                                                                                                 0000320
65508020750     127650001231514626BAZTEMARIA FERNANDA ROBLES LOPEZ             10010000000004161180100148 PAGO POR CUENTA Y ORDEN SUELDO                                                                                                 0000321
65508020750     127180013716756852BAZTENANCY LEIDY VAZQUEZ REYES               10010000000003398510100148 PAGO POR CUENTA Y ORDEN SUELDO                                                                                                 0000322
65508020750     127886001114558311BAZTEMATEO BAUTISTA GUZMAN                   10010000000002679070100148 PAGO POR CUENTA Y ORDEN SUELDO                                                                                                 0000323
65508020750     127840001078473206BAZTENORMA ANGELICA FERNANDEZ DURAN          10010000000005684590100148 PAGO POR CUENTA Y ORDEN SUELDO                                                                                                 0000324
65508020750     127180013260214028BAZTEYARETZI TEJEDOR ROJAS                   10010000000002923870100148 PAGO POR CUENTA Y ORDEN SUELDO                                                                                                 0000325
65508020750     127886001133834359BAZTEJUAN CARLOS MORALES ATANACIO            10010000000002679070100148 PAGO POR CUENTA Y ORDEN SUELDO                                                                                                 0000326
65508020750     127180001235767703BAZTEARTURO ROSAS GALLARDO                   10010000000003172170100148 PAGO POR CUENTA Y ORDEN SUELDO                                                                                                 0000327
65508020750     127667001346309515BAZTEJOANAN ELIEZER BENITEZ ARANA            10010000000002510220100148 PAGO POR CUENTA Y ORDEN SUELDO                                                                                                 0000328
65508020750     127834001511362217BAZTELUIS MIGUEL CALOCH FLORES               10010000000003080970100148 PAGO POR CUENTA Y ORDEN SUELDO                                                                                                 0000329
65508020750     127320001512268905BAZTEBRYAN ALEJANDRO BOBADILLA SERRANO       10010000000004119180100148 PAGO POR CUENTA Y ORDEN SUELDO                                                                                                 0000330
65508020750     127847001511510551BAZTEYESENIA CRUZ GARCIA                     10010000000002214120100148 PAGO POR CUENTA Y ORDEN SUELDO                                                                                                 0000331
65508020750     127180013063844705BAZTEELIAS SET ORTEGA SAMPEDRO               10010000000002679070100148 PAGO POR CUENTA Y ORDEN SUELDO                                                                                                 0000332
65508020750     127506013448798089BAZTEMARIA GUADALUPE TAPIA CASTRO            10010000000004928410100148 PAGO POR CUENTA Y ORDEN SUELDO                                                                                                 0000333
65508020750     127247001193875528BAZTEJESUS ADRIAN HERNANDEZ RUIZ             10010000000003093550100148 PAGO POR CUENTA Y ORDEN SUELDO                                                                                                 0000334
65508020750     127424013788406498BAZTEJUAN AURELIO HERNANDEZ REYES            10010000000004556600100148 PAGO POR CUENTA Y ORDEN SUELDO                                                                                                 0000335
65508020750     127180013298108559BAZTEIRMA MAYORGA SANCHEZ                    10010000000003056270100148 PAGO POR CUENTA Y ORDEN SUELDO                                                                                                 0000336
65508020750     127882001527143854BAZTEMARIO OMAR AGUILA MONTERROSAS           10010000000002896170100148 PAGO POR CUENTA Y ORDEN SUELDO                                                                                                 0000337
65508020750     127544001515625101BAZTEALBERTO MORA GILES                      10010000000003093550100148 PAGO POR CUENTA Y ORDEN SUELDO                                                                                                 0000338
65508020750     127854013299624300BAZTEJOANNA AIMME MARTINEZ REYES             10010000000002239090100148 PAGO POR CUENTA Y ORDEN SUELDO                                                                                                 0000339
65508020750     127180001130068756BAZTEGUSTAVO VARGAS DIAZ                     10010000000003593550100148 PAGO POR CUENTA Y ORDEN SUELDO                                                                                                 0000340
65508020750     127190013291413448BAZTECARLA AIDE LEON RODRIGUEZ               10010000000003554910100148 PAGO POR CUENTA Y ORDEN SUELDO                                                                                                 0000341
65508020750     127670001516983897BAZTEJOSE EDUARDO ARMAS CORTES               10010000000003390490100148 PAGO POR CUENTA Y ORDEN SUELDO                                                                                                 0000342
65508020750     127180001120189674BAZTEALAN JOSEPH HERNANDEZ GARCIA            10010000000005580750100148 PAGO POR CUENTA Y ORDEN SUELDO                                                                                                 0000343
65508020750     127180001517459865BAZTEMARIA DE LA CRUZ GUILLEN LEON           10010000000002312840100148 PAGO POR CUENTA Y ORDEN SUELDO                                                                                                 0000344
65508020750     127180013698996109BAZTENORMAN ORLANDO RODRIGUEZ TRUJILLO       10010000000003273070100148 PAGO POR CUENTA Y ORDEN SUELDO                                                                                                 0000345
65508020750     127180013307152137BAZTEROSARIO BELEM HERNANDEZ MAYORGA         10010000000007995740100148 PAGO POR CUENTA Y ORDEN SUELDO                                                                                                 0000346
65508020750     127320001206524489BAZTEMIGUEL HIDALGO RAMIREZ                  10010000000003860040100148 PAGO POR CUENTA Y ORDEN SUELDO                                                                                                 0000347
65508020750     127180001230848193BAZTEOMAR JESUS GUERRERO ESPITIA             10010000000002897070100148 PAGO POR CUENTA Y ORDEN SUELDO                                                                                                 0000348
65508020750     127180016019362649BAZTESANDRA PALACIOS ROMERO                  10010000000002934070100148 PAGO POR CUENTA Y ORDEN SUELDO                                                                                                 0000349
65508020750     127652001139977033BAZTEJUAN ANDRES SANTOS GARCIA               10010000000002807150100148 PAGO POR CUENTA Y ORDEN SUELDO                                                                                                 0000350
65508020750     127437001519896043BAZTEJAVIER GUADALUPE REYES MARTINEZ         10010000000003711310100148 PAGO POR CUENTA Y ORDEN SUELDO                                                                                                 0000351
65508020750     127650013025342500BAZTEALEJANDRO MERINO VAZQUEZ                10010000000003811180100148 PAGO POR CUENTA Y ORDEN SUELDO                                                                                                 0000352
65508020750     127180013853692552BAZTEAARON AGUILAR HERNANDEZ                 10010000000003414150100148 PAGO POR CUENTA Y ORDEN SUELDO                                                                                                 0000353
65508020750     127426013281436219BAZTEADILENE VALENCIA LOVERA                 10010000000003593550100148 PAGO POR CUENTA Y ORDEN SUELDO                                                                                                 0000354
65508020750     127180001143291853BAZTEMIGUEL ANGEL BRACAMONTES GONZALEZ       10010000000003085710100148 PAGO POR CUENTA Y ORDEN SUELDO                                                                                                 0000355
65508020750     127460013327923118BAZTEJESSICA CRUZ RAMIREZ                    10010000000003130570100148 PAGO POR CUENTA Y ORDEN SUELDO                                                                                                 0000356
65508020750     127841001118806088BAZTEROSARIO CRUZ SANTOS                     10010000000002679070100148 PAGO POR CUENTA Y ORDEN SUELDO                                                                                                 0000357
65508020750     127653013331671742BAZTEPABLO PASCUAL MARTINEZ                  10010000000003429790100148 PAGO POR CUENTA Y ORDEN SUELDO                                                                                                 0000358
65508020750     127180001524856710BAZTEOSWALDO VASQUEZ CASTRO                  10010000000003087070100148 PAGO POR CUENTA Y ORDEN SUELDO                                                                                                 0000359
65508020750     127180001524910054BAZTEKITZIA CECILIA GONZALEZ COLIN           10010000000002679070100148 PAGO POR CUENTA Y ORDEN SUELDO                                                                                                 0000360
65508020750     127180013336018569BAZTEJORGE SANCHEZ LAGOS                     10010000000003980870100148 PAGO POR CUENTA Y ORDEN SUELDO                                                                                                 0000361
65508020750     127542013348051518BAZTEITZEL XIMENA TAPIA JIMENEZ              10010000000002811870100148 PAGO POR CUENTA Y ORDEN SUELDO                                                                                                 0000362
65508020750     127180001196934235BAZTEAMANDA KAREN NARCIZO VAZQUEZ            10010000000006029070100148 PAGO POR CUENTA Y ORDEN SUELDO                                                                                                 0000363
65508020750     127542001335862706BAZTEALICIA ELIDETH HERRERA HERRERA          10010000000002717650100148 PAGO POR CUENTA Y ORDEN SUELDO                                                                                                 0000364
65508020750     127671013355835737BAZTECLARIBEL RODRIGUEZ OLIVARES             10010000000003093550100148 PAGO POR CUENTA Y ORDEN SUELDO                                                                                                 0000365
65508020750     127671001388361277BAZTEJESUS FERNANDO SANTOS HERNANDEZ         10010000000002954340100148 PAGO POR CUENTA Y ORDEN SUELDO                                                                                                 0000366
65508020750     127180013353870719BAZTESTEPHANY ZITLALY VENEGAS ESTRADA        10010000000004242780100148 PAGO POR CUENTA Y ORDEN SUELDO                                                                                                 0000367
65508020750     127426013358559566BAZTEDANIEL MONROY SANCHEZ                   10010000000002555910100148 PAGO POR CUENTA Y ORDEN SUELDO                                                                                                 0000368
65508020750     127180013319549453BAZTEGLORIA MARIA MORALES BAUTISTA           10010000000005264030100148 PAGO POR CUENTA Y ORDEN SUELDO                                                                                                 0000369
65508020750     127180001564370719BAZTEREY DAVID VELAZQUEZ GUTIERREZ           10010000000003287070100148 PAGO POR CUENTA Y ORDEN SUELDO                                                                                                 0000370
65508020750     127669013169970049BAZTEWENDY LUZ TELLEZ RAMIREZ                10010000000002923810100148 PAGO POR CUENTA Y ORDEN SUELDO                                                                                                 0000371
65508020750     127320001532578400BAZTEAZUCENA GALEANA BARRAGAN                10010000000002679070100148 PAGO POR CUENTA Y ORDEN SUELDO                                                                                                 0000372
65508020750     127650013870156200BAZTEGABRIEL HERNANDEZ PEREZ                 10010000000002791710100148 PAGO POR CUENTA Y ORDEN SUELDO                                                                                                 0000373
65508020750     127180013965039320BAZTEXOCHITL QUETZALLI CRUZ HERNANDEZ        10010000000002809120100148 PAGO POR CUENTA Y ORDEN SUELDO                                                                                                 0000374
65508020750     127580001146982620BAZTEGUILLERMO RUEDA NAJAR                   10010000000003651070100148 PAGO POR CUENTA Y ORDEN SUELDO                                                                                                 0000375
65508020750     127227001105906586BAZTEJUAN LUIS CAHUE DIAZ                    10010000000006130600100148 PAGO POR CUENTA Y ORDEN SUELDO                                                                                                 0000376
65508020750     127180001139128969BAZTEALEJANDRO FLORES HERNANDEZ              10010000000004725160100148 PAGO POR CUENTA Y ORDEN SUELDO                                                                                                 0000377
65508020750     127552001536610365BAZTEMICHEL IVAN CLEMENT FRANCO              10010000000002285520100148 PAGO POR CUENTA Y ORDEN SUELDO                                                                                                 0000378
65508020750     127462001537323534BAZTEMARIA FERNANDA ALAVEZ REYES             10010000000001910310100148 PAGO POR CUENTA Y ORDEN SUELDO                                                                                                 0000379
65508020750     127180013402913718BAZTECHRISTIAN HERNANDEZ SANTIAGO            10010000000003558570100148 PAGO POR CUENTA Y ORDEN SUELDO                                                                                                 0000380
65508020750     127453001537509707BAZTEVICTORIA PACHECO RICARDO                10010000000002365090100148 PAGO POR CUENTA Y ORDEN SUELDO                                                                                                 0000381
65508020750     127180013402809495BAZTEEDUARDO RIOS VARGAS                     10010000000003226470100148 PAGO POR CUENTA Y ORDEN SUELDO                                                                                                 0000382
65508020750     127180001539800201BAZTEJOSE DE JESUS TELLO MENDOZA             10010000000004289070100148 PAGO POR CUENTA Y ORDEN SUELDO                                                                                                 0000383
65508020750     127652001214344439BAZTELUIS FERNANDO SANCHEZ VICTORIA          10010000000003093550100148 PAGO POR CUENTA Y ORDEN SUELDO                                                                                                 0000384
65508020750     127180001305650847BAZTELUIS ALFONSO PATINO VASQUEZ             10010000000003445430100148 PAGO POR CUENTA Y ORDEN SUELDO                                                                                                 0000385
65508020750     127432013839496886BAZTEJUANA EMILIA ROSALES CHAPARRO           10010000000002896170100148 PAGO POR CUENTA Y ORDEN SUELDO                                                                                                 0000386
65508020750     127460001543105065BAZTESTEPHANY JACQUELINE PRISCILIANO GARRIDO 10010000000002679070100148 PAGO POR CUENTA Y ORDEN SUELDO                                                                                                 0000387
65508020750     127449001042383338BAZTEMARTHA SANCHEZ RAMIREZ                  10010000000003696570100148 PAGO POR CUENTA Y ORDEN SUELDO                                                                                                 0000388
65508020750     127437001544110626BAZTEBALTAZAR LAZARO PERALTA                 10010000000004525950100148 PAGO POR CUENTA Y ORDEN SUELDO                                                                                                 0000389
65508020750     127180001546032855BAZTEKARLA LIZETH GARCIA DIAZ                10010000000003172170100148 PAGO POR CUENTA Y ORDEN SUELDO                                                                                                 0000390
65508020750     127180013448956247BAZTEDANIEL SANCHEZ SERRANO                  10010000000002527310100148 PAGO POR CUENTA Y ORDEN SUELDO                                                                                                 0000391
65508020750     127650013679497474BAZTEVIANEY LOPEZ GONZALEZ                   10010000000006296170100148 PAGO POR CUENTA Y ORDEN SUELDO                                                                                                 0000392
65508020750     127180013454759959BAZTEANA PATRICIA ZAPATA MARTINEZ            10010000000002239090100148 PAGO POR CUENTA Y ORDEN SUELDO                                                                                                 0000393
65508020750     127672013452238197BAZTEFATIMA BAUTISTA MARTINEZ                10010000000002239090100148 PAGO POR CUENTA Y ORDEN SUELDO                                                                                                 0000394
65508020750     127180016777376469BAZTEALBERTO BARRIOS SORIA                   10010000000003191070100148 PAGO POR CUENTA Y ORDEN SUELDO                                                                                                 0000395
65508020750     127180001049768309BAZTEGUSTAVO ALBERTO JIMENEZ SANTIAGO        10010000000006141020100148 PAGO POR CUENTA Y ORDEN SUELDO                                                                                                 0000396
65508020750     127671013456884328BAZTEBENJAMIN CAMPOS ZENTENO                 10010000000003637030100148 PAGO POR CUENTA Y ORDEN SUELDO                                                                                                 0000397
65508020750     127296001113270109BAZTEOMAR HERNANDEZ JAIMEZ                   10010000000003593550100148 PAGO POR CUENTA Y ORDEN SUELDO                                                                                                 0000398
65508020750     127845001105293707BAZTECARLOS ALFREDO GUTIERREZ RAMIREZ        10010000000002896170100148 PAGO POR CUENTA Y ORDEN SUELDO                                                                                                 0000399
65508020750     127542013412903709BAZTECINTHYA HERNANDEZ GUTIERREZ             10010000000001356850100148 PAGO POR CUENTA Y ORDEN SUELDO                                                                                                 0000400
65508020750     127180001510824400BAZTEDULCE JANNET MARTINEZ ZARATE            10010000000007854060100148 PAGO POR CUENTA Y ORDEN SUELDO                                                                                                 0000401
65508020750     127180013046043549BAZTEPATRICIA RUEDA CRUZ                     10010000000003369070100148 PAGO POR CUENTA Y ORDEN SUELDO                                                                                                 0000402
65508020750     127650001553655632BAZTEFELIPE REYES GUTIERREZ                  10010000000003311180100148 PAGO POR CUENTA Y ORDEN SUELDO                                                                                                 0000403
65508020750     127180013854996587BAZTENANCY LIZBETH CRUZ CASTRO               10010000000002239090100148 PAGO POR CUENTA Y ORDEN SUELDO                                                                                                 0000404
65508020750     127180001555015410BAZTEISRAEL DEL ANGEL HERNANDEZ              10010000000002822510100148 PAGO POR CUENTA Y ORDEN SUELDO                                                                                                 0000405
65508020750     127537001556501262BAZTELILIANA VERGARA RODRIGUEZ               10010000000003088570100148 PAGO POR CUENTA Y ORDEN SUELDO                                                                                                 0000406
65508020750     127881013902891901BAZTEVICTOR MANUEL MAR CRUZ                  10010000000004556790100148 PAGO POR CUENTA Y ORDEN SUELDO                                                                                                 0000407
65508020750     127180001101089887BAZTEJONATHAN GONZALEZ CANALES               10010000000006208210100148 PAGO POR CUENTA Y ORDEN SUELDO                                                                                                 0000408
65508020750     127180013171974800BAZTEMARIO ALBERTO SEGUNDO AVELINO           10010000000004312070100148 PAGO POR CUENTA Y ORDEN SUELDO                                                                                                 0000409
65508020750     127670001559525720BAZTEOSCAR GINEZ RODRIGUEZ                   10010000000003093550100148 PAGO POR CUENTA Y ORDEN SUELDO                                                                                                 0000410
65508020750     127542001130967330BAZTEJORGE ANTONIO OLVERA SANTAMARIA         10010000000003811180100148 PAGO POR CUENTA Y ORDEN SUELDO                                                                                                 0000411
65508020750     127841001168786022BAZTEHEBER JEHIEL GABRIEL SANTIAGO           10010000000002896170100148 PAGO POR CUENTA Y ORDEN SUELDO                                                                                                 0000412
65508020750     127180013514661398BAZTECHRISTIAN SAUL NAVA SOLANO              10010000000003555070100148 PAGO POR CUENTA Y ORDEN SUELDO                                                                                                 0000413
65508020750     127662001282500538BAZTEJOSE ANGEL GALVEZ PAREDES               10010000000003093550100148 PAGO POR CUENTA Y ORDEN SUELDO                                                                                                 0000414
