65508020750     127537001081050738BAZTEDEYSI VANESSA PEREZ SANCHEZ             10010000000003381010100148 PAGO POR CUENTA Y ORDEN SUELDO                                                                                                 0000501
65508020750     127660001335388395BAZTEJORGE CERON DIAZ                        10010000000002220860100148 PAGO POR CUENTA Y ORDEN SUELDO                                                                                                 0000502
65508020750     127903013753727254BAZTEROCIO ANTUNEZ MENDOZA                   10010000000002239090100148 PAGO POR CUENTA Y ORDEN SUELDO                                                                                                 0000503
65508020750     127180001228665854BAZTEJONATHAN ABRAHAM DURAN MORA             10010000000002679070100148 PAGO POR CUENTA Y ORDEN SUELDO                                                                                                 0000504
65508020750     127424001862704730BAZTERICARDO CAPORAL SANTIAGO                10010000000008759840100148 PAGO POR CUENTA Y ORDEN SUELDO                                                                                                 0000505
65508020750     127670013809929077BAZTEVICTOR JESUS BERNARDINO PULIDO          10010000000003443560100148 PAGO POR CUENTA Y ORDEN SUELDO                                                                                                 0000506
65508020750     127550013286583318BAZTEYARIELA RAMIREZ OROZCO                  10010000000003311180100148 PAGO POR CUENTA Y ORDEN SUELDO                                                                                                 0000507
65508020750     127671001212297514BAZTEWENDY LOEZA CANCINO                     10010000000003093550100148 PAGO POR CUENTA Y ORDEN SUELDO                                                                                                 0000508
65508020750     127180001296568352BAZTEMIRIAM ALEJANDRA CASTILLO TAPIA         10010000000003951430100148 PAGO POR CUENTA Y ORDEN SUELDO                                                                                                 0000509
65508020750     127180013827493855BAZTEMARIA GUADALUPE CASAS NOYOLA            10010000000004643930100148 PAGO POR CUENTA Y ORDEN SUELDO                                                                                                 0000510
65508020750     127180001343509714BAZTELUIS ANTONIO GARCIA MORALES             10010000000003582510100148 PAGO POR CUENTA Y ORDEN SUELDO                                                                                                 0000511
65508020750     127180001592660080BAZTEKATIA SOLEDAD GUILLEN ARRAZOLA          10010000000002955070100148 PAGO POR CUENTA Y ORDEN SUELDO                                                                                                 0000512
65508020750     127660001593066750BAZTESANDRA SANTOS MENESES                   10010000000002252140100148 PAGO POR CUENTA Y ORDEN SUELDO                                                                                                 0000513
65508020750     127180001593654736BAZTEIAN FRISETH LOZANO ZAMORA               10010000000002903470100148 PAGO POR CUENTA Y ORDEN SUELDO                                                                                                 0000514
65508020750     127180013725225442BAZTEKASSANDRA CARMONA GARCIA                10010000000002679070100148 PAGO POR CUENTA Y ORDEN SUELDO                                                                                                 0000515
65508020750     127542001340449693BAZTEMARCO ANTONIO RODRIGUEZ ARZOLA          10010000000003811180100148 PAGO POR CUENTA Y ORDEN SUELDO                                                                                                 0000516
65508020750     127180017436818759BAZTECINTHYA OCHOA TREJO                     10010000000002679070100148 PAGO POR CUENTA Y ORDEN SUELDO                                                                                                 0000517
65508020750     127239001590122167BAZTEJAIREN SARAHI LOPEZ RAMIREZ             10010000000003450550100148 PAGO POR CUENTA Y ORDEN SUELDO                                                                                                 0000518
65508020750     127180001139860764BAZTEROSARIO EDITH LINAJE GONZALEZ           10010000000003838270100148 PAGO POR CUENTA Y ORDEN SUELDO                                                                                                 0000519
65508020750     127674001594369934BAZTEISRAEL QUIJANO ROBLES                   10010000000003421630100148 PAGO POR CUENTA Y ORDEN SUELDO                                                                                                 0000520
65508020750     127434001594919142BAZTEARACELI NAVA VALDES                     10010000000002896170100148 PAGO POR CUENTA Y ORDEN SUELDO                                                                                                 0000521
65508020750     127237001148948407BAZTEJORGE GOMEZ GOMEZ                       10010000000006588400100148 PAGO POR CUENTA Y ORDEN SUELDO                                                                                                 0000522
65508020750     127180017428178342BAZTEBEATRIZ AGUILAR SIERRA                  10010000000001434700100148 PAGO POR CUENTA Y ORDEN SUELDO                                                                                                 0000523
65508020750     127434001596243078BAZTEABISAI CERON JUAREZ                     10010000000003593550100148 PAGO POR CUENTA Y ORDEN SUELDO                                                                                                 0000524
65508020750     127180001248444958BAZTEIRLANDA GARCIA MONTERRUBIO              10010000000002239090100148 PAGO POR CUENTA Y ORDEN SUELDO                                                                                                 0000525
65508020750     127180013402045110BAZTEZULEYMA THAILI MARTINEZ ZUNIGA          10010000000003226470100148 PAGO POR CUENTA Y ORDEN SUELDO                                                                                                 0000526
65508020750     127894017084362299BAZTEPROSPERO VITE SANCHEZ                   10010000000002896170100148 PAGO POR CUENTA Y ORDEN SUELDO                                                                                                 0000527
65508020750     127180001597352173BAZTEYOSSELIN BARRERA LUZ                    10010000000002679070100148 PAGO POR CUENTA Y ORDEN SUELDO                                                                                                 0000528
65508020750     127885001598167497BAZTEYADIRA GARCIA MORENO                    10010000000003593550100148 PAGO POR CUENTA Y ORDEN SUELDO                                                                                                 0000529
65508020750     127882001373983501BAZTELUIS ANGEL CONTRERAS LOPEZ              10010000000002555910100148 PAGO POR CUENTA Y ORDEN SUELDO                                                                                                 0000530
65508020750     127544013251764398BAZTEITZAMAR DIAZ MEZA                       10010000000003593550100148 PAGO POR CUENTA Y ORDEN SUELDO                                                                                                 0000531
65508020750     127180001344642573BAZTEROCIO ADRIANA VAZQUEZ GUTIERREZ         10010000000002896170100148 PAGO POR CUENTA Y ORDEN SUELDO                                                                                                 0000532
65508020750     127180013742897934BAZTEANAHELY NOVAS MEJIA                     10010000000004869070100148 PAGO POR CUENTA Y ORDEN SUELDO                                                                                                 0000533
65508020750     127180001114344140BAZTEOSCAR GUSTAVO TAPIA REYES               10010000000003090350100148 PAGO POR CUENTA Y ORDEN SUELDO                                                                                                 0000534
65508020750     127320013230263704BAZTELUIS ANGEL MAYORGA ESPINOZA             10010000000004494730100148 PAGO POR CUENTA Y ORDEN SUELDO                                                                                                 0000535
65508020750     127650001959711604BAZTEARACELI RODRIGUEZ SANTIAGO              10010000000002896160100148 PAGO POR CUENTA Y ORDEN SUELDO                                                                                                 0000536
65508020750     127457013803786138BAZTEARIANA FERNANDA GUADARRAMA BARCENAS     10010000000002365090100148 PAGO POR CUENTA Y ORDEN SUELDO                                                                                                 0000537
65508020750     127424013163552611BAZTEEDUARDO DANIEL DOMINGUEZ VALENCIA       10010000000003382870100148 PAGO POR CUENTA Y ORDEN SUELDO                                                                                                 0000538
65508020750     127180013772328017BAZTEANA LIZBETH RAMIREZ LOPEZ               10010000000003158390100148 PAGO POR CUENTA Y ORDEN SUELDO                                                                                                 0000539
65508020750     127180013118619348BAZTELORENA MARGARITA CRUZ MARTINEZ          10010000000002679070100148 PAGO POR CUENTA Y ORDEN SUELDO                                                                                                 0000540
65508020750     127180013574230633BAZTEKARLA  VALERIA RUIZ GUERRERO            10010000000002679070100148 PAGO POR CUENTA Y ORDEN SUELDO                                                                                                 0000541
65508020750     127180017440093023BAZTEADRIANA REYES DELA ROSA                 10010000000002679070100148 PAGO POR CUENTA Y ORDEN SUELDO                                                                                                 0000542
65508020750     127180013790939271BAZTEYESSENIA VANESSA GUARNEROS JUAN         10010000000003147060100148 PAGO POR CUENTA Y ORDEN SUELDO                                                                                                 0000543
65508020750     127180013309048074BAZTEMERARI MENDOZA REYES                    10010000000003599970100148 PAGO POR CUENTA Y ORDEN SUELDO                                                                                                 0000544
65508020750     127180013588624633BAZTEANA MIRIAM MARQUEZ LOPEZ                10010000000002596220100148 PAGO POR CUENTA Y ORDEN SUELDO                                                                                                 0000545
65508020750     127422001146102005BAZTEJOSE ISABEL HERNANDEZ HERNANDEZ         10010000000003811180100148 PAGO POR CUENTA Y ORDEN SUELDO                                                                                                 0000546
65508020750     127426001603018308BAZTEMANUEL DAVILA MONTERO                   10010000000003593550100148 PAGO POR CUENTA Y ORDEN SUELDO                                                                                                 0000547
65508020750     127670001114862187BAZTEBARTOLOME GARCIA CARMONA                10010000000003593550100148 PAGO POR CUENTA Y ORDEN SUELDO                                                                                                 0000548
65508020750     127652013357677802BAZTEJULIO CESAR DE LA CRUZ GOMEZ            10010000000003593550100148 PAGO POR CUENTA Y ORDEN SUELDO                                                                                                 0000549
65508020750     127874013584551993BAZTEDALILA DECEANO CONTRERAS                10010000000003311180100148 PAGO POR CUENTA Y ORDEN SUELDO                                                                                                 0000550
65508020750     127867001311537578BAZTEJOSE DAMIAN CAMPOS MORA                 10010000000002896170100148 PAGO POR CUENTA Y ORDEN SUELDO                                                                                                 0000551
65508020750     127426013797315183BAZTEJAVIER CRUZ DE JESUS                    10010000000002896170100148 PAGO POR CUENTA Y ORDEN SUELDO                                                                                                 0000552
65508020750     127180013797197427BAZTEJESSICA VANESSA MAURICIO RAMIREZ        10010000000003593550100148 PAGO POR CUENTA Y ORDEN SUELDO                                                                                                 0000553
65508020750     127180016605976601BAZTEYANELI ESTEFANI REYES ACOSTA            10010000000002239090100148 PAGO POR CUENTA Y ORDEN SUELDO                                                                                                 0000554
65508020750     127180013648149184BAZTEJOSE MANUEL MENDOZA SANTAMARIA          10010000000005661930100148 PAGO POR CUENTA Y ORDEN SUELDO                                                                                                 0000555
65508020750     127426001607575009BAZTEFERNANDO LOPEZ ENRIQUEZ                 10010000000003593550100148 PAGO POR CUENTA Y ORDEN SUELDO                                                                                                 0000556
65508020750     127440001357336503BAZTEJONATHAN FERNANDO MEDINA DIAZ           10010000000002896170100148 PAGO POR CUENTA Y ORDEN SUELDO                                                                                                 0000557
65508020750     127180013802974771BAZTEJESUS ENRIQUE GALICIA GALICIA           10010000000002896160100148 PAGO POR CUENTA Y ORDEN SUELDO                                                                                                 0000558
65508020750     127537001604940652BAZTEEDGAR ALFREDO ESQUIVEL GONZALEZ         10010000000002877180100148 PAGO POR CUENTA Y ORDEN SUELDO                                                                                                 0000559
65508020750     127180001043591310BAZTEYOLANDA ROJAS HORTA                     10010000000002679070100148 PAGO POR CUENTA Y ORDEN SUELDO                                                                                                 0000560
65508020750     127180001605446094BAZTEABAN YAIR MAGANA LOPEZ                  10010000000003317470100148 PAGO POR CUENTA Y ORDEN SUELDO                                                                                                 0000561
65508020750     127180016893592693BAZTEJUAN CARLOS VILLEGAS HERNANDEZ          10010000000003093550100148 PAGO POR CUENTA Y ORDEN SUELDO                                                                                                 0000562
65508020750     127180013034813781BAZTEZULEYMA AGUILAR SANCHEZ                 10010000000003593550100148 PAGO POR CUENTA Y ORDEN SUELDO                                                                                                 0000563
65508020750     127460001606402618BAZTEMARIANA HILLARY GALLOSO LOPEZ           10010000000002679070100148 PAGO POR CUENTA Y ORDEN SUELDO                                                                                                 0000564
65508020750     127180001104975286BAZTEALFREDO CAUDILLO REYES                  10010000000006349870100148 PAGO POR CUENTA Y ORDEN SUELDO                                                                                                 0000565
65508020750     127180013816857677BAZTEREYNA LOPEZ HERNANDEZ                   10010000000002835470100148 PAGO POR CUENTA Y ORDEN SUELDO                                                                                                 0000566
65508020750     127180001606616001BAZTEEDGAR JHARET MALDONADO PINEDA           10010000000003069070100148 PAGO POR CUENTA Y ORDEN SUELDO                                                                                                 0000567
65508020750     127180016797968572BAZTELUIS ALFREDO AVILA NIETO                10010000000002896170100148 PAGO POR CUENTA Y ORDEN SUELDO                                                                                                 0000568
65508020750     127426001608642106BAZTEVICTOR GAMINO BAUTISTA                  10010000000002896170100148 PAGO POR CUENTA Y ORDEN SUELDO                                                                                                 0000569
65508020750     127180001404153067BAZTELUIS MATEO FLORES SANTIAGO              10010000000002679070100148 PAGO POR CUENTA Y ORDEN SUELDO                                                                                                 0000570
65508020750     127180013647658922BAZTEALAN JOEL RUIZ GOMEZ                    10010000000002896160100148 PAGO POR CUENTA Y ORDEN SUELDO                                                                                                 0000571
65508020750     127180001610491830BAZTESONIA ISABEL VELASCO LOPEZ              10010000000002954040100148 PAGO POR CUENTA Y ORDEN SUELDO                                                                                                 0000572
65508020750     127650001610255797BAZTENORMA ANAHI LOPEZ ABASOLO               10010000000003811180100148 PAGO POR CUENTA Y ORDEN SUELDO                                                                                                 0000573
65508020750     127180013976116164BAZTECRUZ NALLELY RAMIREZ DIAZ               10010000000003311810100148 PAGO POR CUENTA Y ORDEN SUELDO                                                                                                 0000574
65508020750     127180013194611140BAZTEROBERTO GONZALEZ FLORES                 10010000000008695860100148 PAGO POR CUENTA Y ORDEN SUELDO                                                                                                 0000575
65508020750     127180016003645440BAZTEENRIQUE VARGAS FUENTES                  10010000000007550720100148 PAGO POR CUENTA Y ORDEN SUELDO                                                                                                 0000576
65508020750     127447001252679957BAZTEDANIELA CORREA MARTINEZ                 10010000000003593550100148 PAGO POR CUENTA Y ORDEN SUELDO                                                                                                 0000577
65508020750     127298001163848990BAZTESHAMIR ROQUE MAYE                       10010000000002679070100148 PAGO POR CUENTA Y ORDEN SUELDO                                                                                                 0000578
65508020750     127298013844515653BAZTEANAYELI PEREZ GONZALEZ                  10010000000003211570100148 PAGO POR CUENTA Y ORDEN SUELDO                                                                                                 0000579
65508020750     127180001146772227BAZTEBRANDON JAIMES MARTINEZ                 10010000000005389390100148 PAGO POR CUENTA Y ORDEN SUELDO                                                                                                 0000580
65508020750     127180013466353929BAZTEANDRES GARCIA DELGADO                   10010000000003038790100148 PAGO POR CUENTA Y ORDEN SUELDO                                                                                                 0000581
65508020750     127480001611796564BAZTEJOSE CABRERA BRAVO                      10010000000003099490100148 PAGO POR CUENTA Y ORDEN SUELDO                                                                                                 0000582
65508020750     127180013851061460BAZTEDAISY SELENA ARCOS HERNANDEZ            10010000000003241460100148 PAGO POR CUENTA Y ORDEN SUELDO                                                                                                 0000583
65508020750     127180002817638262BAZTEJULIA CIRILO GALLEGOS                   10010000000003216670100148 PAGO POR CUENTA Y ORDEN SUELDO                                                                                                 0000584
65508020750     127850001200501460BAZTEJAVIER ALBERTO SALINAS PEREZ            10010000000002896170100148 PAGO POR CUENTA Y ORDEN SUELDO                                                                                                 0000585
65508020750     127180013860711756BAZTEYADIRA BLANCAS DOMINGUEZ                10010000000006646860100148 PAGO POR CUENTA Y ORDEN SUELDO                                                                                                 0000586
65508020750     127650013102330202BAZTEEUNICE VIRIDIANA ESCOBAR POPOCA         10010000000003208950100148 PAGO POR CUENTA Y ORDEN SUELDO                                                                                                 0000587
65508020750     127830001555641105BAZTEISEN GALICIA ZEMPOALTECA                10010000000002645150100148 PAGO POR CUENTA Y ORDEN SUELDO                                                                                                 0000588
65508020750     127180013406072202BAZTEANGELA  MONTSERRAT VELAZQUEZ VAZQUEZ    10010000000003087070100148 PAGO POR CUENTA Y ORDEN SUELDO                                                                                                 0000589
65508020750     127180016898026041BAZTEARTURO SANCHEZ BARROSO                  10010000000001323080100148 PAGO POR CUENTA Y ORDEN SUELDO                                                                                                 0000590
65508020750     127675001654827247BAZTESANDRA LIZBETH ROMANO TEJEDA            10010000000003179070100148 PAGO POR CUENTA Y ORDEN SUELDO                                                                                                 0000591
65508020750     127180013387024272BAZTELUIS MANUEL CUPA MENDOZA                10010000000002896160100148 PAGO POR CUENTA Y ORDEN SUELDO                                                                                                 0000592
65508020750     127180001191876806BAZTECLAUDIA ELENA SERVIN CABRAL             10010000000006673100100148 PAGO POR CUENTA Y ORDEN SUELDO                                                                                                 0000593
65508020750     127180001614320075BAZTESTEPHANIE NALLELY REYES RAMIREZ         10010000000003160070100148 PAGO POR CUENTA Y ORDEN SUELDO                                                                                                 0000594
65508020750     127180013862807480BAZTEAZALEA DEL CARMEN GUTIERREZ CRUZ        10010000000002239090100148 PAGO POR CUENTA Y ORDEN SUELDO                                                                                                 0000595
65508020750     127881013373060620BAZTESERGIO ELIAS AMADOR VAZQUEZ             10010000000001990340100148 PAGO POR CUENTA Y ORDEN SUELDO                                                                                                 0000596
65508020750     127180001157594054BAZTEANA GABRIELA MUNOZ LOREDO               10010000000002955070100148 PAGO POR CUENTA Y ORDEN SUELDO                                                                                                 0000597
65508020750     127180001614641602BAZTEANA SOFIA BURCIAGA VIGUERAS             10010000000003283760100148 PAGO POR CUENTA Y ORDEN SUELDO                                                                                                 0000598
65508020750     127180001138842149BAZTEMANUEL ISAI MONTER BRIONES              10010000000003341470100148 PAGO POR CUENTA Y ORDEN SUELDO                                                                                                 0000599
65508020750     127420013840438531BAZTELILIANA ITZEL PAZ MARTINEZ              10010000000002365090100148 PAGO POR CUENTA Y ORDEN SUELDO                                                                                                 0000600
65508020750     127545001983470563BAZTEABIGAIL TOVAR BAHENA                    10010000000004167070100148 PAGO POR CUENTA Y ORDEN SUELDO                                                                                                 0000601
65508020750     127884001112910115BAZTETOMAS PIMIENTA MENDOZA                  10010000000003765190100148 PAGO POR CUENTA Y ORDEN SUELDO                                                                                                 0000602
65508020750     127180013101165469BAZTEABIGAHI MORALES JUAREZ                  10010000000002239090100148 PAGO POR CUENTA Y ORDEN SUELDO                                                                                                 0000603
65508020750     127311013719721310BAZTEEDGAR EDWIN HERNANDEZ MOTA              10010000000003695230100148 PAGO POR CUENTA Y ORDEN SUELDO                                                                                                 0000604
65508020750     127480001616776453BAZTEBLANCA FLOR VACA AVILA                  10010000000003412290100148 PAGO POR CUENTA Y ORDEN SUELDO                                                                                                 0000605
65508020750     127180013813090819BAZTEYARMELLI GUADALUPE ZARATE RIVERA        10010000000003175870100148 PAGO POR CUENTA Y ORDEN SUELDO                                                                                                 0000606
65508020750     127180013385679962BAZTEYESICA MIRON CABRALES                   10010000000002896170100148 PAGO POR CUENTA Y ORDEN SUELDO                                                                                                 0000607
65508020750     127650001527037561BAZTECARLOS IVAN PEREZ HERNANDEZ             10010000000002555910100148 PAGO POR CUENTA Y ORDEN SUELDO                                                                                                 0000608
65508020750     127180013391392136BAZTEHUMBERTO JONATHAN MORALES LOPEZ         10010000000007618650100148 PAGO POR CUENTA Y ORDEN SUELDO                                                                                                 0000609
65508020750     127180013882370735BAZTEHECTOR DANIEL PEREZ JUAREZ              10010000000002527310100148 PAGO POR CUENTA Y ORDEN SUELDO                                                                                                 0000610
65508020750     127180013887576440BAZTEJUAN JOSE MARTINEZ MEJIA                10010000000003445430100148 PAGO POR CUENTA Y ORDEN SUELDO                                                                                                 0000611
65508020750     127671001407251200BAZTEALEJANDRA SILVA CAMPOS                  10010000000003093550100148 PAGO POR CUENTA Y ORDEN SUELDO                                                                                                 0000612
65508020750     127180001117459993BAZTEEDGAR GILBERTO GUZMAN ORTEGA            10010000000004469850100148 PAGO POR CUENTA Y ORDEN SUELDO                                                                                                 0000613
65508020750     127180001196706528BAZTEOKAIDI GUADALUPE CALDERON JUAREZ        10010000000002801470100148 PAGO POR CUENTA Y ORDEN SUELDO                                                                                                 0000614
65508020750     127180013957540856BAZTEMONICA VENTURA FLORES                   10010000000003032670100148 PAGO POR CUENTA Y ORDEN SUELDO                                                                                                 0000615
65508020750     127841001556918363BAZTEEDGAR ROMERO GARCIA                     10010000000002610900100148 PAGO POR CUENTA Y ORDEN SUELDO                                                                                                 0000616
65508020750     127290013475022487BAZTEANEL DOMINGUEZ HERNANDEZ                10010000000002896170100148 PAGO POR CUENTA Y ORDEN SUELDO                                                                                                 0000617
65508020750     127854001142828252BAZTEABIGAIL AMADOR GOMEZ                    10010000000002679070100148 PAGO POR CUENTA Y ORDEN SUELDO                                                                                                 0000618
65508020750     127462001620001116BAZTENANCY NERI SERRANO DAMIAN               10010000000002679070100148 PAGO POR CUENTA Y ORDEN SUELDO                                                                                                 0000619
65508020750     127180001595046067BAZTEANA ROCIO AYALA LARA                    10010000000002979040100148 PAGO POR CUENTA Y ORDEN SUELDO                                                                                                 0000620
65508020750     127650001621513347BAZTEMARIA DE LA LUZ RODRIGUEZ SANCHEZ       10010000000002021940100148 PAGO POR CUENTA Y ORDEN SUELDO                                                                                                 0000621
65508020750     127543013915902374BAZTENOHELI AZRIEL VALENTIN SANCHEZ          10010000000003899070100148 PAGO POR CUENTA Y ORDEN SUELDO                                                                                                 0000622
65508020750     127180001622470056BAZTEAGUSTIN RODRIGO MAYORGA ZARATE          10010000000003369070100148 PAGO POR CUENTA Y ORDEN SUELDO                                                                                                 0000623
65508020750     127180017096047261BAZTEANA LILIA CHAIRES MENDOZA               10010000000002679070100148 PAGO POR CUENTA Y ORDEN SUELDO                                                                                                 0000624
65508020750     127180013252560269BAZTEDIEGO IVAN JARDON ESPINOZA              10010000000002999070100148 PAGO POR CUENTA Y ORDEN SUELDO                                                                                                 0000625
65508020750     127180013917564458BAZTEDANIEL ISAAC SANCHEZ HUERTA             10010000000002239090100148 PAGO POR CUENTA Y ORDEN SUELDO                                                                                                 0000626
65508020750     127180013333987101BAZTEJONATHAN MIGUEL VELAZQUEZ SANCHEZ       10010000000003311180100148 PAGO POR CUENTA Y ORDEN SUELDO                                                                                                 0000627
65508020750     127650001624181462BAZTEGLORIA STEPHANIE FLORES MARTINEZ        10010000000003811180100148 PAGO POR CUENTA Y ORDEN SUELDO                                                                                                 0000628
65508020750     127136001580451912BAZTEERASTO MOISES PEREZ CIFUENTES           10010000000004635690100148 PAGO POR CUENTA Y ORDEN SUELDO                                                                                                 0000629
65508020750     127180001624498515BAZTEJOSE ARMANDO HUERTA VARGAS              10010000000002679070100148 PAGO POR CUENTA Y ORDEN SUELDO                                                                                                 0000630
65508020750     127180013482686641BAZTEALFREDO RIOS REYES                      10010000000002679070100148 PAGO POR CUENTA Y ORDEN SUELDO                                                                                                 0000631
65508020750     127550013507784443BAZTERAUL ORDAZ RIVERA                       10010000000002229670100148 PAGO POR CUENTA Y ORDEN SUELDO                                                                                                 0000632
65508020750     127832001216646609BAZTEJORGE LUIS MORALES FLORES               10010000000003027750100148 PAGO POR CUENTA Y ORDEN SUELDO                                                                                                 0000633
65508020750     127832001145131641BAZTEJIMENA OLAYA JIMENEZ GARRIDO            10010000000002993650100148 PAGO POR CUENTA Y ORDEN SUELDO                                                                                                 0000634
65508020750     127540001218733912BAZTECAROLINA HERNANDEZ VERGARA              10010000000003311180100148 PAGO POR CUENTA Y ORDEN SUELDO                                                                                                 0000635
65508020750     127180016432951530BAZTEJOSE ANGEL CASTRO CERVANTES             10010000000003452350100148 PAGO POR CUENTA Y ORDEN SUELDO                                                                                                 0000636
65508020750     127614001101449582BAZTEFERNANDO MARCOS GARCIA MARTINEZ         10010000000005103520100148 PAGO POR CUENTA Y ORDEN SUELDO                                                                                                 0000637
65508020750     127180001625993802BAZTEYENY FABIOLA MENDOZA PAZ                10010000000004240460100148 PAGO POR CUENTA Y ORDEN SUELDO                                                                                                 0000638
65508020750     127180001256258246BAZTEYOSSELIN ARELI MARTINEZ HERNANDEZ       10010000000002239090100148 PAGO POR CUENTA Y ORDEN SUELDO                                                                                                 0000639
65508020750     127290013941241161BAZTELUIS CESAR VARGAS GONZALEZ              10010000000003396170100148 PAGO POR CUENTA Y ORDEN SUELDO                                                                                                 0000640
65508020750     127835001575919980BAZTECESAR ALBERTO SALAZAR TEACALC O         10010000000006865690100148 PAGO POR CUENTA Y ORDEN SUELDO                                                                                                 0000641
65508020750     127180013945913518BAZTELUCILA ALQUISIRA CASTILLO               10010000000003593550100148 PAGO POR CUENTA Y ORDEN SUELDO                                                                                                 0000642
65508020750     127888001165398036BAZTEISIDRO SIMBRON CRUZ                     10010000000004101830100148 PAGO POR CUENTA Y ORDEN SUELDO                                                                                                 0000643
65508020750     127885001591913431BAZTEJOSE ANDRES GARCIA MORALES              10010000000003491870100148 PAGO POR CUENTA Y ORDEN SUELDO                                                                                                 0000644
65508020750     127854001606878421BAZTESARAHID JARITZEL JIMENEZ GONZALEZ       10010000000002896170100148 PAGO POR CUENTA Y ORDEN SUELDO                                                                                                 0000645
65508020750     127180013022206423BAZTEMIGUEL ANGEL DROMUNDO GUTIERREZ         10010000000002980070100148 PAGO POR CUENTA Y ORDEN SUELDO                                                                                                 0000646
65508020750     127180013947766080BAZTERAFAEL VAZQUEZ SANCHEZ                  10010000000003137270100148 PAGO POR CUENTA Y ORDEN SUELDO                                                                                                 0000647
65508020750     127650001627847622BAZTEMIGUEL SANTEL ROMERO                    10010000000003448320100148 PAGO POR CUENTA Y ORDEN SUELDO                                                                                                 0000648
65508020750     127480013953223259BAZTEFABIOLA REYES LUNA                      10010000000003208970100148 PAGO POR CUENTA Y ORDEN SUELDO                                                                                                 0000649
65508020750     127420001628805615BAZTEISRAEL RODRIGUEZ GONZALEZ               10010000000003106600100148 PAGO POR CUENTA Y ORDEN SUELDO                                                                                                 0000650
65508020750     127832001610577756BAZTEANAHI LOPEZ DE GANTE                    10010000000003010220100148 PAGO POR CUENTA Y ORDEN SUELDO                                                                                                 0000651
65508020750     127540001628847469BAZTEMARIA FERNANDA MORALES SANCHEZ          10010000000003578830100148 PAGO POR CUENTA Y ORDEN SUELDO                                                                                                 0000652
65508020750     127180001424273956BAZTEJOHAIRO MIGUEL SANTIAGO MARTINEZ        10010000000002916070100148 PAGO POR CUENTA Y ORDEN SUELDO                                                                                                 0000653
65508020750     127180013904203706BAZTEBERENICE MORALES BUCIO                  10010000000002372850100148 PAGO POR CUENTA Y ORDEN SUELDO                                                                                                 0000654
65508020750     127650001629725881BAZTERAFAEL MOLINA CASTRO                    10010000000002720780100148 PAGO POR CUENTA Y ORDEN SUELDO                                                                                                 0000655
65508020750     127180013960217244BAZTEPERLA RUBI BUSTOS SANTIAGO              10010000000002239090100148 PAGO POR CUENTA Y ORDEN SUELDO                                                                                                 0000656
65508020750     127180001569993421BAZTEJUAN MARTIN RODRIGUEZ CARBAJAL          10010000000005862930100148 PAGO POR CUENTA Y ORDEN SUELDO                                                                                                 0000657
65508020750     127670001167832672BAZTEMARCOS PARRA PENA                       10010000000003593550100148 PAGO POR CUENTA Y ORDEN SUELDO                                                                                                 0000658
65508020750     127426013001355677BAZTEMARIA GUADALUPE LOPEZ DE LA CRUZ        10010000000003593550100148 PAGO POR CUENTA Y ORDEN SUELDO                                                                                                 0000659
65508020750     127543001268048609BAZTEMARIA DEL CARMEN GARDUNO TOLEDO         10010000000003179070100148 PAGO POR CUENTA Y ORDEN SUELDO                                                                                                 0000660
65508020750     127457001658536833BAZTEPABLO NIGER VERA OROSCO                 10010000000004100070100148 PAGO POR CUENTA Y ORDEN SUELDO                                                                                                 0000661
65508020750     127669001630413856BAZTEJORGE GUSTAVO RAMIREZ RODRIGUEZ         10010000000001487170100148 PAGO POR CUENTA Y ORDEN SUELDO                                                                                                 0000662
65508020750     127180001386445932BAZTEJOSE CARLOS DE LA CRUZ BRIONES          10010000000002827210100148 PAGO POR CUENTA Y ORDEN SUELDO                                                                                                 0000663
65508020750     127650013382974666BAZTEJORGE ALBERTO GREGORIO LOPEZ            10010000000003311180100148 PAGO POR CUENTA Y ORDEN SUELDO                                                                                                 0000664
65508020750     127832001382927977BAZTEARIANA GALAVIZ GUARNEROS                10010000000002124730100148 PAGO POR CUENTA Y ORDEN SUELDO                                                                                                 0000665
65508020750     127659001632496807BAZTEROSALIA PATRICIA AMADOR MARTINEZ        10010000000002679070100148 PAGO POR CUENTA Y ORDEN SUELDO                                                                                                 0000666
65508020750     127303013972186425BAZTELUIS ALBERTO GONZALEZ BAUTISTA          10010000000003783830100148 PAGO POR CUENTA Y ORDEN SUELDO                                                                                                 0000667
65508020750     127180001117616147BAZTEFRANCISCO ROBERTO CRUZ LOPEZ            10010000000002527310100148 PAGO POR CUENTA Y ORDEN SUELDO                                                                                                 0000668
65508020750     127504013174602030BAZTEDIANA LAURA GARCIA HUIPE                10010000000002239090100148 PAGO POR CUENTA Y ORDEN SUELDO                                                                                                 0000669
65508020750     127434013987365032BAZTEULISES DE JESUS AGUILAR SANCHEZ         10010000000002896170100148 PAGO POR CUENTA Y ORDEN SUELDO                                                                                                 0000670
65508020750     127180013772307588BAZTEJORGE SOLIS MORENO                      10010000000002679070100148 PAGO POR CUENTA Y ORDEN SUELDO                                                                                                 0000671
65508020750     127180013779381471BAZTELORENA JIMENEZ GRANADOS                 10010000000003806470100148 PAGO POR CUENTA Y ORDEN SUELDO                                                                                                 0000672
65508020750     127855013986892046BAZTEJUAN ADRIAN LOPEZ SORIANO               10010000000002679070100148 PAGO POR CUENTA Y ORDEN SUELDO                                                                                                 0000673
65508020750     127180001578436283BAZTEMONICA BADILLO FUENTES                  10010000000003178070100148 PAGO POR CUENTA Y ORDEN SUELDO                                                                                                 0000674
65508020750     127180001233605870BAZTEEDGAR SOTO ABREGO                       10010000000002679070100148 PAGO POR CUENTA Y ORDEN SUELDO                                                                                                 0000675
65508020750     127470001636802993BAZTEEVERARDO OROZCO ARREOLA                 10010000000002679070100148 PAGO POR CUENTA Y ORDEN SUELDO                                                                                                 0000676
65508020750     127420001531010173BAZTEHECTOR FLORES MARTINEZ                  10010000000005684690100148 PAGO POR CUENTA Y ORDEN SUELDO                                                                                                 0000677
65508020750     127180001367888628BAZTEGERARDO ALONSO MORENO QUIROZ            10010000000002743070100148 PAGO POR CUENTA Y ORDEN SUELDO                                                                                                 0000678
65508020750     127180001155014714BAZTEANDREA HARUMY CHAVEZ REYES              10010000000007268920100148 PAGO POR CUENTA Y ORDEN SUELDO                                                                                                 0000679
65508020750     127180001123141457BAZTEALONDRA MARIANA ROMO REYES              10010000000002679070100148 PAGO POR CUENTA Y ORDEN SUELDO                                                                                                 0000680
65508020750     127685001313957655BAZTEJESUS CHAVEZ BECERRIL                   10010000000003811180100148 PAGO POR CUENTA Y ORDEN SUELDO                                                                                                 0000681
65508020750     127180013125265688BAZTEJOSE LUIS MORALES VERA                  10010000000003311180100148 PAGO POR CUENTA Y ORDEN SUELDO                                                                                                 0000682
65508020750     127180016889435049BAZTELUIS ALBERTO AGUIRRE RAMIREZ            10010000000002557660100148 PAGO POR CUENTA Y ORDEN SUELDO                                                                                                 0000683
65508020750     127457001640270660BAZTEEDUARDO ALBARRAN SANCHEZ                10010000000002679070100148 PAGO POR CUENTA Y ORDEN SUELDO                                                                                                 0000684
65508020750     127460001640051614BAZTEMIGUEL ANGEL PIZANO GONZALEZ            10010000000002679070100148 PAGO POR CUENTA Y ORDEN SUELDO                                                                                                 0000685
65508020750     127180013471543517BAZTEEDUARDO MARTINEZ GUARNEROS              10010000000003396170100148 PAGO POR CUENTA Y ORDEN SUELDO                                                                                                 0000686
65508020750     127180016918889773BAZTEKEVIN ALVAREZ ELVIRA                    10010000000003093550100148 PAGO POR CUENTA Y ORDEN SUELDO                                                                                                 0000687
65508020750     127180001153121586BAZTEADOLFO ENRIQUE AMADOR GARDUNO           10010000000004259330100148 PAGO POR CUENTA Y ORDEN SUELDO                                                                                                 0000688
65508020750     127180013195494816BAZTENANCY YAMILE MARTINEZ SALAS             10010000000003593550100148 PAGO POR CUENTA Y ORDEN SUELDO                                                                                                 0000689
65508020750     127310001640476381BAZTEDALIA LUJAN PAULIN                      10010000000002374620100148 PAGO POR CUENTA Y ORDEN SUELDO                                                                                                 0000690
65508020750     127180001130869308BAZTELORENA OVIEDO GARCIA                    10010000000002896170100148 PAGO POR CUENTA Y ORDEN SUELDO                                                                                                 0000691
65508020750     127180001417950082BAZTENANCY STEPHANYA HERRERA OLIVAR          10010000000003577300100148 PAGO POR CUENTA Y ORDEN SUELDO                                                                                                 0000692
65508020750     127180013025285551BAZTEVERONICA JANETH TRUJILLO ABREGO         10010000000002679070100148 PAGO POR CUENTA Y ORDEN SUELDO                                                                                                 0000693
65508020750     127441001548487590BAZTEIVONNE HUERFANO ALVAREZ                 10010000000002365090100148 PAGO POR CUENTA Y ORDEN SUELDO                                                                                                 0000694
65508020750     127180013542286758BAZTEJAQUELINE CRUZ MARTINEZ                 10010000000002679070100148 PAGO POR CUENTA Y ORDEN SUELDO                                                                                                 0000695
65508020750     127180001642209663BAZTEMIDIAM NOEMI PAEZ JIMENEZ               10010000000002679070100148 PAGO POR CUENTA Y ORDEN SUELDO                                                                                                 0000696
65508020750     127180013305953448BAZTEESMERALDA CASTANEDA DIAZ                10010000000002555910100148 PAGO POR CUENTA Y ORDEN SUELDO                                                                                                 0000697
65508020750     127180013017040018BAZTEKARLA GARCIA HERNANDEZ                  10010000000002679070100148 PAGO POR CUENTA Y ORDEN SUELDO                                                                                                 0000698
65508020750     127180016683543988BAZTEARMANDO MARTINEZ CAMPUZANO              10010000000003811180100148 PAGO POR CUENTA Y ORDEN SUELDO                                                                                                 0000699
65508020750     127180013659774690BAZTESAUL AZAID URBINA RAMIREZ               10010000000006042300100148 PAGO POR CUENTA Y ORDEN SUELDO                                                                                                 0000700
65508020750     127650013332430901BAZTEEDER PEREZ CRUZ                         10010000000002239090100148 PAGO POR CUENTA Y ORDEN SUELDO                                                                                                 0000701
65508020750     127671001560544498BAZTEARACELI GUILLERMO ROSAS                 10010000000003593550100148 PAGO POR CUENTA Y ORDEN SUELDO                                                                                                 0000702
65508020750     127435001613785544BAZTEANA ISABEL CRUZ HERNANDEZ               10010000000003593390100148 PAGO POR CUENTA Y ORDEN SUELDO                                                                                                 0000703
65508020750     127180013209815857BAZTEBLADIMIR GONZALEZ CRUZ                  10010000000003059870100148 PAGO POR CUENTA Y ORDEN SUELDO                                                                                                 0000704
65508020750     127180013461864976BAZTEMIGUEL ANGEL SANTOS MARTELL             10010000000004236090100148 PAGO POR CUENTA Y ORDEN SUELDO                                                                                                 0000705
65508020750     127180013934713994BAZTEMARIBEL DURAN GALVAN                    10010000000002679070100148 PAGO POR CUENTA Y ORDEN SUELDO                                                                                                 0000706
65508020750     127832017433179804BAZTEVIRGINIA CORTEZ MEDINA                  10010000000003593550100148 PAGO POR CUENTA Y ORDEN SUELDO                                                                                                 0000707
65508020750     127180013854653118BAZTEEVELYN JARED CARRASCO GUZMAN            10010000000002896170100148 PAGO POR CUENTA Y ORDEN SUELDO                                                                                                 0000708
65508020750     127888001405224349BAZTERAFAEL MAURICIO GUTIERREZ REYES         10010000000003179070100148 PAGO POR CUENTA Y ORDEN SUELDO                                                                                                 0000709
65508020750     127542013429688800BAZTEJOSE LUIS MERCADO BONILLA               10010000000003811180100148 PAGO POR CUENTA Y ORDEN SUELDO                                                                                                 0000710
65508020750     127180013659742512BAZTEIVONNE ROMERO MIRANDA                   10010000000002679070100148 PAGO POR CUENTA Y ORDEN SUELDO                                                                                                 0000711
65508020750     127180016090348349BAZTEISRAEL MORALES LOPEZ                    10010000000002679070100148 PAGO POR CUENTA Y ORDEN SUELDO                                                                                                 0000712
65508020750     127180001169794457BAZTESERGIO EDUARDO PERAFAN RUBIO            10010000000002527310100148 PAGO POR CUENTA Y ORDEN SUELDO                                                                                                 0000713
65508020750     127180013754376443BAZTEALMA DELIA AVILA ALANIS                 10010000000003260670100148 PAGO POR CUENTA Y ORDEN SUELDO                                                                                                 0000714
65508020750     127650001219650641BAZTEJOSE ENRIQUE MUNGUIA GUZMAN             10010000000001760700100148 PAGO POR CUENTA Y ORDEN SUELDO                                                                                                 0000715
65508020750     127095013046496498BAZTEVICTOR MANUEL HERNANDEZ MENDOZA         10010000000003820740100148 PAGO POR CUENTA Y ORDEN SUELDO                                                                                                 0000716
65508020750     127180001646918905BAZTESELENE GABRIELA RAMOS GALLEGOS          10010000000002835470100148 PAGO POR CUENTA Y ORDEN SUELDO                                                                                                 0000717
65508020750     127180001345722447BAZTESERGIO MENDEZ RIOS                      10010000000002896170100148 PAGO POR CUENTA Y ORDEN SUELDO                                                                                                 0000718
65508020750     127457001299992739BAZTEHERNAN JIMENEZ MERCADO                  10010000000003311180100148 PAGO POR CUENTA Y ORDEN SUELDO                                                                                                 0000719
65508020750     127180013380608022BAZTEGLORIA ALICIA ORDONEZ SEGOVIANO         10010000000002679070100148 PAGO POR CUENTA Y ORDEN SUELDO                                                                                                 0000720
65508020750     127180001235215792BAZTEANTONIO BAUTISTA VELAZQUEZ              10010000000003593550100148 PAGO POR CUENTA Y ORDEN SUELDO                                                                                                 0000721
65508020750     127190001593545602BAZTETHANIA LESLY AMADO ORTEGA               10010000000002835470100148 PAGO POR CUENTA Y ORDEN SUELDO                                                                                                 0000722
65508020750     127180013851602298BAZTEJOSE LUIS GARCIA FLORES                 10010000000003679070100148 PAGO POR CUENTA Y ORDEN SUELDO                                                                                                 0000723
65508020750     127180001577920075BAZTEAMERICA JACQUELINE LOPEZ SANCHEZ        10010000000003179070100148 PAGO POR CUENTA Y ORDEN SUELDO                                                                                                 0000724
65508020750     127180001149327653BAZTEALBERTO PEREZ FLORES                    10010000000002159180100148 PAGO POR CUENTA Y ORDEN SUELDO                                                                                                 0000725
65508020750     127180016253549406BAZTEENRIQUE  JOVANY VIDAL NIETO             10010000000003929070100148 PAGO POR CUENTA Y ORDEN SUELDO                                                                                                 0000726
65508020750     127180001348497517BAZTEDANIELA ESCOBAR CAMACHO                 10010000000002922070100148 PAGO POR CUENTA Y ORDEN SUELDO                                                                                                 0000727
65508020750     127180013763869226BAZTEJESSICA ARELY HERNANDEZ ORTIZ           10010000000002679070100148 PAGO POR CUENTA Y ORDEN SUELDO                                                                                                 0000728
65508020750     127830001978086376BAZTEANDRES RAYON SAN JUAN                   10010000000002679070100148 PAGO POR CUENTA Y ORDEN SUELDO                                                                                                 0000729
65508020750     127543001354440360BAZTEBRENDA HERNANDEZ LEON                   10010000000003311180100148 PAGO POR CUENTA Y ORDEN SUELDO                                                                                                 0000730
65508020750     127667001651327622BAZTEWENDY ENITH PEREZ VAZQUEZ               10010000000002679070100148 PAGO POR CUENTA Y ORDEN SUELDO                                                                                                 0000731
65508020750     127544013967681545BAZTEGUADALUPE VAZQUEZ GUADARRAMA            10010000000002679070100148 PAGO POR CUENTA Y ORDEN SUELDO                                                                                                 0000732
65508020750     127847001570337102BAZTEJULIO CESAR RAMOS HERMIDA               10010000000002896170100148 PAGO POR CUENTA Y ORDEN SUELDO                                                                                                 0000733
65508020750     127180016114030009BAZTEALEJANDRO GARITA LARA                   10010000000002420800100148 PAGO POR CUENTA Y ORDEN SUELDO                                                                                                 0000734
65508020750     127449013379679321BAZTEMARIA DE LOURDES GONZALEZ VILLALBA      10010000000002896170100148 PAGO POR CUENTA Y ORDEN SUELDO                                                                                                 0000735
65508020750     127180001122688254BAZTEERICK MARIN FLORES                      10010000000009074840100148 PAGO POR CUENTA Y ORDEN SUELDO                                                                                                 0000736
65508020750     127872001651901066BAZTEJUAN CARLOS HERNANDEZ RAMIREZ           10010000000002896170100148 PAGO POR CUENTA Y ORDEN SUELDO                                                                                                 0000737
65508020750     127542013090947077BAZTEHECTOR SANTIAGO HERRERA DIAZ            10010000000003311180100148 PAGO POR CUENTA Y ORDEN SUELDO                                                                                                 0000738
65508020750     127180013542841821BAZTECHRISTIAN SEGURA OSORIO                 10010000000003644070100148 PAGO POR CUENTA Y ORDEN SUELDO                                                                                                 0000739
65508020750     127180001505995111BAZTEIVONNE CRUZ BERNAL                      10010000000002239090100148 PAGO POR CUENTA Y ORDEN SUELDO                                                                                                 0000740
65508020750     127180013402647628BAZTEMILAGROS GABRIELA HERRERA HERNANDEZ     10010000000002679070100148 PAGO POR CUENTA Y ORDEN SUELDO                                                                                                 0000741
65508020750     127320013677389351BAZTEMIGUEL ALEJANDRO FLORES GUTIERREZ       10010000000003811180100148 PAGO POR CUENTA Y ORDEN SUELDO                                                                                                 0000742
65508020750     127654001427098596BAZTEOMAR COBOS ROSAS                        10010000000002679070100148 PAGO POR CUENTA Y ORDEN SUELDO                                                                                                 0000743
65508020750     127650013273757293BAZTEMARIEL AIMEE SANCHEZ MACHORRO           10010000000002452490100148 PAGO POR CUENTA Y ORDEN SUELDO                                                                                                 0000744
65508020750     127855001282756018BAZTEJONATHAN RODRIGUEZ VELADOR              10010000000003593560100148 PAGO POR CUENTA Y ORDEN SUELDO                                                                                                 0000745
65508020750     127778013774333218BAZTEGERARDO DANIEL PERALTA MORENO           10010000000002679070100148 PAGO POR CUENTA Y ORDEN SUELDO                                                                                                 0000746
65508020750     127180016225214303BAZTEYURIDIA ABIGAIL TAPIA AGUILAR           10010000000003093550100148 PAGO POR CUENTA Y ORDEN SUELDO                                                                                                 0000747
65508020750     127180001647814024BAZTEJOSE LUIS VAZQUEZ RODRIGUEZ             10010000000003447230100148 PAGO POR CUENTA Y ORDEN SUELDO                                                                                                 0000748
65508020750     127540001248865287BAZTEVITELIO OSORIO BRAVO                    10010000000003646170100148 PAGO POR CUENTA Y ORDEN SUELDO                                                                                                 0000749
65508020750     127180016828837271BAZTELETICIA LEYVA SOLANO                    10010000000002239090100148 PAGO POR CUENTA Y ORDEN SUELDO                                                                                                 0000750
65508020750     127650001655715551BAZTEANA GABRIELA BAZAN PEREZ                10010000000002798040100148 PAGO POR CUENTA Y ORDEN SUELDO                                                                                                 0000751
65508020750     127180001659281250BAZTEYANEL REGALADO ALMERIA                  10010000000003444230100148 PAGO POR CUENTA Y ORDEN SUELDO                                                                                                 0000752
65508020750     127180001104866395BAZTEGUILLERMO GONZALEZ ALDANA               10010000000002694830100148 PAGO POR CUENTA Y ORDEN SUELDO                                                                                                 0000753
65508020750     127180001637893149BAZTEOMAR CASTRO GARCIA                      10010000000002694830100148 PAGO POR CUENTA Y ORDEN SUELDO                                                                                                 0000754
65508020750     127180013115909174BAZTEIVON GABRIELA LUCAS SANTOS              10010000000002944230100148 PAGO POR CUENTA Y ORDEN SUELDO                                                                                                 0000755
65508020750     127180001313927164BAZTEJOSE MARIA GUTIERREZ ZAMORA             10010000000003644070100148 PAGO POR CUENTA Y ORDEN SUELDO                                                                                                 0000756
65508020750     127180013829364542BAZTEFATIMA YOSELIN GONZALEZ ROBLES          10010000000002679070100148 PAGO POR CUENTA Y ORDEN SUELDO                                                                                                 0000757
65508020750     127180017459780194BAZTENORA RUBI RANGEL OCAMPO                 10010000000002896170100148 PAGO POR CUENTA Y ORDEN SUELDO                                                                                                 0000758
65508020750     127225013634498649BAZTEJOSE DE JESUS TORRES LARA               10010000000000482200100148 PAGO POR CUENTA Y ORDEN SUELDO                                                                                                 0000759
65508020750     127180013397570208BAZTEMARISOL ALVAREZ CARRILLO                10010000000003593550100148 PAGO POR CUENTA Y ORDEN SUELDO                                                                                                 0000760
65508020750     127854001153518920BAZTEJOSE ANGEL MARTINEZ RODRIGUEZ           10010000000003311180100148 PAGO POR CUENTA Y ORDEN SUELDO                                                                                                 0000761
65508020750     127180013004132256BAZTESANDRA ALICIA RODRIGUEZ SORIA           10010000000002679070100148 PAGO POR CUENTA Y ORDEN SUELDO                                                                                                 0000762
65508020750     127180013754990751BAZTELUIS ENRIQUE HERNANDEZ ARROYO           10010000000002720780100148 PAGO POR CUENTA Y ORDEN SUELDO                                                                                                 0000763
65508020750     127437013121692102BAZTEBRENDA CASTILLO PINA                    10010000000002239090100148 PAGO POR CUENTA Y ORDEN SUELDO                                                                                                 0000764
65508020750     127180001220717001BAZTEGIRELLY SANDOVAL CAMPOS                 10010000000002679070100148 PAGO POR CUENTA Y ORDEN SUELDO                                                                                                 0000765
65508020750     127180016002793720BAZTEFREDY GEOVAN HERNANDEZ ESCAMILLA        10010000000002679070100148 PAGO POR CUENTA Y ORDEN SUELDO                                                                                                 0000766
65508020750     127180013160114710BAZTEADRIAN ARI ABONCE MARQUEZ               10010000000001780920100148 PAGO POR CUENTA Y ORDEN SUELDO                                                                                                 0000767
65508020750     127180001115471038BAZTEFERNANDO ULISES CANO SERAFIN            10010000000002589340100148 PAGO POR CUENTA Y ORDEN SUELDO                                                                                                 0000768
65508020750     127867001188829655BAZTEISELA RODRIGUEZ CAMPECHANO              10010000000002589340100148 PAGO POR CUENTA Y ORDEN SUELDO                                                                                                 0000769
65508020750     127180017089340580BAZTECARMEN SOLEDAD ROSALES ALBA             10010000000002373190100148 PAGO POR CUENTA Y ORDEN SUELDO                                                                                                 0000770
65508020750     127180001657952329BAZTELILIANA ARANDIA BENITEZ                 10010000000002236650100148 PAGO POR CUENTA Y ORDEN SUELDO                                                                                                 0000771
65508020750     127437013135662966BAZTEJESSICA ELIZABETH ANDRADE JOSE          10010000000002373190100148 PAGO POR CUENTA Y ORDEN SUELDO                                                                                                 0000772
65508020750     127680001198340327BAZTEPABLO FLORES CAMPUZANO                  10010000000002806000100148 PAGO POR CUENTA Y ORDEN SUELDO                                                                                                 0000773
65508020750     127543001150397219BAZTEOSCAR JESUS VAZQUEZ BAHENA              10010000000002806000100148 PAGO POR CUENTA Y ORDEN SUELDO                                                                                                 0000774
65508020750     127180013045600912BAZTEBRENDA PENA BELTRAN                     10010000000002373190100148 PAGO POR CUENTA Y ORDEN SUELDO                                                                                                 0000775
65508020750     132180000080376982MULTIOSCAR MAURICIO MORENO PLASCENCIA        10010000000009224840100148 PAGO POR CUENTA Y ORDEN SUELDO                                                                                                 0000776
65508020750     137528103642424396COPELMARIA DE LOURDES TINOCO CAMPOS          10010000000003959880100148 PAGO POR CUENTA Y ORDEN SUELDO                                                                                                 0000777
65508020750     137535102621829702COPELMELISSA VIDALES CARDENAS                10010000000003072660100148 PAGO POR CUENTA Y ORDEN SUELDO                                                                                                 0000778
65508020750     137320103143600079COPELAIDE AVIGAIL VEGA LUGO                  10010000000002973600100148 PAGO POR CUENTA Y ORDEN SUELDO                                                                                                 0000779
65508020750     137528103004384456COPELJULIO AURELIO TRUJILLO RODRIGUEZ        10010000000002678990100148 PAGO POR CUENTA Y ORDEN SUELDO                                                                                                 0000780
65508020750     137225130043231784COPELROSA DELIA ORTEGA HERNANDEZ             10010000000003280600100148 PAGO POR CUENTA Y ORDEN SUELDO                                                                                                 0000781
65508020750     137420102612996458COPELMARIA DE LOS ANGELES SANTIN JIMENEZ     10010000000005621100100148 PAGO POR CUENTA Y ORDEN SUELDO                                                                                                 0000782
65508020750     137552101543893308COPELCAROLINA ALARCON CASTILLO               10010000000006171510100148 PAGO POR CUENTA Y ORDEN SUELDO                                                                                                 0000783
65508020750     137180101173574524COPELNANCY MONTESINOS BRAVO                  10010000000003593310100148 PAGO POR CUENTA Y ORDEN SUELDO                                                                                                 0000784
65508020750     137424180015400721COPELLUIS FERNANDO MENDEZ HERNANDEZ          10010000000001955490100148 PAGO POR CUENTA Y ORDEN SUELDO                                                                                                 0000785
65508020750     137426130027731096COPELNATALIA FLORES VALDES                   10010000000002663600100148 PAGO POR CUENTA Y ORDEN SUELDO                                                                                                 0000786
65508020750     137544102778493946COPELIRMA BLANCA QUEVEDO NAJERA              10010000000002106050100148 PAGO POR CUENTA Y ORDEN SUELDO                                                                                                 0000787
65508020750     137424103634384027COPELTIFANY BERENICE MORENO ROSAS            10010000000002896090100148 PAGO POR CUENTA Y ORDEN SUELDO                                                                                                 0000788
65508020750     137542103745280633COPELALEXIS RAMIREZ CRUZ                     10010000000001781120100148 PAGO POR CUENTA Y ORDEN SUELDO                                                                                                 0000789
65508020750     137180130041522501COPELDIEGO ARMANDO HERNANDEZ VARGAS          10010000000002289500100148 PAGO POR CUENTA Y ORDEN SUELDO                                                                                                 0000790
65508020750     137650101466264547COPELSOLEDAD ABURTO PEREZ                    10010000000004748980100148 PAGO POR CUENTA Y ORDEN SUELDO                                                                                                 0000791
65508020750     137542101369327000COPELALMA ROSA REYES ZAPATA                  10010000000003311180100148 PAGO POR CUENTA Y ORDEN SUELDO                                                                                                 0000792
65508020750     137542101094770074COPELANA LAURA LUNA JIMENEZ                  10010000000002922240100148 PAGO POR CUENTA Y ORDEN SUELDO                                                                                                 0000793
65508020750     137180103341481793COPELMIGUEL DE JESUS CABRERA MARTINEZ        10010000000001654110100148 PAGO POR CUENTA Y ORDEN SUELDO                                                                                                 0000794
65508020750     137671103432754181COPELNORMA SALAS HUERTA                      10010000000002866240100148 PAGO POR CUENTA Y ORDEN SUELDO                                                                                                 0000795
65508020750     137671103689459572COPELSALVADOR MUNOZ CENTENO                  10010000000003805740100148 PAGO POR CUENTA Y ORDEN SUELDO                                                                                                 0000796
65508020750     137651103020445411COPELERIKA MARTINEZ HERNANDEZ                10010000000004053570100148 PAGO POR CUENTA Y ORDEN SUELDO                                                                                                 0000797
65508020750     137651102970581219COPELMONSERRAT RAMIREZ CRUZ                  10010000000002238900100148 PAGO POR CUENTA Y ORDEN SUELDO                                                                                                 0000798
65508020750     137663130013551412COPELCECILIA CONTRERAS SIERRA                10010000000002238970100148 PAGO POR CUENTA Y ORDEN SUELDO                                                                                                 0000799
65508020750     137669130007785706COPELYADIR GABRIELA MENDEZ ZAYAS             10010000000001631880100148 PAGO POR CUENTA Y ORDEN SUELDO                                                                                                 0000800
65508020750     137651103793120500COPELJHONY BRAVO SAAVEDRA                    10010000000002509970100148 PAGO POR CUENTA Y ORDEN SUELDO                                                                                                 0000801
65508020750     137040101562016649COPELMARIA DEL ROCIO CORTES PEREZ            10010000000002281580100148 PAGO POR CUENTA Y ORDEN SUELDO                                                                                                 0000802
65508020750     137651103254743222COPELJOSE ELIAS SEGUNDO ALARCON              10010000000003593390100148 PAGO POR CUENTA Y ORDEN SUELDO                                                                                                 0000803
65508020750     137673130029543404COPELLUIS ENRIQUE RAMIREZ CHINO              10010000000001918410100148 PAGO POR CUENTA Y ORDEN SUELDO                                                                                                 0000804
65508020750     137180101766953536COPELMARIO SIMBRON ORTEGA                    10010000000004698610100148 PAGO POR CUENTA Y ORDEN SUELDO                                                                                                 0000805
65508020750     137813103865024932COPELLORENA GONZALEZ RAMIREZ                 10010000000002238900100148 PAGO POR CUENTA Y ORDEN SUELDO                                                                                                 0000806
65508020750     137667102075261130COPELGUILLERMO VELAZQUEZ MARTINEZ            10010000000001725650100148 PAGO POR CUENTA Y ORDEN SUELDO                                                                                                 0000807
65508020750     137894100646396393COPELBEATRIZ CRUZ DEL ANGEL                  10010000000001975120100148 PAGO POR CUENTA Y ORDEN SUELDO                                                                                                 0000808
65508020750     137841101672813339COPELARACELI BAUTISTA HERRERA                10010000000002199790100148 PAGO POR CUENTA Y ORDEN SUELDO                                                                                                 0000809
65508020750     137669140007400725COPELMAYRA LETICIA GONZALEZ ALMEIDA          10010000000003093400100148 PAGO POR CUENTA Y ORDEN SUELDO                                                                                                 0000810
65508020750     137885103393341911COPELLUCIANO LOPEZ RAMOS                     10010000000001332600100148 PAGO POR CUENTA Y ORDEN SUELDO                                                                                                 0000811
65508020750     137841103414556726COPELNEREYDA DEL CARMEN ANTONIO HERNANDEZ    10010000000002651880100148 PAGO POR CUENTA Y ORDEN SUELDO                                                                                                 0000812
65508020750     137311102186014001COPELMARIA DEL CARMEN GODOY GONZAGA          10010000000002678990100148 PAGO POR CUENTA Y ORDEN SUELDO                                                                                                 0000813
65508020750     137874100813293922COPELYESSEL IZBET OLIVARES DIAZ              10010000000002678990100148 PAGO POR CUENTA Y ORDEN SUELDO                                                                                                 0000814
65508020750     137881103695949963COPELGUADALUPE MARTINEZ MAR                  10010000000002596340100148 PAGO POR CUENTA Y ORDEN SUELDO                                                                                                 0000815
65508020750     137905103926178208COPELJOSE IRVING LOPEZ OLMOS                 10010000000004026880100148 PAGO POR CUENTA Y ORDEN SUELDO                                                                                                 0000816
65508020750     137855103673607936COPELLUIS ALBERTO SORCIA TRUJILLO            10010000000002173050100148 PAGO POR CUENTA Y ORDEN SUELDO                                                                                                 0000817
65508020750     137669170007122727COPELMARIAN KELLY ROSAS SANCHEZ              10010000000001732580100148 PAGO POR CUENTA Y ORDEN SUELDO                                                                                                 0000818
65508020750     137650104005798015COPELLUIS ALFREDO MINTO ORTIZ                10010000000003811180100148 PAGO POR CUENTA Y ORDEN SUELDO                                                                                                 0000819
65508020750     137291102592924478COPELYAQUELIN OLVERA TEJEDA                  10010000000002679070100148 PAGO POR CUENTA Y ORDEN SUELDO                                                                                                 0000820
65508020750     137885130035205579COPELCLAUDIA PATRICIA PEREZ GUTIERREZ        10010000000002896170100148 PAGO POR CUENTA Y ORDEN SUELDO                                                                                                 0000821
65508020750     137650101430328639COPELGUADALUPE MARTINEZ PEREZ                10010000000003311180100148 PAGO POR CUENTA Y ORDEN SUELDO                                                                                                 0000822
65508020750     137650104121901799COPELMARCO ANTONIO LOPEZ AGUILAR             10010000000005255400100148 PAGO POR CUENTA Y ORDEN SUELDO                                                                                                 0000823
65508020750     137320103466803809COPELGIEZI AZAEL CORDERO HERNANDEZ           10010000000007788260100148 PAGO POR CUENTA Y ORDEN SUELDO                                                                                                 0000824
65508020750     137650104450537119COPELMA DEL RAYITO VEANA CRUZ                10010000000001605510100148 PAGO POR CUENTA Y ORDEN SUELDO                                                                                                 0000825
65508020750     137543103597712963COPELRICARDO ARELLANO ESTELA                 10010000000002782520100148 PAGO POR CUENTA Y ORDEN SUELDO                                                                                                 0000826
65508020750     137542130047301720COPELSANDRA CHIMAN MORALES                   10010000000002800990100148 PAGO POR CUENTA Y ORDEN SUELDO                                                                                                 0000827
65508020750     137650103728262450COPELROSA ANAHI PEREZ PEREZ                  10010000000003116680100148 PAGO POR CUENTA Y ORDEN SUELDO                                                                                                 0000828
65508020750     137830103805050839COPELLAURA ELIZABETH TEPAL REYES             10010000000004138110100148 PAGO POR CUENTA Y ORDEN SUELDO                                                                                                 0000829
65508020750     137180100668180343COPELADRIANA ELSA GARCIA ACOSTA              10010000000009825490100148 PAGO POR CUENTA Y ORDEN SUELDO                                                                                                 0000830
65508020750     137290102712319767COPELHERMENEGILDO MARTINEZ NICOLAS           10010000000004350690100148 PAGO POR CUENTA Y ORDEN SUELDO                                                                                                 0000831
65508020750     137180100781941414COPELLIZBETH ESCOBEDO GUZMAN                 10010000000005867270100148 PAGO POR CUENTA Y ORDEN SUELDO                                                                                                 0000832
65508020750     137180130035532002COPELGUILLERMO ALEJANDRO GALINDO VAZQUEZ     10010000000003373270100148 PAGO POR CUENTA Y ORDEN SUELDO                                                                                                 0000833
65508020750     137437103254822600COPELCARMEN PAOLA CERVANTES BARRERA          10010000000006335100100148 PAGO POR CUENTA Y ORDEN SUELDO                                                                                                 0000834
65508020750     137180102660856518COPELLAYVA GIOVANNA NICOLAS GUADARRAMA       10010000000002954470100148 PAGO POR CUENTA Y ORDEN SUELDO                                                                                                 0000835
65508020750     137841102576779109COPELJOSE ALBERTO FABIAN MARCIAL             10010000000001035220100148 PAGO POR CUENTA Y ORDEN SUELDO                                                                                                 0000836
65508020750     137437104042036018COPELMARIA ORALIA MARTINEZ MARCIAL           10010000000004360330100148 PAGO POR CUENTA Y ORDEN SUELDO                                                                                                 0000837
65508020750     137180104042074615COPELNANCY AGUILA JIMENEZ                    10010000000001926000100148 PAGO POR CUENTA Y ORDEN SUELDO                                                                                                 0000838
65508020750     137180101132050115COPELMARIA JUDITH TOLEDO SALINAS             10010000000004472990100148 PAGO POR CUENTA Y ORDEN SUELDO                                                                                                 0000839
65508020750     137180103465918090COPELGERARDO HERRERA OLVERA                  10010000000006493530100148 PAGO POR CUENTA Y ORDEN SUELDO                                                                                                 0000840
65508020750     137460101667731865COPELSERGIO TREJO HERRERA                    10010000000004370990100148 PAGO POR CUENTA Y ORDEN SUELDO                                                                                                 0000841
65508020750     137437130001638777COPELGUSTAVO MENESES NORIEGA                 10010000000005733720100148 PAGO POR CUENTA Y ORDEN SUELDO                                                                                                 0000842
65508020750     137673103383293304COPELFAVIOLA LOMA GONZALEZ                   10010000000003083990100148 PAGO POR CUENTA Y ORDEN SUELDO                                                                                                 0000843
65508020750     137180103899057420COPELCLAUDIA ESCOBEDO SALAZAR                10010000000004086670100148 PAGO POR CUENTA Y ORDEN SUELDO                                                                                                 0000844
65508020750     137180100283348308COPELGUADALUPE ALONDRA MARQUEZ MARQUEZ       10010000000002645570100148 PAGO POR CUENTA Y ORDEN SUELDO                                                                                                 0000845
65508020750     137180130031255341COPELDAMIANA GARCIA MERINO                   10010000000003739870100148 PAGO POR CUENTA Y ORDEN SUELDO                                                                                                 0000846
65508020750     137443103662202628COPELNALLELY GARCIA GODINEZ                  10010000000002679070100148 PAGO POR CUENTA Y ORDEN SUELDO                                                                                                 0000847
65508020750     137180103996020800COPELDIANA LAURA PORTILLO FLORES             10010000000002273940100148 PAGO POR CUENTA Y ORDEN SUELDO                                                                                                 0000848
65508020750     137180103663075036COPELVALERIA AIDE SANTOS ESCAMILLA           10010000000002895070100148 PAGO POR CUENTA Y ORDEN SUELDO                                                                                                 0000849
65508020750     137180104003836300COPELMARIO ESTEBAN GARCIA VAZQUEZ            10010000000003575150100148 PAGO POR CUENTA Y ORDEN SUELDO                                                                                                 0000850
65508020750     137180130055265524COPELPABLO CESAREO MONTOYA PEREZ             10010000000003374710100148 PAGO POR CUENTA Y ORDEN SUELDO                                                                                                 0000851
65508020750     137180103314272201COPELALAN ALBERTO SOLIS GONZALEZ             10010000000002239090100148 PAGO POR CUENTA Y ORDEN SUELDO                                                                                                 0000852
65508020750     137446100376983563COPELJESUS FLORES SANTOS                     10010000000002679070100148 PAGO POR CUENTA Y ORDEN SUELDO                                                                                                 0000853
65508020750     137180101607732900COPELGEOVANNI GALINDO RIVERO                 10010000000005752360100148 PAGO POR CUENTA Y ORDEN SUELDO                                                                                                 0000854
65508020750     137180104054938406COPELLAURA MARTINEZ SALAZAR                  10010000000004294090100148 PAGO POR CUENTA Y ORDEN SUELDO                                                                                                 0000855
65508020750     137460104055956194COPELROCIO HERNANDEZ OLGUIN                  10010000000004831870100148 PAGO POR CUENTA Y ORDEN SUELDO                                                                                                 0000856
65508020750     137546104057713958COPELYAZMIN MARTINEZ BAHENA                  10010000000002267920100148 PAGO POR CUENTA Y ORDEN SUELDO                                                                                                 0000857
65508020750     137614102223737650COPELCLEMENTE FERNANDO ORTEGA ESPINOZA       10010000000003093550100148 PAGO POR CUENTA Y ORDEN SUELDO                                                                                                 0000858
65508020750     137180104088585993COPELOSCAR ANTONIO GASPAR                    10010000000004039750100148 PAGO POR CUENTA Y ORDEN SUELDO                                                                                                 0000859
65508020750     137424104065065396COPELJANET ESMERALDA OCAMPO GUZMAN           10010000000002457580100148 PAGO POR CUENTA Y ORDEN SUELDO                                                                                                 0000860
65508020750     137659100244081708COPELJESUS EMMANUEL LAZCANO QUIROGA          10010000000002828670100148 PAGO POR CUENTA Y ORDEN SUELDO                                                                                                 0000861
65508020750     137248104071863920COPELMYRIAM HELENA RETIZ ROJAS               10010000000002270250100148 PAGO POR CUENTA Y ORDEN SUELDO                                                                                                 0000862
65508020750     137180101123072445COPELSANTOS JAVIER BAUTISTA PEREZ            10010000000002442790100148 PAGO POR CUENTA Y ORDEN SUELDO                                                                                                 0000863
65508020750     137180130013212043COPELMARIA CONCEPCION LOPEZ MATIAS           10010000000003483070100148 PAGO POR CUENTA Y ORDEN SUELDO                                                                                                 0000864
65508020750     137180130031298311COPELERIKA MORALES AYALA                     10010000000002769070100148 PAGO POR CUENTA Y ORDEN SUELDO                                                                                                 0000865
65508020750     137549101612723590COPELELVIRA LUNA HERNANDEZ                   10010000000002681110100148 PAGO POR CUENTA Y ORDEN SUELDO                                                                                                 0000866
65508020750     137748103939426104COPELSANDRA BALTAZAR VIVANCO                 10010000000003375330100148 PAGO POR CUENTA Y ORDEN SUELDO                                                                                                 0000867
65508020750     137537130032943878COPELMIGUEL ANGEL ALVAREZ GUZMAN             10010000000002896170100148 PAGO POR CUENTA Y ORDEN SUELDO                                                                                                 0000868
65508020750     137655130054563927COPELVICTOR MANUEL SARMIENTO SANDOVAL        10010000000002679070100148 PAGO POR CUENTA Y ORDEN SUELDO                                                                                                 0000869
65508020750     137680104099303318COPELGUADALUPE JANETTE DURAN RANGEL          10010000000002239090100148 PAGO POR CUENTA Y ORDEN SUELDO                                                                                                 0000870
65508020750     137834104101618996COPELERIKA JUAREZ COSME                      10010000000003745310100148 PAGO POR CUENTA Y ORDEN SUELDO                                                                                                 0000871
65508020750     137180130035650117COPELMARILU GUERRERO SALINAS                 10010000000005570820100148 PAGO POR CUENTA Y ORDEN SUELDO                                                                                                 0000872
65508020750     137651104109910507COPELANA LAURA GONZALEZ MARTINEZ             10010000000003593550100148 PAGO POR CUENTA Y ORDEN SUELDO                                                                                                 0000873
65508020750     137180104116644104COPELARMANDO GARCIA DE LUNA                  10010000000003210830100148 PAGO POR CUENTA Y ORDEN SUELDO                                                                                                 0000874
65508020750     137180104307934254COPELERNESTO ARTURO NAVARRO ESCAMILLA        10010000000003900700100148 PAGO POR CUENTA Y ORDEN SUELDO                                                                                                 0000875
65508020750     137291103572627859COPELMARITZA PAOLA RUIZ SAAVEDRA             10010000000003260470100148 PAGO POR CUENTA Y ORDEN SUELDO                                                                                                 0000876
65508020750     137180103209148631COPELDANIEL VAZQUEZ VILLANUEVA               10010000000004117950100148 PAGO POR CUENTA Y ORDEN SUELDO                                                                                                 0000877
65508020750     137849101947164061COPELPEDRO ARTURO MARTINEZ SEGURA            10010000000002625700100148 PAGO POR CUENTA Y ORDEN SUELDO                                                                                                 0000878
65508020750     137180180017652604COPELJESSICA GUADALUPE ANGELES REYES         10010000000003593550100148 PAGO POR CUENTA Y ORDEN SUELDO                                                                                                 0000879
65508020750     137180104441811042COPELDOLORES AZUCENA ESMERALDA GONZALEZ VARG 10010000000002232210100148 PAGO POR CUENTA Y ORDEN SUELDO                                                                                                 0000880
65508020750     137867101948249857COPELKARLA JUDITH RAFAEL OSORIO              10010000000002679070100148 PAGO POR CUENTA Y ORDEN SUELDO                                                                                                 0000881
65508020750     137667130044319810COPELARELI VAZQUEZ OLIVOS                    10010000000002290170100148 PAGO POR CUENTA Y ORDEN SUELDO                                                                                                 0000882
65508020750     137180104145387335COPELMARTIN GARCIA CRUZ                      10010000000002915510100148 PAGO POR CUENTA Y ORDEN SUELDO                                                                                                 0000883
65508020750     137306130020638025COPELMIRIAM RODRIGUEZ REYES                  10010000000004004270100148 PAGO POR CUENTA Y ORDEN SUELDO                                                                                                 0000884
65508020750     137180103436115408COPELERIK DE JESUS GUTIERREZ ULLOA           10010000000002527770100148 PAGO POR CUENTA Y ORDEN SUELDO                                                                                                 0000885
65508020750     137420102581468622COPELJOSE ANGEL ROSAS RUGERIO                10010000000002918930100148 PAGO POR CUENTA Y ORDEN SUELDO                                                                                                 0000886
65508020750     137847102868688818COPELGUADALUPE DEL CARMEN NORBERTO GARCIA    10010000000002679070100148 PAGO POR CUENTA Y ORDEN SUELDO                                                                                                 0000887
65508020750     137180103951023842COPELANA GABRIELA PEREZ RAMIREZ              10010000000002960590100148 PAGO POR CUENTA Y ORDEN SUELDO                                                                                                 0000888
65508020750     137898103360084049COPELJOSE ALEJANDRO DELFIN GUZMAN            10010000000002679070100148 PAGO POR CUENTA Y ORDEN SUELDO                                                                                                 0000889
65508020750     137180130046141136COPELMARIANA ROSARIO PEREZ CANEDO            10010000000003700310100148 PAGO POR CUENTA Y ORDEN SUELDO                                                                                                 0000890
65508020750     137650104390490879COPELPEDRO ANDRES LOPEZ BELLO                10010000000003176170100148 PAGO POR CUENTA Y ORDEN SUELDO                                                                                                 0000891
65508020750     137872130033923206COPELSAIDEN MELGAREJO JIMENEZ                10010000000002679070100148 PAGO POR CUENTA Y ORDEN SUELDO                                                                                                 0000892
65508020750     137877104004114716COPELARLENY SUREY GUTIERREZ JAVIER           10010000000002679070100148 PAGO POR CUENTA Y ORDEN SUELDO                                                                                                 0000893
65508020750     137835103861711010COPELWENDY BELEN LOPEZ SANDOVAL              10010000000002679070100148 PAGO POR CUENTA Y ORDEN SUELDO                                                                                                 0000894
65508020750     137655102622905369COPELGUADALUPE RUIZ ORTEGA                   10010000000002679070100148 PAGO POR CUENTA Y ORDEN SUELDO                                                                                                 0000895
65508020750     137437130044175556COPELJENNIFER HERNANDEZ GUTIERREZ            10010000000002679070100148 PAGO POR CUENTA Y ORDEN SUELDO                                                                                                 0000896
65508020750     137375103356591771COPELAMERICA MONTSERRAT CUETO RIVERA         10010000000003196170100148 PAGO POR CUENTA Y ORDEN SUELDO                                                                                                 0000897
65508020750     137180130058566767COPELJADHYRA TLASECA IBARRA                  10010000000002954130100148 PAGO POR CUENTA Y ORDEN SUELDO                                                                                                 0000898
65508020750     137542104188869652COPELBELEM CAMPOS TENANGO                    10010000000003661180100148 PAGO POR CUENTA Y ORDEN SUELDO                                                                                                 0000899
65508020750     137180101874985768COPELCHRISTOPHER DAVID GUARDIOLA MORA        10010000000002679070100148 PAGO POR CUENTA Y ORDEN SUELDO                                                                                                 0000900
65508020750     137667104193660514COPELGUSTAVO ROLDAN DIAZ                     10010000000002679070100148 PAGO POR CUENTA Y ORDEN SUELDO                                                                                                 0000901
65508020750     137670130051936930COPELLAURA MARIA HERNANDEZ LARA              10010000000002679070100148 PAGO POR CUENTA Y ORDEN SUELDO                                                                                                 0000902
65508020750     137865130043182206COPELFERNANDO MORALES QUEZADA                10010000000002679070100148 PAGO POR CUENTA Y ORDEN SUELDO                                                                                                 0000903
65508020750     137888100448791610COPELADRIANA CASTILLO URBINA                 10010000000002555130100148 PAGO POR CUENTA Y ORDEN SUELDO                                                                                                 0000904
65508020750     137841101886305837COPELMARIA MOZO LOPEZ                        10010000000002679070100148 PAGO POR CUENTA Y ORDEN SUELDO                                                                                                 0000905
65508020750     137840101970639342COPELJONATAN DEL TORO ALVAREZ                10010000000002679070100148 PAGO POR CUENTA Y ORDEN SUELDO                                                                                                 0000906
65508020750     137832101891445186COPELLIDIA MARGARITA FERNANDEZ QUIROZ        10010000000002608110100148 PAGO POR CUENTA Y ORDEN SUELDO                                                                                                 0000907
65508020750     137180130032718599COPELISMAEL CASTILLO MARTINEZ                10010000000006429070100148 PAGO POR CUENTA Y ORDEN SUELDO                                                                                                 0000908
65508020750     137180104203119021COPELBRENDA ABIGAIL HONORATO SANTOS          10010000000002679070100148 PAGO POR CUENTA Y ORDEN SUELDO                                                                                                 0000909
65508020750     137180104214986829COPELTANIA EVELIN DOMINGUEZ AGUILAR          10010000000006193030100148 PAGO POR CUENTA Y ORDEN SUELDO                                                                                                 0000910
65508020750     137180101627499223COPELGEORGINA CRISTOBAL SANCHEZ              10010000000002679070100148 PAGO POR CUENTA Y ORDEN SUELDO                                                                                                 0000911
65508020750     137180130026526205COPELLOURDES COLIN VILLA                     10010000000003286170100148 PAGO POR CUENTA Y ORDEN SUELDO                                                                                                 0000912
65508020750     137670103539188729COPELMAYRA ZULEIMA BENITEZ RAMOS             10010000000003093550100148 PAGO POR CUENTA Y ORDEN SUELDO                                                                                                 0000913
65508020750     137370104208728586COPELYESSICA SOTELO MELENDREZ                10010000000002896170100148 PAGO POR CUENTA Y ORDEN SUELDO                                                                                                 0000914
