65508020750     137180104026450899COPELEDUARDO ALEJANDRO MONROY CRUZ           10010000000002527310100148 PAGO POR CUENTA Y ORDEN SUELDO                                                                                                 0001001
65508020750     137437130055123225COPELMARIA FERNANDA AGUIRRE HERNANDEZ        10010000000002835470100148 PAGO POR CUENTA Y ORDEN SUELDO                                                                                                 0001002
65508020750     137180101914692623COPELGIOVANNI MAGDALENO GUTIERREZ            10010000000005776560100148 PAGO POR CUENTA Y ORDEN SUELDO                                                                                                 0001003
65508020750     137832130053925567COPELVICTORIA MEJIA SANCHEZ                  10010000000003093550100148 PAGO POR CUENTA Y ORDEN SUELDO                                                                                                 0001004
65508020750     137856101074570922COPELDANIEL AGUILAR GONZALEZ                 10010000000002944230100148 PAGO POR CUENTA Y ORDEN SUELDO                                                                                                 0001005
65508020750     137180102913124337COPELLIDY DIANA ALVAREZ RESENDIZ             10010000000002497870100148 PAGO POR CUENTA Y ORDEN SUELDO                                                                                                 0001006
65508020750     137441130062660660COPELJUDITH DAYANA DIMAS GARCIA              10010000000003558170100148 PAGO POR CUENTA Y ORDEN SUELDO                                                                                                 0001007
65508020750     137180104181042663COPELJOSE ANGEL BOJORGE MORENO               10010000000002896160100148 PAGO POR CUENTA Y ORDEN SUELDO                                                                                                 0001008
65508020750     137212100163685509COPELANA LAURA HERNANDEZ BALLESTEROS         10010000000002896160100148 PAGO POR CUENTA Y ORDEN SUELDO                                                                                                 0001009
65508020750     137885101092924220COPELJOSE EVARISTO JUAN DE LEON              10010000000003179070100148 PAGO POR CUENTA Y ORDEN SUELDO                                                                                                 0001010
65508020750     137320103425947654COPELMARTHA LETICIA AGUILERA VARGAS          10010000000004616650100148 PAGO POR CUENTA Y ORDEN SUELDO                                                                                                 0001011
65508020750     137886130031771352COPELVICTOR MANUEL MACIAS APOLINAR           10010000000008077450100148 PAGO POR CUENTA Y ORDEN SUELDO                                                                                                 0001012
65508020750     137885130044836049COPELLUIS GABRIEL MORENO GARCIA              10010000000004801610100148 PAGO POR CUENTA Y ORDEN SUELDO                                                                                                 0001013
65508020750     137458103991363485COPELMARIA DE LOS ANGELES CIRILO APARICIO    10010000000002799870100148 PAGO POR CUENTA Y ORDEN SUELDO                                                                                                 0001014
65508020750     137662102900750805COPELJOSE FERNANDO GONZALEZ CARRERA          10010000000003693330100148 PAGO POR CUENTA Y ORDEN SUELDO                                                                                                 0001015
65508020750     137180104408930539COPELJOSE DE JESUS SANCHEZ NERIA             10010000000003396170100148 PAGO POR CUENTA Y ORDEN SUELDO                                                                                                 0001016
65508020750     137544130051639059COPELELIDE JANETH FLORES DOMINGUEZ           10010000000003093550100148 PAGO POR CUENTA Y ORDEN SUELDO                                                                                                 0001017
65508020750     137669180019417355COPELGIOVANNI NIETO ROMAN                    10010000000003593550100148 PAGO POR CUENTA Y ORDEN SUELDO                                                                                                 0001018
65508020750     137180104150041983COPELNOEMI RODRIGUEZ CASTANEDA               10010000000002239090100148 PAGO POR CUENTA Y ORDEN SUELDO                                                                                                 0001019
65508020750     137437103777444769COPELELIA ESTEFANI RENTERIA VERGARA          10010000000002679070100148 PAGO POR CUENTA Y ORDEN SUELDO                                                                                                 0001020
65508020750     137455101822621327COPELSARA MUNOZ LOREDO                       10010000000002724070100148 PAGO POR CUENTA Y ORDEN SUELDO                                                                                                 0001021
65508020750     137651102520914896COPELANEL VALLE GUZMAN                       10010000000003093390100148 PAGO POR CUENTA Y ORDEN SUELDO                                                                                                 0001022
65508020750     137248102183284376COPELOSCAR ADAN NIETO CARRILLO               10010000000003631180100148 PAGO POR CUENTA Y ORDEN SUELDO                                                                                                 0001023
65508020750     137671101095187061COPELSARAI ROSAS SANCHEZ                     10010000000003093550100148 PAGO POR CUENTA Y ORDEN SUELDO                                                                                                 0001024
65508020750     137244104167503224COPELMARIA MILAGROS ALCANTAR RODRIGUEZ       10010000000002679070100148 PAGO POR CUENTA Y ORDEN SUELDO                                                                                                 0001025
65508020750     137180130057832104COPELEDUARDO BARTOLO LOPEZ                   10010000000004241850100148 PAGO POR CUENTA Y ORDEN SUELDO                                                                                                 0001026
65508020750     137810103892027688COPELLUIS ANGEL MIRANDA CRUZ                 10010000000002896170100148 PAGO POR CUENTA Y ORDEN SUELDO                                                                                                 0001027
65508020750     137443104034699855COPELDIEGO EDUARDO FLORES ROMERO             10010000000002896170100148 PAGO POR CUENTA Y ORDEN SUELDO                                                                                                 0001028
65508020750     137434104323629600COPELYURIANA ENRIQUEZ BARRIOS                10010000000002896170100148 PAGO POR CUENTA Y ORDEN SUELDO                                                                                                 0001029
65508020750     137180101840063119COPELMIRIAM RAMOS HERNANDEZ                  10010000000002896670100148 PAGO POR CUENTA Y ORDEN SUELDO                                                                                                 0001030
65508020750     137651103490836265COPELDAVID DEMETRIO SANCHEZ                  10010000000003593550100148 PAGO POR CUENTA Y ORDEN SUELDO                                                                                                 0001031
65508020750     137543103205444701COPELGLORIA VERONICA MOYA GOMEZ              10010000000002733820100148 PAGO POR CUENTA Y ORDEN SUELDO                                                                                                 0001032
65508020750     137890130016991347COPELCESAR AGUSTIN PRETELIN BAXIN            10010000000002896170100148 PAGO POR CUENTA Y ORDEN SUELDO                                                                                                 0001033
65508020750     137180100602742705COPELBLANCA ESTELA SALAZAR SOTELO            10010000000002679070100148 PAGO POR CUENTA Y ORDEN SUELDO                                                                                                 0001034
65508020750     137180130054184156COPELLUIS ALBERTO TORRES RAMIREZ             10010000000003695910100148 PAGO POR CUENTA Y ORDEN SUELDO                                                                                                 0001035
65508020750     137450103371636329COPELMARIA GUADALUPE CRUZ JARDON             10010000000002896170100148 PAGO POR CUENTA Y ORDEN SUELDO                                                                                                 0001036
65508020750     137180130040130716COPELELSA APARICIO SUAREZ                    10010000000002743070100148 PAGO POR CUENTA Y ORDEN SUELDO                                                                                                 0001037
65508020750     137180130031207292COPELCLAUDIA MARTINEZ JULIAN                 10010000000003593550100148 PAGO POR CUENTA Y ORDEN SUELDO                                                                                                 0001038
65508020750     137437104406355005COPELCESAR ARMANDO PEREZ MENDEZ              10010000000002679070100148 PAGO POR CUENTA Y ORDEN SUELDO                                                                                                 0001039
65508020750     137290102737363316COPELFLOR DE DALIA LOPEZ MENDOZA             10010000000002896170100148 PAGO POR CUENTA Y ORDEN SUELDO                                                                                                 0001040
65508020750     137856102876505534COPELVANNYAH ALESSANDRA ARENAL COBOS         10010000000002239090100148 PAGO POR CUENTA Y ORDEN SUELDO                                                                                                 0001041
65508020750     137651104421236707COPELLAURA LETICIA GARZA PLACIDO             10010000000003593550100148 PAGO POR CUENTA Y ORDEN SUELDO                                                                                                 0001042
65508020750     137443130051651934COPELBRANDON URIEL TAPIA MORALES             10010000000002679070100148 PAGO POR CUENTA Y ORDEN SUELDO                                                                                                 0001043
65508020750     137180101808840390COPELALFREDO JUAREZ ALCANTAR                 10010000000002679070100148 PAGO POR CUENTA Y ORDEN SUELDO                                                                                                 0001044
65508020750     137180104099449879COPELCAROLINA GRANGENO CAMARGO               10010000000003059870100148 PAGO POR CUENTA Y ORDEN SUELDO                                                                                                 0001045
65508020750     137667180007439729COPELJOSE ANTONIO PULIDO PEREZ               10010000000003593550100148 PAGO POR CUENTA Y ORDEN SUELDO                                                                                                 0001046
65508020750     137676130062679507COPELMARTIN PASCUAL GONZALEZ                 10010000000003429070100148 PAGO POR CUENTA Y ORDEN SUELDO                                                                                                 0001047
65508020750     137180130011325929COPELNANCY VANESSA LOPEZ GOMEZ               10010000000003250270100148 PAGO POR CUENTA Y ORDEN SUELDO                                                                                                 0001048
65508020750     137320104426802001COPELBRIANA PATRICIA JACOBO MARTINEZ         10010000000003617180100148 PAGO POR CUENTA Y ORDEN SUELDO                                                                                                 0001049
65508020750     137830103365594000COPELNARCISO MANZANO VAZQUEZ                 10010000000003093550100148 PAGO POR CUENTA Y ORDEN SUELDO                                                                                                 0001050
65508020750     137180104302971856COPELPAMELA CATALINA JIMENEZ MERAZ           10010000000002869070100148 PAGO POR CUENTA Y ORDEN SUELDO                                                                                                 0001051
65508020750     137296130057344492COPELCRISTIAN EDUARDO FERNANDEZ VELAZQUEZ    10010000000002896170100148 PAGO POR CUENTA Y ORDEN SUELDO                                                                                                 0001052
65508020750     137670104300855361COPELJORGE ALEJANDRO TOLEDO MARTINEZ         10010000000001968190100148 PAGO POR CUENTA Y ORDEN SUELDO                                                                                                 0001053
65508020750     137542130038826706COPELFERNANDO TAJONAR ALVARADO               10010000000003093550100148 PAGO POR CUENTA Y ORDEN SUELDO                                                                                                 0001054
65508020750     137650130064382669COPELKAREN ANGELICA GARCIA MORALES           10010000000002679070100148 PAGO POR CUENTA Y ORDEN SUELDO                                                                                                 0001055
65508020750     137894104417038514COPELKAREN MARISOL RIOS RAMIRO               10010000000003040830100148 PAGO POR CUENTA Y ORDEN SUELDO                                                                                                 0001056
65508020750     137180102988637707COPELZAYRA SADDAI CASTELLANOS AGUILAR        10010000000002679070100148 PAGO POR CUENTA Y ORDEN SUELDO                                                                                                 0001057
65508020750     137669104417244339COPELOSCAR ALCANTARA RAMIREZ                 10010000000003593550100148 PAGO POR CUENTA Y ORDEN SUELDO                                                                                                 0001058
65508020750     137180180020873988COPELJORGE ALBERTO VARGAS MENDOZA            10010000000003396170100148 PAGO POR CUENTA Y ORDEN SUELDO                                                                                                 0001059
65508020750     137180130066656533COPELCARLOS MARTIN HERNANDEZ VELA            10010000000004561810100148 PAGO POR CUENTA Y ORDEN SUELDO                                                                                                 0001060
65508020750     137667130064533207COPELVERONICA RAMIRA QUECHOL SOLIS           10010000000002679070100148 PAGO POR CUENTA Y ORDEN SUELDO                                                                                                 0001061
65508020750     137180130050470000COPELBRYAN ANTONIO VELAZQUEZ RAMIREZ         10010000000002801470100148 PAGO POR CUENTA Y ORDEN SUELDO                                                                                                 0001062
65508020750     137651104440917337COPELYOSIMAR HERRERA CASTILLO                10010000000003093550100148 PAGO POR CUENTA Y ORDEN SUELDO                                                                                                 0001063
65508020750     137497104442865269COPELPAULINA SANCHEZ SANCHEZ                 10010000000003396170100148 PAGO POR CUENTA Y ORDEN SUELDO                                                                                                 0001064
65508020750     137180102572823558COPELCITLALLI SURIANO FLORES                 10010000000002679070100148 PAGO POR CUENTA Y ORDEN SUELDO                                                                                                 0001065
65508020750     137320103322526026COPELENRIQUE ISMAEL LOPEZ SALDIVAR           10010000000003811180100148 PAGO POR CUENTA Y ORDEN SUELDO                                                                                                 0001066
65508020750     137888130060744772COPELPERLA DENISSE RODRIGUEZ CALDERON        10010000000002239090100148 PAGO POR CUENTA Y ORDEN SUELDO                                                                                                 0001067
65508020750     137180104013538232COPELDAFNE LUNA TORIS TORRES                 10010000000002239090100148 PAGO POR CUENTA Y ORDEN SUELDO                                                                                                 0001068
65508020750     137180102506488859COPELGLADYS GUADALUPE CARDENAS SANTIAGO      10010000000002679070100148 PAGO POR CUENTA Y ORDEN SUELDO                                                                                                 0001069
65508020750     137650104050678258COPELURIEL ALEJANDRO FLORES ROMERO           10010000000002679070100148 PAGO POR CUENTA Y ORDEN SUELDO                                                                                                 0001070
65508020750     137877102143009108COPELCARLOS ALBERTO JAUREGUI CASTELLANOS     10010000000003396170100148 PAGO POR CUENTA Y ORDEN SUELDO                                                                                                 0001071
65508020750     137903100425769278COPELROSAELITH GONZALEZ JIMENEZ              10010000000003179070100148 PAGO POR CUENTA Y ORDEN SUELDO                                                                                                 0001072
65508020750     137437130058200860COPELJAQUELINE FAMASAIT LUCIO GARCIA         10010000000002373190100148 PAGO POR CUENTA Y ORDEN SUELDO                                                                                                 0001073
65508020750     137180103683531385COPELMONTSERRAT DE ESTEFANIA RAMIREZ CORONA  10010000000002373190100148 PAGO POR CUENTA Y ORDEN SUELDO                                                                                                 0001074
