000000000263289802000000000116519555MXP0000000006758.70KATIA IVETTE ROSAS HERNANDEZ  4000237 PAGO POR CUENTAY ORDEN SUEL0011249H
000000000220401013000000000116519555MXP0000000009587.62JULIETA PEREZ CASTILLO        4000237 PAGO POR CUENTAY ORDEN SUEL0050449H
000000000239483355000000000116519555MXP0000000003408.60DAVID GARCIA HERNANDEZ        4000237 PAGO POR CUENTAY ORDEN SUEL0080119H
000000000179426934000000000116519555MXP0000000005623.41ROCIO HERNANDEZ HILARIO       4000237 PAGO POR CUENTAY ORDEN SUEL0090068H
000000000410694742000000000116519555MXP0000000004478.17MARIA JOSE GARCIA PALACIOS    4000237 PAGO POR CUENTAY ORDEN SUEL0081005H
000000000329611662000000000116519555MXP0000000004087.38ANA YURITZA VALDEZ TOVAR      4000237 PAGO POR CUENTAY ORDEN SUEL0120027H
000000000346472781000000000116519555MXP0000000009530.65SANDRA LORENA RAMIREZ VELAZQUE4000237 PAGO POR CUENTAY ORDEN SUEL0200199H
000000000403598185000000000116519555MXP0000000007592.07ANDREA JULIETA CRUZ ARROYO    4000237 PAGO POR CUENTAY ORDEN SUEL0200613H
000000000144735399000000000116519555MXP0000000005284.69LAURA ISELA ARELLANO BONILLA  4000237 PAGO POR CUENTAY ORDEN SUEL0201472H
000000000421286646000000000116519555MXP0000000004274.01GERARDO RODRIGUEZ LOPEZ       4000237 PAGO POR CUENTAY ORDEN SUEL0301697H
000000000406644102000000000116519555MXP0000000003535.25BRENDA MAGALY AVENDANO GONZALE4000237 PAGO POR CUENTAY ORDEN SUEL0302259H
000000000283983071000000000116519555MXP0000000007592.07MARTHA GUADALUPE KUMUL NAHUAT 4000237 PAGO POR CUENTAY ORDEN SUEL0400059H
000000000472916016000000000116519555MXP0000000003165.85ADRIAN SEGURA RAMIREZ         4000237 PAGO POR CUENTAY ORDEN SUEL0600746H
000000000250375548000000000116519555MXP0000000007592.07JAVIER LOPEZ RIVAS            4000237 PAGO POR CUENTAY ORDEN SUEL0700319H
000000000395108785000000000116519555MXP0000000004478.17LAURA ANGELICA MARTINEZ CABALL4000237 PAGO POR CUENTAY ORDEN SUEL0701021H
000000000274713517000000000116519555MXP0000000007020.40MARIA DE LA CRUZ EMBATI RAMIRE4000237 PAGO POR CUENTAY ORDEN SUEL0701382H
000000000411387266000000000116519555MXP0000000005284.69IGNACIO ROSAS PEREZ           4000237 PAGO POR CUENTAY ORDEN SUEL0701422H
000000000368336555000000000116519555MXP0000000006019.46GUADALUPE CITLALI LAZCANO PENA4000237 PAGO POR CUENTAY ORDEN SUEL0700806H
000000000285676192000000000116519555MXP0000000004478.17ADRIANN RENEE PARRAL RODRIGUEZ4000237 PAGO POR CUENTAY ORDEN SUEL0902431H
000000000122036986000000000116519555MXP0000000008030.73SANDRA PAOLA CHAVEZ MORALES   4000237 PAGO POR CUENTAY ORDEN SUEL0902940H
000000000453743739000000000116519555MXP0000000003311.18MARGARITA SILVIA LINARES LOPEZ4000237 PAGO POR CUENTAY ORDEN SUEL0903509H
000000000435985237000000000116519555MXP0000000008091.85REYNA MANDUJANO GONZALEZ      4000237 PAGO POR CUENTAY ORDEN SUEL0904154H
000000000455399881000000000116519555MXP0000000005284.69YOBANA SANCHEZ ANTONIO        4000237 PAGO POR CUENTAY ORDEN SUEL0904319H
000000000464744834000000000116519555MXP0000000004478.17DALIA LIZBETH NICIO RUIZ      4000237 PAGO POR CUENTAY ORDEN SUEL0908054H
000000000460716666000000000116519555MXP0000000004876.78OSCAR LUCIANO ALMARAL RODRIGUE4000237 PAGO POR CUENTAY ORDEN SUEL0908513H
000000000147277103000000000116519555MXP0000000005284.69ALEJANDRO SANCHEZ ALQUICIRA   4000237 PAGO POR CUENTAY ORDEN SUEL0909057H
000000000201670305000000000116519555MXP0000000003621.33ARTURO GUZMAN IBANEZ          4000237 PAGO POR CUENTAY ORDEN SUEL0909984H
000000000233162611000000000116519555MXP0000000004478.17MIRIAM FLORES ECHEVERRIA      4000237 PAGO POR CUENTAY ORDEN SUEL0910908H
000000000460345234000000000116519555MXP0000000003621.34LUIS ANTONIO XOSPA RODRIGUEZ  4000237 PAGO POR CUENTAY ORDEN SUEL0911471H
000000000436038401000000000116519555MXP0000000004050.76YOCELYN LAZCANO LOSOYA        4000237 PAGO POR CUENTAY ORDEN SUEL0912435H
000000006462247275000000000116519555MXP0000000009294.73YEIRA LUCAS SALAZAR           4002137 PAGO POR CUENTAY ORDEN SUEL0021253H
000000006451061646000000000116519555MXP0000000004478.17MARTHA PATRICIA DIEGO LARA    4002137 PAGO POR CUENTAY ORDEN SUEL0091822H
000000006344326510000000000116519555MXP0000000005537.60KARINA GRACIA ENRIQUEZ        4002137 PAGO POR CUENTAY ORDEN SUEL0120024H
000000006423024219000000000116519555MXP0000000006694.36VIRIDIANA DEL CARMEN VELAZQUEZ4002137 PAGO POR CUENTAY ORDEN SUEL0120206H
000000006407384050000000000116519555MXP0000000003311.18MARIA DE JESUS GONZALEZ ROSALE4002137 PAGO POR CUENTAY ORDEN SUEL0904108H
000000006480520240000000000116519555MXP0000000004565.34ADRIANA ELIZABETH CAPI GARCIA 4002137 PAGO POR CUENTAY ORDEN SUEL0905425H
000000000002023819000000000116519555MXP0000000004994.60DANIEL LONGINO SALVADOR       4003037 PAGO POR CUENTAY ORDEN SUEL0906784H
000000000002214265000000000116519555MXP0000000004978.17ANGELICA FLORES OLVERA        4003037 PAGO POR CUENTAY ORDEN SUEL0903831H
000000008507989377000000000116519555MXP0000000004056.60LUIS EMMANUEL MALDONADO ALCAZA4004437 PAGO POR CUENTAY ORDEN SUEL0903458H
000000005603042665000000000116519555MXP0000000004059.57VICTOR ALONSO AYALA RUELAS    4004437 PAGO POR CUENTAY ORDEN SUEL0120545H
000000000322652794000000000116519555MXP0000000005284.69MARIA INES HERNANDEZ SANCHEZ  4007237 PAGO POR CUENTAY ORDEN SUEL0091103H
000000001023208187000000000116519555MXP0000000004478.17GUILLERMO LARA AVENDANO       4007237 PAGO POR CUENTAY ORDEN SUEL0090290H
000000000357104044000000000116519555MXP0000000006448.73MARCO ANTONIO BAUTISTA VICENCI4007237 PAGO POR CUENTAY ORDEN SUEL0050312H
000000000289261431000000000116519555MXP0000000005284.69MARIA TRINIDAD ASCENCIO MEDINA4007237 PAGO POR CUENTAY ORDEN SUEL0080338H
000000000255390363000000000116519555MXP0000000007592.07MARCO ANTONIO SEVILLA VAZQUEZ 4007237 PAGO POR CUENTAY ORDEN SUEL0020005H
000000000288716998000000000116519555MXP0000000007963.36MONICA LIZBETH BEDOLLA HERNAND4007237 PAGO POR CUENTAY ORDEN SUEL0020504H
000000001143817405000000000116519555MXP0000000004053.59SUGHEY GUADALUPE VELASCO ROBAL4007237 PAGO POR CUENTAY ORDEN SUEL0907943H
000000000592973416000000000116519555MXP0000000003621.34MIGUEL ALEJANDRO RUIZ RUIZ    4007237 PAGO POR CUENTAY ORDEN SUEL0910077H
000000001151384359000000000116519555MXP0000000004056.60MARIA FERNANDA COUOH DIAZ     4007237 PAGO POR CUENTAY ORDEN SUEL0911339H
000000001370585827000000000116519555MXP0000000004056.60FERNANDO EMMANUEL MARTINEZ CEJ4012737 PAGO POR CUENTAY ORDEN SUEL0911982H
000000001353935113000000000116519555MXP0000000003621.34PAMELA VIANEY OLVERA GARCIA   4012737 PAGO POR CUENTAY ORDEN SUEL0911642H
000000001393582987000000000116519555MXP0000000004056.60LAURA BERENICE SANCHEZ ESQUIVE4012737 PAGO POR CUENTAY ORDEN SUEL0911204H
000000000157605464000000000116519555MXP0000000003621.34DANIEL NUNEZ OLIVARES         4012737 PAGO POR CUENTAY ORDEN SUEL0910728H
000000001371741898000000000116519555MXP0000000004056.62HASIBI DENNIS DIAZ CRUZ       4012737 PAGO POR CUENTAY ORDEN SUEL0909707H
000000001360206291000000000116519555MXP0000000005286.29JAIMY GABRIELA GUERRERO ALVARE4012737 PAGO POR CUENTAY ORDEN SUEL0909017H
000000000159505726000000000116519555MXP0000000003057.28ARMANDO MANUEL SANCHEZ TORRES 4012737 PAGO POR CUENTAY ORDEN SUEL0909171H
000000000155634426000000000116519555MXP0000000003344.07OSSIEL MENDEZ ALVAREZ         4012737 PAGO POR CUENTAY ORDEN SUEL0906865H
000000001350705641000000000116519555MXP0000000004565.34CARLOS ALBERTO CORTES QUIROZ  4012737 PAGO POR CUENTAY ORDEN SUEL0907101H
000000000140891625000000000116519555MXP0000000011264.14IVAN HERNANDEZ PEREZ          4012737 PAGO POR CUENTAY ORDEN SUEL0302492H
000000001344281006000000000116519555MXP0000000005828.04GADIEL UZIEL TOVILLA LOPEZ    4012737 PAGO POR CUENTAY ORDEN SUEL0800419H
000000001333997381000000000116519555MXP0000000004478.17MIRIAM RIVAS GONZALEZ         4012737 PAGO POR CUENTAY ORDEN SUEL0701947H
000000001316831790000000000116519555MXP0000000004478.17GLORIA IVONNE ALAVEZ BARRERA  4012737 PAGO POR CUENTAY ORDEN SUEL0020625H
000000000121546147000000000116519555MXP0000000003621.34LILIANA ALDANA BAUTISTA       4012737 PAGO POR CUENTAY ORDEN SUEL0022591H
000000001350556139000000000116519555MXP0000000003856.51SHUBERT IBRAHIM MOO CHI       4012737 PAGO POR CUENTAY ORDEN SUEL0041016H
000000000138386398000000000116519555MXP0000000007984.79CAROLINA MARTINEZ HILARIO     4012737 PAGO POR CUENTAY ORDEN SUEL0090493H
000000001359143476000000000116519555MXP0000000005284.69ANTONIO EDUARDO AGUILAR BUENFI4012737 PAGO POR CUENTAY ORDEN SUEL0040563H
000000000133949960000000000116519555MXP0000000004478.17ANEL SAHIAN RIZO GALINDO      4012737 PAGO POR CUENTAY ORDEN SUEL0080896H
000000000129325982000000000116519555MXP0000000003102.38SANDRA LIZBETH PEREZ FLORES   4012737 PAGO POR CUENTAY ORDEN SUEL0093000H
000000001322320714000000000116519555MXP0000000004886.08JADE SHUHEI TEC CHAN          4012737 PAGO POR CUENTAY ORDEN SUEL0130531H
000000000124563526000000000116519555MXP0000000004365.83FERNANDA LEYVA HERNANDEZ      4012737 PAGO POR CUENTAY ORDEN SUEL0301826H
000000001315080092000000000116519555MXP0000000004478.17VIRGINIA DE LA ROSA PARRA     4012737 PAGO POR CUENTAY ORDEN SUEL0202195H
000000000013107926000000000116519555MXP0000000003805.06ROCIO EUNICE CHAVEZ LOPEZ     4013737 PAGO POR CUENTAY ORDEN SUEL0081051H
000000000174417097000000000116519555MXP0000000002833.56YEREMIT CASANDRA RODRIGUEZ ARE4013737 PAGO POR CUENTAY ORDEN SUEL0080868H
000000000369527865000000000116519555MXP0000000005201.12JAQUELINE JIMENEZ ESPINOZA    4013737 PAGO POR CUENTAY ORDEN SUEL0030082H
000000000214810005000000000116519555MXP0000000004478.17ALONDRA ROMERO GONZALEZ       4013737 PAGO POR CUENTAY ORDEN SUEL0030895H
000000000345787378000000000116519555MXP0000000003387.16EVELIN PILAR RIVERA AVILES    4013737 PAGO POR CUENTAY ORDEN SUEL0020585H
000000000110030539000000000116519555MXP0000000004478.17KARLA ISABEL GODINEZ RADILLA  4013737 PAGO POR CUENTAY ORDEN SUEL0400920H
000000000407899526000000000116519555MXP0000000004478.17CAROL SHUNASHI GUTIERREZ CIRIA4013737 PAGO POR CUENTAY ORDEN SUEL0521378H
000000000418457452000000000116519555MXP0000000005614.79CLAUDIA ADRIANA VEGA SERRET   4013737 PAGO POR CUENTAY ORDEN SUEL0700474H
000000000180871220000000000116519555MXP0000000004478.17REYNA GUADALUPE NUNEZ GARCIA  4013737 PAGO POR CUENTAY ORDEN SUEL0903518H
000000000418425089000000000116519555MXP0000000005284.69MARCO ANTONIO JIMENEZ CASTILLO4013737 PAGO POR CUENTAY ORDEN SUEL0904113H
000000000404394172000000000116519555MXP0000000004056.60JOSELYNE ALEJANDRA RUIZ ROMERO4013737 PAGO POR CUENTAY ORDEN SUEL0905481H
