1000008200000004175423000000000000000000000000000000000000116519555R0510112021122120211221                                                                                                                                              
32615696ROHK900117N11     4000254000009026328980260000000006758700000000                                                                                KATIA IVETTE ROSAS HERNANDEZ            PAGO INTERBANCARIO                      
33563540PECJ940323HJ8     4000218000009022040101390000000009587620000000                                                                                JULIETA PEREZ CASTILLO                  PAGO INTERBANCARIO                      
36085774GAHD891202GN3     4000210000009023948335520000000003408600000000                                                                                DAVID GARCIA HERNANDEZ                  PAGO INTERBANCARIO                      
31588880HEHR921224MX1     4000230300009017942693460000000005623410000000                                                                                ROCIO HERNANDEZ HILARIO                 PAGO INTERBANCARIO                      
33095441GAPJ940318GM3     4000210000009041069474270000000004478170000000                                                                                MARIA JOSE GARCIA PALACIOS              PAGO INTERBANCARIO                      
33375648VATA870720H61     4000277000009032961166250000000004087380000000                                                                                ANA YURITZA VALDEZ TOVAR                PAGO INTERBANCARIO                      
34919845RAVS8912173V2     4000201000009034647278100000000009530650000000                                                                                SANDRA LORENA RAMIREZ VELAZQUEZ         PAGO INTERBANCARIO                      
32510730CUAA8008161I9     4000265000009040359818550000000007592070000000                                                                                ANDREA JULIETA CRUZ ARROYO              PAGO INTERBANCARIO                      
31791403AEBL940823SP6     4000222500007014473539970000000005284690000000                                                                                LAURA ISELA ARELLANO BONILLA            PAGO INTERBANCARIO                      
35990601ROLG9706016I1     4000268000009042128664620000000004274010000000                                                                                GERARDO RODRIGUEZ LOPEZ                 PAGO INTERBANCARIO                      
32049525AEGB960212LB2     4000218000009040664410250000000003535250000000                                                                                BRENDA MAGALY AVENDANO GONZALEZ         PAGO INTERBANCARIO                      
36103990KUNM9011118A2     4000269100009028398307100000000007592070000000                                                                                MARTHA GUADALUPE KUMUL NAHUAT           PAGO INTERBANCARIO                      
36838884SERA900731SF9     4000226100009047291601640000000003165850000000                                                                                ADRIAN SEGURA RAMIREZ                   PAGO INTERBANCARIO                      
31016991LORJ870214DF8     4000218000009025037554830000000007592070000000                                                                                JAVIER LOPEZ RIVAS                      PAGO INTERBANCARIO                      
32758487MACL910207SR3     4000218000009039510878540000000004478170000000                                                                                LAURA ANGELICA MARTINEZ CABALLERO       PAGO INTERBANCARIO                      
32979725EARC900720RY6     4000244100009027471351710000000007020400000000                                                                                MARIA DE LA CRUZ EMBATI RAMIREZ         PAGO INTERBANCARIO                      
36535499ROPI880731KY6     4000242400009041138726690000000005284690000000                                                                                IGNACIO ROSAS PEREZ                     PAGO INTERBANCARIO                      
33528184LAPG90121251A     4000245000009036833655580000000006019460000000                                                                                GUADALUPE CITLALI LAZCANO PENA          PAGO INTERBANCARIO                      
34376853PARA960305PHA     4000218000009028567619200000000004478170000000                                                                                ADRIANN RENEE PARRAL RODRIGUEZ          PAGO INTERBANCARIO                      
31781833CAMS870123SL7     4000218000009012203698650000000008030730000000                                                                                SANDRA PAOLA CHAVEZ MORALES             PAGO INTERBANCARIO                      
33173395LILM960721CL7     4000254200009045374373970000000003311180000000                                                                                MARGARITA SILVIA LINARES LOPEZ          PAGO INTERBANCARIO                      
33806792MAGR910117E37     4000210000009043598523720000000008091850000000                                                                                REYNA MANDUJANO GONZALEZ                PAGO INTERBANCARIO                      
33973693SAAY920828IJ7     4000261600009045539988140000000005284690000000                                                                                YOBANA SANCHEZ ANTONIO                  PAGO INTERBANCARIO                      
31643000NIRD900121IN1     4000218000009046474483400000000004478170000000                                                                                DALIA LIZBETH NICIO RUIZ                PAGO INTERBANCARIO                      
35440423AARO9306017F8     4000273000009046071666690000000004876780000000                                                                                OSCAR LUCIANO ALMARAL RODRIGUEZ         PAGO INTERBANCARIO                      
35956791SAAA980515BE0     4000218000007014727710320000000005284690000000                                                                                ALEJANDRO SANCHEZ ALQUICIRA             PAGO INTERBANCARIO                      
35215469GUIA910104V71     4000218000009020167030580000000003621330000000                                                                                ARTURO GUZMAN IBANEZ                    PAGO INTERBANCARIO                      
31089129FOEM910822KB5     4000218000009023316261110000000004478170000000                                                                                MIRIAM FLORES ECHEVERRIA                PAGO INTERBANCARIO                      
33431553XORL950123UI2     4000218000009046034523410000000003621340000000                                                                                LUIS ANTONIO XOSPA RODRIGUEZ            PAGO INTERBANCARIO                      
35873666LALY9801034KA     4000202800009043603840180000000004050760000000                                                                                YOCELYN LAZCANO LOSOYA                  PAGO INTERBANCARIO                      
35077296LUSY870919P7A     4002142000000646224727500000000009294730000000                                                                                YEIRA LUCAS SALAZAR                     PAGO INTERBANCARIO                      
32739961DILM950627T60     4002188800000645106164640000000004478170000000                                                                                MARTHA PATRICIA DIEGO LARA              PAGO INTERBANCARIO                      
33233128GAEK850903AQ2     4002177700000634432651040000000005537600000000                                                                                KARINA GRACIA ENRIQUEZ                  PAGO INTERBANCARIO                      
31182848VEMV9109262Y9     4002177000000642302421900000000006694360000000                                                                                VIRIDIANA DEL CARMEN VELAZQUEZ MACIAS   PAGO INTERBANCARIO                      
31619704GORJ901220197     4002154000000640738405070000000003311180000000                                                                                MARIA DE JESUS GONZALEZ ROSALES         PAGO INTERBANCARIO                      
33071449CAGX870708716     4002118000000648052024010000000004565340000000                                                                                ADRIANA ELIZABETH CAPI GARCIA           PAGO INTERBANCARIO                      
36683813LOSD921211HQ2     4003018000009000202381980000000004994600000000                                                                                DANIEL LONGINO SALVADOR                 PAGO INTERBANCARIO                      
35188667FOOA970819GJ6     4003029000009000221426510000000004978170000000                                                                                ANGELICA FLORES OLVERA                  PAGO INTERBANCARIO                      
33113453MAAL8907039H5     4004410000000850798937760000000004056600000000                                                                                LUIS EMMANUEL MALDONADO ALCAZAR         PAGO INTERBANCARIO                      
36967238AARV9208071Y9     4004477700002560304266580000000004059570000000                                                                                VICTOR ALONSO AYALA RUELAS              PAGO INTERBANCARIO                      
36230625HESI931021MM9     4007265000000032265279460000000005284690000000                                                                                MARIA INES HERNANDEZ SANCHEZ            PAGO INTERBANCARIO                      
33052627LAAG941120GD7     4007284000000102320818710000000004478170000000                                                                                GUILLERMO LARA AVENDANO                 PAGO INTERBANCARIO                      
33644723BAVM891221U49     4007218000000035710404440000000006448730000000                                                                                MARCO ANTONIO BAUTISTA VICENCIO         PAGO INTERBANCARIO                      
32096799AEMT900705B23     4007265000000028926143100000000005284690000000                                                                                MARIA TRINIDAD ASCENCIO MEDINA          PAGO INTERBANCARIO                      
34263719SEVM890105E45     4007218000000025539036360000000007592070000000                                                                                MARCO ANTONIO SEVILLA VAZQUEZ           PAGO INTERBANCARIO                      
36557370BEHM8702159G4     4007254200000028871699880000000007963360000000                                                                                MONICA LIZBETH BEDOLLA HERNANDEZ        PAGO INTERBANCARIO                      
34956065VERS8504228JA     4007270000000114381740580000000004053590000000                                                                                SUGHEY GUADALUPE VELASCO ROBALDINO      PAGO INTERBANCARIO                      
33215515RURM940217FZ1     4007210000000059297341600000000003621340000000                                                                                MIGUEL ALEJANDRO RUIZ RUIZ              PAGO INTERBANCARIO                      
32992731CODF920410RK2     4007269100000115138435910000000004056600000000                                                                                MARIA FERNANDA COUOH DIAZ               PAGO INTERBANCARIO                      
33873369MACF941108UA9     4012732000000137058582750000000004056600000000                                                                                FERNANDO EMMANUEL MARTINEZ CEJA         PAGO INTERBANCARIO                      
35155044OEGP9811084C0     4012718000000135393511330000000003621340000000                                                                                PAMELA VIANEY OLVERA GARCIA             PAGO INTERBANCARIO                      
35412532SAEL850530692     4012758000000139358298720000000004056600000000                                                                                LAURA BERENICE SANCHEZ ESQUIVEL         PAGO INTERBANCARIO                      
31119127NUOD950525N3A     4012718000000015760546410000000003621340000000                                                                                DANIEL NUNEZ OLIVARES                   PAGO INTERBANCARIO                      
36594572DICH9811222N9     4012718000000137174189820000000004056620000000                                                                                HASIBI DENNIS DIAZ CRUZ                 PAGO INTERBANCARIO                      
35132480GUAJ870517PKA     4012718000000136020629190000000005286290000000                                                                                JAIMY GABRIELA GUERRERO ALVAREZ         PAGO INTERBANCARIO                      
35808903SATA990519MU8     4012718000000015950572630000000003057280000000                                                                                ARMANDO MANUEL SANCHEZ TORRES           PAGO INTERBANCARIO                      
36589847MEAO960826KC2     4012771100000015563442610000000003344070000000                                                                                OSSIEL MENDEZ ALVAREZ                   PAGO INTERBANCARIO                      
35442773COQC960813PY6     4012718000000135070564150000000004565340000000                                                                                CARLOS ALBERTO CORTES QUIROZ            PAGO INTERBANCARIO                      
33148456HEPI801105512     4012718000000014089162550000000011264140000000                                                                                IVAN HERNANDEZ PEREZ                    PAGO INTERBANCARIO                      
34138650TOLG920807K57     4012713000000134428100670000000005828040000000                                                                                GADIEL UZIEL TOVILLA LOPEZ              PAGO INTERBANCARIO                      
35160179RIGM941003C43     4012743000000133399738140000000004478170000000                                                                                MIRIAM RIVAS GONZALEZ                   PAGO INTERBANCARIO                      
34830716AABG92022076A     4012718000000131683179040000000004478170000000                                                                                GLORIA IVONNE ALAVEZ BARRERA            PAGO INTERBANCARIO                      
36079177AABL940306LZ9     4012754200000012154614760000000003621340000000                                                                                LILIANA ALDANA BAUTISTA                 PAGO INTERBANCARIO                      
32917737MOCS920407VA3     4012791000000135055613920000000003856510000000                                                                                SHUBERT IBRAHIM MOO CHI                 PAGO INTERBANCARIO                      
31913304MAHC8311171F3     4012785500000013838639810000000007984790000000                                                                                CAROLINA MARTINEZ HILARIO               PAGO INTERBANCARIO                      
36309563AUBA9306184HA     4012791000000135914347630000000005284690000000                                                                                ANTONIO EDUARDO AGUILAR BUENFIL         PAGO INTERBANCARIO                      
33870862RIGA970108RPA     4012710000000013394996010000000004478170000000                                                                                ANEL SAHIAN RIZO GALINDO                PAGO INTERBANCARIO                      
36656036PEFS9205061M7     4012765000000012932598220000000003102380000000                                                                                SANDRA LIZBETH PEREZ FLORES             PAGO INTERBANCARIO                      
36397286TECJ941127672     4012769100000132232071470000000004886080000000                                                                                JADE SHUHEI TEC CHAN                    PAGO INTERBANCARIO                      
36687038LEHF921125AJ4     4012718000000012456352650000000004365830000000                                                                                FERNANDA LEYVA HERNANDEZ                PAGO INTERBANCARIO                      
33295911ROPV8204187I9     4012765000000131508009200000000004478170000000                                                                                VIRGINIA DE LA ROSA PARRA               PAGO INTERBANCARIO                      
32346831CALR861128LQA     4013778000001001310792680000000003805060000000                                                                                ROCIO EUNICE CHAVEZ LOPEZ               PAGO INTERBANCARIO                      
31414731ROAY960318E97     4013710000001017441709710000000002833560000000                                                                                YEREMIT CASANDRA RODRIGUEZ ARELLANO     PAGO INTERBANCARIO                      
34409614JIEJ8508032R4     4013767100001036952786530000000005201120000000                                                                                JAQUELINE JIMENEZ ESPINOZA              PAGO INTERBANCARIO                      
32551207ROGA961218NH4     4013765000001021481000540000000004478170000000                                                                                ALONDRA ROMERO GONZALEZ                 PAGO INTERBANCARIO                      
31120767RIAE921012QP9     4013742000001034578737800000000003387160000000                                                                                EVELIN PILAR RIVERA AVILES              PAGO INTERBANCARIO                      
31162068GORK920320984     4013726100001011003053970000000004478170000000                                                                                KARLA ISABEL GODINEZ RADILLA            PAGO INTERBANCARIO                      
32876894GUCC9609016N6     4013710000001040789952690000000004478170000000                                                                                CAROL SHUNASHI GUTIERREZ CIRIACO        PAGO INTERBANCARIO                      
34379281VESC910215NV5     4013718000001041845745230000000005614790000000                                                                                CLAUDIA ADRIANA VEGA SERRET             PAGO INTERBANCARIO                      
35883052NUGR820820MX1     4013784900001018087122060000000004478170000000                                                                                REYNA GUADALUPE NUNEZ GARCIA            PAGO INTERBANCARIO                      
32000726JICM930716RH2     4013781300001041842508970000000005284690000000                                                                                MARCO ANTONIO JIMENEZ CASTILLO          PAGO INTERBANCARIO                      
32999953RURJ911008NS7     4013718000001040439417210000000004056600000000                                                                                JOSELYNE ALEJANDRA RUIZ ROMERO          PAGO INTERBANCARIO                      
