000000001                990469678913          000000000209825IVAN YAIR RODRIGUEZ OSORNO              001001
000000002                991543481662          000000000244000JORGE LUIS ESTEBAN CARRASCO             001001
000000003                991413149579          000000000192000GERARDO MORENO GUTIERREZ                001001
000000004                991502358252          000000000168500EDGAR GIOVANNI MILLAN OCAMPO            001001
000000005                992998480656          000000000262000REYNALDO GARCIA MENDOZA                 001001
000000006                991524758371          000000000033895TANIA GABRIELA RUFINO BAZALDUA          001001
000000007                991422940132          000000000354024EFRAIN CUEVAS DOMINGUEZ                 001001
000000008                992971770888          000000000034450LIZBETH GONZALEZ MARQUEZ                001001
000000009                991145412234          000000000158231ROSA MARIA MENA ORTEGA                  001001
000000010                992871921770          000000000177070DORA ALICIA MONTIEL MARTINEZ            001001
000000011                991515221412          000000000265000JESUS GOMEZ SANCHEZ                     001001
000000012                991139496874          000000000194550ANABEL ANASTACIO ARZOLA                 001001
000000013                991549632077          000000000192000MARIA GUADALUPE NUNO GALINDO            001001
000000014                992953018415          000000000262000ALELY GOMEZ DOMINGUEZ                   001001
000000015                991552654768          000000000168500JANUARY ANAI CALVILLO JUAREZ            001001
000000016                991510336009          000000000284700MA DEL RAYITO VEANA CRUZ                001001
000000017                991561275682          000000000204070BEATRIZ RODRIGUEZ GARRIDO               001001
000000018                991549073309          000000000316545MARIA DEL CARMEN NAVARRETE ALONSO       001001
000000019                991560219967          000000000033895YOLANDA SALGADO GONZALEZ                001001
000000020                991559875573          000000000033895EDUARDO FLORES HERNANDEZ                001001
000000021                991569098216          000000000123500JOSE RAUL MORALES CARSOLIO              001001
000000022                992850197424          000000000097150MARIA EUGENIA CARDENAS CHAVEZ           001001
000000023                992865671175          000000000190650ALBERTO DIAZ PEREZ                      001001
000000024                991581745484          000000000102150MARCO ANTONIO LANDA SANCHEZ             001001
000000025                991507744315          000000000033895VICTORIA EDITH ZARAGOZA MEDINA          001001
000000026                991126446477          000000000255530NUBIA ESTEFANIA BALDERAS LOPEZ          001001
000000027                992933921476          000000000195500NANCY BERENICE GAONA MARTINEZ           001001
000000028                991507829684          000000000033895ARLENE RODRIGUEZ NAVA                   001001
000000029                991262976692          000000000207000VERONICA LETICIA SOLIS TORRES           001001
000000030                991521215127          000000000142250DAVID FELIPE ALEJO PEREZ                001001
000000031                991519237600          000000000024790GRACIELA MUNOZ ORTEGA                   001001
000000032                991545399125          000000000167000ONESIMO CRUZ HERNANDEZ                  001001
000000033                991449795952          000000000088500ANGELICA SANCHEZ LEON                   001001
000000034                991553682943          000000000117000MARITZA GUTIERREZ RAMIREZ               001001
000000035                991577602939          000000000256650MIRIAM JAEL FERNANDEZ ARANDA            001001
000000036                992959211969          000000000298114ALEJANDRO AYALA PALACIOS                001001
000000037                991553137620          000000000092000SAMUEL ABIZAI GAMBOA MEZA               001001
000000038                991526392702          000000000115400MARIA DEL ROSARIO OCON CASTILLO         001001
000000039                991556924479          000000000172200SUSANA LOPEZ MARTINEZ                   001001
000000040                991554969394          000000000195260SANDRA XOCHIQUETZAL GONZALEZ SUAREZ     001001
000000041                991190394114          000000000134272SANTA ESMERALDA MEDINA PARRA            001001
000000042                991573772554          000000000170093NADXIELLY PAOLA AGUIRRE CHARIS          001001
000000043                991571600471          000000000397525JOSE JUAN SOTO SANCHEZ                  001001
000000044                992841923080          000000000197600JOSE RUBEN SANCHEZ BAUTISTA             001001
000000045                992930316881          000000000154000MARLENE GONZALEZ CHAGOYA                001001
000000046                992890995045          000000000093400LAURA YANET GARCIA RODRIGUEZ            001001
000000047                991239931627          000000000193341JOSE MARTIN SERGIO LIMON HERNANDEZ      001001
000000048                991445243947          000000000031388ALAIN URBINA ALVAREZ                    001001
000000049                991503265869          000000000109080ROSA ELVA COVARRUBIAS GUTIERREZ         001001
000000050                992969404074          000000000092000FRANCISCO ADRIAN RUIZ GARCIA            001001
000000051                991519135103          000000000088500MIRIAM PATRICIA ROSAS AREVALO           001001
000000052                991568890919          000000000119895CYNTIA GABRIELA GARCIA RANGEL           001001
000000053                991582163179          000000000102900JOSE ALBERTO RODRIGUEZ DOMINGUEZ        001001
000000054                991573902814          000000000224620ERIKA SILVERIO ABASOLO                  001001
000000055                991545643557          000000000384000ALEJANDRO GUZMAN GARCIA                 001001
000000056                991570114033          000000000101000GABRIELA MENDEZ HERRADA                 001001
000000057                991521127660          000000000351575SUGEY MARTINEZ ARREAGA                  001001
000000058                991110228648          000000000077000ROSALBA DOMINGUEZ RAMIREZ               001001
000000059                991526587515          000000000102000MAYRA ALEJANDRA FELICIANO GARCIA        001001
000000060                992730459275          000000000372250JOSE FRANCISCO TORRES ARANDA            001001
000000061                991579511124          000000000216160OSVALDO AARON MEJIA LOPEZ               001001
000000062                990462502321          000000000454748ROBERTO OSCAR DELGADO RAMIREZ           001001
000000063                991591166878          000000000153000MARIA GUADALUPE GONZALEZ MARTINEZ       001001
000000064                991535807959          000000000177356CESAR RAUL MUNOZ MOSQUEDA               001001
000000065                991539620451          000000000186880SOFIA BERENICE RUIZ FUENTES             001001
000000066                991502466772          000000000098400ELIZABETH RAMOS GARCIA                  001001
000000067                992871718568          000000000273000AZUCENA RODRIGUEZ OCHOA                 001001
000000068                991505065999          000000000154960AMELIA JIMENEZ HERNANDEZ                001001
000000069                991508383801          000000000099000DAVID GUADALUPE ANGULO VALADEZ          001001
000000070                991588233350          000000000102900ARANELI BETZABEH CARDENAS BECERRA       001001
000000071                991527541590          000000000211425OSCAR CASCO GUZMAN                      001001
000000072                991551546361          000000000185508JONATHAN SANCHEZ VILLALVA               001001
000000073                991508908475          000000001096994MARIA GUADALUPE AVALOS SANTACRUZ        001001
000000074                990462286629          000000000133400JULIAN MORA                             001001
000000075                991172902524          000000000142000ROBERTO AVINA MARTINEZ                  001001
000000076                990461830635          000000000146342JOSE JAIME VELASQUEZ MONTES             001001
000000077                992995840686          000000000118200ARGEL ALBERTO GONZALEZ RODRIGUEZ        001001
000000078                991518892722          000000000102000JAZMIN DEL CARMEN CONTRERAS MAGANA      001001
000000079                992856539270          000000000152800FERMIN MEZA REYES                       001001
000000080                991579331402          000000000096500MISAEL DE JESUS CASILLAS GOMEZ          001001
000000081                991579553244          000000000116380ARIEL HERNANDEZ VAZQUEZ                 001001
000000082                991553734563          000000000105400MARTHA LETICIA ORTIZ GONZALEZ DE SALCE  001001
000000083                991514290232          000000000092000PEDRO DE LA VEGA BELTRAN                001001
000000084                991586820212          000000000147000IRVIN JESUS TIRADO TORRES               001001
000000085                991548550557          000000000032000EVER LIRA SANCHEZ                       001001
000000086                991542265148          000000000126158ANTONIO DE JESUS GUERRERO ALARCON       001001
000000087                991507478855          000000000032000ILIANYT PEREZ GOMEZ                     001001
000000088                991111774875          000000000032000FERNANDO SANCHEZ JIMENEZ                001001
000000089                992847473419          000000000273236ALEJANDRA MORALES SUASTEGUI             001001
000000090                992929960643          000000000099500EDUARDO ARMANDO FERIA VILLAR            001001
000000091                991519507861          000000000109500PEDRO ANDRES LOPEZ BELLO                001001
000000092                991508255639          000000000032000FRANCISCA QUINONES OCAMPO               001001
000000093                991513778196          000000000072000JANNEY GLORIA CRUZ ESCALANTE            001001
000000094                991551721704          000000000032000FERNANDO SANTOS CASTELLANOS MORALES     001001
000000095                991565770338          000000000042000ARELY VIVIANA BALVERDI NAVA             001001
000000096                991599604574          000000000087640NINFA YARELY ZAVALA CASTILLA            001001
000000097                991591625473          000000000072000JULIO CESAR VILLEGAS CRUZ               001001
000000098                991551071782          000000000077000VANIA GUERRERO TORRES                   001001
000000099                991507522972          000000000032000JOSE DE JESUS LIRA MUNGUIA              001001
000000100                991500758755          000000000032000MAURICIO FLORES ORTIZ                   001001
000000101                992886057047          000000000121525JESUS DAVID SOLIS ARCINIEGA             001001
000000102                991562135933          000000000082000MIGUEL ANGEL FERNANDEZ MARTINEZ         001001
000000103                991520221104          000000000021364KARINA LISSET REBOLLAR CAMACHO          001001
000000104                991573115024          000000000032000NOHEMI RAMIREZ ROSALES                  001001
000000105                992724628144          000000000042000JORGE ALEJANDRO ONOFRE SOTO             001001
000000106                991568792879          000000000088500MARIO ANDRES FLORES RUBIO               001001
000000107                991597111561          000000000032000ALEJANDRA ALEMAN APODACA                001001
000000108                991556580919          000000000032000LINDA ESMERALDA SIMON HERNANDEZ         001001
000000109                991520237068          000000000072000ANA KARINA CRUZ AYALA                   001001
000000110                991537337512          000000000042000SANDIVEL BARON GUZMAN                   001001
000000111                991585237726          000000000088500DIANA YVETTE ROJAS SANCHEZ              001001
000000112                991538607948          000000000072000OSBANI GIL FLORES                       001001
000000113                991558403494          000000000032000AMANDA EHEKAMITL ITXPAPALOTL LEYVA CAR  001001
000000114                991530808261          000000000072000ROSA BLANCAS OCADIZ                     001001
000000115                992992661373          000000000061333FERNANDO  GUTIERREZ  TORRES             001001
000000116                991571615656          000000000061333ANA ROSA MONTES ATANACIO                001001
000000117                991553392381          000000000061333ANDREI GIOVANNI MILLAN SANCHEZ          001001
000000118                991543869888          000000000072000DOMINGO CESAR HUERTA SALGADO            001001
000000119                992754274342          000000000045333LETICIA ESTRADA  GARCIA                 001001
000000120                991545758194          000000000042667DANIEL ALFARO FLORES                    001001
000000121                991579040598          000000000072000SERGIO VILLA  ALVAREZ                   001001
000000122                991506834806          000000000032000OSCAR VENOZA CALVA                      001001
000000123                991575081061          000000000042000RAFAEL ALEJANDRO DIAZ ENRIQUEZ          001001
000000124                991559271999          000000000042000ADRIANA CASTILLO AVILA                  001001
000000125                991583853683          000000000035333FERNANDO ARTURO VALDOVINOS  HERNANDEZ   001001
000000126                991531855860          000000000316980DANIEL ARIZMENDI GARCIA                 001001
000000127                991551726714          000000000142000VICTOR HUGO CRUZ VALDOVINOS             001001
000000128                991563417057          000000000032000WILBERT ALEXIS GARCIA SANCHEZ           001001
000000129                991587161355          000000000088500ARTURO IVAN GARCIA CRUZ                 001001
000000130                991546107369          000000000088500ABRAHAM MAXIMILIANO MENDOZA DURAN       001001
000000131                991544805464          000000000214075ALEJANDRO DANIEL AVILES                 001001
000000132                991532023811          000000000072000FABIAN      GASPARIANO TLATELPA         001001
000000133                991567654084          000000000042000LUIS ENRIQUE  MARTINEZ RAMIREZ          001001
000000134                992981267647          000000000072000VICTOR MANUEL ROSAS PICHARDO            001001
000000135                991565051770          000000000122000LILIA BAHENA GARCIA                     001001
000000136                991591577363          000000000072000HECTOR  VAZQUEZ SANCHEZ                 001001
000000137                991564189854          000000000122000JOSE JUAN CASTANON NIGENDA              001001
000000138                991549161093          000000000042000OSKAR JAIME RAMIREZ HERNANDEZ           001001
000000139                991560698013          000000000072000BRISA ITZEL TELLEZ HUERTA               001001
000000140                991559758788          000000000032000ERIKA JOCELYN MONSIVAIS AVILA           001001
000000141                992933254216          000000000436400JUAN GERARDO SILVA DEL ANGEL            001001
000000142                991559542741          000000000092000ERANDI RIVERA RODRIGUEZ                 001001
000000143                991553144097          000000000197000LUIS ENRIQUE ALCALA RAMIREZ             001001
000000144                991562058793          000000000072000CELIA URSULA DE LOS ANGELES VELAZQUEZ   001001
000000145                991560721448          000000000122000ELENA LEON  VALLE                       001001
000000146                991521782085          000000000072000YAZMIN ISABEL MONTIEL LOPEZ             001001
000000147                991595865614          000000000072000JOAN OLIVAN GARCIA                      001001
000000148                991550158839          000000000042000MIRIAM ITZEL MARTINEZ HERRERA           001001
000000149                991573242075          000000000072000DAVID  LOPEZ  MELENDEZ                  001001
000000150                992986014607          000000000042667AMAIRANY RODRIGUEZ  SILVA               001001
000000151                992905443016          000000000122000EDITH HERNANDEZ ROSALES                 001001
000000152                991573601873          000000000092000BRAYAN JOVANNY SALAZAR HERNANDEZ        001001
000000153                991582867519          000000000122000HECTOR MAURICIO HERNANDEZ PERALES       001001
000000154                991551988236          000000000108667RICARDO BAILON SIERRA                   001001
000000155                991561428993          000000000072000JOSE LUIS SALGADO  RODRIGUEZ            001001
000000156                991563435451          000000000072000LUIS REY CARRERA GONZALEZ               001001
000000157                991509337172          000000000072000JONATAN MISAEL MENDOZA REYES            001001
000000158                991561452743          000000000075333LUIS ALBERTO JUAREZ MENDOZA             001001
000000159                992955040485          000000000154800ALFREDO HUSIM KU ALBARRAN               001001
000000160                991559729367          000000000092000ALEJANDRA TOBON BELLO                   001001
000000161                991563062786          000000000032000DULCE MARIA ZANABRIGA MENDOZA           001001
000000162                991588609597          000000000155600JESUS EDUARDO HERNANDEZ MARTINEZ        001001
000000163                991592352454          000000000032000HERMELINDO ESTEBAN VELASCO LOPEZ        001001
000000164                992877626657          000000000155600MISAEL VICENTE FLORES HUESCA            001001
000000165                991568047718          000000000122000MARIA FERNANDA RAMOS RAMOS              001001
000000166                991501242660          000000000150768YASUNARI YAHOLLOSI FABILA               001001
000000167                991500505673          000000000082000CASSANDRA HERNANDEZ BOTELLO             001001
000000168                991509432854          000000000019360KATIA BERENICE PUEBLAS SEGURA           001001
000000169                991530751289          000000000226320ANGELICA FABIOLA IZARRARAS VERA         001001
000000170                991536280924          000000000259720NADYA AMERICA LOPEZ ELIZALDE            001001
000000171                991556191050          000000000082000ERIKA YAZMIN SAUCEDA GARCIA             001001
000000172                991557720486          000000000032000XOCHITL RUIZ VELAZQUEZ                  001001
000000173                991556139784          000000000091040LUIS ANGEL AGUIRRE CRUZ                 001001
000000174                992934414624          000000000217400TANIA VANESSA BAUTISTA RENDON           001001
000000175                991555371411          000000000134832MARIA GUADALUPE TEJADIO SANCHEZ         001001
000000176                991556343015          000000001096446JOSE LUIS ARTURO SANCHEZ MAXIMO         001001
000000177                991514658895          000000000072000MOISES PEREZ HUERTA                     001001
000000178                991533847210          000000000082000ALICIA RESENDIZ ALVARADO                001001
000000179                991537445547          000000000092000PATRICIA PAZARAN ALVAREZ                001001
000000180                991513956455          000000000142000DIEGO ALBERTO RUPERTO RAMIREZ           001001
000000181                991535226616          000000000111984ANDREA VICTORIO CUELLAR                 001001
000000182                992944447689          000000000042000RAFAEL ANGELES CARRANZA                 001001
000000183                991569200854          000000000077000SHARON WENDOLIN VARGAS LARA             001001
000000184                991552997718          000000000092000ABRAHAM CRUZ LOPEZ                      001001
000000185                991542505395          000000000077000JAVIER ESCOBAR LORA                     001001
000000186                991549139041          000000000076667EVELINE CAROLINA DE LA ROSA VELAZQUEZ   001001
000000187                991548671386          000000000157200TANIA MICHEL SANTOS FLORES              001001
000000188                991515387007          000000000032000DANIELA ABIGAIL AMAYA SALVADOR          001001
000000189                991509319775          000000000244600BRAULIO JAFET HERMOSILLO MORENO         001001
000000190                991543349702          000000000151000GUADALUPE JENIFFER MARTINEZ JIMENEZ     001001
000000191                991525529295          000000000137640ALFONSO ANDRES JIMENEZ                  001001
000000192                992798115974          000000000082000ERIKA CARRETO DIEGO                     001001
000000193                991589437480          000000000396920NAYELI ALVAREZ RIVERA                   001001
000000194                991247058195          000000000082000ESPERANZA GUADALUPE HERNANDEZ HERNANDE  001001
000000195                991501444682          000000000082000JUAN OMAR BARCENAS MARQUEZ              001001
000000196                991551944093          000000000077000LEOPOLDO ISRAEL ORDONEZ AGUILAR         001001
000000197                991557320356          000000000082000JOSE JUAN DURAN LIRA                    001001
000000198                991521966169          000000000072000ARI DANIEL REBOLLAR SANCHEZ             001001
000000199                991242216957          000000000323625ROSARIO LARA RAMIREZ                    001001
000000200                991511134374          000000000032000VIRGINIA MARTINEZ LOPEZ                 001001
000000201                991503158376          000000000032000MIGUEL ANGEL MAZATZI NAVA               001001
000000202                991528981198          000000000092000CARLOS HIPOLITO ANGULO                  001001
000000203                991547548920          000000000032000JENNY  DEL  ROCIO MORENO GALLARDO       001001
000000204                991538091940          000000000032000ANTONIA SARAI CRUZ LUNA                 001001
000000205                991560410179          000000000128376KARLA VIANEY CASTILLO RODRIGUEZ         001001
000000206                991507740839          000000000238256DELFINA GUADALUPE GARCIA VEGA           001001
000000207                992851162454          000000000411496CARLOS HERNANDEZ CRUZ                   001001
000000208                991546829411          000000000032000MARIA DEL CARMEN PACHECO GREGORIO       001001
000000209                991578787860          000000000032000LIZBETH SARAI BALDERAS BRIONES          001001
000000210                991547854126          000000000275556ERIK EDUARDO SANCHEZ CASTANEDA          001001
000000211                991510517239          000000000072000ISAIAS FELIX PEREZ GUTIERREZ            001001
000000212                991540465383          000000000077000SAMANTHA SEVILLA CORDOVA                001001
000000213                992995487005          000000000172640CRISTOPHER GARCIA ALVAREZ               001001
000000214                991525738888          000000000072000MANUEL AGUILAR JIMENEZ                  001001
000000215                991524361145          000000000124000DANIELA EBENEZER GONZALEZ ROJAS         001001
000000216                991531182407          000000000327060EMMANUEL MEDRANO CRUZ                   001001
000000217                992881291785          000000000145484VERONICA RAMOS HERNANDEZ                001001
000000218                991590213678          000000000072000FABIOLA CASTILLO OCAMPO                 001001
000000219                991553147665          000000000132000JAZMIN GALICIA MILLAN                   001001
000000220                991599631804          000000000032000JONATHAN COLUNGA SANTIAGO               001001
000000221                991532729268          000000000182760KARLA EDNEY HERNANDEZ GARCIA            001001
000000222                991518988045          000000000202600CARLOS ALBERTO RODRIGUEZ CRUZ           001001
000000223                991591530006          000000000161900JULIO CESAR REYES LEON                  001001
000000224                991579096453          000000000218380SONIA LESLIE MENDEZ CASTRO              001001
000000225                991122802341          000000000032000LEOBARDO FRANKLIN OLIVARES HERNANDEZ    001001
000000226                991582140624          000000000175176BLANCA MONICA GUERRERO CASTILLO         001001
000000227                991501553879          000000000087640NANCY BERENICE SANCHEZ CANO             001001
000000228                991514154921          000000000274644ARANDELI ALEJANDRO HERNANDEZ            001001
000000229                991254824865          000000000110000MISAEL RAMIREZ RIOS                     001001
000000230                992735329965          000000000149250SERGIO MEDINA SOTO                      001001
000000231                991550310859          000000000136680HILDA GUADALUPE DIAZ PEREZ              001001
000000232                991502601458          000000000162000JUANA ALEJANDRA MARTINEZ GLORIA         001001
000000233                991552970671          000000000102000EDGAR ROMERO ZERMENO                    001001
000000234                991554733978          000000000090768MONICA LOPEZ RODRIGUEZ                  001001
000000235                991507564565          000000000118200MARIA EUGENIA ALEJANDRA GARCIA GOMEZ    001001
000000236                991552127733          000000000122100BLANCA ALELI ROSAS DE LOS SANTOS        001001
000000237                991594067897          000000000191652EDGAR SAUL GUEVARA LARA                 001001
000000238                992759796991          000000000216860IVONNE ANGEL TORREBLANCA                001001
000000239                992799510311          000000000273240ERIKA NATALIA JARAMILLO HERNANDEZ       001001
000000240                991527789251          000000000149600GERARDO ANTONIO CHAVARRIA CASTILLO      001001
000000241                991532004523          000000000082000LUIS DE JESUS CONSUEGRA PEREZ           001001
000000242                991534373517          000000000154640YESSICA GONZALEZ PEREZ                  001001
000000243                991420039519          000000000257720ESTELA SOTO ROSAS                       001001
000000244                991494132661          000000000169204DAVID ZARATE GARCIA                     001001
000000245                991503212907          000000000494444LUIS DARIO ESTRADA GREGORIO             001001
000000246                992665979412          000000000435000EMMANUEL MENDEZ NERI                    001001
000000247                992688688443          000000000326840ANGELICA HERNANDEZ CAZAREZ              001001
000000248                991550892804          000000000634059CYNTHIA LIDIA TRUJILLO MUNOZ            001001
000000249                991420039357          000000000553719MARIA ISABEL RAMOS AVILA                001001
000000250                991509126658          000000000287664GERARDO DANIEL GUTIERREZ GOMEZ          001001
000000251                991577160909          000000000197000FRANCISCO REYES ARISTA                  001001
000000252                991519458144          000000000200175LINDA CHAVEZ SIFUENTES                  001001
000000253                991121480251          000000000081500MARIA GUADALUPE FLORES CASTILLO         001001
000000254                992985358221          000000000654799NOEMI MIGUEL ORTIZ                      001001
000000255                991164153324          000000000305000SANDRA MARTINEZ FERRER                  001001
000000256                991162976757          000000000142150LUCERO VALENCIA ARIAS                   001001
000000257                992690988707          000000000033895GRACIELA CAMACHO GONZALEZ               001001
000000258                991512135922          000000000250438LIZBETH GARCIA LEON                     001001
000000259                990458111308          000000000033895ROSA ISELA LUNA MAYA                    001001
000000260                992892164574          000000000173550OSCAR ALEXANDER MARTINEZ JIMENEZ        001001
000000261                991504838866          000000000152150VERONICA MARTINEZ HERNANDEZ             001001
000000262                992998258910          000000000427395NOEMI CASTRO OLVERA                     001001
000000263                991516592201          000000000052000GLADIS KARINA SOTO HERNANDEZ            001001
000000264                991541574337          000000000144650LILIA TINAJERO VAZQUEZ                  001001
000000265                991545860407          000000000269054ALMA JOSEFINA LUCERO BRAVO              001001
000000266                991578928754          000000000123895MARIA TERESA GARCIA DOMINGUEZ           001001
000000267                991534864433          000000000252000MARISELA MARCIAL ESQUIVEL               001001
000000268                991572277239          000000000050842MARBELL DE JESUS ROJAS PEREZ            001001
000000269                991500592824          000000000196210MARIA TERESA MOLINA LICONA              001001
000000270                991554742080          000000000075676GUILLERMO ORTUNO MENA                   001001
000000271                991553681955          000000000336060MARIA DEL PILAR PASTRANA OTAMENDI       001001
000000272                991580005509          000000000025895BLANCA ESTELA REYES HERNANDEZ           001001
000000273                991505631696          000000000033895NADIA GRISEL PEREZ SANDOVAL             001001
000000274                991570457116          000000000029150HERMELINDA ROSALES VARGAS               001001
000000275                991510974355          000000000388863ERIC OBED PARRA COTA                    001001
000000276                990468887233          000000000303000MAURICIO GARCIA CASILLAS                001001
000000277                991579359110          000000000170900CRISTINA VAZQUEZ ORTIZ                  001001
000000278                991504329619          000000003268280ILIANA DE SILVA MUNOZ                   001001
000000279                992957771150          000000000293100MARIA GUADALUPE DONATO CONTRERAS        001001
000000280                991538013357          000000000628400ERIKA MERARI REYES SAMPERIO             001001
000000281                991574276124          000000000125200FRANCISCO JAVIER HURTADO LUNA           001001
000000282                990462030381          000000000025000PAUL JORGE BERMUDEZ HERNANDEZ           001001
000000283                991526104282          000000000282736JORGE LUIS HERNANDEZ TIBURCIO           001001
000000284                992968608717          000000000482380ELIZABETH SANCHEZ PEREZ                 001001
000000285                991537924189          000000000398314MIGUEL ANGEL NAVARRO PEREZ              001001
000000286                991538665730          000000000223420BENJAMIN MIROS GONZALEZ                 001001
000000287                991528273670          000000000158800JOSE DE JESUS MENDEZ YEPEZ              001001
000000288                991134991532          000000000036500ARSENIO MORENO SOLANO                   001001
000000289                991520771503          000000000088500RAUL ARVIZU GONZALEZ                    001001
000000290                991152097656          000000002167548CARMELO DE LUNA CORTES                  001001
000000291                991503161300          000000000428132MARGARITA SERRALDE ESPINOZA             001001
000000292                991513536168          000000000275350DAVID BAUTISTA RIOS                     001001
000000293                991525005571          000000000017390NORMA ELSA LUNA RANGEL                  001001
000000294                991526736726          000000000072000GRACIELA CORTES ZUNIGA                  001001
000000295                991501468106          000000000179870PAULINO CALLEJA GARCIA                  001001
000000296                990463520919          000000000358575LUIS ANGEL GARCES JIMENEZ               001001
000000297                992994978048          000000000127000JOSE ROBERTO HERNANDEZ HERNANDEZ        001001
000000298                991517835950          000000000198696OLIVA HERNANDEZ VASQUEZ                 001001
000000299                991503950557          000000000208000SOFIA LIZBETH CORDOBA GONZALEZ          001001
000000300                991588726577          000000000104800MIRNA VIRIDIANA MANRIQUEZ CHAVERO       001001
000000301                991576425766          000000000294892LIZBETH DANIELA GODINEZ HERNANDEZ       001001
000000302                991525404408          000000000641010JOSE JUAN CUAMATZI PEREZ                001001
000000303                991527798776          000000000350200GABRIEL MARTINEZ NERI                   001001
000000304                991585036801          000000000202000FERNANDO VELAZQUEZ VELIZ                001001
000000305                991546510500          000000000095000GUSTAVO HUGO HILARIO MONROY             001001
000000306                991528121799          000000000055700MANUEL FELIPE AMAYA REYES               001001
000000307                991573776754          000000000213500JUAN ALBERTO FLORES SOLIS               001001
000000308                991575478812          000000000509540ABILENE MARISOL BECERRA HERNANDEZ       001001
000000309                991500679727          000000000488444MARIO ALBERTO DIAZ QUINTERO             001001
000000310                991544754266          000000000260720MIRNA DIAZ HERNANDEZ                    001001
000000311                991501390859          000000000132000VANESA OVANDO ESPINOSA                  001001
000000312                991534054881          000000000133050JULIO CESAR MIGUEL SANTIAGO             001001
000000313                990473231097          000000000257900GEAZUL SANTOS TOLENTINO                 001001
000000314                992955577381          000000000397640SANDRA CORTEZ VAZQUEZ                   001001
000000315                992837129688          000000000483905JUVENCIO MEDINA AGUILAR                 001001
000000316                991559204884          000000000278960VERONICA GONZALEZ PONCE                 001001
000000317                991512515315          000000000611200JOSE MANUEL ALANIS RODRIGUEZ            001001
000000318                991526997913          000000000501880EMANUEL AURELIO AYALA ARROYO            001001
000000319                991510708387          000000000157688LUIS ROBERTO QUINTANA CARRETO           001001
000000320                992774063813          000000000124000JOSE JESUS MARTINEZ ESTRADA             001001
000000321                992907976755          000000000193620JONATHAN DANIEL RIVERA ROMERO           001001
000000322                990475358310          000000000152000EUNICE ORTEGA MARTINEZ                  001001
000000323                991514975177          000000000408136MARIO DE JESUS CANO GUTIERREZ           001001
000000324                991535798747          000000000092000ALEXIS JUAREZ PEREZ                     001001
000000325                991541388037          000000000177000ANGELINA SANCHEZ PALACIOS               001001
000000326                991508942096          000000000137000NORMA LILIANA LOPEZ CORONEL             001001
000000327                991551729874          000000000542000JOSE ADOLFO MORENO BECERRIL             001001
000000328                991122138107          000000000028045JUAN ANGEL MARQUEZ GARCIA               001001
000000329                991532724878          000000000128892YADIRA HERNANDEZ GUZMAN                 001001
000000330                991514225780          000000000035250LORIBEL SOTELO CASTANEDA                001001
000000331                991537954193          000000000088500JUAN CARLOS RENDON SARABIA              001001
000000332                991536258588          000000000196274VICTOR HUGO SANCHEZ SOLABAC             001001
000000333                991569990674          000000000032000FELIPE GARCES GARCIA                    001001
000000334                991531272020          000000000033895MARIA GUADALUPE SERNA LOPEZ             001001
000000335                992724919327          000000000032000MARIA DEL CARMEN ALMEIDA ZACARIAS       001001
000000336                992982711664          000000000033895MARIA YANET RAMIREZ LORENZO             001001
000000337                991515010058          000000000033895MARIA LUISA TADEO CARRANZA              001001
000000338                991514431963          000000000033895MARIA SARA TRINIDAD GARCIA              001001
000000339                991566754627          000000000168500CRISTY SIMONA ZAVALA HERNANDEZ          001001
000000340                992902112051          000000000088500BRENDA BERENICE VILLASANA GOMEZ         001001
000000341                991523590112          000000000218160LUIS ANTONIO ALVARADO LAUREANO          001001
000000342                991505698682          000000000123000MARIA GUADALUPE RAMIREZ PINEDA          001001
000000343                991567366353          000000000024000CRUZ OLIVIA MONTES SANTIAGO             001001
000000344                991524677404          000000000088500LUIS ALBERTO GARCIA DE LA CRUZ          001001
000000345                990469829121          000000000032000MARGARITA LOPEZ MALDONADO               001001
000000346                991584073088          000000000201500CARLOS XAVIER MOO DZUL                  001001
000000347                991501063604          000000000032000CARLOS IVAN GARCIA MAY                  001001
000000348                991527135947          000000000090970JOAQUIN GONZALEZ CRUZ                   001001
000000349                992996871860          000000000032000JUAN CARLOS CANUL CANETAS               001001
000000350                991545878551          000000000120020GABRIELA GARCIA BENITEZ                 001001
000000351                991520349928          000000000153280CAROLINA TORRES HERNANDEZ               001001
000000352                992759551166          000000000139480VICTOR DIAZ ORTIZ                       001001
000000353                992850731331          000000000330940JESUS MIRANDA ALARCON                   001001
000000354                992851812513          000000000299520JOSE LUIS RAMOS LOPEZ                   001001
000000355                990471052691          000000000148788OSCAR MIGUEL GOMEZ MOLINA               001001
000000356                991516930618          000000000405440SADY MONSERRAT CORTES GUTIERREZ         001001
000000357                991545889278          000000000032000MARIA MATUZ VAZQUEZ                     001001
000000358                991171150510          000000000193400SUSANA ELIZABETH AYONA GONZALEZ         001001
000000359                991514998874          000000000088500LETICIA CATALAN AVILA                   001001
000000360                991567532849          000000000155484ANTONIO FRAGOSO CORONA                  001001
000000361                991517492238          000000000230680JUDITH CITLALLI SUASTEGUI EVERARDO      001001
000000362                991581713647          000000000087000ESTRELLA VALLE JAIMEZ                   001001
000000363                992959748709          000000000119204MARTHA RAMIREZ ARREGOITA                001001
000000364                992960821225          000000000233755LUIS ENRIQUE CORTES MENDOZA             001001
000000365                991516606180          000000000284064LETICIA CARACAS PERDOMO                 001001
000000366                991551548347          000000000029333ABRAHAM EZEQUIEL UH CHAN                001001
000000367                991578027466          000000000388150AURELIO ZARAGOZA BAUTISTA               001001
000000368                992965792819          000000000057000ALBERTO GEOVANNI URBAN RAMIREZ          001001
000000369                991504670623          000000000064500VICTOR ALFONSO HERNANDEZ CORDOBA        001001
000000370                991538516682          000000000039500AMAIRANI DOMINGUEZ COUTINO              001001
000000371                991506829528          000000000523100JOSE MANUEL SEVERIANO NOLASCO           001001
000000372                991555157285          000000000026667DANIEL ROBERTO CORONEL MENDEZ           001001
000000373                991546937454          000000000440760JUAN MANUEL CARDENAS GALLO              001001
000000374                991548994997          000000000209092LUIS ALBERTO ROSENDO MORALES            001001
000000375                992971051490          000000000082000ISAAC CONTRERAS RUIZ                    001001
000000376                991574600864          000000000152200KAREN ANGELICA TAPIA GARCIA             001001
000000377                991531065079          000000000042000JULIA YURAI COLLI HERNANDEZ             001001
000000378                991148974179          000000000158220GLORIA ROCHA PUENTE                     001001
000000379                992935266173          000000000193428HECTOR CANO PEREZ                       001001
000000380                991532252446          000000000072000FABIOLA JAZMIN SANTOS RIVERA            001001
000000381                991510553600          000000000032000JUAN JOSE CASTELLANOS MEZA              001001
000000382                991535389739          000000000032000MANUEL ALEJANDRO REBOLLO FIGUEROA       001001
000000383                991533854520          000000000076490RAFAEL DE JESUS RUIZ GARCIA             001001
000000384                991538142605          000000000032000MIREYA VANNESA VALLADARES CASTRO        001001
000000385                992906294537          000000000103600CRESENCIO RESENDIZ GARCIA               001001
000000386                991198397376          000000000042000CLAUDIA MERCEDES ROMAN PEREZ            001001
000000387                991536314373          000000000072000BEATRIZ EPIFANIA GASGA GOMEZ            001001
000000388                991536812518          000000000042000LUVIA ELIZABETH CANAVERAL CONSTANTINO   001001
000000389                991530273582          000000000032000ISIDRO JAHIR TEXTA ABARCA               001001
000000390                991561949969          000000000042000NESTOR ALONSO HERNANDEZ SANCHEZ         001001
000000391                991529234535          000000000042000DANIEL ALEJANDRO RIVAS GUILLEN          001001
000000392                991518791950          000000000032000ANGEL CRUZ RUIZ VAZQUEZ                 001001
000000393                991153849694          000000000122000ALFONSO MARQUEZ ROJAS                   001001
000000394                991524668921          000000000032000JAZMIN ESMERALDA AGUILAR LOPEZ          001001
000000395                991512959701          000000000042000LUIS GUSTAVO HERNANDEZ LOPEZ            001001
000000396                992856589707          000000000042000CARLOS ALONSO GARCIA FIGUEROA           001001
000000397                991525288803          000000000042000KARINA MORALES LOPEZ                    001001
000000398                991174060806          000000000032000JULIO CESAR ALVAREZ GOMEZ               001001
000000399                991547079508          000000000147000DAVID BALMACEDA DE LA CRUZ              001001
000000400                991501489194          000000000147048DANA SURIELY AGUILAR MALPICA            001001
000000401                991502513994          000000000213920EDUARDO OLARTE GARCIA                   001001
000000402                991584158482          000000000270528DANIEL ALBERTO MENDEZ PIMENTEL          001001
000000403                991169175733          000000000042000AGUSTIN MENDEZ LOPEZ                    001001
000000404                991526051832          000000000102000EDUARDO ROSAS MARTINEZ                  001001
000000405                991559350482          000000000032000DIEGO FERNANDO HERNANDEZ FLORES         001001
000000406                991140426695          000000000042000MAURICIO ALEXANDER DE LA O JIMENEZ      001001
000000407                991585693114          000000000032000JESUS EMMANUEL AVELINO MAZON            001001
000000408                991592087815          000000000042000JULIO CESAR GORDILLO HERNANDEZ          001001
000000409                991544020972          000000000032000JOSE FERNANDO ELIBAR DE LA CRUZ         001001
000000410                991586336404          000000000042000AMAIRANI TORRES LOPEZ                   001001
000000411                991524931048          000000000042000WILLIAMS CHAVEZ SANCHEZ                 001001
000000412                991501783602          000000000127000FELIX RODRIGO SALAS GARCIA              001001
000000413                991524046958          000000000032000DANIA LIZBETH SALGADO CERECERO          001001
000000414                991586942558          000000000012515ADEMAR SAUL HERNANDEZ OCAMPO            001001
000000415                991552330997          000000000072000JUAN CARLOS ORTEGA RIVERA               001001
000000416                991548233761          000000000142000ALEXI JHOVANY CRUZ SANTOS               001001
000000417                991527845858          000000000042000URIEL ALEXIS TRUJILLO AGUILAR           001001
000000418                991585843839          000000000038667JUDITH ARCE LOPEZ                       001001
000000419                991555372392          000000000032000MANLIO ENRIQUE RODRIGUEZ MORALES        001001
000000420                992878829039          000000000042000JAVIER LOPEZ LOPEZ                      001001
000000421                992946510876          000000000042000CARLOS CASTILLEJOS ULLOA                001001
000000422                991591768983          000000000032000CRISTHIAN ALEXEY MATAMOROS MONTERROSA   001001
000000423                991526725093          000000000032000REYNALDO ROJAS ROJAS                    001001
000000424                991509824888          000000000032000JUAN DANIEL GALVEZ SOLIS                001001
000000425                991513305430          000000000042000BELIZARIO LOPEZ ESPINOSA                001001
000000426                991508244343          000000000042000FERNANDO BERNABE MEZA VERDUGO           001001
000000427                991530785134          000000000021248FABIOLA DEL ROSARIO GUILLEN DE LA CRUZ  001001
000000428                991552391344          000000000032000DIANA KARINA RAMIREZ MORALES            001001
000000429                991557076668          000000000092000ALEXIS LEYVA IBARRA                     001001
000000430                991579877843          000000000032000EDGAR EDUARDO BALCAZAR RAMIREZ          001001
000000431                991593699938          000000000032000CELIA MORALES VELAZQUES                 001001
000000432                991525955958          000000000042000JULIAN ALEXIS ESCOBEDO GONZALEZ         001001
000000433                992940348481          000000000042000TAI JU SALAZAR LOPEZ                    001001
000000434                991578215025          000000000042000ROMEO ARMANDO CALZADA DE CUESTA         001001
000000435                991559807503          000000000032000ABEL VLADIMIR VAZQUEZ LOPEZ             001001
000000436                991524812266          000000000032000MAURICIO ALEJANDRO SALINAS MOLLINEDO    001001
000000437                991539612273          000000000042000ERICK DAMIAN LOPEZ HERRERA              001001
000000438                991554142990          000000000032000JIMENA RODRIGUEZ SANCHEZ                001001
000000439                991554130487          000000000032000PAOLA MICHELL TOLEDO CORTES             001001
000000440                991503843502          000000000021445ARELY ADALY HERNANDEZ CRUZ              001001
000000441                991554443672          000000000032000RODRIGO DE JESUS GARCIA VILLAFUERTE     001001
000000442                992906096263          000000000032000KARINA REYNADA NUNEZ                    001001
000000443                991531203579          000000000042000ANGEL EDUARDO ALFARO VELASCO            001001
000000444                991518833117          000000000067000JESUS ANTONIO VILLANO JIMENEZ           001001
000000445                991529352328          000000000042000ROSA INNA RAMOS OCANA                   001001
000000446                990474358910          000000000032000CESAR TIRADO ARAUJO                     001001
000000447                991562006564          000000000035333YESENIA LEYVA TOVILLA                   001001
000000448                991554392597          000000000032000ADRIANA RAMOS DIAZ                      001001
000000449                991555762581          000000000042000DAVID EMMANUEL ALVARADO GARCIA          001001
000000450                991521625953          000000000032000LUIS GERARDO CADESA PEREZ               001001
000000451                991501527947          000000000032000CARLOS ALBERTO TORRES MENESES           001001
000000452                992703047385          000000000032000JOSE GABINO ALFARO CHACON               001001
000000453                991452214547          000000000032000GUSTAVO ADOLFO ARROYO OLIVA             001001
000000454                991556849758          000000000042000STEPHANIE MONTSERRAT ROSAS RINCON       001001
000000455                991506086850          000000000032000JOSE ATILA SARAO OLAN                   001001
000000456                991539522321          000000000042000AURORA MONTES SURIANO                   001001
000000457                991542913574          000000000042000JOSE ALFONSO HERNANDEZ PEREZ            001001
000000458                991547754954          000000000032000ISRAEL ALVAREZ GALVEZ                   001001
000000459                991165736021          000000000042000RODOLFO GOMEZ FONSECA                   001001
000000460                991538286911          000000000032000SILVIA LISSET DIAZ VELAZQUEZ            001001
000000461                991528944951          000000000042000ALBERTO IVAN GARCIA MATIAS              001001
000000462                991537543938          000000000042000ALEJANDRO LOPEZ CAMBRANO                001001
000000463                991597492394          000000000032000JUAN CARLOS JIMENEZ PEREZ               001001
000000464                991510444574          000000000032000DANIEL CRUZ DE LA CRUZ                  001001
000000465                991549049255          000000000032000ANGEL AVILA ROMERO                      001001
000000466                991542543382          000000000042000CARLOS ENRIQUE CASTELLON MALDONADO      001001
000000467                991569306811          000000000149100SUEMI LORENA SULUB SANTOS               001001
000000468                991505228941          000000000042000JOSE MANUEL CARDENAS MARTINEZ           001001
000000469                991530587114          000000000042000MARCOS JESUS GUMETA RAMIREZ             001001
000000470                990457178336          000000000032000ABDIEL MEJIA PEREZ                      001001
000000471                991527822959          000000000009520ANA LAURA MEJIA INFANTE                 001001
000000472                991544356062          000000000072000KEVIN MANUEL  HERNANDEZ  GOYTIA         001001
000000473                992777693559          000000000159267RODOLFO COLMENERO  NERI                 001001
000000474                991534837927          000000000078667LARISSA MAGALI ANGEL  ACOSTA            001001
000000475                991539673822          000000000061333MANUEL DE JESUS REYES  DE LEON          001001
000000476                991562239016          000000000045333FATIMA BELEN DE LA CRUZ  VALENCIA       001001
000000477                991579791655          000000000058667JUAN ALBERTO GUTIERREZ NOTARIO          001001
000000478                991558874886          000000000072000ITZEL ESTEFANI SALAS  BARRIENTOS        001001
000000479                991544422565          000000000045333BENITO NICANDRO LOPEZ CABALLERO         001001
000000480                991525274608          000000000058667IRANIA GUADALUPE GOMEZ  HERNANDEZ       001001
000000481                991548729314          000000000037333OSCAR EDUARDO MEZA LOPEZ                001001
000000482                991528450318          000000000040000ANGELICA ISABEL GOMEZ CARPIO            001001
000000483                991562757262          000000000040000FRANCISCO DANIEL  RUIZ MORALES          001001
000000484                991552080799          000000000040000ANZHI LUZ  OVANDO ANTONIO               001001
000000485                991591213230          000000000032000JESUS ALEJANDRO MENDEZ HERNANDEZ        001001
000000486                991592638251          000000000072000MIGUEL ANGEL GUTIERREZ GARCIA           001001
000000487                991527454107          000000000017944ELDER FEDERICO SILVA CANIZALES          001001
000000488                991503834554          000000000032000FERNANDO NATAREN PENA                   001001
000000489                991560125497          000000000032000KAREN ISABEL GOMEZ VERDUGO              001001
000000490                991535000630          000000000042000MIGUEL RODRIGUEZ GALVEZ                 001001
000000491                991554216323          000000000032000ELIGIO VELAZQUEZ FLORES                 001001
000000492                991560925931          000000000042000HILMER ISAI VAZQUEZ DIAZ                001001
000000493                991563376857          000000000032000ROXEL NAVARRO RIVERA                    001001
000000494                992927881568          000000000032000ENOC  CASTRO  CAMPERO                   001001
000000495                991582466077          000000000032000EDUARDO JAFFER  SOL ARELLANO            001001
000000496                991525699676          000000000042000JOSE IGNACIO LOPEZ PEREZ                001001
000000497                991536067406          000000000035333HECTOR ARTURO JIMENEZ YANEZ             001001
000000498                991587291348          000000000032000LUIS ALBERTO ESPINOSA CRUZ              001001
000000499                991563945372          000000000024000ALFREDO HERNANDEZ  GARCIA               001001
000000500                991517828893          000000000032000JOSE ANTONIO RUIZ RUIZ                  001001
