000000001                991535510845          000000000032000GYBRHAM POZOS RAMIREZ                   001001
000000002                991514222187          000000000024000ALMA REBECA LARA FELICIANO              001001
000000003                991506820015          000000000024000ISMAEL  LOPEZ  SALAZAR                  001001
000000004                991509781869          000000000072000ROSA ISELA RAMOS GARCIA                 001001
000000005                991525964222          000000000042000LUCIO JULIAN NUNEZ                      001001
000000006                991552339897          000000000117000FRANCISCO JAVIER PAZ IGLESIAS           001001
000000007                992972244551          000000000035333ERIK DANIEL ROBLES  CRUZ                001001
000000008                991506857962          000000000026667LAURA JAQUELINE ESPINOZA  SANCHEZ       001001
000000009                991540254492          000000000042000GABRIELA ROCHA X                        001001
000000010                991570043915          000000000032000DELFINO  AGUIRRE  ANDRES                001001
000000011                991563427533          000000000147000LUIS ANGEL MORALES GONZALEZ             001001
000000012                991530439009          000000000032000JUAN  FIGUEROA  AQUINO                  001001
000000013                992976937748          000000000147000MOACIR ROMARIO TORRES VALERO            001001
000000014                992701223003          000000000042000MARIA DEL ROCIO OROBIO VILLEGAS         001001
000000015                991532980777          000000000078667MARTIN JARET LUGO IX                    001001
000000016                991560665947          000000000072000ARMANDO EMILIO BELMONTE BARRADAS        001001
000000017                991528383186          000000000032000MANUEL MIRANDA MENDEZ                   001001
000000018                991551590352          000000000147000RICARDO EMMANUEL REYES MOLINA           001001
000000019                991587868611          000000000072000YANELI ANAHI GUTIERREZ SOTO             001001
000000020                991510592484          000000000072000EVELIN DORIELA LOPEZ GUEVARA            001001
000000021                991510774232          000000000082000OLGA LYDIA ESCAMILLA CARRILO            001001
000000022                991567459534          000000000092000ANA ELIZABETH VELAZQUEZ HERNANDEZ       001001
000000023                991545507308          000000000182000GUILLERMO ANTONIO GUTIERREZ QUILIHUA    001001
000000024                991563025802          000000000032000JOSE ROBERTO AGUILAR RICARDO            001001
000000025                991522638786          000000000082000SHEYLA CRISTAL JIMENEZ REYES            001001
000000026                991518995328          000000000032000DANIELA KARINA RIVERO OJEDA             001001
000000027                991533440904          000000000092000VIRIDIANA YADIRA ELIZONDO NASSAR        001001
000000028                991542239942          000000000072000LAURA LIZBETH MARTINEZ ARIAS            001001
000000029                991549999164          000000000088500ALEJANDRA TERESA RODRIGUEZ ORTIZ        001001
000000030                991542454327          000000000122000PERLA JANETH CORDOBA CHAVOLLA           001001
000000031                991559757488          000000000072000ZAIRA PATRICIA DE LA FUENTE LOPEZ       001001
000000032                991522689100          000000000165300ADELA CRUZ CRUZ                         001001
000000033                990455436842          000000000088500RAUL VICTORIANO MORENO                  001001
000000034                991520360978          000000000032000LUIS DAVID DZIB SIMA                    001001
000000035                991551353469          000000000032000ARNALDO DE JESUS CHAN REJON             001001
000000036                991545814599          000000000032000YESLY ALFONSO CANZINO KUK               001001
000000037                991543789834          000000000106000EDDER ALONSO BELTRAN IBARRA             001001
000000038                991560428279          000000000088500ESMERALDA ESCARENO RIVERA               001001
000000039                992972689561          000000000072000ROBERTO HERNANDEZ HERNANDEZ             001001
000000040                991522581615          000000000122000MAYRA GUADALUPE CORRAL GARCIA           001001
000000041                991514576698          000000000032000OSCAR IVAN HERNANDEZ HERNANDEZ          001001
000000042                991568947808          000000000090000GRISSEL YUDIRIA BELTRAN FLORES          001001
000000043                991534042341          000000000072000RONALDO SANTOS OCHOA                    001001
000000044                991179303766          000000000147000ANA KAREN MUNOZ ZAPATA                  001001
000000045                991563018308          000000000072000ALEJANDRA  OLIVA  TORRES                001001
000000046                991584982528          000000000147000MARINA ZARAZUA GARCIA                   001001
000000047                991563395076          000000000040000LUIS FELIPE LOPEZ ORTIZ                 001001
000000048                990471923307          000000000167000ELEAZAR SOTO TAMEZ                      001001
000000049                991596000366          000000000040000ABELARDO  PEREZ  JIMENEZ                001001
000000050                991558483139          000000000072000RUBI ZAMORA VARGAS                      001001
000000051                991550934205          000000000072000ANGEL JESUS LOZADA VAZQUEZ              001001
000000052                991553241609          000000000092000AMIR OSORIO MARTINEZ                    001001
000000053                991521616331          000000000122000ANTONIO  MATEOS ALEJO                   001001
000000054                991575639441          000000000072000ARACELI  ALMONASI  CALDERON             001001
000000055                991541575188          000000000147000KAREN ANETH TRUEBA  CAMPOS              001001
000000056                991535459602          000000000040000PAULA AMAYRANI RUIZ  PEREZ              001001
000000057                991510454059          000000000048667CARLOS EDUARDO WUENCES BEJARANO         001001
000000058                991592081078          000000000037333JOSUE EMMANUEL POC PISTE                001001
000000059                991518659575          000000000122000KIMBERLEY ITZEL BERENICE  RODRIGUEZ SA  001001
000000060                991545446780          000000000048667MIGUEL ANGEL CERVERA  VARGUEZ           001001
000000061                991512109171          000000000079333OLGA JOSEFINA ALMANZA  JUAREZ           001001
000000062                991585931749          000000000048667VERONICA MICHELLE VALDEZ RAMIREZ        001001
000000063                992925236746          000000000072000MARIO MANDUJANO MORALES                 001001
000000064                991539054839          000000000058667CINTHIA MARISELA BERUMEN LOZANO         001001
000000065                991530371243          000000000055333JACOBO YOVANY ROMERO CUACHAYO           001001
000000066                991529069863          000000000092000PAOLA PENA DIAZ                         001001
000000067                991545388705          000000000045333MARIA FERNANDA ACOSTA  GUZMAN           001001
000000068                991513206978          000000000058667FRANCISCO GOMEZ GALVAN                  001001
000000069                991572814331          000000000072000ANDRES ALEXIS  REYES  GALVAN            001001
000000070                991530557912          000000000108667CINTHYA VIRIDIANA RAMIREZ TORRES        001001
000000071                991539768480          000000000092000DANIEL GUTIERREZ TERRONES               001001
000000072                991562435346          000000000042667MARIA LOURDES ZAMACONA DIAZ             001001
000000073                991552161931          000000000095333ADRIANA BERENICE CABANAS PACHECO        001001
000000074                991566706374          000000000042667EDUARDO TONATHIU ALARCON  GARCIA        001001
000000075                991505935217          000000000042667FERNANDO  MONTIEL  HERNANDEZ            001001
000000076                992980116084          000000000114233HECTOR ANGULO RAMIREZ                   001001
000000077                991546972306          000000000042667SOL IDALIA  ESPINOZA  LEON              001001
000000078                991536645689          000000000142000ANDREA ITZEL AVILA ARREDONDO            001001
000000079                991582374552          000000000045333ALVARO MANUEL CUHAUTEMOC BLANCO TORRES  001001
000000080                991521399261          000000000072000NANCI SAMANTA BAEZA PALACIOS            001001
000000081                991511448137          000000000147000JULIO LOPEZ  ARREGUIN                   001001
000000082                991529803081          000000000147000LIZ IVONNE SANCHEZ DURAN                001001
000000083                991561803367          000000000045333VERONICA YAZMIN  CACHO  REYES           001001
000000084                991540397032          000000000025207PAOLA MARGARITA HERNANDEZ LEDEZMA       001001
000000085                991511089231          000000000058667JUAN MANUEL AROCHE HERNANDEZ            001001
000000086                991518799833          000000000095333JUAN VALENTIN HERNANDEZ  FRANCISCO      001001
000000087                992965816351          000000000045333CIRO GONZALEZ LECHUGA                   001001
000000088                991545525691          000000000072000ANGEL EFREN RAMIREZ CASTRO              001001
000000089                991550702518          000000000072000ELDA ROMERO PARRA                       001001
000000090                991506895148          000000000067000EDGAR HUMBERTO MARTINEZ VILLALOBOS      001001
000000091                991520943056          000000000058667LAURA CARVAJAL GERON                    001001
000000092                991577168896          000000000058667FATIMA QUINONES VAZQUEZ                 001001
000000093                991521820938          000000000072000VALERIA LIZBETH ALCANTAR FLORES         001001
000000094                992886185517          000000000058667FIDELIO ACOSTA HERNANDEZ                001001
000000095                991578173250          000000000078667ARELY DIAZ  CRUZ                        001001
000000096                991559647643          000000000234267MARTIN ARMANDO HERNANDEZ MUNIZ          001001
000000097                991567810311          000000000078667JOSE ANGEL GONZALEZ KANTUN              001001
000000098                991586534077          000000000032000IGNACIO FOGLIA MELCHOR                  001001
000000099                991503492866          000000000082000CARLOS ALBERTO ROMERO REYES             001001
000000100                991501544202          000000000032000ANA VICTORIA HERNANDEZ PARRA            001001
000000101                991570643475          000000000032000MARIA GUADALUPE GARCIA GARCIA           001001
000000102                991556088139          000000000032000EDUARDO CRUZ GALAN                      001001
000000103                991526054045          000000000032000GEMMA MILAGROS ZULEYKA DIAZ CHAVEZ      001001
000000104                991505967063          000000000142000PALOMA PAREDES ARGUELLES                001001
000000105                992885438527          000000000092000MIGUEL ANGEL TORRES ALONSO              001001
000000106                991157317816          000000000091045ALFREDO JAIMES SOBAC                    001001
000000107                992955352371          000000000142000LUIS DANIEL BLANCARTE LOPEZ             001001
000000108                991559223476          000000000042000APOLINAR HERNANDEZ ESTRADA              001001
000000109                991537849084          000000000082000ROCIO BERENICE PENA DIAZ                001001
000000110                991581050014          000000000032000LUIS ALEJANDRO MARTINEZ AYALA           001001
000000111                991530109940          000000000072000OBDULIA EVELIN CONTRERAS RAMIREZ        001001
000000112                991559227234          000000000072000JUANA ESPINOZA FLORES                   001001
000000113                991558883439          000000000072000MA. GABRIELA GONZALEZ ZERMENO           001001
000000114                991561107164          000000000042000KARLA ELIZABETH LIMON DEL ANGEL         001001
000000115                991581194707          000000000042000MARCO ANTONIO ORDUNO ORTEGA             001001
000000116                991513114934          000000000450435BLANCA ESTELA GARCIA HERNANDEZ          001001
000000117                991554015746          000000000098880FELIPE PACHECO MARQUEZ                  001001
000000118                991557937217          000000000122000ITZEL GUADALUPE BONILLA HERNANDEZ       001001
000000119                991574940680          000000000072000LAURA ARACELI RODRIGUEZ GAMEZ           001001
000000120                991538137038          000000000042000ROCIO GUADALUPE OVALLE MORA             001001
000000121                992874004345          000000000150560JUANA CRISTINA MAGALLON CHORA           001001
000000122                991561099585          000000000217200KEYLA JOANA RENTERIA MORALES            001001
000000123                991509152315          000000000032000ENRIQUE VARGAS DURAN                    001001
000000124                991564219051          000000000042000GENER DAVID CHAY TUN                    001001
000000125                991135364868          000000000032000MARIA CONCEPCION LOPEZ ASCENCIO         001001
000000126                991138793476          000000000095600KARINA REYES VERDEJA                    001001
000000127                991518353628          000000000088500ANTONIO MIGUEL COBOS HERNANDEZ          001001
000000128                992993170632          000000000129402ELISEO APARICIO MIRANDA                 001001
000000129                991558127576          000000000042000KARLA CITLALLY OSORIO SOLIS             001001
000000130                992843777332          000000000042000DIEGO CARMONA VILLORDO                  001001
000000131                991173125939          000000000032000JUAN MANUEL SANCHEZ LOPEZ               001001
000000132                991572595608          000000000032000EDWIN DAVID SANTOS MARTINEZ             001001
000000133                991550320886          000000000150000JESUS ALBERTO LEYVA SANTOS              001001
000000134                991556754810          000000000082000ALEJANDRO LOPEZ GALAVIZ                 001001
000000135                991524943446          000000000072000ANA ISABEL RODRIGUEZ GONZALEZ           001001
000000136                991580665576          000000000032000MARIA SADIC GONZALEZ GOMEZ              001001
000000137                991137093233          000000000032000SILVESTRE AGUILERA MEZA                 001001
000000138                991523925363          000000000112000LEOPOLDO OVIEDO NEPOMUCENO              001001
000000139                991587648707          000000000082000AHTCIRY BAUTISTA RAMIREZ                001001
000000140                991524560350          000000000032000DANIELA DE LA CRUZ GONZALEZ             001001
000000141                991567924545          000000000042000BERTHA DANIELA MORO ORTIZ               001001
000000142                991555336399          000000000032000ASUNCION DE LA LUZ AGUILAR DIAZ         001001
000000143                991541036079          000000000042000JONATHAN AXEL CAZAREZ VERDUGO           001001
000000144                991535445202          000000000042000CAROLINA MUNOZ GARCIA                   001001
000000145                991513698368          000000000239600MARIA DE JESUS MANCERA RODRIGUEZ        001001
000000146                991577350913          000000000042000SAUL VAZQUEZ PEREZ                      001001
000000147                992953083691          000000000042000MARIA DE LOURDES MARQUEZ ALONSO         001001
000000148                991580010138          000000000094195JOEL VERA MORALES                       001001
000000149                991556112754          000000000104136MILTON ADRIAN SANTOS LEYVA              001001
000000150                991543437658          000000000576995ROSENDO CASTRO SERNA                    001001
000000151                992842103818          000000000032000FELIPE DE JESUS GUTIERREZ PEREZ         001001
000000152                992918680191          000000000092000YASSEL DE JESUS VALENZUELA AGUIRRE      001001
000000153                991541630507          000000000032000SALVADOR CABALLERO SIBAJA               001001
000000154                991595955095          000000000042000MARIO ULISES GARRIDO MORENO             001001
000000155                992738055653          000000000042000OSWALDO LOMELI RODRIGUEZ                001001
000000156                991535493630          000000000032000VICTOR ANTONIO NUNEZ CEJA               001001
000000157                991507727771          000000000032000LUIS ALBERTO LOPEZ CARMEN               001001
000000158                991513668320          000000000032000ALICIA ESTHER NAAL KUMUL                001001
000000159                992973114643          000000000032000ALBERTO PRIEGO HERNANDEZ                001001
000000160                991566934695          000000000042000JOSE DE JESUS CALLEJAS LEON             001001
000000161                990475876052          000000000088500ANGELICA DAVID GUTIERREZ                001001
000000162                991526903388          000000000076667OMAR DAVID SERRANO BLANCARTE            001001
000000163                991542136330          000000000228068ABELINA RAMIREZ HERNANDEZ               001001
000000164                991504388450          000000000129120JUAN PABLO URIBE CONTRERAS              001001
000000165                991565852099          000000000082000CYNTHIA PAOLA MARQUEZ GUERRERO          001001
000000166                992912316331          000000000136180RICARDO ROLDAN PEREZ                    001001
000000167                991580276042          000000000032000DAVID EMMANUEL SANSORES BELTRAN         001001
000000168                991558279486          000000000166976JUAN CARLOS MARQUEZ VAZQUEZ             001001
000000169                991547117998          000000000242748JENNIFER REYES MALDONADO                001001
000000170                991537307350          000000000004697ESTEFANIA REJON QUIROZ                  001001
000000171                991544150361          000000000032000DULCE MIRIAN MOTUTO MARTINEZ            001001
000000172                992984133145          000000000074000JESUS MOISES SALGADO ORTIZ              001001
000000173                991521687333          000000000072000EDWIN ROJAS MARTINEZ                    001001
000000174                991511054586          000000000042000JORGE LUIS FERNANDO MARTINEZ HERNANDEZ  001001
000000175                991561478990          000000000042000CARLOS REYES ARREOLA                    001001
000000176                991533260024          000000000082000JESSICA ELENA GUERRERO GONZALEZ         001001
000000177                991151244493          000000000032000MARIA VERONICA REYES SEGURA             001001
000000178                991507648763          000000000042000JESUS GARCIA ROJAS FLORES               001001
000000179                991586080246          000000000042000JULIO CESAR PERAZA BELTRAN              001001
000000180                991528707662          000000000032000JUAN CARLOS CHAVEZ CORZA                001001
000000181                991589474016          000000000032000FABIOLA IRACEMA GOMEZ ESPINOZA          001001
000000182                991523124964          000000000088500ERIK JAVIER CAHUANTZI JIMENEZ           001001
000000183                991520613670          000000000029333MARIA DE LOURDES YASMIN LORENZO NADAL   001001
000000184                991537053131          000000000032000IVAN FLORES FLORES                      001001
000000185                991537098289          000000000024000SERGIO HERNANDEZ MONTALVO               001001
000000186                991529813066          000000000169283GENARO RAFAEL CRUZ ZAVALA               001001
000000187                991162417456          000000000032000MARIA TERESA LUNA DIAZ                  001001
000000188                991512921011          000000000042000SERGIO ANDRES SANTOS                    001001
000000189                991571992026          000000000102000ERICK YAMIL RICARDO GARCIA RESENDIZ     001001
000000190                990458056137          000000000279548MIGUEL ANGEL GUTIERREZ MARTINEZ         001001
000000191                991555017877          000000000032000EDGAR RAMIREZ LOPEZ                     001001
000000192                991549321309          000000000396308MIREYA JUDITH RAMIREZ CASTILLO          001001
000000193                991534735168          000000000032000DIEGO CASTRO VAZQUEZ                    001001
000000194                991515694881          000000000032000ESMERALDA AQUINO BERNAL                 001001
000000195                992972873753          000000000032000CELIA HERNANDEZ HERNANDEZ               001001
000000196                991597679974          000000000092000MARIA RITA ADRIANA ZARATE RICO          001001
000000197                991530683929          000000000032000ROGER JONATHAN CARRILLO CHAN            001001
000000198                991532920979          000000000029333MANUEL GERARDO ROCHA IBARRA             001001
000000199                991520801549          000000000032000GUADALUPE MARIA LEYVA ZAZUETA           001001
000000200                991555953712          000000000032000MARIA GUADALUPE VAZQUEZ HERNANDEZ       001001
000000201                991534976548          000000000024000JONATHAN GALEANA CORTES                 001001
000000202                991539778621          000000000162356ROBERTO RECIO NIEVES                    001001
000000203                992982263602          000000000032000OMAR CRUZ DIAZ                          001001
000000204                991564256093          000000000082000IVAN MORALES SAENZPARDO                 001001
000000205                992947528191          000000000042000ADRIAN ALVARADO SANCHEZ                 001001
000000206                992889448802          000000000032000JOSUE ALEXANDER HERNANDEZ VERA          001001
000000207                991543018377          000000000032000HECTOR EMMANUEL GARCIA RAMIREZ          001001
000000208                991135268567          000000000042000JUAN DIEGO SANCHEZ PRIETO               001001
000000209                991596561512          000000000032000MARIANA DEL CARMEN FUENTES ACOSTA       001001
000000210                991513301377          000000000167000ANA MARGARITA ACUNA SANTANA             001001
000000211                992886484670          000000000172500KARLA KARINA GARZA SILVA                001001
000000212                991506845182          000000000129960FRANCISCO JAVIER ARREOLA SANCHEZ        001001
000000213                991147792417          000000000164160JOANA RUBI REYES LOPEZ                  001001
000000214                991528582538          000000000215400SANJUANA ARMENDARIZ SOSA                001001
000000215                991535358054          000000000042000FERNANDO ANTONIO CAMPOS VALDEZ          001001
000000216                991565301513          000000000042000ERICK GALICIA ANTONIO                   001001
000000217                991525947726          000000000157560KARLA SELENE ORLANZZINI BOCANEGRA       001001
000000218                991562707147          000000000110768LUIS CRUZ PLATON                        001001
000000219                991569564627          000000000141360VIOLETA EUNICE REYES JIMENEZ            001001
000000220                992619581316          000000000032000JOSE HORACIO ARAMBULA HERNANDEZ         001001
000000221                992933357511          000000000032000JUAN DIEGO REJON GAMBOA                 001001
000000222                991524418321          000000000042000CRISTIAN JESUS ZARAGOZA VAZQUEZ         001001
000000223                991552633393          000000000032000CARLOS MISAEL FLORES MOGOLLON           001001
000000224                991508476799          000000000216076OSCAR DAVID JIMENEZ ESCUDERO            001001
000000225                991513547279          000000000032000ADRIANA MONTSSERRAT LOREDO SANCHEZ      001001
000000226                991564430924          000000000032000ZULEICA RAMOS CARCANO                   001001
000000227                991501668300          000000000101468GERMAN GONZALEZ RODRIGUEZ               001001
000000228                991521412012          000000000042000SERGIO LUIS CEN UCH                     001001
000000229                991536951978          000000000026667NINFA BEATRIZ ALFONSO ARROYO            001001
000000230                991555721156          000000000156740FRANCISCO DAVID MUNOZ GONZAGA           001001
000000231                991121298097          000000000032000JUAN JESUS ANZALDO SANCHEZ              001001
000000232                991553395553          000000000042000BENJAMIN TERAN FLORES                   001001
000000233                991551684490          000000000032000FRANCISCO JAVIER REYES PAMATZ           001001
000000234                991561457962          000000000032000BRYAN REYES ARCOS                       001001
000000235                991529307276          000000000118368GUILLERMO ACOSTA DIAZ                   001001
000000236                991520115137          000000000092000ARELY NOHEMI BONILLA GONZALEZ           001001
000000237                991540292403          000000000032000KARLA JUDITH HERRERA CORDOVA            001001
000000238                991599310463          000000000032000ADELA SANTIAGO GONZALEZ                 001001
000000239                991188381089          000000000025672ANGEL ARTURO RESENDIZ GOMEZ             001001
000000240                991550263109          000000000136100PABLO MISAEL PICAZO GUTIERREZ           001001
000000241                991521169327          000000000042000SALVADOR PALMER PEREZ                   001001
000000242                991555009874          000000000032000FERNANDO ANTONIO GARCIA GONZALEZ        001001
000000243                991537514252          000000000032000JESUS DANIEL SANDOVAL AGUIRRE           001001
000000244                991529387991          000000000161200MAYRA ASCENCIO VAZQUEZ                  001001
000000245                991525022916          000000000032000ANTONY JOSE POOT POOT                   001001
000000246                991163787214          000000000032000JAVIER ANTONIO AVILA MARTINEZ           001001
000000247                991511943149          000000000023578PERLA CIGALA HERNANDEZ                  001001
000000248                991525293264          000000000092000EVA LUZ CRUZ HERVERT                    001001
000000249                990476457304          000000000042000ANGELICA FERNANDEZ POLO                 001001
000000250                991547417303          000000000042000RAUL BACA GARCIA                        001001
000000251                991571162071          000000000125200EVANGELINA GARCIA RODRIGUEZ             001001
000000252                991545182232          000000000000979MELISA ABIGAIL BENAVIDES MARTINEZ       001001
000000253                992984990730          000000000072550CRISTIAN FUENTES ALVARADO               001001
000000254                991543220203          000000000032000JORGE ABRAHAM TEJEDA RIZO               001001
000000255                991513252504          000000000092000FRANCISCO GARCIA SERRANO                001001
000000256                991545512236          000000000121960MARLEN CASTRO CANO                      001001
000000257                991534868602          000000000032000OMAR SAMORI RAMIREZ GARCIA              001001
000000258                991141271032          000000000042000ALEJANDRA HERNANDEZ GARCIA              001001
000000259                991523469367          000000000127000SANDRA CASTILLO ESPINOSA                001001
000000260                991507499512          000000000023344JEZABEL BENITEZ SANCHEZ                 001001
000000261                991545697961          000000000042000ABIGAIL SANCHEZ BAUTISTA                001001
000000262                992624849221          000000000042000FATIMA ISABEL VEGA MORONES              001001
000000263                991517155953          000000000217600BEATRIZ ALEJANDRA DE LOS SANTOS ARMEND  001001
000000264                991501571242          000000000072000MARCO ANTONIO JIMENEZ GUZMAN            001001
000000265                991510730826          000000000032000EDITH DEL SOCORRO DZIB HU               001001
000000266                991526610323          000000000032000ALEJANDRO MARIN MARTINEZ                001001
000000267                991534441955          000000000270588LAURA NOEMI RAMOS SOLIS                 001001
000000268                991585738086          000000000091040MOISES ALEJANDRO GALINDO QUINONES       001001
000000269                992969404414          000000000032000MIGUEL ANGEL CASTRO HERNANDEZ           001001
000000270                991577780648          000000000042000JOSUE GUERRERO GONZALEZ                 001001
000000271                991500418525          000000000042000CYNTHIA VIANEY HERNANDEZ FABIAN         001001
000000272                991571209046          000000000274608ALEJANDRO LOPEZ ALONSO                  001001
000000273                992979988890          000000000318215MARILU MARTINEZ ALVAREZ                 001001
000000274                991525538838          000000000124514CAROLINA GARZA LEIJA                    001001
000000275                991142503654          000000000097000SANDRA ESTEBAN HERNANDEZ                001001
000000276                991582539503          000000000072000PERFECTO ZARATE LOPEZ                   001001
000000277                991524470407          000000000096500ATALA GIOVANNA TEJEDA HERNANDEZ         001001
000000278                992951136526          000000000042000ERICK ABRAHAM RAMIREZ SAN ROMAN         001001
000000279                991553952048          000000000042000JONATHAN MICHAEL GONZALEZ VERAZAS       001001
000000280                991245776406          000000000032000JOSEFINA DIAZ MERINOS                   001001
000000281                991549569611          000000000032000JUAN URIEL HERNANDEZ CRUZ               001001
000000282                991163146731          000000000097000MARIO ALEJANDRO GUZMAN QUEZADA          001001
000000283                991520349120          000000000032000ALEJANDRA CORTEZ MARQUEZ                001001
000000284                991115073650          000000000032000MIGUEL RAMIREZ CERVANTES                001001
000000285                991500142673          000000000032000MYRNA GUADALUPE VALDEZ BARRERAS         001001
000000286                991539887722          000000000032000MISAEL CORTEZ ARENAS                    001001
000000287                991540017548          000000000072000SAGRARIO TRINIDAD RAMIREZ               001001
000000288                991520864968          000000000138500HECTOR JOSE ILLAN DE LA O               001001
000000289                991582280205          000000000126640DIANA KARINA VIZGUERRA ROCHA            001001
000000290                991587365772          000000000112000MIGUEL ANGEL MARTINEZ MEDORIO           001001
000000291                991543619696          000000000042000DULCE ABIGAIL VILLAFANA ESTRADA         001001
000000292                991538248055          000000000032000MARICRUZ GONZALEZ MARTINEZ              001001
000000293                991536761154          000000000029333MARIA MONSERRATH SALAZAR MIRANDA        001001
000000294                991583113674          000000000195585ROSA EDITH OLIVARES ESPINOZA            001001
000000295                991579600922          000000000122000MARIA GUADALUPE PEREZ CARMONA           001001
000000296                991505375700          000000000112000BENEDICTO RIVERA OBISPO                 001001
000000297                991537259880          000000000114600ALLFADIR YAKIN RUBIO GALINDO            001001
000000298                991507657351          000000000029333JANOS GERARDO LOZADA JUAREZ             001001
000000299                991502546356          000000000042000EDGAR JOSE GARCIA SARDINA               001001
000000300                991501427659          000000000032000ALMA ROSA SARMIENTO RODRIGUEZ           001001
000000301                991504519016          000000000730812JESUS GUILLERMO GOMEZ TLALOLINI         001001
000000302                991535708567          000000000032000PRISCILA YITCEL SAMANIEGO RODRIGUEZ     001001
000000303                991569218265          000000000117000DIANA CAROLINA CABALLERO SALMON         001001
000000304                991543777283          000000000029333GERARDO ABEL MARTINEZ RUEDA             001001
000000305                991565449688          000000000042000ANGEL RODOLFO LEON GALLEGOS             001001
000000306                992876340008          000000000032000MARCO ANTONIO TREVINO REYES             001001
000000307                991531876872          000000000032000HENRY ARAEL VERA XEC                    001001
000000308                991578345158          000000000032000MARIA GUDELIA CABALLERO CHI             001001
000000309                991523509616          000000000116300MARIANA YADIRA VELAZQUEZ PEREZ          001001
000000310                991524739003          000000000042000EMILIO ALEJANDRO GRACIA PEREZ           001001
000000311                991562520265          000000000042000ROCIO ABIGAIL MENDOZA ARREDONDO         001001
000000312                992992560038          000000000088500VERONICA MARIA SAUCEDO GALVAN           001001
000000313                991558745334          000000000042000JULIAN ALFONSO MATA CASTILLO            001001
000000314                992797345631          000000000082000GLENDA IVONE PACHECO PANTOJA            001001
000000315                991572749583          000000000137048ALMA ROSA DE DIEGO HUERTA               001001
000000316                991536709815          000000000137000MARIA DEL CARMEN HERNANDEZ GOMEZ        001001
000000317                991553567420          000000000042000JORGE LUNA CASTILLO                     001001
000000318                991537503161          000000000042000SARAHI ANTELO LOYA                      001001
000000319                991562156876          000000000042000MIGUEL ALFREDO DIAZ BACAB               001001
000000320                991544344998          000000000255840MAYRA MARTINEZ BAUTISTA                 001001
000000321                992894163818          000000000067000NAUM ALONSO RODRIGUEZ                   001001
000000322                991519141278          000000000092000KARINA MEJIA SALAS                      001001
000000323                992846791514          000000000042000JORGE LEONARDO FLORES CHAVEZ            001001
000000324                991562832112          000000000029333JUAN MIGUEL LEMUS DIAZ                  001001
000000325                991599149752          000000000032000LAURA ELIZABETH GUTIERREZ BARAJAS       001001
000000326                991584982851          000000000042000GRISELDA ISABEL PEREZ TORRES            001001
000000327                991597097754          000000000032000DAVID LEDEZMA CORONEL                   001001
000000328                991597312444          000000000109900BEATRIZ RODRIGUEZ JUAREZ                001001
000000329                991525413556          000000000042000JUAN GILBERTO UC POOT                   001001
000000330                990455112931          000000000072000RAFAEL CASTILLO CHAVEZ                  001001
000000331                991522615149          000000000042000RAYMUNDO GARCIA CAMPOS                  001001
000000332                991517847510          000000000032000JONATHAN ALFREDO ROMERO DURAN           001001
000000333                991557528054          000000000042000JAIME MENDOZA VALENCIA                  001001
000000334                991540704444          000000000042000PAKAL ROSALES GUERRERO                  001001
000000335                991519473609          000000000032000TITO ALEXSAIN PACHECO ESPINOZA          001001
000000336                991507338152          000000000111200JOEL EDUARDO SILVA RAMIREZ              001001
000000337                991536296421          000000000072000MARIA CANDELARIA CASTILLO RODRIGUEZ     001001
000000338                991505963535          000000000150250JUAN ALBERTO MEJIA SARABIA              001001
000000339                992982506610          000000000036660ANA PAULINA DELGADO REYES               001001
000000340                991501269577          000000000284375MARIA GUADALUPE ESPINO ESPINO           001001
000000341                991534074394          000000000392500JULIO CESAR BOCANEGRA HERNANDEZ         001001
000000342                992908812764          000000000033895PRISCILLA JAZMIN MANTEROLA MARCELINO    001001
000000343                991168305323          000000000033895CYNTHIA GRACIELA ROMERO RODRIGUEZ       001001
000000344                991142508044          000000000194667FELICITAS RIOS CASTILLO                 001001
000000345                991545404819          000000000452387SILVIA LORENA FONSECA ROBLES            001001
000000346                991530044865          000000000484228MARIA GUADALUPE LOPEZ ZAMBRANO          001001
000000347                991568061460          000000000386196ELIZABET DIAZ VILLANUEVA                001001
000000348                992913009637          000000000077000VICTOR VARGAS GALINDO                   001001
000000349                991501236469          000000000033895LIZETH ADRIANA CORONADO SANCHEZ         001001
000000350                992709072438          000000000461804ROSENDA VAZQUEZ PENA                    001001
000000351                991545667308          000000000158400ADRIANA ANAHY AVILA IRACHETA            001001
000000352                990465162025          000000000605643KARLA YADIRA ESPARZA ALONSO             001001
000000353                992865735831          000000000403343MARIO ENRIQUE LOMELI COVARRUBIAS        001001
000000354                991531856815          000000000292275HUGO GUERRERO IZAGUIRRE                 001001
000000355                991527450489          000000000261480GIBRAN GERMAN VALDEZ CHAVEZ             001001
000000356                992899365125          000000000283440LILIANA MONTANO GARCIA                  001001
000000357                991163070387          000000000112200JORGE LUIS GONZALEZ GARCIA              001001
000000358                991409820574          000000000102975MARIA DE JESUS VALENCIA GUTIERREZ       001001
000000359                991516689496          000000000047000GUADALUPE VANESSA SIMENTAL NEVAREZ      001001
000000360                991511630485          000000000187880MA TRINIDAD GOMEZ TADEO                 001001
000000361                992723086011          000000000219608ELIZABETH TORRES RAMOS                  001001
000000362                991571289608          000000000182783JULIO CESAR GODOY TOLENTINO             001001
000000363                990473231429          000000000292428JHOVANNY MARTINEZ HERNANDEZ             001001
000000364                992949140816          000000000490719KAROLA SILVANA RIVERA MORALES           001001
000000365                991564488571          000000000112000MARIA DEL REFUGIO MOLINA IBOA           001001
000000366                991551962035          000000000169230FRANCISCO GUERRA GONZALEZ               001001
000000367                991586540875          000000000377520JOSE MANUEL ESPARZA LOPEZ               001001
000000368                991529850506          000000000142000VICTORIA AIXA PEREZ AVILA               001001
000000369                991579302360          000000000039500ELIZABETH MIRELES ZARAGOZA              001001
000000370                991577899890          000000000072000JUAN MANUEL DE LEON ESCOBAR             001001
000000371                991519783202          000000000161530GILBERTO DOMINGUEZ RODRIGUEZ            001001
000000372                991592887056          000000000239960GENY LILIANA HERNANDEZ NUNEZ            001001
000000373                991597231894          000000000210816HEIDI MANZO SANCHEZ                     001001
000000374                991477432399          000000000153800JUANITA ALEJANDRA ZAMUDIO REYES         001001
000000375                991503312345          000000000032000BERENICE GUADALUPE LOPEZ ROSALES        001001
000000376                991535217584          000000000186860LIZETH GUADALUPE PEREZ CARREON          001001
000000377                990464377672          000000000229620OMAR MISAEL LOPEZ URBINA                001001
000000378                991507954856          000000000146200JOSEFINA MEDINA GARCIA                  001001
000000379                991506963658          000000000141680IMELDA SANCHEZ SANDOVAL                 001001
000000380                991569589201          000000000155484JOSE ALFREDO HERNANDEZ CHAVEZ           001001
000000381                991580022306          000000000463560BULMARO DANIEL ELIZARRARAS GONZALEZ     001001
000000382                991535721563          000000000088500EDGAR GUILLERMO ARAGON NAVARRO          001001
000000383                992875833531          000000000228570SANDRA IBARRA GARCIA                    001001
000000384                991586131387          000000000137032MARIA DEL CARMEN CASTRO FLORES          001001
000000385                992907448570          000000000275350ALBERTO ALONSO MENDOZA VAZQUEZ          001001
000000386                991595293581          000000000211124AZUCENA MARIA DE JESUS CIBRIAN DAMIAN   001001
000000387                991520465631          000000000124895NEILY SUSANA RAMIREZ AGUILAR            001001
000000388                991516059756          000000000104800EDGAR ALEJANDRO MORALES LOPEZ           001001
000000389                991502482913          000000000365316NEREYDA ANGUIANO RIVERA                 001001
000000390                991280786624          000000000396275MONICA PATRICIA MILLAN NEQUIZ           001001
000000391                992633475816          000000000213058NANCY HERRERA MIRANDA                   001001
000000392                991413152049          000000000603117NATALIA DOMINGUEZ PALACIOS              001001
000000393                991413152391          000000001332611GABRIELA CORTEZ FLORES                  001001
000000394                991160678708          000000000592873ELIA GARCIA ORTEGA                      001001
000000395                991413148343          000000000450000LUIS ANGEL ROMERO HERNANDEZ             001001
000000396                991523117666          000000000400630SANDRA ALICIA NUNEZ CERVANTES           001001
000000397                991494132815          000000000453762AURELIO NICOLAS MALDONADO               001001
000000398                991528112401          000000000280038SARA CASTRO SANTOS                      001001
000000399                991543564584          000000000727140AIDA LUNA ARTEAGA                       001001
000000400                991503385127          000000000437592GEMMA NAYELLY VILLA GUTIERREZ           001001
000000401                992687151055          000000000481672JESICA FRANCISCA JIMENEZ ROMERO         001001
000000402                992688688397          000000000082067FRANCISCO MARTIN TERAN DEL VALLE        001001
000000403                991160743046          000000000292200JUAN LUIS LOPEZ SOTO                    001001
000000404                991504059037          000000000419000ALEJANDRA VELAZQUEZ CARMONA             001001
000000405                991534439582          000000000182000DULCE CAROLINA JUAREZ TORIBIO           001001
000000406                991518358242          000000000117950GERSON JOSUE GARCIA FLORES              001001
000000407                991580945857          000000000486353ANTONIO MORALES BETANZOS                001001
000000408                991510345973          000000000205875IRMA ESTEPHANIE MARTINEZ LAZCANO        001001
000000409                991517503471          000000000287565JHEIMY CUAUTLE PACHECO                  001001
000000410                992988771529          000000000288500MARCO ANTONIO CRUZ BAZAN                001001
000000411                991569357974          000000000145438MARIA DE LOS ANGELES CARRICHI HERNANDE  001001
000000412                991552312891          000000000210495ALEJANDRO CRUZ ZENON                    001001
000000413                991575384187          000000000227680ANTONIO DE JESUS ALCARAZ REYES          001001
000000414                991578060200          000000000035250VIRIDIANA RODRIGUEZ GARCIA              001001
000000415                991582133091          000000000449656NANCY LUCERO VARGAS SANTIAGO            001001
000000416                992975362237          000000000033895GUSTAVO ALEXIS TORRES MARTINEZ          001001
000000417                990472881071          000000000168500FELICIANO RAMOS JARAMILLO               001001
000000418                991541657917          000000000384040SANDRA ARLETH CUEVAS MARIACA            001001
000000419                992959489169          000000000323142CIPACTLI RINCON MEDRANO                 001001
000000420                991121179756          000000000203500FRANCISCO PEREZ HERNANDEZ               001001
000000421                992730471682          000000000400190SILVIA BAUTISTA JUAREZ                  001001
000000422                991169396977          000000000033895OSCAR VICTORIA LOPEZ                    001001
000000423                991469088172          000000000423440RAMON MORALES JUAREZ                    001001
000000424                991560697764          000000000152550MARIA TERESA PADILLA MIRANDA            001001
000000425                991549317856          000000000055450MARCELA LOPEZ ORTEGA                    001001
000000426                991500464848          000000000188733PATRICIA NAVIDAD DE LA LUZ MORALES      001001
000000427                991141025694          000000000260430SUSANA AYDA REYES MARTINEZ              001001
000000428                991589089996          000000000082000CESAR ANASTACIO DEL ANGEL               001001
000000429                992968545715          000000000194513DAVID LOPEZ RAMIREZ                     001001
000000430                991591638397          000000000306100JESUS REYES MORALES                     001001
000000431                991138708398          000000000299500RUTH GABRIELA ABARCA MELENDEZ           001001
000000432                992890345326          000000000033895CATALINA SANTIAGO LEYVA                 001001
000000433                991177614209          000000000803530JUAN EDMUNDO LUNA AGUILLON              001001
000000434                991520381004          000000000252385ELEAZAR MANUEL DAMIAN SANTIAGO          001001
000000435                992994304438          000000000187050REYNA OFELIA JACINTO LAGUNA             001001
000000436                992905932300          000000000396775ZURISADAI BURGOS BETANCOURT             001001
000000437                991524915755          000000000153095ELSI YARATSEL TOLEDO CHAVEZ             001001
000000438                991525286344          000000000229500GUADALUPE LIBIEL BUSTAMANTE SERENA      001001
000000439                991164292200          000000000326500ENRIQUE MENDOZA ORTIZ                   001001
000000440                990459796452          000000000354700NICOLAS PADILLA BELTRAN                 001001
000000441                991529936491          000000000033895BLANCA ARGELIA SEVERO VALENCIA          001001
000000442                991529445684          000000000033895IVAN ISMAEL RAMIREZ CRUZ                001001
000000443                991585839674          000000000166903KARLA YARAVITH HERNANDEZ TINOCO         001001
000000444                990461196413          000000000029150CRISTINA MENDIOLA MOSQUEDA              001001
000000445                991536703550          000000000274094LETICIA ARENAS RUEDA                    001001
000000446                991527231809          000000000033895ADRIANA BERENICE AGUILAR ALONSO         001001
000000447                992892744635          000000000280250ANDRES ARTURO MEDINA BERMUDEZ           001001
000000448                991541566105          000000000033895JOSUE MANUEL ZOZAYA HERNANDEZ           001001
000000449                991541797468          000000000190918MARIA GUADALUPE SANCHEZ CAMACHO         001001
000000450                991158406553          000000000033895ANAKAREN VALENCIA GARCIA                001001
000000451                991205500397          000000000164550VICTOR HERNANDEZ SANCHEZ                001001
000000452                991548692270          000000000154797NANCY JAZMIN MARQUEZ PALOMARES          001001
000000453                991548756430          000000000465450DIANA GONZALEZ MARTINEZ                 001001
000000454                992986990924          000000000147150CESAR PAZ FERRER                        001001
000000455                992903641899          000000000017000EVA GONZALEZ ALVAREZ                    001001
000000456                991166469523          000000000165950JUAN CARLOS HERNANDEZ HERNANDEZ         001001
000000457                991554212770          000000000472000JOSE DE JESUS MONZALVO GARCIA           001001
000000458                991502297469          000000000601640IVAN GONZALEZ ESTRADA                   001001
000000459                990464404092          000000000168450MARIA LUISA HERRERA LUNA                001001
000000460                991519961992          000000000033895GABRIELA ROSALES RUBIO                  001001
000000461                991145552141          000000000153473SERGIO FERNANDO GARCIA TELLEZ           001001
000000462                991569709150          000000000440829VERONICA PLATA AMAYA                    001001
000000463                991575884101          000000000325251JORGE MUNOZ VILLASANA                   001001
000000464                991576411924          000000000203325ADOLFO CABRERA GOMEZ                    001001
000000465                992984619927          000000000211575LUIS ANTONIO SANTIAGO MERIDA            001001
000000466                991554240561          000000000033895JUAN JOSE GONZALEZ MARTINEZ             001001
000000467                990459162909          000000000133150BRISA LINDA OLVERA JIMENEZ              001001
000000468                991582610329          000000000137150GABRIEL JIMENEZ SANTOS                  001001
000000469                992674127331          000000000141930FRANCISCO JAVIER GOMEZ MONTES DE OCA    001001
000000470                991583791599          000000000033895NAYELI YAZLIN HERNANDEZ CASTILLO        001001
000000471                991500459154          000000000033895GUADALUPE MEJIA GUTIERREZ               001001
000000472                991553682552          000000000324294FABRICIO SANTIAGO ESTEVEZ HEREDIA       001001
000000473                991501862360          000000000189150ROBERTO MORALES MARTINEZ                001001
000000474                991509733143          000000000330270MARIO DOMINGUEZ MIGUEL                  001001
000000475                991420823813          000000000213793JUAN FERNANDO LEON RAMIREZ              001001
000000476                992997184921          000000000025000KAREN JOSELYN SAAVEDRA LOPEZ            001001
000000477                992692364654          000000000161100PATRICIA VENEGAS CAMPOS                 001001
000000478                992966229492          000000000057688ALBERTO INIESTRA CAMPILLO               001001
000000479                991545982642          000000000029150AIDA ANDRES MARTINEZ                    001001
000000480                992877094825          000000000034450ANA IVONNE GUTIERREZ GALINDO            001001
000000481                992981742469          000000000021150MARIA DE LOS ANGELES LUGO VENCES        001001
000000482                991563446026          000000000029150CRISTINA ZARATE PADILLA                 001001
000000483                991520957359          000000000146200ADRIAN LEON MENDOZA                     001001
000000484                992976629539          000000000710816ALONDRA LIZETTE GUEVARA SANTOYO         001001
000000485                991575307767          000000000454844JOSE OLIMPO SANCHEZ POSADA              001001
000000486                991531710869          000000000122700JESUS DANIEL CHAVEZ GARCIA              001001
000000487                992888189862          000000000192748HECTOR VALADEZ LUGO                     001001
000000488                991533484592          000000000163663CESAR ANTONIO HERNANDEZ                 001001
000000489                991521462311          000000000271440JENNIFER ROMAN MORENO                   001001
000000490                991530851994          000000000192230JOSE LUIS REYES JUAREZ                  001001
000000491                991550530631          000000000262096EDWIN ANTONIO VILLALPANDO TORRES        001001
000000492                992861995855          000000000217503VICTOR HUGO GONZALEZ GUTIERREZ          001001
000000493                991124206711          000000000088500ADRIAN GAMBOA REYES                     001001
000000494                992929946373          000000000195120SARAI DIAZ BRAVO                        001001
000000495                991580955779          000000000468932DIANA ELIZABETH MORALES BAEZ            001001
000000496                992965921384          000000000330560EDGAR EMMANUEL PENA MENDEZ              001001
000000497                992949437517          000000000167160MAGDALENA QUINTERO PASTOR               001001
000000498                991530579017          000000000226925NELLY JAZMIN VILLA ESPINOSA             001001
000000499                991548235425          000000000579092ISRAEL RICARDO GONZALEZ HERNANDEZ       001001
000000500                991551911922          000000000082067JOSE ALFREDO BECERRIL MORALES           001001
