000000001                991518305869          000000000301920MARIA ALEJANDRA VARELA NAVA             001001
000000002                991549899820          000000000282821MARIA DEL CARMEN TINAJERO MARTINEZ      001001
000000003                992948404011          000000000107400JOSE DE JESUS GERARDO SANCHEZ SANCHEZ   001001
000000004                990455754240          000000000196420EDWIN DARIO MONTANO MEDINA              001001
000000005                991501911208          000000000092000DAVID GONZALEZ LUNA                     001001
000000006                991534391381          000000000032000LUCIA ANTONIA TRUJILLO MENDOZA          001001
000000007                991547905524          000000000514581VICTOR ARMANDO MORALES GOMEZ            001001
000000008                991563700562          000000000203840JENNIFER VERA LEMUS                     001001
000000009                991523371657          000000000105900CESAR ARMANDO NEGRETE MORENO            001001
000000010                991514739038          000000000372484JULIO CESAR ROMERO DIAZ                 001001
000000011                991543844907          000000000352363ALFREDO DOMINGUEZ GALVEZ                001001
000000012                992923928624          000000000263025LUIS GARAY PEREZ                        001001
000000013                991566597729          000000000212250LAURA SUSANA SANCHEZ HERNANDEZ          001001
000000014                991574976568          000000000212000ANALILIA TORRES SANJUAN                 001001
000000015                991546067258          000000000294020MIGUEL CALZADA CARRASCO                 001001
000000016                991577081998          000000000829850MARIA GUADALUPE DIAZ QUINTERO           001001
000000017                991578376509          000000000318580ALEJANDRO VERA RODRIGUEZ                001001
000000018                991579366663          000000000127446FERNANDO JERONIMO MARTINEZ              001001
000000019                990465106745          000000000172000RUTH RODRIGUEZ RAMIREZ                  001001
000000020                991576052358          000000000308088ALFONSO JAVIER LOPEZ PERALTA            001001
000000021                991506657486          000000000088500RICARDO FUENTES MARTINEZ                001001
000000022                992958999120          000000000323100NESTOR DARIO SANCHEZ MARTINEZ           001001
000000023                991581961899          000000000135079RIGOBERTO MIGUEL RAMOS                  001001
000000024                991568945254          000000000350604MARIANA RODRIGUEZ ARENAS                001001
000000025                991509483621          000000000327200JORGE LUIS ROSALES MARTINEZ             001001
000000026                991582215911          000000001134449JOSE REYNALDO NOVOA OBISPO              001001
000000027                991256163939          000000000305404CINTHYA DOMINGUEZ LOPEZ                 001001
000000028                991141596225          000000000000463TONANTZIN LOPEZ CORTAZAR                001001
000000029                991550585095          000000000290884CRHISTIAN JANDETTE SORIANO              001001
000000030                991196017401          000000000111200ARTURO SANCHEZ LOPEZ                    001001
000000031                991484183843          000000000386252HECTOR CONTRERAS FLORES                 001001
000000032                991569384050          000000000265740MARIO ALBERTO CARRERA FERNANDEZ         001001
000000033                991585185206          000000000432450LUIS BERNARDO MESINAS AGUILAR           001001
000000034                991585415635          000000000307800ARELLY MEJIA SALAS                      001001
000000035                991581605984          000000000368850MIGUEL ANGEL PORTELA CUEVAS             001001
000000036                991554434034          000000000015274ARMANDO NAVA MONTANO                    001001
000000037                991526059044          000000000186024BRAYAN ALEXIS RANGEL VAZQUEZ            001001
000000038                992944296931          000000000192675ALVARO SANTIAGO SANTIAGO                001001
000000039                991522045080          000000000233020MIGUEL ISAAC MALDONADO SANCHEZ          001001
000000040                991588899145          000000000169596HECTOR IVAN JARDON GALINDO              001001
000000041                991549605986          000000000566240MARIO ALBERTO HERNANDEZ CALZADA         001001
000000042                992874803302          000000000181500TERESA GONZALEZ ALARCON                 001001
000000043                992968877106          000000000207000ISRAEL HERRERA ESCOBAR                  001001
000000044                991555349900          000000000204960KARLA ALEJANDRA VAZQUEZ ESPINOSA        001001
000000045                991508944625          000000000162000DIANA CARBAJAL OLVERA                   001001
000000046                991554655648          000000000545408SUSANA ARLAETH SANCHEZ TORRES           001001
000000047                991560109312          000000000337613VIRIDIANA MARBELLA CAMARILLO LOPEZ      001001
000000048                992850996661          000000000340675MARISOL VALENZUELA OROZCO               001001
000000049                991551817752          000000000088500MANUEL ANGEL GARCIA MARTINEZ            001001
000000050                991591724838          000000000092800LILIANA MACEDA PENALOZA                 001001
000000051                991563977034          000000000157000TONATIUH BARTOLOME PENA CASTILLO        001001
000000052                991507803578          000000000216693MIRIAM DAYANAVA ACEVEDO NAVARRO         001001
000000053                991510492802          000000000242850HECTOR MARIO MALDONADO LOPEZ            001001
000000054                991572471507          000000000119000KAREN ANALHY GONZALEZ PEREZ             001001
000000055                992907828195          000000000203680MAURO ALFREDO CAZARES ZEPEDA            001001
000000056                992994331044          000000000108500MOISI GONZALEZ VALLE                    001001
000000057                992968874425          000000000152000ERICK JOVANI SANCHEZ ORTIZ              001001
000000058                991524826895          000000000139240JOSE ARMANDO ROBLES PEREZ               001001
000000059                991577420277          000000000457904HECTOR ENRIQUE ROLDAN CRUZ              001001
000000060                991500205989          000000000179456JORGE ALBERTO GUTIERREZ IBARRA          001001
000000061                991553146103          000000000101000ARNOLDO LOPEZ ALVARADO                  001001
000000062                991521569379          000000000172000RICARDO ERICK BARRERA SANTIAGO          001001
000000063                991553682366          000000000386600JOSE ALBERTO SALINAS GUTIERREZ          001001
000000064                991502500538          000000000279520YURIXHI PAOLA TORRES RAMIREZ            001001
000000065                991587058950          000000000142000KAREN ITZEL LOPEZ JUAREZ                001001
000000066                991501441091          000000000238656PATRICIA VALENTAN CANEDO                001001
000000067                991550529144          000000000161360ALAN EMMANUEL SANCHEZ CIPRIANO          001001
000000068                991574190963          000000000181880ALEJANDRO FABIAN VILLANUEVA MARTINEZ    001001
000000069                991523344022          000000000124895ULISES ROJAS GUTIERREZ                  001001
000000070                991553681866          000000000203880RAFAEL ALEJANDRO ROBLES MARTINEZ        001001
000000071                991569763565          000000000416440DANIEL MANRIQUEZ LOPEZ                  001001
000000072                991552779733          000000000094040JORGE LEONARDO MENDOZA GALICIA          001001
000000073                992856628818          000000000131000FERNANDO VAZQUEZ LOPEZ                  001001
000000074                991520940771          000000000147920ANNA LOURDES CRUZ PERALTA               001001
000000075                992874592344          000000000431011CHRISTIAN JONATHAN LUNA ORTEGA          001001
000000076                991549471637          000000000320444ELIZABETH PEREZ PERALTA                 001001
000000077                991583411306          000000000185160JUAN CARLOS TORALES ZAFRA               001001
000000078                991506847983          000000000202920ISRAEL GARCIA GODINEZ                   001001
000000079                991566563786          000000000135344ULISES RIVERA ANGEL                     001001
000000080                991546664873          000000000869160YASMIN ARELI ESQUIVEL DUARTE            001001
000000081                991541346970          000000000187000ENRIQUE FRANCISCO SEBASTIAN MARTINEZ    001001
000000082                991438080593          000000000098689MOISES UGARTE MONTES                    001001
000000083                991518793363          000000000304280DILLAN TABOADA SANCHEZ                  001001
000000084                991515121976          000000000241360DIANA ROCHA GARCIA                      001001
000000085                991519883220          000000000261788JUAN BERNARDO CERVANTES GONZALEZ        001001
000000086                991532049775          000000000249028CARLOS ALDAHIR VIVEROS ANTUNEZ          001001
000000087                991577858739          000000000164576DIANA ELIZABETH HERNANDEZ GONZALEZ      001001
000000088                991550457806          000000000356528ERICK ALFONSO MARTINEZ MACEDA           001001
000000089                991552880990          000000000129100ANGELICA MICHELLE GONZALEZ MONDRAGON    001001
000000090                991522960532          000000000232252ENRIQUE AMADO GALINDO COACHE            001001
000000091                991557479665          000000000192280KARLA MARIA QUIROZ HERNANDEZ            001001
000000092                991541674900          000000000249520ALEJANDRO YANEZ ESQUIVEL                001001
000000093                991512742230          000000000306140LAURA JANETH BONILLA GRAJALE            001001
000000094                991586400518          000000000208020JUAN PABLO RIVERA GONZALEZ              001001
000000095                991585045509          000000000119600MARCOS DORANTES CRUZ                    001001
000000096                991446392210          000000000167200ALEJANDRO AHUMADA ROMERO                001001
000000097                991546401012          000000000236272VANESSA ALVAREZ LUCAS                   001001
000000098                991507104797          000000000099000ARIANA YAEL PEREZ ROSALES               001001
000000099                991588692117          000000000198164ESTEBAN JOSET GARDUNO AGUILAR           001001
000000100                991532775278          000000000059832MONICA JAQUELIN LOPEZ LOPEZ             001001
000000101                991567903653          000000000102996MARGARITA DE LA CRUZ DAMIAN             001001
000000102                992923624315          000000000117900CINTHIA SUSANA REYES MENDOZA            001001
000000103                991182080338          000000000032000MARIA CRISTINA MAYA ROJAS               001001
000000104                991534001328          000000000177680IVONNE JANNET RODRIGUEZ DELGADO         001001
000000105                991510131349          000000000108080MARIA DEL CARMEN FERNANDEZ VILLAFAN     001001
000000106                991563406377          000000000327760LUIS MANUEL MORALES RUIZ                001001
000000107                991529768681          000000000111900OSCAR EMMANUEL SANCHEZ URIBE            001001
000000108                991536703481          000000000032000SEBASTIAN CASTILLO MARTINEZ             001001
000000109                991586329970          000000000085463GUADALUPE MIREYA PACHECO MATA           001001
000000110                991139986634          000000000239680CARLOS SANCHEZ OCON                     001001
000000111                991511588513          000000000116000BEATRIZ ADRIANA AGUIRRE VAZQUEZ         001001
000000112                991518854168          000000000107000JAVIER IVAN PEREZ DE PAZ                001001
000000113                991512370783          000000000108900CARLOS MAURICIO GUERRERO MATEOS         001001
000000114                992878683824          000000000088975CONSUELO VASQUEZ MARIANO                001001
000000115                991540365988          000000000155360OSCAR HURTADO SANCHEZ                   001001
000000116                991518611650          000000000092000JESSICA JORGE CARBALLO                  001001
000000117                991522971224          000000000097000LUIS HUMBERTO PEREIDA AGUAYO            001001
000000118                991554210207          000000000138896ALDAIR MORALES CARRILLO                 001001
000000119                991553148645          000000000088500JUAN MANUEL SOTO BRISENO                001001
000000120                991506358210          000000000042000AMAHIRAIN GALINDO GONZALEZ              001001
000000121                991541763758          000000000032000JAVIER TRUJILLO CORNEJO                 001001
000000122                991522845116          000000000065508ERANDY GABRIELA GONZALEZ DAVILA         001001
000000123                991542938984          000000000186432JOSE ALBERTO PONCE MORALES              001001
000000124                991292319810          000000000202000TERESA MOCTEZUMA VAZQUEZ                001001
000000125                991543480958          000000000032000ROBERTO JAVIER CERVANTES ESPARZA        001001
000000126                991576144627          000000000032000JONATHAN MORALES SOSA                   001001
000000127                991584181835          000000000199968ADRIANA FLORES SUAREZ                   001001
000000128                991523589673          000000000092000LIZETH DOMINGUEZ PAGAZA                 001001
000000129                991584768833          000000000072000JOHAN ORNELAS CARRO                     001001
000000130                991503404576          000000000381540CATALINA ORTIZ HERRERA                  001001
000000131                991553681904          000000000142000NARCIZO GERARDO LOPEZ SEGURA            001001
000000132                991502765214          000000000032000ZURI YULIETT MARTINEZ LIMON             001001
000000133                991538741902          000000000032000IRIS ABIGAIL HERNANDEZ ORTIZ            001001
000000134                992992425726          000000000032000MARIA DE JESUS SANTIAGO QUINTERO        001001
000000135                991584430454          000000000143100KARLA ADRIANA TORRES ARELLANO           001001
000000136                991543028981          000000000116268ANA MARIA ANTONIO ROSAS                 001001
000000137                991584667657          000000000101000MARIA RAQUEL BELTRAN BUENDIA            001001
000000138                991529609412          000000000142240LUIS JAVIER MARTINEZ ESPEJEL            001001
000000139                991536556191          000000000150434EDGAR ULISES MARTINEZ CRUZ              001001
000000140                991147273843          000000000117000LUIS VALDEZ HOFFAY MARTINEZ             001001
000000141                991553423023          000000000189960BRAYAN DAVID PEREZ DE LA CRUZ           001001
000000142                991496745253          000000000137000JESSICA JUAREZ RAMIREZ                  001001
000000143                991509665547          000000000047000ANA LAURA CERON MORENO                  001001
000000144                990476352162          000000000072000MARBELLA EULAGE JUAREZ                  001001
000000145                991553997984          000000000051040JOSE LUIS HINOJOS GONZALEZ              001001
000000146                991535627080          000000000042000ROBERTO ZEPEDA HERNANDEZ                001001
000000147                991556333270          000000000042000JUAN CARLOS HERNANDEZ MARTINEZ          001001
000000148                992851100092          000000000098400FRANCISCO JAVIER CERON HERRERA          001001
000000149                991545708971          000000000174300JOSE SALVADOR COLUMNA MARTINEZ          001001
000000150                991570215214          000000000042000CITLALII FABIOLA NOLASCO ORTEGA         001001
000000151                991544166767          000000000099600DIEGO ARTURO ROMERO MARTINEZ            001001
000000152                992925494486          000000001322607JUAN IGNACIO CORDOVA HERNANDEZ          001001
000000153                991572033715          000000000342060JESSICA LEON BAUTISTA                   001001
000000154                991593530674          000000000032000FRANCISCO FERNANDO GARCIA CONTRERAS     001001
000000155                991504657842          000000000109300LUIS FERNANDO GARCIA MARTINEZ           001001
000000156                991539886128          000000000092000BLANCA ESTHELA MOO ESQUIVEL             001001
000000157                991553543824          000000000104960ERIC GOMEZ SALVADOR                     001001
000000158                992866563260          000000000302440ADRIANA MENDOZA ALVAREZ                 001001
000000159                991547661166          000000000042000MARCO ANTONIO LOPEZ MAYA                001001
000000160                991523395548          000000000168240ALFREDO ANTONIO MONTIEL CASTILLO        001001
000000161                992812997762          000000000206148EVELIN MARLENE ESTRADA GONZALEZ         001001
000000162                991585254330          000000000236600ROSA ISABEL ORTEGA DIEGUEZ              001001
000000163                992936988733          000000000314072ANALI ROMERO RODRIGUEZ                  001001
000000164                991552875543          000000000293788ERICK ALEXIS FLORES MORALES             001001
000000165                991551078132          000000000122000NAYELLI VIGUERAS SANCHEZ                001001
000000166                991539193649          000000000083220RAFAEL SANCHEZ CASTRO                   001001
000000167                991547227159          000000000157000MARICELA ZACATE PALACIOS                001001
000000168                991530756633          000000000032000RAYMUNDO ARMANDO RUEDAS DE LA CRUZ      001001
000000169                991269455817          000000000072000LUIS GERARDO BUENDIA GARCIA             001001
000000170                992999140050          000000000032000RICARDA SERNAS IBARRA                   001001
000000171                991555844414          000000000091040EDGAR URIEL SALCEDO ARROYO              001001
000000172                991522684163          000000000192960MIGUEL ANGEL VAZQUEZ RAMIREZ            001001
000000173                991548470402          000000000204560LUIS MANUEL MARTINEZ PERAFAN            001001
000000174                992711923382          000000000096500ERICK ANTONIO CABRERA JIMENEZ           001001
000000175                991507817972          000000000124000MARIA DE LA PAZ MAYA TELLEZ             001001
000000176                991533981290          000000000072000MARA VANESSA VARGAS JIMENEZ             001001
000000177                991508806494          000000000034500ERNESTO RAFAEL NUNEZ LOPEZ              001001
000000178                991569985144          000000000120428EDWIN GUADALUPE APARICIO VARGAS         001001
000000179                992966773990          000000000088500CARLOS SOTO CARRILLO                    001001
000000180                991561666455          000000000035333GUADALUPE GARCIA VALENCIA               001001
000000181                991500287519          000000000127640DAYNEET AVILES ALARCON                  001001
000000182                991521406515          000000000436224FERNANDO VALENCIA CASTRO                001001
000000183                991548649738          000000000032000JOCABEB YOSELIN AGUILAR MENDOZA         001001
000000184                991590152997          000000000122000DIANA LAURA GARCIA PEREGRINO            001001
000000185                991569170173          000000000330440EDWIN DOMINGUEZ RAMIREZ                 001001
000000186                991548712598          000000000148084SERGIO ROLDAN ALVAREZ                   001001
000000187                991572349322          000000000072000LUIS ENRIQUE MARQUEZ CERRANO            001001
000000188                991540370998          000000000032000JOSE ENRIQUE REYES HERNANDEZ            001001
000000189                991574426285          000000000032000HECTOR ANGEL NUNEZ MALDONADO            001001
000000190                991521087558          000000000042000NATALY MARTINEZ EVANGELISTA             001001
000000191                991553148866          000000000462412JORGE ALBERTO CONTRERAS SEGUNDO         001001
000000192                991567223547          000000000137000LUIS EDUARDO FLORES PICHARDO            001001
000000193                992997595182          000000000216900SERGIO SAUL MARTINEZ SALAZAR            001001
000000194                991531052524          000000000072000EDER GEOVANNI EVARISTO PENALOZA         001001
000000195                991542301285          000000000147000LUIS ANGEL RODRIGUEZ TORRES             001001
000000196                991174753690          000000000110080ALAN ISRAEL PEREZ LOPEZ                 001001
000000197                991522111647          000000000042000VERONICA ESTHER CRUZ ROLDAN             001001
000000198                991514097685          000000000285660OSCAR FLORES FLORES                     001001
000000199                991590028414          000000000092000EDUARDO SABINO MARTINEZ LUNA            001001
000000200                991500139010          000000000097000MARIA GUADALUPE MARTINEZ RAMIREZ        001001
000000201                991464471571          000000000095600CECILIA ESPERANZA FLORES AGUILA         001001
000000202                991538561357          000000000042000ARMANDO VELAZQUEZ CANTOR                001001
000000203                991520265052          000000000234760ROXANA AGUIRRE GONZALEZ                 001001
000000204                992974480767          000000000032000NOE MORALES PEREZ                       001001
000000205                991506908039          000000000092000GIBRAN EMMANUEL CONTRERAS ESPANA        001001
000000206                992864352009          000000001064505CARMEN JULIA BALAM SOLORZANO            001001
000000207                992974372484          000000000266560ERENDIRA CERVANTES LUNA                 001001
000000208                991511872888          000000000086813SANDRA GLORIA POZOS MARTINEZ            001001
000000209                991510210407          000000000042000MAURICIO HERNANDEZ CRUZ                 001001
000000210                991557547508          000000000032000CRISTINA JANET HERNANDEZ LAZCANO        001001
000000211                990460549002          000000000044139ARNALDO PAULIN ROBREDO                  001001
000000212                991597289637          000000000092000ENRIQUE MARTINEZ REYES                  001001
000000213                991588548824          000000000122000RODRIGO GEOVANNY RUBIO AGUILAR          001001
000000214                992977706014          000000000139200RODRIGO IVAN BECERRA TOBON              001001
000000215                992792136597          000000000042000MIGUEL ANGEL GARDUNO HERNANDEZ          001001
000000216                991597013453          000000000112320ARMANDO BALLATO JIMENEZ                 001001
000000217                991552842290          000000000072000DAVID ACXEL GUERRA VALENCIA             001001
000000218                992972264781          000000000032000HECTOR DANIEL JIMENEZ CRUZ              001001
000000219                992999350969          000000000042000OMAR ARELLANO GONZALEZ                  001001
000000220                991508811027          000000000127000CANDELARIA CARRILLO CABRERA             001001
000000221                991569743898          000000000231880ISAI CURIEL ANDRADE                     001001
000000222                991505971904          000000000072000ROBERTO CRUZ CORTEZ                     001001
000000223                992982015927          000000000185000JOSE ALFONSO PONCE JUAREZ               001001
000000224                991577340888          000000000051040GUADALUPE MARTINEZ GONZALEZ             001001
000000225                991518620138          000000000032000ANA KAREN POZOS ANDRADE                 001001
000000226                991525304175          000000000149175JESUS DANIEL RESENDIZ CAMPOS            001001
000000227                991524559074          000000000088500MARCO ANTONIO HERRERA GALICIA           001001
000000228                991545358671          000000000092000LUIS EDUARDO CORTES PRADO               001001
000000229                991528412128          000000000122000JOSE CARLOS MARTINEZ MIRANDA            001001
000000230                991584667606          000000000042000ALDO OCTAVIO SALAZAR VALENCIA           001001
000000231                991265352797          000000000042000ERICK SANCHEZ REBOLLAR                  001001
000000232                991242619814          000000000032000LUIS ERWIN GOMEZ NORIEGA                001001
000000233                991586848338          000000000072000JOSE DE JESUS GUTIERREZ HERNANDEZ       001001
000000234                991561770524          000000000092000ALI CORAL GARCIA PORTILLO               001001
000000235                991535483341          000000000032000MARIA CONCEPCION GONZALEZ CARREON       001001
000000236                991599823347          000000000042000FRANCISCO DAVID ROMERO RODRIGUEZ        001001
000000237                991553947424          000000000072000JOSE ADOLFO ORTUNO MENA                 001001
000000238                991561309968          000000000072000MARIA DEL CARMEN NOLI FRAGA             001001
000000239                991560861797          000000000072000VICTOR MANUEL PULIDO BUSTAMANTE         001001
000000240                990473039870          000000000072000MAURICIO CRUZ HERNANDEZ                 001001
000000241                991565295249          000000000072000DENNISE MONTSERRAT CARRILLO CAMARILLO   001001
000000242                991567760302          000000000072000ISMAEL ROSAS SANDOVAL                   001001
000000243                991521838857          000000000072000GUILLERMO UMANA ARELLANO                001001
000000244                991541786156          000000000072000RUTH RAMIREZ RAMIREZ                    001001
000000245                991436246435          000000000045333SUSAN ANDREA  LARIOS  BELLO             001001
000000246                991528217745          000000000045333IKER  NAJERA  JAIME                     001001
000000247                991535478615          000000000142000MARIELA MISHELLY GUADARRAMA  HERNANDEZ  001001
000000248                991516707605          000000000072000ANAID GALICIA CASTRO                    001001
000000249                991161141953          000000000055333FRANCISCO JESUS ESPINOSA CORREA         001001
000000250                991550627302          000000000072000ROCIO GUADALUPE MONTES DE OCA GONZALEZ  001001
000000251                991506833524          000000000072000JOSE LUIS GONZALEZ AREVALO              001001
000000252                991535480767          000000000072000ANA TERESA HERNANDEZ ROBLES             001001
000000253                991576788622          000000000072000RODOLFO MARTINEZ  MONROY                001001
000000254                991504729348          000000000072000ADOLFO GALVEZ ALONSO                    001001
000000255                991542704673          000000000052000JOSE CARLOS CORONADO BOBADILLA          001001
000000256                991506868670          000000000072000SANDRA LETICIA MARTINEZ VILLEGAS        001001
000000257                991535483902          000000000072000ANTONIO ALEJANDRE CRUZ                  001001
000000258                991543234266          000000000072000ANA CAROLINA DIAZ JIMENEZ               001001
000000259                991575384501          000000000105600MAYRA AIDE MARTINEZ MUNOZ               001001
000000260                991559989109          000000000092000HUGO JIMENEZ AGUILAR                    001001
000000261                991519478906          000000000133950ALEJANDRINA ESTRADA RUIZ                001001
000000262                991537907564          000000000088500DAVID DE LOS SANTOS DE JESUS            001001
000000263                991524959601          000000000072000ARACELI MONTOYA DIAZ                    001001
000000264                992968843368          000000000092000CELIA HILDA DIAZ MALDONADO              001001
000000265                991560112175          000000000032000LANDY ETHEL MONTALVO MORALES            001001
000000266                991516735603          000000000042000MARIA DEL ROSARIO PINA PINA             001001
000000267                991533866168          000000000136960FRANCISCO JAVIER SANCHEZ CASTRO         001001
000000268                992900883689          000000000105600JUANA ANGELA CORREA CALLEJAS            001001
000000269                991535474830          000000000072000OSCAR CERVANTES AGUILAR                 001001
000000270                991599310790          000000000032000SARON ELISEO MUNIZ SANTILLAN            001001
000000271                991516221427          000000000042000GERARDO CORTES CAMACHO                  001001
000000272                991528716725          000000000032000VICTOR MANUEL DE JESUS  HERNANDEZ       001001
000000273                991599541443          000000000032000ROBERTO GARDUNO  BONIFACIO              001001
000000274                991515842066          000000000042000MIGUEL ANGEL  VAZQUEZ ANTONIO           001001
000000275                991413152480          000000000265776MARIA DE LOURDES CERDA TORRES           001001
000000276                991575357775          000000000353460FRANCISCO JAVIER MENDEZ CASTANEDA       001001
000000277                991550531866          000000000734172BLANCA ELIZABETH RODRIGUEZ VILLEGAS     001001
000000278                992874011430          000000000069200VICTOR MANUEL REYES  RESENDIZ           001001
000000279                991563220362          000000000032000ENOC SEGUNDO FAUSTINO                   001001
000000280                991597833299          000000000024000JONATHAN JAVIER  SORIANO  BAUTISTA      001001
000000281                991556114997          000000000024000OSCAR CRUZ  PALMA                       001001
000000282                991562971727          000000000142000GUADALUPE ITZEL HERNANDEZ CASTANO       001001
000000283                991528769390          000000000072000EDITH GOMEZ SANTIAGO                    001001
000000284                992880652903          000000000088500ZAIRA GUADALUPE SORIANO RIVERA          001001
000000285                992600282049          000000000092000ALEJANDRO ARON VIEYRA ROJAS             001001
000000286                991561285800          000000000037333DIANA LAURA CARDENAS RAMIREZ            001001
000000287                991577509212          000000000072000DANIELA EDITH GARCIA SANCHEZ            001001
000000288                991516613861          000000000268000ALDO GARCIA MAGALLANES                  001001
000000289                992924869575          000000000088500ISABEL ASENCION LOPEZ                   001001
000000290                991514944669          000000000042000PEDRO ALFREDO LOPEZ GOMEZ               001001
000000291                991551875674          000000000032000CRISTEL DEL CARMEN VELAZQUEZ CRUZ       001001
000000292                991540296535          000000000042000JULIANA CAREL ORTIZ MENDEZ              001001
000000293                991501495529          000000000092000LUIS ANGEL SANCHEZ PEREZ                001001
000000294                991586770320          000000000072000AXEL OVIEDO CIENEGA                     001001
000000295                991555942125          000000000182440MARCOS ANTONIO ESTEVA SANTIAGO          001001
000000296                991541570277          000000000227000MARIA ESTRELLA RAMIREZ GALINDEZ         001001
000000297                991508465269          000000000162800CARLOS FILIBERTO GARCIA ALEGRIA         001001
000000298                991561408356          000000000032000MANUEL LAUREANO HERNANDEZ               001001
000000299                992962449927          000000000032000MANUELA JUAREZ DIAZ                     001001
000000300                991546077056          000000000032000ANDRES RICARDEZ VAZQUEZ                 001001
000000301                991524150697          000000000132500MARIA DEL CARMEN BARRERA GONZALEZ       001001
000000302                991528570759          000000000032000PEDRO ALBERTO ESPARZA MARTINEZ          001001
000000303                991558028808          000000000032000IVAN ALEXIS FERNANDEZ ACEVEDO           001001
000000304                992719455213          000000000032000OLGA GONZALEZ RAMOS                     001001
000000305                991599159022          000000000026667JESUS MANUEL GARCIA SANTOS              001001
000000306                991546699149          000000000032000NORMA CEFERINO RODRIGUEZ                001001
000000307                991545885135          000000000072000DALIA ITAYEXIT RAMIREZ FLORES           001001
000000308                990171084992          000000000110000LUIS ANGEL MARTINEZ ZAVALA              001001
000000309                992975257212          000000000220400GILBERTO CELORIO POSADA                 001001
000000310                991534736237          000000000099204CECILIA BERENICE VAZQUEZ HERNANDEZ      001001
000000311                991534703177          000000000113420GUADALUPE DEL CARMEN PINEDA SANCHEZ     001001
000000312                992903457818          000000000100000ELDER SUASTEGUI ABURTO                  001001
000000313                991546823300          000000000032000WILBERTH OSWALDO UICAB COCOM            001001
000000314                991595937854          000000000136138DAVID GONZALEZ JUAREZ                   001001
000000315                991562390038          000000000087000RAITZANDER ZUNIGA MELENDEZ              001001
000000316                991583076601          000000000017014JANETH DEL CARMEN LOPEZ MORALES         001001
000000317                991517452931          000000000024000CAROLINA HURTADO PEDRERO                001001
000000318                991556803865          000000000122903ALEJANDRINA MEJIA PEREZ                 001001
000000319                991531132153          000000000122707LUIS CESAR AUGUSTO MANCILLA VAZQUEZ     001001
000000320                992697760906          000000000114500KARINA OLVERA CARRASCO                  001001
000000321                991119012095          000000000110000JORGE ASAEL CABRERA SANCHEZ             001001
000000322                991511862751          000000000114500BRANDON ALEXIS CONTRERAS PIN            001001
000000323                991526209044          000000000130480OLGA MARIA OROZCO MARTINEZ              001001
000000324                991594654245          000000000164440ROBERTO CARLOS MORA SANCHEZ             001001
000000325                991572514915          000000000107000DIONISIO MENDOZA ESCOBAR                001001
000000326                991534188254          000000000029333RIGOBERTO QUEZADA SAUCEDO               001001
000000327                991501464531          000000000036660YESENIA DE JESUS VAZQUEZ PEREZ          001001
000000328                991167865902          000000000088500RICARDO ROMERO LOPEZ                    001001
000000329                991161650157          000000000033895PAOLA JHOANA VELASCO HIDALGO            001001
000000330                991539936502          000000000157800AXBAL ANDRES CRUZ GUERRA                001001
000000331                992799521747          000000000052772MANUELA DE JESUS HERNANDEZ CRUZ         001001
000000332                992892584158          000000000033895MARIA MAGDALENA CASTILLO JIMENEZ        001001
000000333                991586408176          000000000070903SERGIO ATAIN LOPEZ FUENTES              001001
000000334                991526392566          000000000137000MICAELA OLIVERA LOPEZ                   001001
000000335                991569315640          000000000196500EDUARDO ALBERTO SAUCEDO RAMOS           001001
000000336                991519434766          000000000032000RICARDO JUAREZ ACOSTA                   001001
000000337                992896188915          000000000088500IVAN DE JESUS JUAREZ VALDIVIESO         001001
000000338                991527200598          000000000088500NANCY GUADALUPE GARCIA AQUINO           001001
000000339                991554721686          000000000032000DAVID ALFONSO CHAVEZ CASTANEDA          001001
000000340                991277441576          000000000288950CARLOS ALONSO ADAME LOPEZ               001001
000000341                991131995243          000000000032000NANCY YAZMIN VAZQUEZ HERNANDEZ          001001
000000342                992891268775          000000000112000FREDI DIAZ OROZCO                       001001
000000343                991535881679          000000000278350GUILLERMO ENRIQUE NUNEZ NOLASCO         001001
000000344                991538063389          000000000088500EDUARDO HERNANDEZ GONZALEZ              001001
000000345                991550748882          000000000117000KENIA AGUILAR GUTIERREZ                 001001
000000346                991502853393          000000000122000JUAN ANTONIO RUIZ AVILA                 001001
000000347                991540400312          000000000032000JOEL SILVA PRIEGO                       001001
000000348                990465444756          000000000088500IVETTE BRENA RAMOS                      001001
000000349                991555915171          000000000173720MANUEL ALBERTO LOPEZ LOPEZ              001001
000000350                991431889990          000000000290000GERMAIN GUTIERREZ DE LA CRUZ            001001
000000351                992724262476          000000000317598JORGE IGNACIO PINEDA DIAZ DE LA VEGA    001001
000000352                991228566631          000000000276364ANA ALICIA GONZALEZ MARIANO             001001
000000353                992667935609          000000000947528EMMANUEL CRUZ BAUTISTA                  001001
000000354                992677466609          000000000336925CLAUDIA ADRIANA RAMIREZ DIAZ            001001
000000355                992677464703          000000000320520JOSE ANTONIO GARCIA HERNANDEZ           001001
000000356                992957951167          000000000584555PEDRO PABLO DOMINGUEZ DEL ANGEL         001001
000000357                992866677029          000000000415000MARIA DEL CARMEN BAUTISTA HERNANDEZ     001001
000000358                991512022761          000000000320163CARLOS TIMOTEO OROZCO TAPIA             001001
000000359                992869587438          000000000280738EFRAIN CORONA LOPEZ                     001001
000000360                992899239502          000000000013900ROSA IRELA ALARCON CANO                 001001
000000361                992912164523          000000000264968ESPERANZA PLUMA GEORGE                  001001
000000362                992980003263          000000000283804ANGEL EDMUNDO AGUILAR COLIN             001001
000000363                992937223544          000000000637543ADAN VASQUEZ SOTO                       001001
000000364                991170941476          000000000333936SAUL CERVANTES GUILLERMO                001001
000000365                991163663663          000000000336525ALBERTO SANTOS GARCIA                   001001
000000366                991501513907          000000000321000ADAN DE LA CRUZ CRUZ                    001001
000000367                991522331101          000000000232750ANTONIO BARQUERAS RIVERA                001001
000000368                991501481614          000000000127485VERONICA VARGAS SILVA                   001001
000000369                992953444155          000000000305193ALVARO GUILLERMO CORBALA RODRIGUEZ      001001
000000370                991535289521          000000000308240BENIGNO DE LA CRUZ GABRIEL              001001
000000371                991544558561          000000001165975DAVID DUARTE ANIMAS                     001001
000000372                991240791466          000000000165603EDGAR CASASOLA VARGAS                   001001
000000373                992852089386          000000000112450BRENDA ELIA NAVA SANCHEZ                001001
000000374                991539807950          000000000198640MIGUEL ANGEL RAMOS MARTINEZ             001001
000000375                990455723442          000000000309046JOSE MARTIN CAMACHO VAZQUEZ             001001
000000376                991586583954          000000000757908FERNANDO GALLEGOS GARCIA                001001
000000377                991502083569          000000000419070ROSA ESMERALDA MORALES MARTINEZ         001001
000000378                991500021043          000000000275618KARLA LUCIA LOYDE HERRERA               001001
000000379                992931464310          000000000133150MARIA VICTORIA TAVIRA MIRALRIO          001001
000000380                991523607677          000000000158000LAURA ISELA FLORES MARIN                001001
000000381                992947354738          000000000067000OMAR HILARIO DANIEL                     001001
000000382                991580894559          000000000198064ELIZABETH GOMEZ CASTELLANOS             001001
000000383                991527844339          000000000218470JENNIFER DENIS AVILA SALGADO            001001
000000384                991511453793          000000000227110MARLEN JUAREZ RAMIREZ                   001001
000000385                992845119464          000000000347206MONICA GABRIEL SANCHEZ                  001001
000000386                991532786242          000000000327455BEATRIZ HERNANDEZ HERNANDEZ             001001
000000387                991534419522          000000000286582LEYDI TEMAZATZI ROJAS                   001001
000000388                991522522597          000000000106450BLANCA EDITH ALVAREZ SUAREZ             001001
000000389                992907258259          000000000235618ALEJANDRO PEREZ AMARO                   001001
000000390                991576583008          000000000114890JEHU MENDEZ HERNANDEZ                   001001
000000391                991573579611          000000000162750CARMEN SUGEILY CHAVEZ SUAREZ            001001
000000392                991542464058          000000000195500ERIKA LISSETTE VARGAS VERONA            001001
000000393                992935257476          000000000367423LUIS ANTONIO ROMERO LOPEZ               001001
000000394                991552159026          000000000276590MARIA INES MORALES MATEOS               001001
000000395                990460467316          000000000348300VENTURA SAMUEL PEREZ VARGAS             001001
000000396                991514749502          000000000385705ROCIO CALDERON REYES                    001001
000000397                990458596972          000000000600140ARTURO OSCAR CORTES LOPEZ               001001
000000398                991559240571          000000000219691NADIA HERNANDEZ ARROYO                  001001
000000399                991576692540          000000000228043FABIOLA OLIVER JACOBO                   001001
000000400                991556776388          000000000174906ERIKA GONZALEZ RAMIREZ                  001001
000000401                991569572913          000000000569870BRENDA CECILIA SANTANA PENA             001001
000000402                991580140981          000000000027500DIANA GABRIELA FONSECA ROMERO           001001
000000403                991557693613          000000000552340JOSUE CRUZ DOMINGUEZ                    001001
000000404                991570560301          000000000320660DANIEL PAZ PARRA                        001001
000000405                991584576121          000000000088500ROBERTO HECTOR DOMINGUEZ TOVAR          001001
000000406                991588894404          000000000296200BRENDA TERESA SOLORIO ESPARZA           001001
000000407                991590869494          000000000302140MARIO ERNESTO VAZQUEZ FLORES            001001
000000408                991591056118          000000000296329LILIBETH GUADALUPE ESTRADA FUENTES      001001
000000409                991586606571          000000000272986ABIGAIL MEDRANO MUNOZ                   001001
000000410                991559343052          000000000225000HUGO OMELITO LOPEZ GONZALEZ             001001
000000411                991559346494          000000000100000IGNACIO LEVI GOMEZ RUIZ                 001001
000000412                992934433599          000000000100000SAUL CRUZ HERNANDEZ                     001001
000000413                991514954541          000000000100000ADI MARENI PEREZ VAZQUEZ                001001
000000414                992957537301          000000000153332ROCIO KARINA BARRERA UGALDE             001001
000000415                991523774612          000000000076735SONIA CORAL VARGAS AVENDANO             001001
000000416                992764730909          000000000583661FERNANDO CRUZ JIMENEZ                   001001
000000417                991200697060          000000000365838GUADALUPE GALEANA YEBALE                001001
000000418                991576131096          000000000156716MARTHA EMILIA CRUZ MORENO               001001
000000419                992956239188          000000000127000AMADA QUITL PALOMARES                   001001
000000420                991523014960          000000000272650MARIA JOSEFINA LOPEZ ATILANO            001001
000000421                991549070877          000000000024026FRANCISCO NUNEZ PARRA                   001001
000000422                991572747696          000000000142000ANDRES ANTONIO LUNA NAVARRETE           001001
000000423                991521580881          000000000072000ANDREA CECILIA LOPEZ GARCIA             001001
000000424                992895698936          000000000097575JOSE LUIS CURA FUENTES                  001001
000000425                991558873906          000000001089636JUAN ANGEL CAZARES SANCHEZ              001001
000000426                991589125020          000000000091000JOSE MANUEL MARTINEZ HERNANDEZ          001001
000000427                990460841005          000000000195040RICARDO PEREZ PIZA                      001001
000000428                991581127660          000000000147000IRMA LUCIA HERNANDEZ VAZQUEZ            001001
000000429                992974414357          000000000350338FRANCISCO JAVIER SANDOVAL PERALTA       001001
000000430                991520075245          000000000421200ANA LUISA LEYTE ROSALES                 001001
000000431                992897036442          000000000377110ANGEL ROSALES ORTIZ                     001001
000000432                991504042875          000000000455650ANABEL GOMEZ GONZALEZ                   001001
000000433                991552802586          000000000181600ALFREDO VENANCIO SANCHEZ MUNOZ          001001
000000434                992857858604          000000000102000FULGENCIO DE LA CRUZ CRUZ               001001
000000435                991519604240          000000000062000JAIME ARIEL DEL ANGEL ZUMAYA            001001
000000436                990466404529          000000000117000LIDIA AVENDANO TRINIDAD                 001001
000000437                991579187378          000000000082000NAYELLI TOLEDO ESTEVA                   001001
000000438                991545164624          000000000275000MADAIN MALPICA MACIEL                   001001
000000439                991519813001          000000000145640JOSE MARIO AMADOR SANTOS                001001
000000440                991578007822          000000000132000NADIA ALONDRA PLANCARTE TORRES          001001
000000441                991552845393          000000000142000FERNANDO MUNOZ HERNANDEZ                001001
000000442                991519438650          000000000009234BRENDA MINERVA CERVANTES VILLALBA       001001
000000443                991506838755          000000000100000JULIAN FLORES VALENCIA                  001001
000000444                991522321882          000000000032000LIDIA FERNANDA CELAYA PEREZ             001001
000000445                992978381798          000000000127356GABRIELA CHARIS ESTEVA                  001001
000000446                991526258304          000000000113000GREGORIA ELIZABETH GARCIA HERNANDEZ     001001
000000447                991551514672          000000000168612SANDY MONTIEL CALZADA                   001001
000000448                992994842588          000000000122000JUAN ANTONIO LAVARIEGA TOLEDO           001001
000000449                991518471030          000000000088500ALBERTO CRUZ HERNANDEZ                  001001
000000450                991547003622          000000000171124RAIBE RAMIREZ ORTIZ                     001001
000000451                991518503047          000000000006811ANTONY ALFONSO FIGUEROA CHAVEZ          001001
000000452                991557907648          000000000050667ELVIS DANIEL VAZQUEZ CORONEL            001001
000000453                991515706464          000000000050667JUAN RODRIGUEZ TORRES                   001001
000000454                991161519751          000000000048064CINTHYA MARLET CASTELLANOS FRAIRE       001001
000000455                991525832702          000000000158400JULIO CESAR RAMOS MORALES               001001
000000456                991574216067          000000000032000ANA KAREN TORRES MORALES                001001
000000457                991541814648          000000000032000JUAN MIGUEL GONZALEZ HERNANDEZ          001001
