100001E0808202165508015015     08082021
2000020201218HERRERA                       ARIAS               PEDRO                         60606929708     000000000000185713
2000030201511MELENDEZ                      JAIMES              LAURA                         56726217054     000000000000222900
2000040202241SANTIAGO                      HERNANDEZ           LOURDES                       60604920198     000000000000099000
2000050202243GARCIA                        VARGAS              LAURA ARACELI                 56713715139     000000000000192332
2000060202258SOSA                          HUERTA              ROSA YENIZA                   56746879787     000000000000110768
2000070202289ZARAGOZA                      GUTIERREZ           MARCOS VANENBURTH             56786552147     000000000000127000
2000080202318BORJA                         RODRIGUEZ           JOSE DE JESUS                 56794062678     000000000000111200
2000090202363GONZALEZ                      TOVAR               ARMANDO IRINEO                60590315844     000000000000072000
2000100901443MURRIETA                      CONTRERAS           MARISOL                       60615469980     000000000000217984
2000110902418DE LA CRUZ                    GARZA               GADIEL ABIRAM                 60611325753     000000000000381180
2000120902721RIVERA                        CORTES              LUIS FRANCISCO                56791004813     000000000000326625
2000130904250GIRON                         SALAZAR             SONIA MARIBEL                 56744535412     000000000000134000
2000140906292ROJAS                         PATRICIO            ADRIANA                       56752011467     000000000000032000
2000150907202SANCHEZ                       RAMIREZ             GIULIANI MARGARITA            25001586630     000000000000032000
2000160907435VILLEGAS                      MENDOZA             CESAR MANUEL                  25002819478     000000000000072000
2000170907558MARTINEZ                      DOMINGUEZ           LUIS ROBERTO                  56618637131     000000000000032000
2000180907872FLORES                        HERNANDEZ           EDUARDO FABIAN                56750475027     000000000000032000
2000190908009MIRANDA                       VARGAS              SAUL                          60588956914     000000000000042000
2000200908844GONZALEZ                      FIGUEROA            LUIS ANGEL                    56807630647     000000000000058667
2000210909051GARCIA                        POBLANO             ANGEL                         56793019736     000000000000192000
2000220908979SANDOVAL                      ACEVES              ANTONIA                       56793297974     000000000000072000
2000230908279JUAREZ                        GUERRA              LUIS EDUARDO                  60584588758     000000000000122000
2000240908111MIRANDA                       CHAVARRIA           ULISES YOLAO                  56803389199     000000000000077000
2000250908197LOPEZ                         RAMIREZ             PEDRO                         56753176775     000000000000032000
2000260908201CASTANEDA                     RAMOS               IVAN OMAR                     60615126956     000000000000110080
2000270907918MATA                          GALVAN              MISAEL                        60615904643     000000000000032000
2000280907996ARIAS                         GANDARILLA          LUIS DANIEL                   60621617278     000000000000264795
2000290904020RAMIREZ                       REYES               CYNTHIA                       60617212110     000000000000135768
2000300907539RODRIGUEZ                     VEGA                ALEXIS MISSAEL                56782480205     000000000000042000
2000310907679DEL RIO                       FLORES              JOSE QUIRINO                  56795042426     000000000000227200
2000320906570CERON                         MUNOZ               LLUVIA LEYDI                  60599015252     000000000000086180
2000330803925NUNEZ                         MARTINEZ            CAROLINA                      56728430444     000000000000142000
2000340905706RAMIREZ                       GARCIA              DAVID                         56772722592     000000000000385505
2000350905831ROSETE                        MONDRAGON           NALLELY GUADALUPE             56809079627     000000000000092000
2000360904344HERRERA                       MARTINEZ            HUGO                          25000513983     000000000000297760
2000370904656TELLEZ                        ROMAN               MOISES                        56734530411     000000000000082067
2000380301647BERNABE                       VELAZQUEZ           SUSANA LISSET                 60559148264     000000000000440084
2000390302096ALVAREZ                       RAMIREZ             HECTOR PATRIK                 56714577361     000000000000223950
2000400302438YESCAS                        GONZALEZ            RICARDO                       60615313870     000000000000118300
2000410302612COTE                          ROLON               JOSE LEOPOLDO                 56771876607     000000000000376208
2000420902671RAMIREZ                       FRANCISCO           ALEJANDRO                     60570311478     000000000000196623
2000430902777PEREZ                         MORALES             GABRIELA                      55504067036     000000000000170176
2000440903075BARRERA                       ARCIGA              ADRIANA                       60554370277     000000000001242000
2000450903114MARQUEZ                       CORONADO            RUBEN                         56723983724     000000000000024768
2000460401020RODRIGUEZ                     PEREZ               JUAN JESUS                    56760987575     000000000000104400
2000470401059CHI                           RODRIGUEZ           CRISTIAN ENRIQUE              56763649479     000000000000032000
2000480401086PLAZA                         GARCIA              YAMIL ALEXIS                  60610538570     000000000000316600
2000490401144CHI                           CRUZ                JUAN CARLOS                   56709164748     000000000000088500
2000500401159GARCIA                        RAMIREZ             ANGEL DANIEL                  56772640549     000000000000129204
2000510901350CARABELY                      MORALES             LUCIA                         60615091820     000000000000057000
2000520903201ABURTO                        VICTORIANO          LUIS MIGUEL                   56742845627     000000000000138280
2000530905604CUETO                         CAMACHO             LUIS DANIEL                   26032808699     000000000000042000
2000540905649MANUEL                        ARISTA              CESAR LUIS                    56794055434     000000000000032000
2000550906153ALVARO                        GOMEZ               RAFAEL DE JESUS               60620949990     000000000000032000
2000560906612GALLARDO                      ESPINOSA            JHEOVANY ALEXANDER            60598024406     000000000000032000
2000570906488VILLEGAS                      GARCIA              EDUARDO ANTONIO               60616384393     000000000000107000
2000580906658ROSALES                       SOLIS               JAZMIN JANETH                 25008717832     000000000000127400
2000590907721MARTINEZ                      AGUILAR             DAVID DE JESUS                60605912736     000000000000042000
2000600907334BLAS                          CASTILLO            ALVARO ENRIQUE                60606691204     000000000000042000
2000610907406PEREZ                         DIAZ                LUIS REY                      60611468201     000000000000032000
2000620907987PONCE                         ESPINOZA            JOSE MANUEL                   60621394193     000000000000032000
2000630907565HERNANDEZ                     GARCIA              YERANIA ASALIA                25001853165     000000000000042000
2000640908240MANCILLA                      REYNA               RAUL URIEL                    56784892469     000000000000159844
2000650908290GAMBOA                        GUTIERREZ           JOSE BERNARDO                 26040175600     000000000000032000
2000660908178CAMPOS                        HERNANDEZ           HECTOR ISIDRO                 56754814713     000000000000088500
2000670908198SAENZ                         PORTILLO            JOSE DE JESUS                 56796605355     000000000000226076
2000680908361ZARATE                        MIGUEL              ROCIO                         60607963467     000000000000021891
2000690908375VILLAGOMEZ                    MORENO              ADAIA BETSABE                 60619930444     000000000000072000
2000700908376GARCIA                        DE SANTIAGO         JESUS                         56792103858     000000000000076667
2000710908419CHINO                         GIL                 YURIKO                        56767134897     000000000000072000
2000720908070LOPEZ                         LOPEZ               J GUADALUPE                   56813328262     000000000000032000
2000730908092TIERRABLANCA                  NOLASCO             JOSE GUADALUPE                56782871203     000000000000032000
2000740908041VALDEZ                        GARCIA              VALENTE                       60618346165     000000000000032000
2000750908052REYES                         FLORES              JAZMIN IZVET                  25002220804     000000000000032000
2000760908030RAMIREZ                       TREJO               LUIS ELIAS                    56808082462     000000000000085600
2000770907579CARMONA                       HERNANDEZ           JONATHAN                      56800152434     000000000000146500
2000780907561NEVAREZ                       ESCOBEDO            JARED                         56809042218     000000000000032000
2000790907838FUENTES                       SANCHEZ             ELYAN MARTIN                  56806719625     000000000000032000
2000800907857TORRES                        JIMENEZ             ESTEFANIA                     56792873961     000000000000155400
2000810907989GARCIA                        CARLOS              YADIRA LILIANA                60617099942     000000000000192300
2000820907951HERNANDEZ                     IBARRA              CLAUDIA ARACELI               56797295641     000000000000082000
2000830907926CRUZ                          RODRIGUEZ           YULISSA ESTRELLA              56769047533     000000000000032000
2000840907255RODRIGUEZ                     HERNANDEZ           VIANEY JULIETA                56807757949     000000000000132000
2000850907280ROMERO                        MAGANA              ESMERALDA                     60619154514     000000000000032000
2000860907440TALAMANTES                    RUBIO               FELIX ANTONIO                 60617059688     000000000000088500
2000870907457MARTINEZ                      BARRIENTOS          LUIS ENRIQUE                  56797649836     000000000000082000
2000880907778ALARCON                       ALARCON             IVETTE ITZEL                  56798620479     000000000000032000
2000890907794HERNANDEZ                     SANTIAGO            ELIZABETH                     56741267572     000000000000042000
2000900907809LUNA                          FLORES              MARIA DE JESUS                56767652833     000000000000042000
2000910907783CANDELAS                      SANDOVAL            ROSA MARIA                    56797929636     000000000000092000
2000920906806HERNANDEZ                     RODRIGUEZ           JUAN CARLOS                   56811339498     000000000000032000
2000930906664GORDILLO                      MARTINEZ            ULISES                        60588479809     000000000000042000
2000940906741GONZALEZ                      HERNANDEZ           LUIS DAVID                    56749717390     000000000000042000
2000950906745MARTINEZ                      DOMINGUEZ           GUADALUPE                     56811285638     000000000000035333
2000960601544SANCHEZ                       ARROY               ANGEL                         56721403660     000000000000032000
2000970906817PADILLA                       GARCIA              ALONDRA JANETH                56737294232     000000000000032000
2000980906854SALGADO                       CRUZ                MARIO IVAN                    56797132073     000000000000042000
2000990906950HERNANDEZ                     MARTINEZ            JORGE HIRAM                   56790383337     000000000000032000
2001000907071RAMOS                         HERNANDEZ           DIANA LAURA                   56783756396     000000000000032000
2001010906524AYALA                         GONZALEZ            MARIA GUADALUPE               60617485440     000000000000032000
2001020905249CRUZ                          RIVERA              ERIKA                         60572044203     000000000000042000
2001030905301PIMENTEL                      CABRERA             J BERNARDO                    56559875401     000000000000233604
2001040906355HERNANDEZ                     CASTILLO            JULIO CESAR                   56810375493     000000000000042000
2001050906356ROBLEDO                       GOMEZ               ALMA DELIA                    25009166236     000000000000225103
2001060906158FLORES                        ANAYA               HECTOR ALEJANDRO              60621096326     000000000000136640
2001070906259LARA                          LIMIAS              JOSE ANTONIO                  56801290539     000000000000032000
2001080906298ZUMARRAGA                     HERNANDEZ           LUDMILA BERENICE              25009415886     000000000000128800
2001090906324ULLOA                         ALVAREZ             JOSE ANGEL                    20010493813     000000000000032000
2001100906325GONZALEZ                      RAMIREZ             ALAN URIEL                    56767991727     000000000000042000
2001110905716VAZQUEZ                       TRUJILLO            ANA PATRICIA                  56792514035     000000000000188080
2001120905740CHAIRES                       CONTRERAS           ERIKA YUDITH                  60585578104     000000000000288000
2001130905766LARA                          FLORES              CLAUDIA ISABEL                60617150931     000000000000032000
2001140905880GARCIA                        GARCIA              JOSE ANTONIO                  56762208041     000000000000072000
2001150905883MUNOZ                         DURAN               JOSE EDUARDO                  60611523436     000000000000032000
2001160905929JUAREZ                        SANDOVAL            MARIANA DOLORES               60618368340     000000000000389716
2001170904488MORALES                       BAUTISTA            FLORENCIA                     60608804451     000000000000032000
2001180904553AVILEZ                        NUNEZ               MANUEL                        56732757580     000000000000032000
2001190904577LOPEZ                         LAUREANO            MAYRA YUDIT                   60619121277     000000000000088500
2001200904683ZAPOT                         PASTRANA            JESUS ANTONIO                 55505432100     000000000000032000
2001210904698PENA                          SIERRA              ISMAEL                        56754133723     000000000000029333
2001220904743GUTIERREZ                     BENAVIDES           HECTOR MIGUEL                 56766950606     000000000000042000
2001230904919GONZALEZ                      SANCHEZ             ULICES                        56790499975     000000000000032000
2001240904937LOPEZ                         ALVARADO            LUIS FRANCISCO                56748161080     000000000000142584
2001250904953MORENO                        VALLADARES          JESUS ARTURO                  60620115377     000000000000377392
2001260904979RAMIREZ                       VIZUETH             JOSEFAT GABRIEL               56803510996     000000000000032000
2001270905080FRANQUEZ                      IBARRA              EIRAIN                        56744470521     000000000000259455
2001280905081SILVA                         CRUZ                CARLOS DAVID                  56727842152     000000000000092000
2001290905107MEJIA                         MARTINEZ            MAURICIO                      60604309264     000000000000032000
2001300600928GARAY                         GONZALEZ            ROSA ISELA                    56764955320     000000000000099000
2001310601027ARANDA                        GARCIA              FERNANDO DAMIAN               60562853900     000000000000159600
2001320601223LEAL                          RAMOS               MARIO                         60597124865     000000000000088500
2001330601439BADILLO                       TREJO               ARMANDO                       56761733575     000000000000442500
2001340901603AGUILAR                       VARGAS              ERIKA                         56784878623     000000000000052000
2001350901776RAMIREZ                       ZAVALA              EMILIO DE JESUS               60609541383     000000000000131400
2001360902348MEDINA                        PONCE               CECILIA                       60617370908     000000000000047000
2001370902990LOPEZ                         MARTINEZ            ELIDA MARLENE                 60585018647     000000000000489505
2001380903380LOPEZ                         HERNANDEZ           PEDRO                         60611364341     000000000000187000
2001390908354CASTILLO                      VAZQUEZ             JUAN DE DIOS                  56780903796     000000000000142000
2001400909214PEREZ                         QUINTAL             JESUS ALFONSO                 60607857283     000000000000078667
2001410909058ARREDONDO                     ROSTRO              JESUS JOVANNY                 60616442437     000000000000072000
2001420909014GONZALEZ                      LUQUE               EDER OLAF                     56757939871     000000000000055333
2001430908985GALINDO                       AQUINO              ISAI                          56758212816     000000000000072000
2001440908850HERRERA                       CASTRO              JESUS GUADALUPE               56764839765     000000000000108667
2001450908900TARANGO                       RENTERIA            JOHANA STEPHANIE              56807026315     000000000000095333
2001460908501BOJORQUEZ                     AGUILAR             LONIEL OSVALDO                56794129877     000000000000182000
2001470908604RUIZ                          CABRERA             MOISES                        56784173318     000000000000032000
2001480908628CARRASCO                      PASTRANA            CLAUDIA ELENA                 60603622691     000000000000042000
2001490908622CORTES                        VARGAS              SIGIFREDO                     60616763147     000000000000092000
2001500908656TIRADO                        RODRIGUEZ           JOSE JUAN                     25010218857     000000000000142000
2001510908685MORENO                        SILVA               GABRIELA ELIZABETH            60603138282     000000000000147000
2001520908720DUARTE                        VARA                TERESA                        56794822423     000000000000042000
2001530908865ESCOBEDO                      MENDEZ              MARIA DEL ROCIO MELODY        60607659995     000000000000122000
2001540903755HERNANDEZ                     GARCIA              EMMANUEL                      56799059562     000000000000214100
2001550030644SANCHEZ                       JIMENEZ             ROSA JANETH                   56685739403     000000000000104800
2001560703062GUZMAN                        PACHECO             ULISES                        60604510403     000000000000169536
2001570703071TOLENTINO                     TOLENTINO           MARICRUZ                      60612764886     000000000000101000
2001580703152RODRIGUEZ                     CRUZ                DIANA GRACIELA HERMILA        56734761074     000000000000099240
2001590703161ZAMORA                        ROSALES             ITZEL IRERI                   56728300755     000000000000118064
2001600703545MEJIA                         TAMAYO              LUZ JAZMIN                    56761834411     000000000000291764
2001610703588HERNANDEZ                     SANTILLAN           JOSE MANUEL                   60599918791     000000000000365720
2001620704195BARAJAS                       BOCANEGRA           ANIA GUADALUPE                56774244517     000000000000294565
2001630901427PIZANO                        ALBINO              JOSE JULIO                    56666328235     000000000000157000
2001640902984GONZALEZ                      VELASCO             YESSICA LISSET                56687837821     000000000000002966
2001650903179ALANIS                        HERNANDEZ           ROSA MARIA                    56761833876     000000000000132300
2001660905110VAZQUEZ                       SAAVEDRA            JUAN PABLO                    56699173460     000000000000209332
2001670905546CABRERA                       VALENCIA            ANA BELEM                     56724415861     000000000000109240
2001680905774ROJAS                         CHAVIRA             ERIK OCTAVIO                  60619005677     000000000000126450
2001690906060OROZCO                        MARTINEZ            LUIS ANTONIO                  56766361010     000000000000403004
2001700906130RAMIREZ                       ORBE                HECTOR IVAN                   56757897442     000000000000132000
2001710906353SALDANA                       SANCHEZ             ABIGAIL                       56798865675     000000000000142976
2001720906357ROMAN                         MATA                DIEGO                         60620370079     000000000000118200
2001730906394ARREGUIN                      BANOS               EDUARDO                       56722881515     000000000000165225
2001740906719ANTONIO                       DELGADO             ROSALINO                      56807729724     000000000000209800
2001750907372RODRIGUEZ                     OLVERA              JAVIER DAVID                  60599976373     000000000000276948
2001760907897ROJAS                         AGUILAR             ROSA ISELA                    56590059496     000000000000042000
2001770907906SANCHEZ                       GIRON               ENRIQUE ACE                   60621237635     000000000000072000
2001780907655NARANJO                       CARDOSO             LESLIE BERENICE               56801570035     000000000000139800
2001790907894RANGEL                        CRUZ                JHOVANI                       60616057661     000000000000042000
2001800908063BORRAZ                        PALMA               OMAR BERZAIN                  20012447993     000000000000176372
2001810908177GARCIA                        VELAZCO             ANNIE XOCHITL                 56774117289     000000000000032000
2001820908443QUINTERO                      TREJO               FERNANDO                      60615329528     000000000000105600
2001830907800OLIVERA                       VALDIVIESO          JENNY CATARINA                56794620414     000000000000097000
2001840906848LOPEZ                         GARCIA              VIRIDIANA CRISTHEL            56804021881     000000000000032000
2001850907088GUERRERO                      SANDOVAL            ALEJANDRO                     56780043717     000000000000032000
2001860905714RODRIGUEZ                     MORENO              ESTEFANY YAMILETH             56804517759     000000000000098400
2001870905922ORDONEZ                       MATA                EDWIN ALEXIS                  25002328469     000000000000098200
2001880904176MARTINEZ                      GARCIA              MARIO                         60591766593     000000000000032000
2001890904317MORA                          SALAZAR             JAVIER                        60613095934     000000000000032000
2001900904428ESQUIVEL                      HERNANDEZ           OMAR                          56778698509     000000000000116000
2001910800070OLAN                          GONZALEZ            OVED                          60617353457     000000000000212100
2001920800458CRUZ                          HERNANDEZ           LUIS ARTURO                   60587500698     000000000000032000
2001930800658CORDOVA                       FELIX               JUAN FRANCISCO                60602611123     000000000000032000
2001940801007HERNANDEZ                     DEL ANGEL           FLORA NEREIDA                 60617155592     000000000000380914
2001950801080RIVERA                        RODRIGUEZ           BERNARDO                      60584639302     000000000000336955
2001960801088MORALES                       ESCAMILLA           ELDA DEL CARMEN               56767663957     000000000000318852
2001970801150GARCIA                        LOERA               MARIA GUADALUPE               60608635388     000000000000118800
2001980803621CRUZ                          DEL ANGEL           MARGARITA                     60619635223     000000000000102000
2001990901417OCANA                         CASTILLO            VICTORIA CONSUELO             60601908132     000000000000118064
2002000902374GONZALEZ                      CRUZ                SAMUEL                        60616346996     000000000000126450
2002010902964LOERA                         SOLIS               DAVID                         60573228651     000000000000245000
2002020903483ZEPEDA                        HERNANDEZ           RUTH CITLALIC                 56771264074     000000000000048000
2002030903555AVILA                         BAUTISTA            ALEXANDER                     60607734441     000000000000032000
2002040908840LOPEZ                         SANCHEZ             JOSUE                         56795524880     000000000000072000
2002050908727MENA                          FUENTE              JUAN PABLO                    56737574276     000000000000042000
30020600204000000000025194277
