10001153956330908210001DESARROLLO RODIME SA DE CV          NOMINA 09082021     05                                        C00
2100100000000001674972701701200000000000007317869
300010000000000013208050100000000090223820246                              0000800003NOELI BENICIO OROZCO                                   NOMINA                                                          0000       00
300010000000000006879590100000000090284965441                              0000800041ENRIQUE AMED TOLEDO LAYNES                             NOMINA                                                          0000       00
300010000000000008311810100000000090290256282                              0000800046ANTONIO BERLAY GOMEZ MENDOZA                           NOMINA                                                          0000       00
300010000000000004833930100000000090329080993                              0000800050JEHUS MONTERRUBIO DOMINGUEZ                            NOMINA                                                          0000       00
300010000000000002728990100000000090354247177                              0000800062MARIA GUADALUPE ARIAS LOPEZ                            NOMINA                                                          0000       00
300010000000000002646570100000000090381022594                              0000800082MAGALI REYES ARAGON                                    NOMINA                                                          0000       00
300010000000000003890320100000000090392568335                              0000800113LUIS SANTAELLA PINACHO                                 NOMINA                                                          0000       00
300010000000000003264900100000000090393744587                              0000800118ANDRES GERONIMO GERONIMO                               NOMINA                                                          0000       00
300010000000000004142660100000000090286687791                              0000800390JOSE MANUEL DOMINGUEZ RAMIREZ                          NOMINA                                                          0000       00
300010000000000003522940100000000090274768745                              0000800224VICTOR HUGO CHANDOMI CAMACHO                           NOMINA                                                          0000       00
300010000000000003067020100000000090269816979                              0000800627YAHIR HERRERA RODRIGUEZ                                NOMINA                                                          0000       00
300010000000000002946170100000000090420764455                              0000800693MARIANO GUERRA SANCHEZ                                 NOMINA                                                          0000       00
300010000000000004106600100000000090401771149                              0000801079SELENE MONSERRAT BARTOLO VALENCIA                      NOMINA                                                          0000       00
300010000000000002729070100000000090413928574                              0000801099MARCO ANTONIO GOMEZ ORIHUELA                           NOMINA                                                          0000       00
300010000000000004203400100000000090449244272                              0000802039PATRICK MONDRAGON DIRCIO                               NOMINA                                                          0000       00
300010000000000003327550100000000090451646256                              0000803054ESPERANZA RODRIGUEZ ISLAS                              NOMINA                                                          0000       00
300010000000000003453620100000000090459881343                              0000803055ROSA STEFFANY ORTIZ GERMAN                             NOMINA                                                          0000       00
300010000000000009216420100000000090411720844                              0000803140LUIS GUILLERMO OSORIO SEGURA                           NOMINA                                                          0000       00
300010000000000002946170100000000090157223096                              0000803182ALFREDO ALONSO MOJICA                                  NOMINA                                                          0000       00
300010000000000002946100100000000090451736875                              0000803178RAUL ALMAZAN VILLANUEVA                                NOMINA                                                          0000       00
300010000000000003671270100000000090451649344                              0000803257GRETA YATZIRY GARCIA BAUTISTA                          NOMINA                                                          0000       00
300010000000000006498500100000000090456393526                              0000803525ALBERTO SOTO CAJICA                                    NOMINA                                                          0000       00
300010000000000002946100100000000090399826186                              0000803654LINDA ESBEIDY MASCARENAS ARTEAGA                       NOMINA                                                          0000       00
300010000000000009742980100000000090080556224                              0000803801DAVID POSADAS RIVERA                                   NOMINA                                                          0000       00
300010000000000002729070100000000070142907958                              0000803840MYRNA LEONOR CORPUS HERNANDEZ                          NOMINA                                                          0000       00
300010000000000002946170100000000090221636553                              0000803850OLGA DEL CARMEN CORTES HERNANDEZ                       NOMINA                                                          0000       00
300010000000000009928170100000000090224189833                              0000803864VICENTE JIMENEZ SANCHEZ                                NOMINA                                                          0000       00
300010000000000005658300100000000070036238982                              0000901407JUDITH REBECA LARA GIL                                 NOMINA                                                          0000       00
300010000000000002946170100000000090344649242                              0000902111ANA GABRIELA GARZA AMBRIZ                              NOMINA                                                          0000       00
300010000000000003395720100000000090421925207                              0000903355ARTURO CASTILLO VAZQUEZ                                NOMINA                                                          0000       00
300010000000000002946170100000000090453294195                              0000903402JUAN LUIS MARTINEZ LUVIO                               NOMINA                                                          0000       00
300010000000000005334690100000000090455399881                              0000904319YOBANA SANCHEZ ANTONIO                                 NOMINA                                                          0000       00
300010000000000002946170100000000090462395883                              0000905462NETZER RUBEN CRUZ VELASQUEZ                            NOMINA                                                          0000       00
300010000000000002729070100000000090458820308                              0000905478BETSAIDA HERNANDEZ GARCIA                              NOMINA                                                          0000       00
300010000000000002946170100000000090455385317                              0000906104SHARON AQUINO BLAS                                     NOMINA                                                          0000       00
300010000000000002946170100000000090396110201                              0000906331DANIEL MARTINEZ GARAY                                  NOMINA                                                          0000       00
300010000000000002289090100000000090461513203                              0000906785DIANA PAOLA HERNANDEZ PARRA                            NOMINA                                                          0000       00
300010000000000002525410100000000090462424557                              0000907006JUAN CARLOS ALVAREZ JUAREZ                             NOMINA                                                          0000       00
4001000038000000000016749727000001000000000016749727
