000000001                992719455213          000000000075220OLGA GONZALEZ RAMOS                     001001
000000002                991546077056          000000000272907ANDRES RICARDEZ VAZQUEZ                 001001
000000003                991586076699          000000000241509CINTHIA JANET SANTIAGO URBIETA          001001
000000004                991561408356          000000000272907MANUEL LAUREANO HERNANDEZ               001001
000000005                991541570277          000000000336118MARIA ESTRELLA RAMIREZ GALINDEZ         001001
000000006                991555942125          000000000294617MARCOS ANTONIO ESTEVA SANTIAGO          001001
000000007                991501495529          000000000294617LUIS ANGEL SANCHEZ PEREZ                001001
000000008                991586770320          000000000294617AXEL OVIEDO CIENEGA                     001001
000000009                991540296535          000000000272907JULIANA CAREL ORTIZ MENDEZ              001001
000000010                991551875674          000000000272907CRISTEL DEL CARMEN VELAZQUEZ CRUZ       001001
000000011                991577509212          000000000452663DANIELA EDITH GARCIA SANCHEZ            001001
000000012                991561285800          000000000302512DIANA LAURA CARDENAS RAMIREZ            001001
000000013                991563935597          000000000242462JOSE ALFREDO MUNOZ LOPEZ                001001
000000014                991524150697          000000000294617MARIA DEL CARMEN BARRERA GONZALEZ       001001
000000015                991528570759          000000000314355PEDRO ALBERTO ESPARZA MARTINEZ          001001
000000016                991558028808          000000000294617IVAN ALEXIS FERNANDEZ ACEVEDO           001001
000000017                991599159022          000000000240826JESUS MANUEL GARCIA SANTOS              001001
000000018                991546699149          000000000272907NORMA CEFERINO RODRIGUEZ                001001
000000019                991545885135          000000000294617DALIA ITAYEXIT RAMIREZ FLORES           001001
000000020                992962449927          000000000272907MANUELA JUAREZ DIAZ                     001001
000000021                991533267039          000000000228909LAURA ELENA MORALES LOPEZ               001001
000000022                992975257212          000000000687984GILBERTO CELORIO POSADA                 001001
000000023                990171084992          000000000294617LUIS ANGEL MARTINEZ ZAVALA              001001
000000024                991556803865          000000000076507ALEJANDRINA MEJIA PEREZ                 001001
000000025                991531132153          000000000203630LUIS CESAR AUGUSTO MANCILLA VAZQUEZ     001001
000000026                992697760906          000000000294617KARINA OLVERA CARRASCO                  001001
000000027                991119012095          000000000294617JORGE ASAEL CABRERA SANCHEZ             001001
000000028                991511862751          000000000294617BRANDON ALEXIS CONTRERAS PIN            001001
000000029                991561926904          000000000272907LOURDES RUIZ MARTINEZ                   001001
000000030                991511819948          000000000272907LUZ SELENE CORDERO RAMOS                001001
000000031                991541607042          000000000272907ARANZA JUDITH HOYOS MENDEZ              001001
000000032                991546823300          000000000272907WILBERTH OSWALDO UICAB COCOM            001001
000000033                991595937854          000000000272907DAVID GONZALEZ JUAREZ                   001001
000000034                991504089251          000000000272907LUIS MIGUEL AMARO PICAZO                001001
000000035                991562390038          000000000236284RAITZANDER ZUNIGA MELENDEZ              001001
000000036                991594654245          000000000272907ROBERTO CARLOS MORA SANCHEZ             001001
000000037                991572514915          000000000294617DIONISIO MENDOZA ESCOBAR                001001
000000038                991534736237          000000000294617CECILIA BERENICE VAZQUEZ HERNANDEZ      001001
000000039                991534703177          000000000294617GUADALUPE DEL CARMEN PINEDA SANCHEZ     001001
000000040                991506496331          000000000241509YARELI LEON JIMENEZ                     001001
000000041                991534188254          000000000277078RIGOBERTO QUEZADA SAUCEDO               001001
000000042                991583076601          000000000138989JANETH DEL CARMEN LOPEZ MORALES         001001
000000043                991517452931          000000000168599CAROLINA HURTADO PEDRERO                001001
000000044                991557907648          000000000336118ELVIS DANIEL VAZQUEZ CORONEL            001001
000000045                991515706464          000000000294617JUAN RODRIGUEZ TORRES                   001001
000000046                991520531685          000000000272907YESICA PAREDES GONZALEZ                 001001
000000047                991161519751          000000000149827CINTHYA MARLET CASTELLANOS FRAIRE       001001
000000048                991548642300          000000000272907TOMAS FLORES JUAREZ                     001001
000000049                991548482428          000000000272907GEMA CAROLINA VARGAS CASTILLO           001001
000000050                991597830125          000000000272907FLOR DE MARIA PEREZ DOMINGUEZ           001001
000000051                992959417664          000000000272907MARIA GUADALUPE DELFIN GUTIERREZ        001001
000000052                991525832702          000000000339572JULIO CESAR RAMOS MORALES               001001
000000053                991595763414          000000000257731PERLA JAZMIN GONZALEZ JIMENEZ           001001
000000054                991574216067          000000000533469ANA KAREN TORRES MORALES                001001
000000055                991541814648          000000000272907JUAN MIGUEL GONZALEZ HERNANDEZ          001001
000000056                991526617945          000000000272907MARIA VIRGINIA LOPEZ SOLIS              001001
000000057                991567508832          000000000272907FRANCISCO JAVIER ORTEGA CUATECO         001001
000000058                992994842588          000000000294617JUAN ANTONIO LAVARIEGA TOLEDO           001001
000000059                991592822337          000000000228909DIANA LEYDY PERERA PEREZ                001001
000000060                991519994510          000000000228909KARLA CRISTEL VELAZCO ALATORRE          001001
000000061                991526258304          000000000333456GREGORIA ELIZABETH GARCIA HERNANDEZ     001001
000000062                991551514672          000000000197528SANDY MONTIEL CALZADA                   001001
000000063                991530013838          000000000336118ITZAYANA ALVAREZ GALLEGOS               001001
000000064                991506838755          000000000230567JULIAN FLORES VALENCIA                  001001
000000065                992978381798          000000000294617GABRIELA CHARIS ESTEVA                  001001
000000066                991558530753          000000000272907MAYRA PORRAS ROMERO                     001001
000000067                991532594412          000000000272907ANA SILVIA ARRAZATE GARCIA              001001
000000068                991518471030          000000000687984ALBERTO CRUZ HERNANDEZ                  001001
000000069                991547003622          000000000294617RAIBE RAMIREZ ORTIZ                     001001
000000070                992946254314          000000000533469GABRIELA DEL CARMEN GUZMAN MARTINEZ     001001
000000071                992880652903          000000000439719ZAIRA GUADALUPE SORIANO RIVERA          001001
000000072                991518503047          000000000105550ANTONY ALFONSO FIGUEROA CHAVEZ          001001
000000073                991572505290          000000000257823CRISTINA BARBOSA ROMERO                 001001
000000074                992903457818          000000000840276ELDER SUASTEGUI ABURTO                  001001
000000075                991526209044          000000000343756OLGA MARIA OROZCO MARTINEZ              001001
000000076                991522321882          000000000300413LIDIA FERNANDA CELAYA PEREZ             001001
000000077                991519438650          000000000338323BRENDA MINERVA CERVANTES VILLALBA       001001
000000078                991552845393          000000001588234FERNANDO MUNOZ HERNANDEZ                001001
000000079                991545164624          000000000294617MADAIN MALPICA MACIEL                   001001
000000080                990456653758          000000000294617ODRA CONCEPCION JIMENEZ GONZALEZ        001001
000000081                990466404529          000000000367075LIDIA AVENDANO TRINIDAD                 001001
000000082                991579187378          000000000294617NAYELLI TOLEDO ESTEVA                   001001
000000083                991128543909          000000000294617MANUELA RODARTE VARGAS                  001001
000000084                991519813001          000000000167700JOSE MARIO AMADOR SANTOS                001001
000000085                991515658398          000000000277911YARA MARIELA ANOTA SANDOVAL             001001
000000086                991578007822          000000000294617NADIA ALONDRA PLANCARTE TORRES          001001
000000087                991504042875          000000000294617ANABEL GOMEZ GONZALEZ                   001001
000000088                991552802586          000000000294617ALFREDO VENANCIO SANCHEZ MUNOZ          001001
000000089                990468241325          000000000294617MARIA DE MONSERRAT REYES ESCAMILLA      001001
000000090                992857858604          000000000290216FULGENCIO DE LA CRUZ CRUZ               001001
000000091                991519604240          000000000242251JAIME ARIEL DEL ANGEL ZUMAYA            001001
000000092                991547597858          000000000245369JOSELINE NAYELI GONZALEZ LOPEZ          001001
000000093                991581127660          000000000294617IRMA LUCIA HERNANDEZ VAZQUEZ            001001
000000094                991520075245          000000000649850ANA LUISA LEYTE ROSALES                 001001
000000095                992897036442          000000000533469ANGEL ROSALES ORTIZ                     001001
000000096                992974414357          000000000649873FRANCISCO JAVIER SANDOVAL PERALTA       001001
000000097                991512849600          000000000294617MARIA ANALLELY JIMENEZ RIOS             001001
000000098                991519446750          000000000234413MARIA CONCEPCION BUGARIN CAMARGO        001001
000000099                991521580881          000000000272990ANDREA CECILIA LOPEZ GARCIA             001001
000000100                991515902323          000000000294617GENESIS ANTARIS DIAZ PANTOJA            001001
000000101                991558873906          000000000202750JUAN ANGEL CAZARES SANCHEZ              001001
000000102                991589125020          000000000294617JOSE MANUEL MARTINEZ HERNANDEZ          001001
000000103                992924869575          000000000483410ISABEL ASENCION LOPEZ                   001001
000000104                990460841005          000000000294603RICARDO PEREZ PIZA                      001001
000000105                992895698936          000000000481359JOSE LUIS CURA FUENTES                  001001
000000106                991549070877          000000000039316FRANCISCO NUNEZ PARRA                   001001
000000107                991572747696          000000000467421ANDRES ANTONIO LUNA NAVARRETE           001001
000000108                991595722619          000000000135747FLOR DAMARIS CARDENAS BURGOS            001001
000000109                991200697060          000000000452817GUADALUPE GALEANA YEBALE                001001
000000110                991524955016          000000000294617VERONICA PALACIOS HERNANDEZ             001001
000000111                992956239188          000000000167524AMADA QUITL PALOMARES                   001001
000000112                991523014960          000000000294610MARIA JOSEFINA LOPEZ ATILANO            001001
000000113                991576131096          000000000294617MARTHA EMILIA CRUZ MORENO               001001
000000114                991523774612          000000000082573SONIA CORAL VARGAS AVENDANO             001001
000000115                992764730909          000000000708057FERNANDO CRUZ JIMENEZ                   001001
000000116                992957537301          000000000433781ROCIO KARINA BARRERA UGALDE             001001
000000117                991559346494          000000000294610IGNACIO LEVI GOMEZ RUIZ                 001001
000000118                992934433599          000000000573280SAUL CRUZ HERNANDEZ                     001001
000000119                991514954541          000000000367124ADI MARENI PEREZ VAZQUEZ                001001
000000120                991514944669          000000000401732PEDRO ALFREDO LOPEZ GOMEZ               001001
000000121                991580140981          000000000239612DIANA GABRIELA FONSECA ROMERO           001001
000000122                991557693613          000000000144395JOSUE CRUZ DOMINGUEZ                    001001
000000123                991570560301          000000000272907DANIEL PAZ PARRA                        001001
000000124                991584576121          000000000483410ROBERTO HECTOR DOMINGUEZ TOVAR          001001
000000125                991588894404          000000000220916BRENDA TERESA SOLORIO ESPARZA           001001
000000126                991590869494          000000000272907MARIO ERNESTO VAZQUEZ FLORES            001001
000000127                991591056118          000000000285237LILIBETH GUADALUPE ESTRADA FUENTES      001001
000000128                992724262476          000000001701770JORGE IGNACIO PINEDA DIAZ DE LA VEGA    001001
000000129                992935257476          000000000131348LUIS ANTONIO ROMERO LOPEZ               001001
000000130                991552159026          000000000272907MARIA INES MORALES MATEOS               001001
000000131                990460467316          000000000272907VENTURA SAMUEL PEREZ VARGAS             001001
000000132                991514749502          000000000367138ROCIO CALDERON REYES                    001001
000000133                990458596972          000000000221106ARTURO OSCAR CORTES LOPEZ               001001
000000134                991559240571          000000000309582NADIA HERNANDEZ ARROYO                  001001
000000135                991586606571          000000000274808ABIGAIL MEDRANO MUNOZ                   001001
000000136                991576692540          000000000257731FABIOLA OLIVER JACOBO                   001001
000000137                991556776388          000000000285237ERIKA GONZALEZ RAMIREZ                  001001
000000138                991569572913          000000000120850BRENDA CECILIA SANTANA PENA             001001
000000139                991559343052          000000000796500HUGO OMELITO LOPEZ GONZALEZ             001001
000000140                992866677029          000000000294588MARIA DEL CARMEN BAUTISTA HERNANDEZ     001001
000000141                991512022761          000000000649780CARLOS TIMOTEO OROZCO TAPIA             001001
000000142                992869587438          000000000442230EFRAIN CORONA LOPEZ                     001001
000000143                992899239502          000000000452786ROSA IRELA ALARCON CANO                 001001
000000144                992912164523          000000000294588ESPERANZA PLUMA GEORGE                  001001
000000145                992980003263          000000000272907ANGEL EDMUNDO AGUILAR COLIN             001001
000000146                992937223544          000000000429692ADAN VASQUEZ SOTO                       001001
000000147                991170941476          000000000294594SAUL CERVANTES GUILLERMO                001001
000000148                991163663663          000000000367107ALBERTO SANTOS GARCIA                   001001
000000149                991501513907          000000000364594ADAN DE LA CRUZ CRUZ                    001001
000000150                991522331101          000000000272907ANTONIO BARQUERAS RIVERA                001001
000000151                992953444155          000000000351715ALVARO GUILLERMO CORBALA RODRIGUEZ      001001
000000152                991535289521          000000000354603BENIGNO DE LA CRUZ GABRIEL              001001
000000153                991544558561          000000000508425DAVID DUARTE ANIMAS                     001001
000000154                991240791466          000000000257687EDGAR CASASOLA VARGAS                   001001
000000155                992852089386          000000000294603BRENDA ELIA NAVA SANCHEZ                001001
000000156                991539807950          000000000148805MIGUEL ANGEL RAMOS MARTINEZ             001001
000000157                992925025494          000000000410648VERONICA SILVIA VALDEZ VAZQUEZ          001001
000000158                990455723442          000000000221017JOSE MARTIN CAMACHO VAZQUEZ             001001
000000159                991586583954          000000000248851FERNANDO GALLEGOS GARCIA                001001
000000160                991502083569          000000000272901ROSA ESMERALDA MORALES MARTINEZ         001001
000000161                991500021043          000000000272901KARLA LUCIA LOYDE HERRERA               001001
000000162                992931464310          000000000294610MARIA VICTORIA TAVIRA MIRALRIO          001001
000000163                991523607677          000000000216138LAURA ISELA FLORES MARIN                001001
000000164                992947354738          000000000533469OMAR HILARIO DANIEL                     001001
000000165                991527844339          000000000272907JENNIFER DENIS AVILA SALGADO            001001
000000166                991511453793          000000000234757MARLEN JUAREZ RAMIREZ                   001001
000000167                992845119464          000000000272907MONICA GABRIEL SANCHEZ                  001001
000000168                991532786242          000000000241011BEATRIZ HERNANDEZ HERNANDEZ             001001
000000169                991534419522          000000000272907LEYDI TEMAZATZI ROJAS                   001001
000000170                991522522597          000000000272907BLANCA EDITH ALVAREZ SUAREZ             001001
000000171                992907258259          000000000272907ALEJANDRO PEREZ AMARO                   001001
000000172                991576583008          000000000272907JEHU MENDEZ HERNANDEZ                   001001
000000173                991573579611          000000000272907CARMEN SUGEILY CHAVEZ SUAREZ            001001
000000174                991542464058          000000000483410ERIKA LISSETTE VARGAS VERONA            001001
000000175                991550748882          000000000294617KENIA AGUILAR GUTIERREZ                 001001
000000176                991529486537          000000000268088GLADIS DEL CARMEN MALDONADO AGUILAR     001001
000000177                991535881679          000000000167502GUILLERMO ENRIQUE NUNEZ NOLASCO         001001
000000178                991538063389          000000000431516EDUARDO HERNANDEZ GONZALEZ              001001
000000179                992891268775          000000000294617FREDI DIAZ OROZCO                       001001
000000180                991540400312          000000000272907JOEL SILVA PRIEGO                       001001
000000181                990465444756          000000000383298IVETTE BRENA RAMOS                      001001
000000182                991555915171          000000000294617MANUEL ALBERTO LOPEZ LOPEZ              001001
000000183                991502853393          000000000294617JUAN ANTONIO RUIZ AVILA                 001001
000000184                991431889990          000000001700940GERMAIN GUTIERREZ DE LA CRUZ            001001
000000185                991228566631          000000000318672ANA ALICIA GONZALEZ MARIANO             001001
000000186                992667935609          000000000660767EMMANUEL CRUZ BAUTISTA                  001001
000000187                992677466609          000000000401398CLAUDIA ADRIANA RAMIREZ DIAZ            001001
000000188                992600282049          000000000351805ALEJANDRO ARON VIEYRA ROJAS             001001
000000189                992931470574          000000000452756DAISY LAURA NERI PEREZ                  001001
000000190                992677464703          000000000294588JOSE ANTONIO GARCIA HERNANDEZ           001001
000000191                992957951167          000000000294588PEDRO PABLO DOMINGUEZ DEL ANGEL         001001
000000192                991526392566          000000000294610MICAELA OLIVERA LOPEZ                   001001
000000193                992896188915          000000000294610IVAN DE JESUS JUAREZ VALDIVIESO         001001
000000194                991277441576          000000000979068CARLOS ALONSO ADAME LOPEZ               001001
000000195                991131995243          000000000272907NANCY YAZMIN VAZQUEZ HERNANDEZ          001001
000000196                991527200598          000000000483393NANCY GUADALUPE GARCIA AQUINO           001001
000000197                991554721686          000000000272899DAVID ALFONSO CHAVEZ CASTANEDA          001001
000000198                991569315640          000000000687959EDUARDO ALBERTO SAUCEDO RAMOS           001001
000000199                991516613861          000000000553978ALDO GARCIA MAGALLANES                  001001
000000200                991519434766          000000000214566RICARDO JUAREZ ACOSTA                   001001
000000201                992892584158          000000000326490MARIA MAGDALENA CASTILLO JIMENEZ        001001
000000202                991508465269          000000000352256CARLOS FILIBERTO GARCIA ALEGRIA         001001
000000203                991586408176          000000000318742SERGIO ATAIN LOPEZ FUENTES              001001
000000204                991501464531          000000000172182YESENIA DE JESUS VAZQUEZ PEREZ          001001
000000205                991539936502          000000000401733AXBAL ANDRES CRUZ GUERRA                001001
000000206                991121484923          000000000599849JOSE ALBERTO GALDAMEZ ALTAMIRANO        001001
000000207                991167865902          000000000687959RICARDO ROMERO LOPEZ                    001001
000000208                991161650157          000000000326490PAOLA JHOANA VELASCO HIDALGO            001001
