100001E092120211234567890123   09212021
2000020000901581RETIZ                         ROJAS               MYRIAM HELENA                 13724810407186392001000000000000300061
2000030000901972BALTAZAR                      VIVANCO             SANDRA                        13774810393942610401000000000000291079
2000040000904117CUETO                         RIVERA              AMERICA MONTSERRAT            13737510335659177101000000000000289231
2000050000904187LOPEZ                         RUIZ                JUAN                          13728213005797262901000000000000313935
2000060000011739TRUJILLO                      RODRIGUEZ           JULIO AURELIO                 13752810300438445601000000000000288897
2000070000011767ORTEGA                        HERNANDEZ           ROSA DELIA                    13722513004323178401000000000000272555
2000080000011166VEGA                          LUGO                AIDE AVIGAIL                  13732010314360007901000000000000296765
2000090000010205TINOCO                        CAMPOS              MARIA DE LOURDES              13752810364242439601000000000000327268
2000100000010296VIDALES                       CARDENAS            MELISSA                       13753510262182970201000000000000272913
30001100009000000000002652704
