100001E0921202165505232207     09212021
2000020901836PALOMINO                      VAZQUEZ             JESSICA DEL ROCIO             60614950003     000000000000313935
2000030902097GARCIA                        RUIZ                ROSA GLADYS                   60602911401     000000000000410067
2000040012024PARDO                         OROZCO              ESTELA                        56721299498     000000000000532642
2000050011901BAUTISTA                      DIAZ                ANA GUADALUPE                 60605308497     000000000000211915
2000060011676VELAZQUEZ                     OLGUIN              VERONICA MARCELA              56780627970     000000000000360106
2000070011520BALLESTEROS                   SANCHEZ             LAURA YANETH                  23000456115     000000000000272548
2000080011466GONZALEZ                      GARCIA              JENNIFER MINERVA              60606810082     000000000000447134
2000090011445FLORES                        RODRIGUEZ           LILIANA                       56686075222     000000000000255169
2000100011064REYES                         ESPINOZA            EDMUNDO IGNACIO               56697326216     000000000000605452
2000110010545MORFIN                        ANCIRA              MERY ESTEFANIA                60589586912     000000000000313909
2000120010116SANCHEZ                       MEJIA               MARIO ALBERTO                 60583624882     000000000000532563
2000130010068BUCIO                         BETANCOURT          JORGE ALFREDO                 60561637253     000000000000298247
2000140010072MEJIA                         GOMEZ               SILVERIO                      60571154183     000000000000148478
2000150010013RAMIREZ                       MACIAS              LUZ ELENA                     56615669720     000000000000436548
30001600014000000000005138713
