000000001                991528041005          000000000125316ANTONIO SANTOYO MORALES                 001001
000000002                991528815876          000000000089215ALBERTO CARDENAS ZARATE                 001001
000000003                991528815906          000000000147468CONSTANTINO SANTIAGO BALDERRAMA         001001
000000004                991528815930          000000000071137CRUZ AGUILAR MORALES                    001001
000000005                991529172538          000000000099714RICARDO ALCANTAR GONZALEZ               001001
000000006                991529172502          000000000133194DOMINGO ALCIVAR GOMEZ                   001001
000000007                991461848712          000000000142606VICTOR HUGO ANGEL DOMINGUEZ             001001
000000008                991528815958          000000000112025RAUL DOMITILO ANGELES DIONICIO          001001
000000009                991528815965          000000000147587SANTOS BELTRAN HERNANDEZ                001001
000000010                991529172545          000000000182020ALEJANDRO BENITEZ MALDONADO             001001
000000011                991528815973          000000000107545LORENZO BINZHA ORTIZ                    001001
000000012                991539883401          000000000102019URIEL CARDENAS ZARATE                   001001
000000013                991528815981          000000000130062HECTOR CELIS CELIS                      001001
000000014                991529619557          000000000016387SERGIO CUELLAR SOLIS                    001001
000000015                991528041064          000000000075387FELIPE DE LA CRUZ GONZALEZ              001001
000000016                991528815999          000000000113377GERARDO DE LA VEGA GARCIA               001001
000000017                991528816008          000000000171973GUILLERMO DORANTES LUZ                  001001
000000018                991528816015          000000000004007HECTOR DORANTES OLGUIN                  001001
000000019                991529172579          000000000069863JUAN CARLOS ESCALONA GARCIA             001001
000000020                991528816023          000000000083382EDGAR FLORES JIMENEZ                    001001
000000021                991528816155          000000000139543UBALDO FLORES JIMENEZ                   001001
000000022                991529450995          000000000102969JOSE ALBERTO FUENTES SANCHEZ            001001
000000023                991528206004          000000000142198FRANCISCO EMILIANO GONZALEZ TREJO       001001
000000024                991529172528          000000000111289MIGUEL ANGEL OLGUIN URIBE               001001
000000025                991507936181          000000000080781JAIRO HERNANDEZ GARCIA                  001001
000000026                991521424394          000000000110536IGNACIO GREGORIO GUTIERREZ              001001
000000027                991529172510          000000000123705CARLOS HERNANDEZ CRUZ                   001001
000000028                991577727847          000000000157641ANSELMO ROMAN GUTIERREZ LARA            001001
000000029                992915575125          000000000071979ALEJANDRO RAUL MARIN HERNANDEZ          001001
000000030                992867765517          000000000102218JUAN MARTINEZ VELAZQUEZ                 001001
000000031                991528816049          000000000154229GUILLERMO MENDEZ RODRIGUEZ              001001
000000032                991528816057          000000000125367IVAN ALEJANDRO MERAZ GARCIA             001001
000000033                991407636326          000000000086902JORGE NUEVO ORTEGA                      001001
000000034                991529172553          000000000084934HECTOR VICENTE PEREZ CRUZ               001001
000000035                991529172561          000000000194318LEONARDO PEREZ TIZAPANTZI               001001
000000036                991425136970          000000000130268JOSE DANIEL SANCHEZ SANCHEZ             001001
000000037                991528816066          000000000131473JUSTINO SANTES HERNANDEZ                001001
000000038                991528816074          000000000133004AGUSTIN SANTIAGO MENDOZA                001001
000000039                991528816082          000000000058002JUAN VERGARA ESQUIVEL                   001001
000000040                991528816104          000000000071358JOSE ANTONIO ZAMUDIO GOMEZ              001001
000000041                991528816112          000000000064583ANGEL SERRATO HERNANDEZ                 001001
000000042                991528816138          000000000115049PABLO LOPEZ CALVILLO                    001001
