000000001                991582829959          000000000469399MARISOL HERNANDEZ DIAZ                  001001
000000002                991500271708          000000000527622MARIANA PAREDES MILLAN                  001001
000000003                992881137476          000000000643804HUGO HERNANDEZ HERRERA                  001001
000000004                991563211908          000000000418473SHEIRAN NETTEL CARMONA                  001001
000000005                990456910394          000000000447150ANA KAREN DE LA CRUZ CALDERON           001001
000000006                992959835555          000000000447150ADRIANA BALDERAS GARCIA                 001001
000000007                991547036822          000000000527642YESSICA ISABEL VEGA ALCANTARA           001001
000000008                991524910095          000000000528228YESSICA ESTRADA ALDAMA                  001001
000000009                990469179593          000000000527782JORDAN JAIR MARGARITO DAMIAN            001001
000000010                991569032921          000000000375045CITLALI MORALES SUAREZ                  001001
000000011                992890519014          000000000380939MIGUEL ANGEL CABRERA ANGELES            001001
000000012                991540535187          000000000447150ERIKA MARTINEZ MALVAEZ                  001001
000000013                992982253305          000000000527642FLORICELA SANCHEZ GARCIA                001001
000000014                990467008201          000000000911266SANAE NAVA SILVA                        001001
000000015                991508923876          000000000567392GABRIELA GARDUNO ACEVES                 001001
000000016                991514949687          000000000757867DANIELA ITZEL LOPEZ ALEMAN              001001
000000017                991556844220          000000000702209JANET ANDREA GARCIA RODRIGUEZ           001001
000000018                991581957066          000000000567392ANA YANIN HUERTA GONZALEZ               001001
000000019                991551737158          000000000757897ANAHI ALTAMIRANO HERNANDEZ              001001
000000020                991133055795          000000000487861OMAR ZERMENO NUNEZ                      001001
000000021                991151593188          000000000352437BRENDA PAOLA BRAVO CASTELLANOS          001001
000000022                991520085545          000000000624435JUAN CARLOS HERNANDEZ ALVAREZ           001001
000000023                991542883899          000000000527642JOSE LUIS GALDAMEZ PEREZ                001001
000000024                991529477520          000000000447150CUAUHTEMOC DONOVAN VAZQUEZ QUINTO       001001
000000025                991512002272          000000000757897TANIA ARCELIA VAZQUEZ CORDOVA           001001
000000026                991512004917          000000000447150PEDRO DAMIAN MARTINEZ BLANCO            001001
000000027                991521612549          000000000447150CARLOS ALBERTO MENDOZA ORTIZ            001001
000000028                991402159236          000000000339688VALENTIN LORENZO FILER                  001001
000000029                991513620778          000000000447150JERONIMO DEL ANGEL GARCIA               001001
000000030                991540736956          000000000361610CAROLINA MENDOZA MENDEZ                 001001
000000031                992869452400          000000000447150EDNA GISELDA CARDENA MUNOZ              001001
000000032                992861944533          000000000617183JOSE ANGEL MARTINEZ CRUZ                001001
000000033                992957787359          000000000617088FREDY GABRIEL VELASCO VELASCO           001001
000000034                991512656361          000000000757897TANIA LISBETH VARGAS CASTRO             001001
000000035                991549080155          000000000501472OSCAR EMIR CRUZ ILLESCAS                001001
000000036                991590113614          000000000586758ANA PATRICIA AQUINO CHAVEZ              001001
000000037                992871159186          000000000542901JOSE CARLOS ARRAZATE JOSE               001001
000000038                991549317856          000000000423180MARCELA LOPEZ ORTEGA                    001001
000000039                991589089996          000000000526723CESAR ANASTACIO DEL ANGEL               001001
000000040                991558411867          000000000724564CARLOS JESUS PINON TREJO                001001
000000041                991548801684          000000000401748JOSE ARTURO MORENO ZARATE               001001
000000042                991556423976          000000000527642LADY TANIA CELAYA MENDOZA               001001
000000043                991519285067          000000000447150LUCERO ALVAREZ GONZALEZ                 001001
000000044                991547352454          000000000369771FERNANDA ISABEL SOLANO ROJAS            001001
000000045                991548664498          000000000388817CINTHIA VERENICE ARTIGAS LOPEZ          001001
000000046                991592525677          000000000414344REYES OSVALDO ALANIS PICAZO             001001
000000047                991558443800          000000000447150ISELA ROSAS LARA                        001001
000000048                992946254314          000000000527642GABRIELA DEL CARMEN GUZMAN MARTINEZ     001001
000000049                991543521764          000000000315718CATHERINEE JOSELYN SOSA SARMIENTO       001001
000000050                991521454862          000000000447150ELIAS MERINO HERNANDEZ                  001001
000000051                991564073935          000000000365664NOE JALIL ALAS GALLARDO                 001001
000000052                991574472659          000000000405067JOSE ALFREDO GIRON SANCHEZ              001001
000000053                991555550265          000000000447150IRIS VIRIDIANA TORRES GUTIERREZ         001001
000000054                991520698714          000000000527642MARIA ANTONIA LOPEZ HERNANDEZ           001001
000000055                991563402142          000000000405067SANDRA GUADALUPE RUIZ FONSECA           001001
000000056                991536887127          000000000405067ITZUMY VIRIDIANA CRUZ SALGADO           001001
000000057                992984990730          000000000447150CRISTIAN FUENTES ALVARADO               001001
000000058                991533063844          000000000405066JUDITH ESTEFANY MARTINEZ DELGADO        001001
000000059                991545282957          000000000460362FELIX ALEJANDRO CASTILLO GUERRERO       001001
000000060                991596657764          000000000330664OLGA LIDIA MILLAN RIVERA                001001
000000061                991528810161          000000000447150LILIA MANUEL FERNANDEZ                  001001
000000062                991549323218          000000000241304PABLO ALBERTO MONTES NINO               001001
000000063                991548706308          000000000330664GABRIELA REBECA MEDINA LANDIN           001001
000000064                991585379444          000000000447150MAGALY GARCIA GARCIA                    001001
000000065                991519198754          000000000527642JANIRA LURIEET CASTILLO RAMOS           001001
000000066                991502729608          000000000361610PAOLA NEGRETE GONZALEZ                  001001
000000067                991511944274          000000000513804GUADALUPE GUSTAVO JUAREZ HERNANDEZ      001001
000000068                991556571189          000000000643804CECILIA PIMENTEL RODRIGUEZ              001001
000000069                991522682834          000000000361610GABRIELA LEZAMA SALAZAR                 001001
000000070                991557806113          000000000447150EDALI BASTIDA MARTINEZ                  001001
000000071                991563478188          000000000305313MOISES EDUARDO BELTRAN SANCHEZ          001001
000000072                991506661095          000000000361610JESUS FRANCISCO SANTOS VAZQUEZ          001001
000000073                991519983012          000000000330664KARINA HERNANDEZ HERNANDEZ              001001
000000074                991542068955          000000000405067MARIA CONCEPCION ANTONIO MORALES        001001
000000075                991551693921          000000000527802JUANA LIZBETH HERNANDEZ HERNANDEZ       001001
000000076                991500594230          000000000405067GUADALUPE AGUILAR ESCOBEDO              001001
000000077                991598591281          000000000361610ENNER ESPINOSA HERNANDEZ                001001
000000078                991575395574          000000000447150OSCAR ALEJANDRO MANDUJANO SILVA         001001
000000079                991574675786          000000000405067CHIRSTIAN ARACELI VILLALPANDO FLORES    001001
000000080                991548807423          000000000405067RODRIGO HUMBERTO TERRONES CEDILLO       001001
000000081                991583798112          000000000361610MARIA DE LOURDES ELIA DIAZ ALVARADO     001001
000000082                991551104864          000000000527642ALEJANDRA LETICIA RESENDIZ HERRERA      001001
000000083                991117593104          000000000361610JONATHAN ANTONIO CANEDO RAMIREZ         001001
000000084                991599119798          000000000361610GABRIELA TORRES PADRON                  001001
000000085                991543855280          000000000361610BRANDON MARTINEZ AGUILAR                001001
000000086                991533673335          000000000396935RICARDO AGUILAR PIVARAL                 001001
000000087                991525686584          000000000380944AURA GUADALUPE PINEDA CRUZ              001001
000000088                991552488879          000000000431047GABRIELA NAVARRETE MARTINEZ             001001
000000089                991549811072          000000000384850CARMEN ABIGAIL DOMINGUEZ RAMIREZ        001001
000000090                991532119873          000000000431081OLGA XATZIE GARCIA CARDENAS             001001
