100001E1221202165508020750     12212021
2000020011381PEREZ                         VALDOVINOS          YANETH                        60604968092     000000000000757897
2000030011466GONZALEZ                      GARCIA              JENNIFER MINERVA              60606810082     000000000000447134
2000040011901BAUTISTA                      DIAZ                ANA GUADALUPE                 60605308497     000000000000467523
2000050022748VILLA                         LORENZO             ABELARDO                      20010992296     000000000000260967
2000060050674RAMOS                         VILLEGAS            CESAR ADRIAN                  60607808148     000000000000409412
2000070070331JIMENEZ                       ALBOREZ             JUAN CARLOS                   56641625766     000000000000541161
2000080091342VILLANUEVA                    LOTINA              JOSE CARLOMAGNO               60598502105     000000000000508110
2000090093248MASTRANZO                     ROMERO              DENY PATRICIA                 20012083601     000000000000447150
2000100130074LAURENCE                      LUNA                JUAN ALFREDO                  56692186509     000000000000809780
2000110130091CHAN                          MARTIN              IRLANDA YAZMIN                20006245722     000000000000757897
2000120902097GARCIA                        RUIZ                ROSA GLADYS                   60602911401     000000000000366367
2000130903304CASTILLO                      ACUNA               NALLELY NOHEMI                20007928816     000000000000527642
2000140904228MARTINEZ                      DE DIOS             ALDO DE JESUS                 20012322826     000000000000405067
2000150905861BERMUDEZ                      CASTILLO            AURELIO                       56726140672     000000000000361610
2000160906252MORENO                        LOPEZ               VIRGINIA CAROLINA             60604973546     000000000000361610
2000170906657SCHIETEKAT                    ROSADO              VERONICA SOCORRO              60519857426     000000000001321494
2000180910303GARCIA                        VASQUEZ             SANDRA NALLELY                25001944374     000000000000405067
2000190910682RAMOS                         TELLEZ              CRISTIAN                      60597019611     000000000000361610
30002000018000000000009517498
