65508020750     132180000080376982MULTIOSCAR MAURICIO MORENO PLASCENCIA        10010000000006829840100148 PAGO POR CUENTA Y ORDEN SUELDO                                                                                                 0000001
65508020750     137528103642424396COPELMARIA DE LOURDES TINOCO CAMPOS          10010000000003229880100148 PAGO POR CUENTA Y ORDEN SUELDO                                                                                                 0000002
65508020750     137535102621829702COPELMELISSA VIDALES CARDENAS                10010000000002284490100148 PAGO POR CUENTA Y ORDEN SUELDO                                                                                                 0000003
65508020750     137320103143600079COPELAIDE AVIGAIL VEGA LUGO                  10010000000002973600100148 PAGO POR CUENTA Y ORDEN SUELDO                                                                                                 0000004
65508020750     137528103004384456COPELJULIO AURELIO TRUJILLO RODRIGUEZ        10010000000002678990100148 PAGO POR CUENTA Y ORDEN SUELDO                                                                                                 0000005
65508020750     137225130043231784COPELROSA DELIA ORTEGA HERNANDEZ             10010000000002537280100148 PAGO POR CUENTA Y ORDEN SUELDO                                                                                                 0000006
65508020750     137420102612996458COPELMARIA DE LOS ANGELES SANTIN JIMENEZ     10010000000003371100100148 PAGO POR CUENTA Y ORDEN SUELDO                                                                                                 0000007
65508020750     137552101543893308COPELCAROLINA ALARCON CASTILLO               10010000000004030190100148 PAGO POR CUENTA Y ORDEN SUELDO                                                                                                 0000008
65508020750     137180101173574524COPELNANCY MONTESINOS BRAVO                  10010000000003093310100148 PAGO POR CUENTA Y ORDEN SUELDO                                                                                                 0000009
65508020750     137424180015400721COPELLUIS FERNANDO MENDEZ HERNANDEZ          10010000000001955490100148 PAGO POR CUENTA Y ORDEN SUELDO                                                                                                 0000010
65508020750     137426130027731096COPELNATALIA FLORES VALDES                   10010000000002163600100148 PAGO POR CUENTA Y ORDEN SUELDO                                                                                                 0000011
65508020750     137544102778493946COPELIRMA BLANCA QUEVEDO NAJERA              10010000000002106050100148 PAGO POR CUENTA Y ORDEN SUELDO                                                                                                 0000012
65508020750     137424103634384027COPELTIFANY BERENICE MORENO ROSAS            10010000000002896090100148 PAGO POR CUENTA Y ORDEN SUELDO                                                                                                 0000013
65508020750     137542103745280633COPELALEXIS RAMIREZ CRUZ                     10010000000002570170100148 PAGO POR CUENTA Y ORDEN SUELDO                                                                                                 0000014
65508020750     137180130041522501COPELDIEGO ARMANDO HERNANDEZ VARGAS          10010000000001956170100148 PAGO POR CUENTA Y ORDEN SUELDO                                                                                                 0000015
65508020750     137650101466264547COPELSOLEDAD ABURTO PEREZ                    10010000000004248980100148 PAGO POR CUENTA Y ORDEN SUELDO                                                                                                 0000016
65508020750     137542101369327000COPELALMA ROSA REYES ZAPATA                  10010000000003311180100148 PAGO POR CUENTA Y ORDEN SUELDO                                                                                                 0000017
65508020750     137542101094770074COPELANA LAURA LUNA JIMENEZ                  10010000000003311180100148 PAGO POR CUENTA Y ORDEN SUELDO                                                                                                 0000018
65508020750     137180103341481793COPELMIGUEL DE JESUS CABRERA MARTINEZ        10010000000001654110100148 PAGO POR CUENTA Y ORDEN SUELDO                                                                                                 0000019
65508020750     137671103432754181COPELNORMA SALAS HUERTA                      10010000000002266130100148 PAGO POR CUENTA Y ORDEN SUELDO                                                                                                 0000020
65508020750     137671103689459572COPELSALVADOR MUNOZ CENTENO                  10010000000003206340100148 PAGO POR CUENTA Y ORDEN SUELDO                                                                                                 0000021
65508020750     137651103020445411COPELERIKA MARTINEZ HERNANDEZ                10010000000002808840100148 PAGO POR CUENTA Y ORDEN SUELDO                                                                                                 0000022
65508020750     137651102970581219COPELMONSERRAT RAMIREZ CRUZ                  10010000000002238900100148 PAGO POR CUENTA Y ORDEN SUELDO                                                                                                 0000023
65508020750     137663130013551412COPELCECILIA CONTRERAS SIERRA                10010000000002688970100148 PAGO POR CUENTA Y ORDEN SUELDO                                                                                                 0000024
65508020750     137669130007785706COPELYADIR GABRIELA MENDEZ ZAYAS             10010000000001631880100148 PAGO POR CUENTA Y ORDEN SUELDO                                                                                                 0000025
65508020750     137651103793120500COPELJHONY BRAVO SAAVEDRA                    10010000000003093300100148 PAGO POR CUENTA Y ORDEN SUELDO                                                                                                 0000026
65508020750     137040101562016649COPELMARIA DEL ROCIO CORTES PEREZ            10010000000002531580100148 PAGO POR CUENTA Y ORDEN SUELDO                                                                                                 0000027
65508020750     137651103254743222COPELJOSE ELIAS SEGUNDO ALARCON              10010000000003093390100148 PAGO POR CUENTA Y ORDEN SUELDO                                                                                                 0000028
65508020750     137673130029543404COPELLUIS ENRIQUE RAMIREZ CHINO              10010000000001918410100148 PAGO POR CUENTA Y ORDEN SUELDO                                                                                                 0000029
65508020750     137180101766953536COPELMARIO SIMBRON ORTEGA                    10010000000001985210100148 PAGO POR CUENTA Y ORDEN SUELDO                                                                                                 0000030
65508020750     137813103865024932COPELLORENA GONZALEZ RAMIREZ                 10010000000002238900100148 PAGO POR CUENTA Y ORDEN SUELDO                                                                                                 0000031
65508020750     137667102075261130COPELGUILLERMO VELAZQUEZ MARTINEZ            10010000000001725650100148 PAGO POR CUENTA Y ORDEN SUELDO                                                                                                 0000032
65508020750     137894100646396393COPELBEATRIZ CRUZ DEL ANGEL                  10010000000001975120100148 PAGO POR CUENTA Y ORDEN SUELDO                                                                                                 0000033
65508020750     137841101672813339COPELARACELI BAUTISTA HERRERA                10010000000001872790100148 PAGO POR CUENTA Y ORDEN SUELDO                                                                                                 0000034
65508020750     137669140007400725COPELMAYRA LETICIA GONZALEZ ALMEIDA          10010000000003093400100148 PAGO POR CUENTA Y ORDEN SUELDO                                                                                                 0000035
65508020750     137885103393341911COPELLUCIANO LOPEZ RAMOS                     10010000000001332600100148 PAGO POR CUENTA Y ORDEN SUELDO                                                                                                 0000036
65508020750     137841103414556726COPELNEREYDA DEL CARMEN ANTONIO HERNANDEZ    10010000000002651880100148 PAGO POR CUENTA Y ORDEN SUELDO                                                                                                 0000037
65508020750     137311102186014001COPELMARIA DEL CARMEN GODOY GONZAGA          10010000000003137420100148 PAGO POR CUENTA Y ORDEN SUELDO                                                                                                 0000038
65508020750     137874100813293922COPELYESSEL IZBET OLIVARES DIAZ              10010000000002678990100148 PAGO POR CUENTA Y ORDEN SUELDO                                                                                                 0000039
65508020750     137881103695949963COPELGUADALUPE MARTINEZ MAR                  10010000000002346340100148 PAGO POR CUENTA Y ORDEN SUELDO                                                                                                 0000040
65508020750     137905103926178208COPELJOSE IRVING LOPEZ OLMOS                 10010000000003093550100148 PAGO POR CUENTA Y ORDEN SUELDO                                                                                                 0000041
65508020750     137855103673607936COPELLUIS ALBERTO SORCIA TRUJILLO            10010000000002896130100148 PAGO POR CUENTA Y ORDEN SUELDO                                                                                                 0000042
65508020750     137669170007122727COPELMARIAN KELLY ROSAS SANCHEZ              10010000000001732580100148 PAGO POR CUENTA Y ORDEN SUELDO                                                                                                 0000043
65508020750     137291102592924478COPELYAQUELIN OLVERA TEJEDA                  10010000000002679070100148 PAGO POR CUENTA Y ORDEN SUELDO                                                                                                 0000044
65508020750     137885130035205579COPELCLAUDIA PATRICIA PEREZ GUTIERREZ        10010000000002896170100148 PAGO POR CUENTA Y ORDEN SUELDO                                                                                                 0000045
65508020750     137650101430328639COPELGUADALUPE MARTINEZ PEREZ                10010000000003311180100148 PAGO POR CUENTA Y ORDEN SUELDO                                                                                                 0000046
65508020750     137650104121901799COPELMARCO ANTONIO LOPEZ AGUILAR             10010000000002852090100148 PAGO POR CUENTA Y ORDEN SUELDO                                                                                                 0000047
65508020750     137320103466803809COPELGIEZI AZAEL CORDERO HERNANDEZ           10010000000003293660100148 PAGO POR CUENTA Y ORDEN SUELDO                                                                                                 0000048
65508020750     137650104450537119COPELMA DEL RAYITO VEANA CRUZ                10010000000001280510100148 PAGO POR CUENTA Y ORDEN SUELDO                                                                                                 0000049
65508020750     137543103597712963COPELRICARDO ARELLANO ESTELA                 10010000000001866810100148 PAGO POR CUENTA Y ORDEN SUELDO                                                                                                 0000050
65508020750     137542130047301720COPELSANDRA CHIMAN MORALES                   10010000000002066590100148 PAGO POR CUENTA Y ORDEN SUELDO                                                                                                 0000051
65508020750     137650103728262450COPELROSA ANAHI PEREZ PEREZ                  10010000000002602080100148 PAGO POR CUENTA Y ORDEN SUELDO                                                                                                 0000052
65508020750     137830103805050839COPELLAURA ELIZABETH TEPAL REYES             10010000000002678990100148 PAGO POR CUENTA Y ORDEN SUELDO                                                                                                 0000053
65508020750     137180100668180343COPELADRIANA ELSA GARCIA ACOSTA              10010000000007200330100148 PAGO POR CUENTA Y ORDEN SUELDO                                                                                                 0000054
65508020750     137180100781941414COPELLIZBETH ESCOBEDO GUZMAN                 10010000000003869500100148 PAGO POR CUENTA Y ORDEN SUELDO                                                                                                 0000055
65508020750     137180130035532002COPELGUILLERMO ALEJANDRO GALINDO VAZQUEZ     10010000000002679070100148 PAGO POR CUENTA Y ORDEN SUELDO                                                                                                 0000056
65508020750     137437103254822600COPELCARMEN PAOLA CERVANTES BARRERA          10010000000004305300100148 PAGO POR CUENTA Y ORDEN SUELDO                                                                                                 0000057
65508020750     137180102660856518COPELLAYVA GIOVANNA NICOLAS GUADARRAMA       10010000000002679070100148 PAGO POR CUENTA Y ORDEN SUELDO                                                                                                 0000058
65508020750     137841102576779109COPELJOSE ALBERTO FABIAN MARCIAL             10010000000002678990100148 PAGO POR CUENTA Y ORDEN SUELDO                                                                                                 0000059
65508020750     137437104042036018COPELMARIA ORALIA MARTINEZ MARCIAL           10010000000003621230100148 PAGO POR CUENTA Y ORDEN SUELDO                                                                                                 0000060
65508020750     137180104042074615COPELNANCY AGUILA JIMENEZ                    10010000000001530700100148 PAGO POR CUENTA Y ORDEN SUELDO                                                                                                 0000061
65508020750     137180101132050115COPELMARIA JUDITH TOLEDO SALINAS             10010000000002678990100148 PAGO POR CUENTA Y ORDEN SUELDO                                                                                                 0000062
65508020750     137180103465918090COPELGERARDO HERRERA OLVERA                  10010000000003311090100148 PAGO POR CUENTA Y ORDEN SUELDO                                                                                                 0000063
65508020750     137460101667731865COPELSERGIO TREJO HERRERA                    10010000000002678990100148 PAGO POR CUENTA Y ORDEN SUELDO                                                                                                 0000064
65508020750     137437130001638777COPELGUSTAVO MENESES NORIEGA                 10010000000003321560100148 PAGO POR CUENTA Y ORDEN SUELDO                                                                                                 0000065
65508020750     137673103383293304COPELFAVIOLA LOMA GONZALEZ                   10010000000002678990100148 PAGO POR CUENTA Y ORDEN SUELDO                                                                                                 0000066
65508020750     137180103899057420COPELCLAUDIA ESCOBEDO SALAZAR                10010000000002679070100148 PAGO POR CUENTA Y ORDEN SUELDO                                                                                                 0000067
65508020750     137180100283348308COPELGUADALUPE ALONDRA MARQUEZ MARQUEZ       10010000000002082530100148 PAGO POR CUENTA Y ORDEN SUELDO                                                                                                 0000068
65508020750     137180130031255341COPELDAMIANA GARCIA MERINO                   10010000000002679070100148 PAGO POR CUENTA Y ORDEN SUELDO                                                                                                 0000069
65508020750     137443103662202628COPELNALLELY GARCIA GODINEZ                  10010000000002679070100148 PAGO POR CUENTA Y ORDEN SUELDO                                                                                                 0000070
65508020750     137180103996020800COPELDIANA LAURA PORTILLO FLORES             10010000000002679070100148 PAGO POR CUENTA Y ORDEN SUELDO                                                                                                 0000071
65508020750     137180103663075036COPELVALERIA AIDE SANTOS ESCAMILLA           10010000000002679070100148 PAGO POR CUENTA Y ORDEN SUELDO                                                                                                 0000072
65508020750     137180104003836300COPELMARIO ESTEBAN GARCIA VAZQUEZ            10010000000002679070100148 PAGO POR CUENTA Y ORDEN SUELDO                                                                                                 0000073
65508020750     137180130055265524COPELPABLO CESAREO MONTOYA PEREZ             10010000000002679070100148 PAGO POR CUENTA Y ORDEN SUELDO                                                                                                 0000074
65508020750     137180103314272201COPELALAN ALBERTO SOLIS GONZALEZ             10010000000002239090100148 PAGO POR CUENTA Y ORDEN SUELDO                                                                                                 0000075
65508020750     137446100376983563COPELJESUS FLORES SANTOS                     10010000000002679070100148 PAGO POR CUENTA Y ORDEN SUELDO                                                                                                 0000076
65508020750     137180101607732900COPELGEOVANNI GALINDO RIVERO                 10010000000004477860100148 PAGO POR CUENTA Y ORDEN SUELDO                                                                                                 0000077
65508020750     137180104054938406COPELLAURA MARTINEZ SALAZAR                  10010000000002135770100148 PAGO POR CUENTA Y ORDEN SUELDO                                                                                                 0000078
65508020750     137460104055956194COPELROCIO HERNANDEZ OLGUIN                  10010000000002679070100148 PAGO POR CUENTA Y ORDEN SUELDO                                                                                                 0000079
65508020750     137546104057713958COPELYAZMIN MARTINEZ BAHENA                  10010000000001360590100148 PAGO POR CUENTA Y ORDEN SUELDO                                                                                                 0000080
65508020750     137614102223737650COPELCLEMENTE FERNANDO ORTEGA ESPINOZA       10010000000003093550100148 PAGO POR CUENTA Y ORDEN SUELDO                                                                                                 0000081
65508020750     137180104088585993COPELOSCAR ANTONIO GASPAR                    10010000000002679070100148 PAGO POR CUENTA Y ORDEN SUELDO                                                                                                 0000082
65508020750     137424104065065396COPELJANET ESMERALDA OCAMPO GUZMAN           10010000000002095740100148 PAGO POR CUENTA Y ORDEN SUELDO                                                                                                 0000083
65508020750     137248104071863920COPELMYRIAM HELENA RETIZ ROJAS               10010000000002270250100148 PAGO POR CUENTA Y ORDEN SUELDO                                                                                                 0000084
65508020750     137180101123072445COPELSANTOS JAVIER BAUTISTA PEREZ            10010000000001488750100148 PAGO POR CUENTA Y ORDEN SUELDO                                                                                                 0000085
65508020750     137180130013212043COPELMARIA CONCEPCION LOPEZ MATIAS           10010000000002679070100148 PAGO POR CUENTA Y ORDEN SUELDO                                                                                                 0000086
65508020750     137180130031298311COPELERIKA MORALES AYALA                     10010000000002679070100148 PAGO POR CUENTA Y ORDEN SUELDO                                                                                                 0000087
65508020750     137549101612723590COPELELVIRA LUNA HERNANDEZ                   10010000000002537280100148 PAGO POR CUENTA Y ORDEN SUELDO                                                                                                 0000088
65508020750     137748103939426104COPELSANDRA BALTAZAR VIVANCO                 10010000000002851200100148 PAGO POR CUENTA Y ORDEN SUELDO                                                                                                 0000089
65508020750     137537130032943878COPELMIGUEL ANGEL ALVAREZ GUZMAN             10010000000002896170100148 PAGO POR CUENTA Y ORDEN SUELDO                                                                                                 0000090
65508020750     137655130054563927COPELVICTOR MANUEL SARMIENTO SANDOVAL        10010000000002679070100148 PAGO POR CUENTA Y ORDEN SUELDO                                                                                                 0000091
65508020750     137680104099303318COPELGUADALUPE JANETTE DURAN RANGEL          10010000000002239090100148 PAGO POR CUENTA Y ORDEN SUELDO                                                                                                 0000092
65508020750     137834104101618996COPELERIKA JUAREZ COSME                      10010000000002679070100148 PAGO POR CUENTA Y ORDEN SUELDO                                                                                                 0000093
65508020750     137180130035650117COPELMARILU GUERRERO SALINAS                 10010000000003621340100148 PAGO POR CUENTA Y ORDEN SUELDO                                                                                                 0000094
65508020750     137651104109910507COPELANA LAURA GONZALEZ MARTINEZ             10010000000003093550100148 PAGO POR CUENTA Y ORDEN SUELDO                                                                                                 0000095
65508020750     137180104116644104COPELARMANDO GARCIA DE LUNA                  10010000000002679070100148 PAGO POR CUENTA Y ORDEN SUELDO                                                                                                 0000096
65508020750     137180104307934254COPELERNESTO ARTURO NAVARRO ESCAMILLA        10010000000002679070100148 PAGO POR CUENTA Y ORDEN SUELDO                                                                                                 0000097
65508020750     137180103209148631COPELDANIEL VAZQUEZ VILLANUEVA               10010000000002179070100148 PAGO POR CUENTA Y ORDEN SUELDO                                                                                                 0000098
65508020750     137849101947164061COPELPEDRO ARTURO MARTINEZ SEGURA            10010000000002125700100148 PAGO POR CUENTA Y ORDEN SUELDO                                                                                                 0000099
65508020750     137180180017652604COPELJESSICA GUADALUPE ANGELES REYES         10010000000003093550100148 PAGO POR CUENTA Y ORDEN SUELDO                                                                                                 0000100
65508020750     137180104441811042COPELDOLORES AZUCENA ESMERALDA GONZALEZ VARG 10010000000002232210100148 PAGO POR CUENTA Y ORDEN SUELDO                                                                                                 0000101
65508020750     137867101948249857COPELKARLA JUDITH RAFAEL OSORIO              10010000000002679070100148 PAGO POR CUENTA Y ORDEN SUELDO                                                                                                 0000102
65508020750     137667130044319810COPELARELI VAZQUEZ OLIVOS                    10010000000002290170100148 PAGO POR CUENTA Y ORDEN SUELDO                                                                                                 0000103
65508020750     137180104145387335COPELMARTIN GARCIA CRUZ                      10010000000002679070100148 PAGO POR CUENTA Y ORDEN SUELDO                                                                                                 0000104
65508020750     137306130020638025COPELMIRIAM RODRIGUEZ REYES                  10010000000002679070100148 PAGO POR CUENTA Y ORDEN SUELDO                                                                                                 0000105
65508020750     137180103436115408COPELERIK DE JESUS GUTIERREZ ULLOA           10010000000002527770100148 PAGO POR CUENTA Y ORDEN SUELDO                                                                                                 0000106
65508020750     137420102581468622COPELJOSE ANGEL ROSAS RUGERIO                10010000000002418930100148 PAGO POR CUENTA Y ORDEN SUELDO                                                                                                 0000107
65508020750     137847102868688818COPELGUADALUPE DEL CARMEN NORBERTO GARCIA    10010000000002679070100148 PAGO POR CUENTA Y ORDEN SUELDO                                                                                                 0000108
65508020750     137180103951023842COPELANA GABRIELA PEREZ RAMIREZ              10010000000002679070100148 PAGO POR CUENTA Y ORDEN SUELDO                                                                                                 0000109
65508020750     137898103360084049COPELJOSE ALEJANDRO DELFIN GUZMAN            10010000000002679070100148 PAGO POR CUENTA Y ORDEN SUELDO                                                                                                 0000110
65508020750     137180130046141136COPELMARIANA ROSARIO PEREZ CANEDO            10010000000002679070100148 PAGO POR CUENTA Y ORDEN SUELDO                                                                                                 0000111
65508020750     137650104390490879COPELPEDRO ANDRES LOPEZ BELLO                10010000000002896170100148 PAGO POR CUENTA Y ORDEN SUELDO                                                                                                 0000112
65508020750     137877104004114716COPELARLENY SUREY GUTIERREZ JAVIER           10010000000002679070100148 PAGO POR CUENTA Y ORDEN SUELDO                                                                                                 0000113
65508020750     137835103861711010COPELWENDY BELEN LOPEZ SANDOVAL              10010000000002679070100148 PAGO POR CUENTA Y ORDEN SUELDO                                                                                                 0000114
65508020750     137655102622905369COPELGUADALUPE RUIZ ORTEGA                   10010000000002679070100148 PAGO POR CUENTA Y ORDEN SUELDO                                                                                                 0000115
65508020750     137437130044175556COPELJENNIFER HERNANDEZ GUTIERREZ            10010000000002679070100148 PAGO POR CUENTA Y ORDEN SUELDO                                                                                                 0000116
65508020750     137375103356591771COPELAMERICA MONTSERRAT CUETO RIVERA         10010000000002896170100148 PAGO POR CUENTA Y ORDEN SUELDO                                                                                                 0000117
65508020750     137180130058566767COPELJADHYRA TLASECA IBARRA                  10010000000002679070100148 PAGO POR CUENTA Y ORDEN SUELDO                                                                                                 0000118
65508020750     137542104188869652COPELBELEM CAMPOS TENANGO                    10010000000003311180100148 PAGO POR CUENTA Y ORDEN SUELDO                                                                                                 0000119
65508020750     137180101874985768COPELCHRISTOPHER DAVID GUARDIOLA MORA        10010000000002679070100148 PAGO POR CUENTA Y ORDEN SUELDO                                                                                                 0000120
65508020750     137667104193660514COPELGUSTAVO ROLDAN DIAZ                     10010000000002679070100148 PAGO POR CUENTA Y ORDEN SUELDO                                                                                                 0000121
65508020750     137670130051936930COPELLAURA MARIA HERNANDEZ LARA              10010000000002679070100148 PAGO POR CUENTA Y ORDEN SUELDO                                                                                                 0000122
65508020750     137865130043182206COPELFERNANDO MORALES QUEZADA                10010000000002679070100148 PAGO POR CUENTA Y ORDEN SUELDO                                                                                                 0000123
65508020750     137888100448791610COPELADRIANA CASTILLO URBINA                 10010000000002555130100148 PAGO POR CUENTA Y ORDEN SUELDO                                                                                                 0000124
65508020750     137841101886305837COPELMARIA MOZO LOPEZ                        10010000000002679070100148 PAGO POR CUENTA Y ORDEN SUELDO                                                                                                 0000125
65508020750     137840101970639342COPELJONATAN DEL TORO ALVAREZ                10010000000002679070100148 PAGO POR CUENTA Y ORDEN SUELDO                                                                                                 0000126
65508020750     137832101891445186COPELLIDIA MARGARITA FERNANDEZ QUIROZ        10010000000002108110100148 PAGO POR CUENTA Y ORDEN SUELDO                                                                                                 0000127
65508020750     137180130032718599COPELISMAEL CASTILLO MARTINEZ                10010000000002679070100148 PAGO POR CUENTA Y ORDEN SUELDO                                                                                                 0000128
65508020750     137180104203119021COPELBRENDA ABIGAIL HONORATO SANTOS          10010000000002679070100148 PAGO POR CUENTA Y ORDEN SUELDO                                                                                                 0000129
65508020750     137180104214986829COPELTANIA EVELIN DOMINGUEZ AGUILAR          10010000000003828710100148 PAGO POR CUENTA Y ORDEN SUELDO                                                                                                 0000130
65508020750     137180101627499223COPELGEORGINA CRISTOBAL SANCHEZ              10010000000002679070100148 PAGO POR CUENTA Y ORDEN SUELDO                                                                                                 0000131
65508020750     137180130026526205COPELLOURDES COLIN VILLA                     10010000000003196170100148 PAGO POR CUENTA Y ORDEN SUELDO                                                                                                 0000132
65508020750     137670103539188729COPELMAYRA ZULEIMA BENITEZ RAMOS             10010000000003418550100148 PAGO POR CUENTA Y ORDEN SUELDO                                                                                                 0000133
65508020750     137370104208728586COPELYESSICA SOTELO MELENDREZ                10010000000003196170100148 PAGO POR CUENTA Y ORDEN SUELDO                                                                                                 0000134
65508020750     137320104210922362COPELPALOMA SANTIAGO SANTIAGO                10010000000002954130100148 PAGO POR CUENTA Y ORDEN SUELDO                                                                                                 0000135
65508020750     137650104213434501COPELMARIA ISABEL AGUIRRE MERINO             10010000000003196170100148 PAGO POR CUENTA Y ORDEN SUELDO                                                                                                 0000136
65508020750     137180104215066421COPELRODRIGO MARTINEZ SANTANA                10010000000002954130100148 PAGO POR CUENTA Y ORDEN SUELDO                                                                                                 0000137
65508020750     137669130048999917COPELERICK GABINO SOLORIO CRUZ               10010000000003418550100148 PAGO POR CUENTA Y ORDEN SUELDO                                                                                                 0000138
65508020750     137180104110736678COPELGABRIEL ULISES GARCIA MENDOZA           10010000000002142070100148 PAGO POR CUENTA Y ORDEN SUELDO                                                                                                 0000139
65508020750     137426130027592895COPELJOSE LUIS ALEJO PROCOPIO                10010000000003093550100148 PAGO POR CUENTA Y ORDEN SUELDO                                                                                                 0000140
65508020750     137180104086882193COPELELIZABETH GUTIERREZ MARTINEZ            10010000000002679070100148 PAGO POR CUENTA Y ORDEN SUELDO                                                                                                 0000141
65508020750     137656130052658723COPELLUCERO BELLO ALVA                       10010000000002679070100148 PAGO POR CUENTA Y ORDEN SUELDO                                                                                                 0000142
65508020750     137650104239385236COPELEDITH LINARES CUANENEMI                 10010000000002896170100148 PAGO POR CUENTA Y ORDEN SUELDO                                                                                                 0000143
65508020750     137691101194182031COPELNICOLAS PEREZ DE JESUS                  10010000000003311180100148 PAGO POR CUENTA Y ORDEN SUELDO                                                                                                 0000144
65508020750     137650104059969311COPELSOLEDAD GEORGINA MENDEZ HERNANDEZ       10010000000002239090100148 PAGO POR CUENTA Y ORDEN SUELDO                                                                                                 0000145
65508020750     137180102622098288COPELFRANCISCO JUAREZ SALAZAR                10010000000001601670100148 PAGO POR CUENTA Y ORDEN SUELDO                                                                                                 0000146
65508020750     137670130020852375COPELALEJANDRA CLEMENTE ORDUNO               10010000000002031270100148 PAGO POR CUENTA Y ORDEN SUELDO                                                                                                 0000147
65508020750     137700103807108330COPELROMAN ARTURO CASTRO AGUILAR             10010000000003311180100148 PAGO POR CUENTA Y ORDEN SUELDO                                                                                                 0000148
65508020750     137320104231087927COPELMARIA GUADALUPE MARTINEZ GONZALEZ       10010000000002896170100148 PAGO POR CUENTA Y ORDEN SUELDO                                                                                                 0000149
65508020750     137180102009975791COPELDANIEL GARCIA GONZALEZ                  10010000000002679070100148 PAGO POR CUENTA Y ORDEN SUELDO                                                                                                 0000150
65508020750     137180102318369483COPELJAZMIN GRANADOS RAMOS                   10010000000002679070100148 PAGO POR CUENTA Y ORDEN SUELDO                                                                                                 0000151
65508020750     137667103889085860COPELJAQUELIN CAROLINA JUAREZ ROSAS          10010000000002679070100148 PAGO POR CUENTA Y ORDEN SUELDO                                                                                                 0000152
65508020750     137420101658487359COPELLUIS JACOBO GARCIA JIMENEZ              10010000000002896170100148 PAGO POR CUENTA Y ORDEN SUELDO                                                                                                 0000153
65508020750     137308104088552122COPELMIGUEL ANGEL AGUILAR GUILLEN            10010000000002679070100148 PAGO POR CUENTA Y ORDEN SUELDO                                                                                                 0000154
65508020750     137180104272343349COPELBRENDA HERNANDEZ PORTILLO               10010000000002679070100148 PAGO POR CUENTA Y ORDEN SUELDO                                                                                                 0000155
65508020750     137180102117876067COPELFERNANDA AMAIRANI SORIANO ARRIETA       10010000000002679070100148 PAGO POR CUENTA Y ORDEN SUELDO                                                                                                 0000156
65508020750     137180104277625004COPELEDUARDO DAVID RUIZ HERNANDEZ            10010000000002896170100148 PAGO POR CUENTA Y ORDEN SUELDO                                                                                                 0000157
65508020750     137856130047347470COPELDANIEL USCANGA LOYO                     10010000000002896170100148 PAGO POR CUENTA Y ORDEN SUELDO                                                                                                 0000158
65508020750     137856104281498027COPELJASSIVE MORA DELFIN                     10010000000002679070100148 PAGO POR CUENTA Y ORDEN SUELDO                                                                                                 0000159
65508020750     137180102004767739COPELLUZ DE GUADALUPE RUIZ MEJIA             10010000000002679070100148 PAGO POR CUENTA Y ORDEN SUELDO                                                                                                 0000160
65508020750     137348104039788989COPELANA GABRIELA GONZALEZ SOLORZANO         10010000000000908500100148 PAGO POR CUENTA Y ORDEN SUELDO                                                                                                 0000161
65508020750     137180103887870619COPELRICARDO CARRANZA CEDILLO                10010000000002679070100148 PAGO POR CUENTA Y ORDEN SUELDO                                                                                                 0000162
65508020750     137460102897359126COPELROSA ISELA MARTINEZ CHAVARRIA           10010000000002679070100148 PAGO POR CUENTA Y ORDEN SUELDO                                                                                                 0000163
65508020750     137888101628035289COPELADELA MENDOZA MARTINEZ                  10010000000002896170100148 PAGO POR CUENTA Y ORDEN SUELDO                                                                                                 0000164
65508020750     137671130060909287COPELMAURICIO MARTINEZ CASTILLO              10010000000003093550100148 PAGO POR CUENTA Y ORDEN SUELDO                                                                                                 0000165
65508020750     137890104298203384COPELVICTOR JAVIER GAYTAN ACUA               10010000000002896170100148 PAGO POR CUENTA Y ORDEN SUELDO                                                                                                 0000166
65508020750     137877103714027864COPELMANUEL ALEJANDRO JIMENEZ HERNANDEZ      10010000000002809120100148 PAGO POR CUENTA Y ORDEN SUELDO                                                                                                 0000167
65508020750     137424101889123093COPELANGEL ARTURO RESENOS PERCASTRE          10010000000002679070100148 PAGO POR CUENTA Y ORDEN SUELDO                                                                                                 0000168
65508020750     137312102938462143COPELJUAN ANGEL PULIDO GONZALEZ              10010000000002679070100148 PAGO POR CUENTA Y ORDEN SUELDO                                                                                                 0000169
65508020750     137835103554933804COPELMISAEL OTNIEL MONTECINOS HERNANDEZ      10010000000002679070100148 PAGO POR CUENTA Y ORDEN SUELDO                                                                                                 0000170
65508020750     137476130052751936COPELHECTOR ANTONIO MAGANA GALLARDO          10010000000003093550100148 PAGO POR CUENTA Y ORDEN SUELDO                                                                                                 0000171
65508020750     137840103292621845COPELISIDRO CORTINA GARCIA                   10010000000002896170100148 PAGO POR CUENTA Y ORDEN SUELDO                                                                                                 0000172
65508020750     137420102988201754COPELMARTHA MARGARITA MORALES LUNA           10010000000003311180100148 PAGO POR CUENTA Y ORDEN SUELDO                                                                                                 0000173
65508020750     137650130020088017COPELERIKA ANAYA JUAREZ                      10010000000002115260100148 PAGO POR CUENTA Y ORDEN SUELDO                                                                                                 0000174
65508020750     137867101666854061COPELANA GAMBOA CRUZ                         10010000000002896700100148 PAGO POR CUENTA Y ORDEN SUELDO                                                                                                 0000175
65508020750     137180130052848009COPELERICK ADRIAN JIMENEZ ZUNIGA             10010000000002896170100148 PAGO POR CUENTA Y ORDEN SUELDO                                                                                                 0000176
65508020750     137180104313057772COPELRUBEN GUTIERREZ RIVERA                  10010000000002679070100148 PAGO POR CUENTA Y ORDEN SUELDO                                                                                                 0000177
65508020750     137453103961426302COPELBIANCA GRACIELA RODRIGUEZ LOPEZ         10010000000002896170100148 PAGO POR CUENTA Y ORDEN SUELDO                                                                                                 0000178
65508020750     137180103797786107COPELGUSTAVO ALVAREZ MARTINEZ                10010000000002679070100148 PAGO POR CUENTA Y ORDEN SUELDO                                                                                                 0000179
65508020750     137535104243871217COPELADAN LORGIDIANI GARCIA GABUREL          10010000000002312840100148 PAGO POR CUENTA Y ORDEN SUELDO                                                                                                 0000180
65508020750     137881103811135027COPELFREDDY JAVIER FLORES PARADA             10010000000002896170100148 PAGO POR CUENTA Y ORDEN SUELDO                                                                                                 0000181
65508020750     137854103746261543COPELJESSICA PAOLA BAUTISTA BLAS             10010000000002239090100148 PAGO POR CUENTA Y ORDEN SUELDO                                                                                                 0000182
65508020750     137180103618625761COPELALAN EDUARDO MORENO HERNANDEZ           10010000000002679070100148 PAGO POR CUENTA Y ORDEN SUELDO                                                                                                 0000183
65508020750     137905104311257872COPELDIANA CRUZ ACOSTA                       10010000000002896170100148 PAGO POR CUENTA Y ORDEN SUELDO                                                                                                 0000184
65508020750     137841104232417868COPELRURI IBETH GARCIA MILAGROS              10010000000002896170100148 PAGO POR CUENTA Y ORDEN SUELDO                                                                                                 0000185
65508020750     137420104326939327COPELLUIS AARON AVILES MARIN                 10010000000003311180100148 PAGO POR CUENTA Y ORDEN SUELDO                                                                                                 0000186
65508020750     137180130053194765COPELCINTHYA FABIOLA MORALES OLAVARRIETA     10010000000002679070100148 PAGO POR CUENTA Y ORDEN SUELDO                                                                                                 0000187
65508020750     137450103374843902COPELERIKA ALCANTARA GIL                     10010000000002896170100148 PAGO POR CUENTA Y ORDEN SUELDO                                                                                                 0000188
65508020750     137180130058523522COPELADRIAN TRINIDAD OCANA                   10010000000002679070100148 PAGO POR CUENTA Y ORDEN SUELDO                                                                                                 0000189
65508020750     137180130054312177COPELHAZEL RUIZ CRUZ                         10010000000002679070100148 PAGO POR CUENTA Y ORDEN SUELDO                                                                                                 0000190
65508020750     137180103560891258COPELMAYRA MONSERRATH GOMEZ MENDOZA          10010000000002679070100148 PAGO POR CUENTA Y ORDEN SUELDO                                                                                                 0000191
65508020750     137451130009038465COPELYOLANDA RODEA BERRIOZABAL               10010000000003093550100148 PAGO POR CUENTA Y ORDEN SUELDO                                                                                                 0000192
65508020750     137420130029950981COPELBEATRIZ ADRIANA CALVILLO LOPEZ          10010000000003311180100148 PAGO POR CUENTA Y ORDEN SUELDO                                                                                                 0000193
65508020750     137835104337349698COPELJENNIFER RODRIGUEZ SANLUIS              10010000000002679070100148 PAGO POR CUENTA Y ORDEN SUELDO                                                                                                 0000194
65508020750     137902102688808153COPELFABIOLA ELVIRA ROJAS ORDUNA             10010000000002679070100148 PAGO POR CUENTA Y ORDEN SUELDO                                                                                                 0000195
65508020750     137180102662259252COPELYOLOSTLI GABRIELA MOZO ALFARO           10010000000002679070100148 PAGO POR CUENTA Y ORDEN SUELDO                                                                                                 0000196
65508020750     137180103659021492COPELJESSICA IVETTE CISNEROS RAMOS           10010000000002095740100148 PAGO POR CUENTA Y ORDEN SUELDO                                                                                                 0000197
65508020750     137180100844540406COPELMONICA GUERRA ESCORCIA                  10010000000002896170100148 PAGO POR CUENTA Y ORDEN SUELDO                                                                                                 0000198
65508020750     137544130043771705COPELANGEL JONATHAN REYES AMATES             10010000000003093550100148 PAGO POR CUENTA Y ORDEN SUELDO                                                                                                 0000199
65508020750     137180102669211073COPELGUILLERMO MARTINEZ DOMINGUEZ            10010000000002679070100148 PAGO POR CUENTA Y ORDEN SUELDO                                                                                                 0000200
65508020750     137537100565253900COPELMARTIN IRVIN BLANCAS CUEVAS             10010000000002896170100148 PAGO POR CUENTA Y ORDEN SUELDO                                                                                                 0000201
65508020750     137320101807997169COPELLETICIA VICTORIA LOPEZ HERNANDEZ        10010000000004273930100148 PAGO POR CUENTA Y ORDEN SUELDO                                                                                                 0000202
65508020750     137180104145886179COPELZAYARED JENNIFER FRANCISCO ORTEGA       10010000000002896170100148 PAGO POR CUENTA Y ORDEN SUELDO                                                                                                 0000203
65508020750     137180104372991400COPELULISES OSORIO ACEVEDO                   10010000000002179070100148 PAGO POR CUENTA Y ORDEN SUELDO                                                                                                 0000204
65508020750     137840130019893450COPELJOSE ALFREDO ORTIZ PACHECO              10010000000002896170100148 PAGO POR CUENTA Y ORDEN SUELDO                                                                                                 0000205
65508020750     137311104373675536COPELANA JANETH REYES ROLDAN                 10010000000003093550100148 PAGO POR CUENTA Y ORDEN SUELDO                                                                                                 0000206
65508020750     137180104052945462COPELLIZBETH JIMENEZ EGURROLA                10010000000003093550100148 PAGO POR CUENTA Y ORDEN SUELDO                                                                                                 0000207
65508020750     137662101459432358COPELJOSE HENRRY GUADALUPE MARTINON ARAGON   10010000000002537280100148 PAGO POR CUENTA Y ORDEN SUELDO                                                                                                 0000208
65508020750     137320103353765908COPELROCIO DEL CARMEN GUZMAN MACIAS          10010000000001686570100148 PAGO POR CUENTA Y ORDEN SUELDO                                                                                                 0000209
65508020750     137180130053611895COPELJESUS FLORES FLORES                     10010000000002896170100148 PAGO POR CUENTA Y ORDEN SUELDO                                                                                                 0000210
65508020750     137840130018053097COPELEDEN MARIA RODRIGUEZ DE LA CRUZ         10010000000002896170100148 PAGO POR CUENTA Y ORDEN SUELDO                                                                                                 0000211
65508020750     137497103874736912COPELCARLOS EDUARDO ZARAGOZA BRAVO           10010000000002537280100148 PAGO POR CUENTA Y ORDEN SUELDO                                                                                                 0000212
65508020750     137180130035381389COPELYURI LAZCANO GARCIA                     10010000000002679070100148 PAGO POR CUENTA Y ORDEN SUELDO                                                                                                 0000213
65508020750     137655102171891584COPELMIRIAM SANCHEZ MEDINA                   10010000000002679070100148 PAGO POR CUENTA Y ORDEN SUELDO                                                                                                 0000214
65508020750     137650103285551882COPELOLIVA PANZO CALIHUA                     10010000000002679070100148 PAGO POR CUENTA Y ORDEN SUELDO                                                                                                 0000215
65508020750     137667103594933854COPELMARIA DE LOS ANGELES ISLAS PEREZ        10010000000002537280100148 PAGO POR CUENTA Y ORDEN SUELDO                                                                                                 0000216
65508020750     137437130055123225COPELMARIA FERNANDA AGUIRRE HERNANDEZ        10010000000002679070100148 PAGO POR CUENTA Y ORDEN SUELDO                                                                                                 0000217
65508020750     137832130053925567COPELVICTORIA MEJIA SANCHEZ                  10010000000003093550100148 PAGO POR CUENTA Y ORDEN SUELDO                                                                                                 0000218
65508020750     137856101074570922COPELDANIEL AGUILAR GONZALEZ                 10010000000002537280100148 PAGO POR CUENTA Y ORDEN SUELDO                                                                                                 0000219
65508020750     137180102913124337COPELLIDY DIANA ALVAREZ RESENDIZ             10010000000002190870100148 PAGO POR CUENTA Y ORDEN SUELDO                                                                                                 0000220
65508020750     137441130062660660COPELJUDITH DAYANA DIMAS GARCIA              10010000000002896170100148 PAGO POR CUENTA Y ORDEN SUELDO                                                                                                 0000221
65508020750     137180104181042663COPELJOSE ANGEL BOJORGE MORENO               10010000000002896160100148 PAGO POR CUENTA Y ORDEN SUELDO                                                                                                 0000222
65508020750     137212100163685509COPELANA LAURA HERNANDEZ BALLESTEROS         10010000000002896160100148 PAGO POR CUENTA Y ORDEN SUELDO                                                                                                 0000223
65508020750     137885101092924220COPELJOSE EVARISTO JUAN DE LEON              10010000000002679070100148 PAGO POR CUENTA Y ORDEN SUELDO                                                                                                 0000224
65508020750     137320103425947654COPELMARTHA LETICIA AGUILERA VARGAS          10010000000004273930100148 PAGO POR CUENTA Y ORDEN SUELDO                                                                                                 0000225
65508020750     137886130031771352COPELVICTOR MANUEL MACIAS APOLINAR           10010000000005284690100148 PAGO POR CUENTA Y ORDEN SUELDO                                                                                                 0000226
65508020750     137458103991363485COPELMARIA DE LOS ANGELES CIRILO APARICIO    10010000000002679070100148 PAGO POR CUENTA Y ORDEN SUELDO                                                                                                 0000227
65508020750     137662102900750805COPELJOSE FERNANDO GONZALEZ CARRERA          10010000000002896170100148 PAGO POR CUENTA Y ORDEN SUELDO                                                                                                 0000228
65508020750     137180104408930539COPELJOSE DE JESUS SANCHEZ NERIA             10010000000002896170100148 PAGO POR CUENTA Y ORDEN SUELDO                                                                                                 0000229
65508020750     137180104150041983COPELNOEMI RODRIGUEZ CASTANEDA               10010000000002239090100148 PAGO POR CUENTA Y ORDEN SUELDO                                                                                                 0000230
65508020750     137437103777444769COPELELIA ESTEFANI RENTERIA VERGARA          10010000000002679070100148 PAGO POR CUENTA Y ORDEN SUELDO                                                                                                 0000231
65508020750     137455101822621327COPELSARA MUNOZ LOREDO                       10010000000002679070100148 PAGO POR CUENTA Y ORDEN SUELDO                                                                                                 0000232
65508020750     137651102520914896COPELANEL VALLE GUZMAN                       10010000000003093390100148 PAGO POR CUENTA Y ORDEN SUELDO                                                                                                 0000233
65508020750     137248102183284376COPELOSCAR ADAN NIETO CARRILLO               10010000000002198220100148 PAGO POR CUENTA Y ORDEN SUELDO                                                                                                 0000234
65508020750     137180130057832104COPELEDUARDO BARTOLO LOPEZ                   10010000000002896170100148 PAGO POR CUENTA Y ORDEN SUELDO                                                                                                 0000235
65508020750     137810103892027688COPELLUIS ANGEL MIRANDA CRUZ                 10010000000002896170100148 PAGO POR CUENTA Y ORDEN SUELDO                                                                                                 0000236
65508020750     137443104034699855COPELDIEGO EDUARDO FLORES ROMERO             10010000000002896170100148 PAGO POR CUENTA Y ORDEN SUELDO                                                                                                 0000237
65508020750     137434104323629600COPELYURIANA ENRIQUEZ BARRIOS                10010000000002896170100148 PAGO POR CUENTA Y ORDEN SUELDO                                                                                                 0000238
65508020750     137543103205444701COPELGLORIA VERONICA MOYA GOMEZ              10010000000003093550100148 PAGO POR CUENTA Y ORDEN SUELDO                                                                                                 0000239
65508020750     137890130016991347COPELCESAR AGUSTIN PRETELIN BAXIN            10010000000002896170100148 PAGO POR CUENTA Y ORDEN SUELDO                                                                                                 0000240
65508020750     137180100602742705COPELBLANCA ESTELA SALAZAR SOTELO            10010000000002679070100148 PAGO POR CUENTA Y ORDEN SUELDO                                                                                                 0000241
65508020750     137180130054184156COPELLUIS ALBERTO TORRES RAMIREZ             10010000000002896170100148 PAGO POR CUENTA Y ORDEN SUELDO                                                                                                 0000242
65508020750     137450103371636329COPELMARIA GUADALUPE CRUZ JARDON             10010000000002896170100148 PAGO POR CUENTA Y ORDEN SUELDO                                                                                                 0000243
65508020750     137180130040130716COPELELSA APARICIO SUAREZ                    10010000000002679070100148 PAGO POR CUENTA Y ORDEN SUELDO                                                                                                 0000244
65508020750     137180130031207292COPELCLAUDIA MARTINEZ JULIAN                 10010000000003093550100148 PAGO POR CUENTA Y ORDEN SUELDO                                                                                                 0000245
65508020750     137437104406355005COPELCESAR ARMANDO PEREZ MENDEZ              10010000000002679070100148 PAGO POR CUENTA Y ORDEN SUELDO                                                                                                 0000246
65508020750     137290102737363316COPELFLOR DE DALIA LOPEZ MENDOZA             10010000000002896170100148 PAGO POR CUENTA Y ORDEN SUELDO                                                                                                 0000247
65508020750     137856102876505534COPELVANNYAH ALESSANDRA ARENAL COBOS         10010000000002239090100148 PAGO POR CUENTA Y ORDEN SUELDO                                                                                                 0000248
65508020750     137651104421236707COPELLAURA LETICIA GARZA PLACIDO             10010000000003093550100148 PAGO POR CUENTA Y ORDEN SUELDO                                                                                                 0000249
65508020750     137443130051651934COPELBRANDON URIEL TAPIA MORALES             10010000000002679070100148 PAGO POR CUENTA Y ORDEN SUELDO                                                                                                 0000250
65508020750     137180101808840390COPELALFREDO JUAREZ ALCANTAR                 10010000000002679070100148 PAGO POR CUENTA Y ORDEN SUELDO                                                                                                 0000251
65508020750     137180104099449879COPELCAROLINA GRANGENO CAMARGO               10010000000002679070100148 PAGO POR CUENTA Y ORDEN SUELDO                                                                                                 0000252
65508020750     137667180007439729COPELJOSE ANTONIO PULIDO PEREZ               10010000000003093550100148 PAGO POR CUENTA Y ORDEN SUELDO                                                                                                 0000253
65508020750     137676130062679507COPELMARTIN PASCUAL GONZALEZ                 10010000000002479070100148 PAGO POR CUENTA Y ORDEN SUELDO                                                                                                 0000254
65508020750     137180130011325929COPELNANCY VANESSA LOPEZ GOMEZ               10010000000002679070100148 PAGO POR CUENTA Y ORDEN SUELDO                                                                                                 0000255
65508020750     137320104426802001COPELBRIANA PATRICIA JACOBO MARTINEZ         10010000000003311180100148 PAGO POR CUENTA Y ORDEN SUELDO                                                                                                 0000256
65508020750     137261130051806725COPELHUGO DANIEL RAMIREZ GALLEGOS            10010000000001178360100148 PAGO POR CUENTA Y ORDEN SUELDO                                                                                                 0000257
65508020750     137180104302971856COPELPAMELA CATALINA JIMENEZ MERAZ           10010000000002679070100148 PAGO POR CUENTA Y ORDEN SUELDO                                                                                                 0000258
65508020750     137296130057344492COPELCRISTIAN EDUARDO FERNANDEZ VELAZQUEZ    10010000000002896170100148 PAGO POR CUENTA Y ORDEN SUELDO                                                                                                 0000259
65508020750     137670104300855361COPELJORGE ALEJANDRO TOLEDO MARTINEZ         10010000000001326560100148 PAGO POR CUENTA Y ORDEN SUELDO                                                                                                 0000260
65508020750     137542130038826706COPELFERNANDO TAJONAR ALVARADO               10010000000003093550100148 PAGO POR CUENTA Y ORDEN SUELDO                                                                                                 0000261
65508020750     137650130064382669COPELKAREN ANGELICA GARCIA MORALES           10010000000002679070100148 PAGO POR CUENTA Y ORDEN SUELDO                                                                                                 0000262
65508020750     137894104417038514COPELKAREN MARISOL RIOS RAMIRO               10010000000002679070100148 PAGO POR CUENTA Y ORDEN SUELDO                                                                                                 0000263
65508020750     137180102988637707COPELZAYRA SADDAI CASTELLANOS AGUILAR        10010000000002679070100148 PAGO POR CUENTA Y ORDEN SUELDO                                                                                                 0000264
65508020750     137669104417244339COPELOSCAR ALCANTARA RAMIREZ                 10010000000003093550100148 PAGO POR CUENTA Y ORDEN SUELDO                                                                                                 0000265
65508020750     137180180020873988COPELJORGE ALBERTO VARGAS MENDOZA            10010000000002896170100148 PAGO POR CUENTA Y ORDEN SUELDO                                                                                                 0000266
65508020750     137180130066656533COPELCARLOS MARTIN HERNANDEZ VELA            10010000000003311810100148 PAGO POR CUENTA Y ORDEN SUELDO                                                                                                 0000267
65508020750     137667130064533207COPELVERONICA RAMIRA QUECHOL SOLIS           10010000000002679070100148 PAGO POR CUENTA Y ORDEN SUELDO                                                                                                 0000268
65508020750     137180130050470000COPELBRYAN ANTONIO VELAZQUEZ RAMIREZ         10010000000002679070100148 PAGO POR CUENTA Y ORDEN SUELDO                                                                                                 0000269
65508020750     137651104440917337COPELYOSIMAR HERRERA CASTILLO                10010000000003093550100148 PAGO POR CUENTA Y ORDEN SUELDO                                                                                                 0000270
65508020750     137497104442865269COPELPAULINA SANCHEZ SANCHEZ                 10010000000002896170100148 PAGO POR CUENTA Y ORDEN SUELDO                                                                                                 0000271
65508020750     137180102572823558COPELCITLALLI SURIANO FLORES                 10010000000002679070100148 PAGO POR CUENTA Y ORDEN SUELDO                                                                                                 0000272
65508020750     137888130060744772COPELPERLA DENISSE RODRIGUEZ CALDERON        10010000000002239090100148 PAGO POR CUENTA Y ORDEN SUELDO                                                                                                 0000273
65508020750     137180104013538232COPELDAFNE LUNA TORIS TORRES                 10010000000002239090100148 PAGO POR CUENTA Y ORDEN SUELDO                                                                                                 0000274
65508020750     137180102506488859COPELGLADYS GUADALUPE CARDENAS SANTIAGO      10010000000002679070100148 PAGO POR CUENTA Y ORDEN SUELDO                                                                                                 0000275
65508020750     137650104050678258COPELURIEL ALEJANDRO FLORES ROMERO           10010000000002679070100148 PAGO POR CUENTA Y ORDEN SUELDO                                                                                                 0000276
65508020750     137877102143009108COPELCARLOS ALBERTO JAUREGUI CASTELLANOS     10010000000002896170100148 PAGO POR CUENTA Y ORDEN SUELDO                                                                                                 0000277
65508020750     137903100425769278COPELROSAELITH GONZALEZ JIMENEZ              10010000000002679070100148 PAGO POR CUENTA Y ORDEN SUELDO                                                                                                 0000278
65508020750     137437130058200860COPELJAQUELINE FAMASAIT LUCIO GARCIA         10010000000002537280100148 PAGO POR CUENTA Y ORDEN SUELDO                                                                                                 0000279
65508020750     137180103683531385COPELMONTSERRAT DE ESTEFANIA RAMIREZ CORONA  10010000000002537280100148 PAGO POR CUENTA Y ORDEN SUELDO                                                                                                 0000280
65508020750     137460102488153320COPELJAVIER MARTINEZ SABINO                  10010000000002537280100148 PAGO POR CUENTA Y ORDEN SUELDO                                                                                                 0000281
65508020750     137437104454799561COPELJUAN MANUEL PLIEGO GONZALEZ             10010000000002537280100148 PAGO POR CUENTA Y ORDEN SUELDO                                                                                                 0000282
65508020750     137180130059746528COPELJONATHAN ULISES MARTINEZ PEDRO          10010000000002537280100148 PAGO POR CUENTA Y ORDEN SUELDO                                                                                                 0000283
65508020750     137320101936997027COPELMARIA GUADALUPE ESQUIVEL ZARATE         10010000000003311180100148 PAGO POR CUENTA Y ORDEN SUELDO                                                                                                 0000284
65508020750     137670102528214362COPELJESUS JACOME TECAN                      10010000000001655280100148 PAGO POR CUENTA Y ORDEN SUELDO                                                                                                 0000285
65508020750     137865103919354386COPELRAQUEL GARCIA SANCHEZ                   10010000000002537280100148 PAGO POR CUENTA Y ORDEN SUELDO                                                                                                 0000286
65508020750     137296102903838682COPELCRISTINA CITLALLI HERNANDEZ GONZALEZ    10010000000002537280100148 PAGO POR CUENTA Y ORDEN SUELDO                                                                                                 0000287
65508020750     137650100349214026COPELLUIS ENRIQUE ROJAS ZAPOTECAS            10010000000002537280100148 PAGO POR CUENTA Y ORDEN SUELDO                                                                                                 0000288
65508020750     137180130032854932COPELSANDRA NAYELI DIAZ FLORES               10010000000002537280100148 PAGO POR CUENTA Y ORDEN SUELDO                                                                                                 0000289
65508020750     137830104435918052COPELDAVID EDUARDO DE LA CRUZ MEJIA          10010000000002537280100148 PAGO POR CUENTA Y ORDEN SUELDO                                                                                                 0000290
65508020750     137542130064291198COPELGUSTAVO VEGA TAPIA                      10010000000002537280100148 PAGO POR CUENTA Y ORDEN SUELDO                                                                                                 0000291
65508020750     137434100583467431COPELSUSANA RAMIREZ GONZALEZ                 10010000000002537230100148 PAGO POR CUENTA Y ORDEN SUELDO                                                                                                 0000292
65508020750     137886104032461532COPELDANIEL VAZQUEZ HERNANDEZ                10010000000002537280100148 PAGO POR CUENTA Y ORDEN SUELDO                                                                                                 0000293
65508020750     137180104466796061COPELENRIQUE VARGAS HERNANDEZ                10010000000002537280100148 PAGO POR CUENTA Y ORDEN SUELDO                                                                                                 0000294
