0220005        000000000011614668610000000000025539036300000000757897002601202237 PAGO POR CUENTA Y ORDEN SUE11HUM180523FF6 00000000000000grupo@dallheim.com.mx                  26012022SEVILLA VAZQUEZ MARCO ANTONIO                                         
0220504        000000000011614668610000000000028871699800000000794783002601202237 PAGO POR CUENTA Y ORDEN SUE11HUM180523FF6 00000000000000grupo@dallheim.com.mx                  26012022BEDOLLA HERNANDEZ MONICA LIZBETH                                      
0250312        000000000011614668610000000000035710404400000000643804002601202237 PAGO POR CUENTA Y ORDEN SUE11HUM180523FF6 00000000000000grupo@dallheim.com.mx                  26012022BAUTISTA VICENCIO MARCO ANTONIO                                       
0280338        000000000011614668610000000000028926143100000000527642002601202237 PAGO POR CUENTA Y ORDEN SUE11HUM180523FF6 00000000000000grupo@dallheim.com.mx                  26012022ASCENCIO MEDINA MARIA TRINIDAD                                        
0290290        000000000011614668610000000000102320818700000000445751002601202237 PAGO POR CUENTA Y ORDEN SUE11HUM180523FF6 00000000000000grupo@dallheim.com.mx                  26012022LARA AVENDANO GUILLERMO                                               
0291103        000000000011614668610000000000032265279400000000527642002601202237 PAGO POR CUENTA Y ORDEN SUE11HUM180523FF6 00000000000000grupo@dallheim.com.mx                  26012022HERNANDEZ SANCHEZ MARIA INES                                          
02907943       000000000011614668610000000000114381740500000000401863002601202237 PAGO POR CUENTA Y ORDEN SUE11HUM180523FF6 00000000000000grupo@dallheim.com.mx                  26012022VELASCO ROBALDINO SUGHEY GUADALUPE                                    
02910077       000000000011614668610000000000059297341600000000361610002601202237 PAGO POR CUENTA Y ORDEN SUE11HUM180523FF6 00000000000000grupo@dallheim.com.mx                  26012022RUIZ RUIZ MIGUEL ALEJANDRO                                            
02911339       000000000011614668610000000000115138435900000000405067002601202237 PAGO POR CUENTA Y ORDEN SUE11HUM180523FF6 00000000000000grupo@dallheim.com.mx                  26012022COUOH DIAZ MARIA FERNANDA                                             
02912898       000000000011614668610000000000112477953900000000527642002601202237 PAGO POR CUENTA Y ORDEN SUE11HUM180523FF6 00000000000000grupo@dallheim.com.mx                  26012022ACOSTA VELAZQUEZ SCARLETT                                             
02913032       000000000011614668610000000000117283266800000000335247002601202237 PAGO POR CUENTA Y ORDEN SUE11HUM180523FF6 00000000000000grupo@dallheim.com.mx                  26012022TELLO LUNA ALEXA TAMARA                                               
