100001E1020202165505232207     10202021
2000020010013RAMIREZ                       MACIAS              LUZ ELENA                     56615669720     000000000000451043
2000030010068BUCIO                         BETANCOURT          JORGE ALFREDO                 60561637253     000000000000293745
2000040010072MEJIA                         GOMEZ               SILVERIO                      60571154183     000000000000085576
2000050010116SANCHEZ                       MEJIA               MARIO ALBERTO                 60583624882     000000000000528395
2000060010545MORFIN                        ANCIRA              MERY ESTEFANIA                60589586912     000000000000309331
2000070011445FLORES                        RODRIGUEZ           LILIANA                       56686075222     000000000000172215
2000080011466GONZALEZ                      GARCIA              JENNIFER MINERVA              60606810082     000000000000447801
2000090011520BALLESTEROS                   SANCHEZ             LAURA YANETH                  23000456115     000000000000298559
2000100011676VELAZQUEZ                     OLGUIN              VERONICA MARCELA              56780627970     000000000000360934
2000110012024PARDO                         OROZCO              ESTELA                        56721299498     000000000000528469
2000120901836PALOMINO                      VAZQUEZ             JESSICA DEL ROCIO             60614950003     000000000000309355
30001300011000000000003785423
