100001E0825202165507617622     08252021
2000020041108SANTOS                        MENDOZA             PERLA YANELI                  56795775453     000000000000474799
2000030600746SEGURA                        RAMIREZ             ADRIAN                        60595985644     000000000000347909
2000040600928GARAY                         GONZALEZ            ROSA ISELA                    56764955320     000000000000330664
2000050601027ARANDA                        GARCIA              FERNANDO DAMIAN               60562853900     000000000000172866
2000060601423HERNANDEZ                     NAJAR               ULISES NAVANY                 56652863645     000000000000271793
2000070601439BADILLO                       TREJO               ARMANDO                       56761733575     000000000000477684
2000080901603AGUILAR                       VARGAS              ERIKA                         56784878623     000000000000301692
2000090901748SANCHEZ                       ARROY               ANGEL                         56721403660     000000000000227250
2000100902134ARREDONDO                     CORONADO            ILEANA SARAI                  56758026183     000000000000305030
2000110901776RAMIREZ                       ZAVALA              EMILIO DE JESUS               60609541383     000000000000527642
2000120902348MEDINA                        PONCE               CECILIA                       60617370908     000000000000220181
2000130903304CASTILLO                      ACUNA               NALLELY NOHEMI                20007928816     000000000000527642
2000140903380LOPEZ                         HERNANDEZ           PEDRO                         60611364341     000000000000256170
2000150902990LOPEZ                         MARTINEZ            ELIDA MARLENE                 60585018647     000000000000474483
2000160903872MENDOZA                       PUENTE              OMAR ALEJANDRO                26027832613     000000000000267555
2000170904488MORALES                       BAUTISTA            FLORENCIA                     60608804451     000000000000289231
2000180904540GRAJALES                      RUIZ                EMIR ALEJANDRO                56787849197     000000000000203805
2000190904577LOPEZ                         LAUREANO            MAYRA YUDIT                   60619121277     000000000000527642
2000200904698PENA                          SIERRA              ISMAEL                        56754133723     000000000000192514
2000210904683ZAPOT                         PASTRANA            JESUS ANTONIO                 55505432100     000000000000289231
2000220904743GUTIERREZ                     BENAVIDES           HECTOR MIGUEL                 56766950606     000000000000527642
2000230904937LOPEZ                         ALVARADO            LUIS FRANCISCO                56748161080     000000000000267555
2000240904979RAMIREZ                       VIZUETH             JOSEFAT GABRIEL               56803510996     000000000000289231
2000250905080FRANQUEZ                      IBARRA              EIRAIN                        56744470521     000000000000382992
2000260905081SILVA                         CRUZ                CARLOS DAVID                  56727842152     000000000000330664
2000270905249CRUZ                          RIVERA              ERIKA                         60572044203     000000000000330664
2000280905107MEJIA                         MARTINEZ            MAURICIO                      60604309264     000000000000308935
2000290905301PIMENTEL                      CABRERA             J BERNARDO                    56559875401     000000000000289231
2000300905716VAZQUEZ                       TRUJILLO            ANA PATRICIA                  56792514035     000000000000289231
2000310905740CHAIRES                       CONTRERAS           ERIKA YUDITH                  60585578104     000000000000241552
2000320905840IBARRA                        ROBLES              DEJANEIRA LILIANA             56799068563     000000000000289231
2000330905766LARA                          FLORES              CLAUDIA ISABEL                60617150931     000000000000230898
2000340905883MUNOZ                         DURAN               JOSE EDUARDO                  60611523436     000000000000151593
2000350905929JUAREZ                        SANDOVAL            MARIANA DOLORES               60618368340     000000000000330664
2000360906014HERNANDEZ                     PEREZ               TANYA NAYELI                  60602768700     000000000000223537
2000370906298ZUMARRAGA                     HERNANDEZ           LUDMILA BERENICE              25009415886     000000000000290184
2000380906324ULLOA                         ALVAREZ             JOSE ANGEL                    20010493813     000000000000308935
2000390906325GONZALEZ                      RAMIREZ             ALAN URIEL                    56767991727     000000000000330664
2000400906252MORENO                        LOPEZ               VIRGINIA CAROLINA             60604973546     000000000000361610
2000410906259LARA                          LIMIAS              JOSE ANTONIO                  56801290539     000000000000308935
2000420906355HERNANDEZ                     CASTILLO            JULIO CESAR                   56810375493     000000000000308935
2000430906356ROBLEDO                       GOMEZ               ALMA DELIA                    25009166236     000000000000167777
2000440906524AYALA                         GONZALEZ            MARIA GUADALUPE               60617485440     000000000000289231
2000450906664GORDILLO                      MARTINEZ            ULISES                        60588479809     000000000000292008
2000460906745MARTINEZ                      DOMINGUEZ           GUADALUPE                     56811285638     000000000000308935
2000470906741GONZALEZ                      HERNANDEZ           LUIS DAVID                    56749717390     000000000000308935
2000480906806HERNANDEZ                     RODRIGUEZ           JUAN CARLOS                   56811339498     000000000000097559
2000490906854SALGADO                       CRUZ                MARIO IVAN                    56797132073     000000000000330664
2000500906950HERNANDEZ                     MARTINEZ            JORGE HIRAM                   56790383337     000000000000289231
2000510906817PADILLA                       GARCIA              ALONDRA JANETH                56737294232     000000000000220656
2000520907071RAMOS                         HERNANDEZ           DIANA LAURA                   56783756396     000000000000289231
2000530907114PEREZ                         LOPEZ               JULIETA                       56799509689     000000000000223537
2000540907255RODRIGUEZ                     HERNANDEZ           VIANEY JULIETA                56807757949     000000000000186974
2000550907280ROMERO                        MAGANA              ESMERALDA                     60619154514     000000000000289230
2000560907440TALAMANTES                    RUBIO               FELIX ANTONIO                 60617059688     000000000000681835
2000570907457MARTINEZ                      BARRIENTOS          LUIS ENRIQUE                  56797649836     000000000000255204
2000580907561NEVAREZ                       ESCOBEDO            JARED                         56809042218     000000000000289231
2000590907579CARMONA                       HERNANDEZ           JONATHAN                      56800152434     000000000000289231
2000600907590CRUZ                          BAUTISTA            ZURISADAI                     60581163450     000000000000317678
2000610907778ALARCON                       ALARCON             IVETTE ITZEL                  56798620479     000000000000289231
2000620907783CANDELAS                      SANDOVAL            ROSA MARIA                    56797929636     000000000000330664
2000630907794HERNANDEZ                     SANTIAGO            ELIZABETH                     56741267572     000000000000308934
2000640907809LUNA                          FLORES              MARIA DE JESUS                56767652833     000000000000308935
2000650907838FUENTES                       SANCHEZ             ELYAN MARTIN                  56806719625     000000000000289231
2000660907857TORRES                        JIMENEZ             ESTEFANIA                     56792873961     000000000000330664
2000670907926CRUZ                          RODRIGUEZ           YULISSA ESTRELLA              56769047533     000000000000289231
2000680907951HERNANDEZ                     IBARRA              CLAUDIA ARACELI               56797295641     000000000000330664
2000690907989GARCIA                        CARLOS              YADIRA LILIANA                60617099942     000000000000681835
2000700908041VALDEZ                        GARCIA              VALENTE                       60618346165     000000000000411238
2000710908030RAMIREZ                       TREJO               LUIS ELIAS                    56808082462     000000000000267555
2000720908052REYES                         FLORES              JAZMIN IZVET                  25002220804     000000000000289231
2000730908070LOPEZ                         LOPEZ               J GUADALUPE                   56813328262     000000000000133565
2000740908131LOPEZ                         FIGUEROA            JOSE                          25003366549     000000000000267555
2000750908198SAENZ                         PORTILLO            JOSE DE JESUS                 56796605355     000000000000267555
2000760908354CASTILLO                      VAZQUEZ             JUAN DE DIOS                  56780903796     000000000000330664
2000770908361ZARATE                        MIGUEL              ROCIO                         60607963467     000000000000204943
2000780908375VILLAGOMEZ                    MORENO              ADAIA BETSABE                 60619930444     000000000000308935
2000790908419CHINO                         GIL                 YURIKO                        56767134897     000000000000267555
2000800908622CORTES                        VARGAS              SIGIFREDO                     60616763147     000000000000289231
2000810908628CARRASCO                      PASTRANA            CLAUDIA ELENA                 60603622691     000000000000308935
2000820908604RUIZ                          CABRERA             MOISES                        56784173318     000000000000271692
2000830908501BOJORQUEZ                     AGUILAR             LONIEL OSVALDO                56794129877     000000000000289231
2000840908656TIRADO                        RODRIGUEZ           JOSE JUAN                     25010218857     000000000000330664
2000850908685MORENO                        SILVA               GABRIELA ELIZABETH            60603138282     000000000000330664
2000860908850HERRERA                       CASTRO              JESUS GUADALUPE               56764839765     000000000000330664
2000870908919CUPUL                         LOZANO              PATRICIA GUADALUPE            56772810803     000000000000267555
2000880908887CARRILLO                      TORRES              OSBALDO DANIEL                56801291366     000000000000267555
2000890909014GONZALEZ                      LUQUE               EDER OLAF                     56757939871     000000000000283935
2000900908900TARANGO                       RENTERIA            JOHANA STEPHANIE              56807026315     000000000000330664
2000910908985GALINDO                       AQUINO              ISAI                          56758212816     000000000000267555
2000920909058ARREDONDO                     ROSTRO              JESUS JOVANNY                 60616442437     000000000000323786
2000930909214PEREZ                         QUINTAL             JESUS ALFONSO                 60607857283     000000000000361610
2000940909328GONGORA                       LOPEZ               MARIA JOSE                    56813167817     000000000000496681
2000950909355CAMPOS                        GARCIA              JULIO CESAR                   60578865320     000000000000379324
2000960909397MARTINEZ                      CAMPOS              OSCAR RAUL                    25006110791     000000000000390868
2000970909495CORONADO                      NAVARRO             CARLOS MISSAEL                56797553741     000000000000504328
2000980909501MANCILLA                      HEREDIA             BRENDA ISABEL                 56660298736     000000000000504328
2000990909563PEREZ                         CRUZ                FRANCISCO DANIEL              56732885021     000000000000330673
2001000909566CORTEZ                        SANMIGUEL           ENEDELIA                      60620699285     000000000000426765
2001010909639MUNOZ                         SANCHEZ             JOSE LUIS                     56603832438     000000000000418496
2001020909626SANTOS                        CORDOVA             KEVIN URIEL                   56817682964     000000000000271793
2001030909606VAZQUEZ                       SARMIENTO           SIOMARA DEL SAGRARIO          56749305056     000000000000271793
2001040909579RAMIREZ                       SANCHEZ             MARIA DEL CARMEN              56801185745     000000000000330664
2001050909590BUCIO                         VILLALON            MIGUEL ANGEL                  25009828598     000000000000289231
30010600104000000000032982683
