10001154793692508210001CONSULTORA DE PROYECTOS DHILAGO SA  NOMINA 25082021     05                                        C00
2100100000000006050636901701300000000000000729264
300010000000000013389910100000000090115558713                              0000600001FERMIN MACHORRO CASTILLO                               NOMINA                                                          0000       00
300010000000000002380470100000000090111925142                              0000600005JOSE DE JESUS PEREZ TORRES                             NOMINA                                                          0000       00
300010000000000002420860100000000090107871372                              0000600006KARINA ELIZABETH HERRERA LOPEZ                         NOMINA                                                          0000       00
300010000000000001808800100000000090112552048                              0000600009BLANCA DANITZA SOLIS ESCORCIA                          NOMINA                                                          0000       00
300010000000000005588810100000000090112514081                              0000600010OSCAR JEZER MEZA GONZALEZ                              NOMINA                                                          0000       00
300010000000000002892240100000000090115269975                              0000600012VERONICA DOMINGUEZ DAVILA                              NOMINA                                                          0000       00
300010000000000003026980100000000090309472941                              0000600013VANESSA ALVAREZ LEYTO                                  NOMINA                                                          0000       00
300010000000000003397560100000000090125420817                              0000600014GABRIELA MORALES VENTURA                               NOMINA                                                          0000       00
300010000000000009294610100000000090009399649                              0000600018ARTURO PARRA RUBIO                                     NOMINA                                                          0000       00
300010000000000004919890100000000090163500875                              0000600019ARACELI LEON GRIMALDO                                  NOMINA                                                          0000       00
300010000000000002675550100000000090465249217                              0000011752DANIELA MENDEZ SANTOYO                                 NOMINA                                                          0000       00
300010000000000005259430100000000090208855041                              0000600029BLANCA ESTELA HERRERA GUTIERREZ                        NOMINA                                                          0000       00
300010000000000003535630100000000090209045515                              0000600030CHRISTIAN RODRIGUEZ GUERRERO                           NOMINA                                                          0000       00
300010000000000002617610100000000090173368789                              0000600021LLUVIA LIZETH MONTANO GUTIERREZ                        NOMINA                                                          0000       00
300010000000000002885600100000000070051832076                              0000600024VERONICA ELIZABETH REYES VALENZUELA                    NOMINA                                                          0000       00
300010000000000000977700100000000090120250301                              0000600047MARIA DE LOURDES VALADEZ ARELLANO                      NOMINA                                                          0000       00
300010000000000001515150100000000090398298674                              0000600050JUAN MANUEL LUNA GASPAR                                NOMINA                                                          0000       00
300010000000000002034490100000000090224830679                              0000600040MARIA DEL REFUGIO PADILLA                              NOMINA                                                          0000       00
300010000000000003310590100000000090243581078                              0000600055NADIA LOPEZ JUAREZ                                     NOMINA                                                          0000       00
300010000000000002827240100000000090252805744                              0000600067JESUS FIDENCIO ZAPATA LERMA                            NOMINA                                                          0000       00
300010000000000001921280100000000090255816186                              0000600072LEONEL ULISES ALVARADO MEDINA                          NOMINA                                                          0000       00
300010000000000001183770100000000090258870068                              0000600073LUIS EDUARDO VILLEGAS RANGEL                           NOMINA                                                          0000       00
300010000000000003824650100000000090265174832                              0000600079CARLOS TENORIO RANGEL                                  NOMINA                                                          0000       00
300010000000000002630050100000000090267837162                              0000600082VANESSA DE JESUS FUENTES ORTIZ                         NOMINA                                                          0000       00
300010000000000003734120100000000090267476348                              0000600083CARMEN DE LA ROSA MARTINEZ                             NOMINA                                                          0000       00
300010000000000004093990100000000090270000494                              0000600086MARIBEL ROBLES CANEL                                   NOMINA                                                          0000       00
300010000000000004006520100000000090272527406                              0000600089JUAN FRANCISCO VELAZQUEZ CHAVEZ                        NOMINA                                                          0000       00
300010000000000000389290100000000090274296541                              0000600091BRENDA BERENIXE MEDINA FLORES                          NOMINA                                                          0000       00
300010000000000002285360100000000090343214854                              0000600125JOSE GUADALUPE GARZA AMAYA                             NOMINA                                                          0000       00
300010000000000003689530100000000090344966728                              0000600129MARIA GRACIELA GARCIA ARANA                            NOMINA                                                          0000       00
300010000000000001774610100000000090250204549                              0000600157FLOR ELISA DE LA ROSA SANDOVAL                         NOMINA                                                          0000       00
300010000000000002427050100000000090371436439                              0000600165XOCHITL ANAHI SERVIN AGUILERA                          NOMINA                                                          0000       00
300010000000000007000610100000000090372250568                              0000600169FRANCISCO JAVIER GONZALEZ RAMOS                        NOMINA                                                          0000       00
300010000000000002675480100000000090380109351                              0000600212PERLA DEYANIRA DE LA FUENTE GARCIA                     NOMINA                                                          0000       00
300010000000000004942880100000000090346682239                              0000600227DAFNE AGLAE CUAUTLI GARCIA                             NOMINA                                                          0000       00
300010000000000002827650100000000090389064393                              0000600233ROXANA LIZETH IBARRA GODINEZ                           NOMINA                                                          0000       00
300010000000000002675480100000000090367533551                              0000600261MARIBEL PEREZ HERNANDEZ                                NOMINA                                                          0000       00
300010000000000004704950100000000090406906239                              0000600392YESSICA FELIX SALAZAR                                  NOMINA                                                          0000       00
300010000000000002686180100000000090226794815                              0000600425MIGUEL DE JESUS RIOS GARCIA                            NOMINA                                                          0000       00
300010000000000002084990100000000090386819814                              0000600441YAREB DE LOURDES HERNANDEZ SALAS                       NOMINA                                                          0000       00
300010000000000002675480100000000090410533013                              0000600454FERNANDO BALTAZAR PEREZ CORONA                         NOMINA                                                          0000       00
300010000000000004156100100000000090228682666                              0000600475DANIEL LADINOS SALAZAR                                 NOMINA                                                          0000       00
300010000000000005090270100000000090236044253                              0000600680ROCIO SAMANTHA QUINTEROS LOPEZ                         NOMINA                                                          0000       00
300010000000000002675480100000000090421299942                              0000600725MARIA CONCEPCION MARTINEZ ANDRADE                      NOMINA                                                          0000       00
300010000000000005538400100000000090423621213                              0000600795PATRICIA RIVERA HERNANDEZ                              NOMINA                                                          0000       00
300010000000000003306530100000000090414289729                              0000600865MARIA LUISA ESTRADA JUAREZ                             NOMINA                                                          0000       00
300010000000000003306530100000000070132744015                              0000600870ANA BELEN CORTES OVALLE                                NOMINA                                                          0000       00
300010000000000002675550100000000090430404341                              0000601011OLGA GUADALUPE LOPEZ MEZA                              NOMINA                                                          0000       00
300010000000000002892310100000000090409139875                              0000601165ZET ANTONIO OCEGUEDA ANGULO                            NOMINA                                                          0000       00
300010000000000002892310100000000090245687086                              0000601166SERGIO MIGUEL CENICEROS ROSALES                        NOMINA                                                          0000       00
300010000000000002897670100000000090384343979                              0000601216REYNA VIRIDIANA LOPEZ RODRIGUEZ                        NOMINA                                                          0000       00
300010000000000002675550100000000090423970951                              0000601225ANGELICA MORENO ALVAREZ                                NOMINA                                                          0000       00
300010000000000002675550100000000090402141343                              0000601234LUIS HERNANDEZ AGUILAR                                 NOMINA                                                          0000       00
300010000000000002481770100000000090442176484                              0000601244CYNTHIA NATHALY VINALAY OROZCO                         NOMINA                                                          0000       00
300010000000000012654150100000000090168747453                              0000601253SAMAEL DE JESUS CHAN CASTRO                            NOMINA                                                          0000       00
300010000000000000944530100000000090442038227                              0000601328CELINA MONSERRAT SANCHEZ VALLE                         NOMINA                                                          0000       00
300010000000000002542330100000000090442287324                              0000601345MARIA LOURDES PEREZ FLORES                             NOMINA                                                          0000       00
300010000000000015041910100000000090108540442                              0000601428EDUARDO ARAUJO CAMPOS                                  NOMINA                                                          0000       00
300010000000000002227470100000000070155384342                              0000601452MARIA DEL ROCIO ESTRADA ARMENTA                        NOMINA                                                          0000       00
300010000000000002675550100000000090451363718                              0000601540ILIA ASSENETH OLIVA RAMOS                              NOMINA                                                          0000       00
300010000000000002675550100000000090438084842                              0000902328MA DEL CARMEN RINCON PINA                              NOMINA                                                          0000       00
300010000000000000761210100000000090436728815                              0000902611ALMA ELIZABETH LEDON NIEBLAS                           NOMINA                                                          0000       00
300010000000000000944530100000000090435814777                              0000902703ARIANNA KRISTAL LOPEZ ORTIZ                            NOMINA                                                          0000       00
300010000000000001743120100000000090340927396                              0000903140CARLOS ANGEL HAM ALLENDE                               NOMINA                                                          0000       00
300010000000000003306640100000000070160924592                              0000903401BRENDA GUADALUPE ZAMARRIPA MARTINEZ                    NOMINA                                                          0000       00
300010000000000002631110100000000070168591878                              0000903577JENNIFER YAJAIRA LOREDO VALDEZ                         NOMINA                                                          0000       00
300010000000000001139380100000000070168740113                              0000903725CESAR ISRAEL CABRERA RAMIREZ                           NOMINA                                                          0000       00
300010000000000010688660100000000090454229923                              0000903717ELVIA DE JESUS JIMENEZ BETANCOURT                      NOMINA                                                          0000       00
300010000000000002675550100000000090372287828                              0000903785JOEL AGUILAR DIMAS                                     NOMINA                                                          0000       00
300010000000000002892310100000000070166489847                              0000904129KARLA CECILIA ZUNIGA DIAZ                              NOMINA                                                          0000       00
300010000000000008719880100000000090435985237                              0000904154REYNA MANDUJANO GONZALEZ                               NOMINA                                                          0000       00
300010000000000003306640100000000070123620230                              0000904162ABRIL LIZET SANTANA VALDEZ                             NOMINA                                                          0000       00
300010000000000002196020100000000090456438643                              0000904476JOSE SIMON PAZARAN CABELLO                             NOMINA                                                          0000       00
300010000000000002492310100000000070164525269                              0000904607FABIAN ACOSTA GOMEZ                                    NOMINA                                                          0000       00
300010000000000003089350100000000090456923754                              0000904722MARIA JANET ORTEGA DELGADO                             NOMINA                                                          0000       00
300010000000000001304590100000000070170414533                              0000904756GRECIA DEL ROSARIO GAMBOA CANELA                       NOMINA                                                          0000       00
300010000000000002675550100000000090449825763                              0000905089ADRIANA JESUS DZUL LOPEZ                               NOMINA                                                          0000       00
300010000000000002675550100000000070161825318                              0000905101MARIA FERNANDA SANCHEZ HERNANDEZ                       NOMINA                                                          0000       00
300010000000000004050670100000000090367398654                              0000905274SELENE VIRIDIANA MENDEZ ARANA                          NOMINA                                                          0000       00
300010000000000003936850100000000090367148097                              0000905465JORGE ARTURO GONZALEZ BELMAN                           NOMINA                                                          0000       00
300010000000000001497430100000000070172768529                              0000905568MIRTHA URIAS INZUNZA                                   NOMINA                                                          0000       00
300010000000000002892310100000000090459151043                              0000905577RUTH MANUELA DOMINGUEZ RAMIREZ                         NOMINA                                                          0000       00
300010000000000002235370100000000070170922741                              0000905593DIANA LAURA VIDAL BALCAZAR                             NOMINA                                                          0000       00
300010000000000002675550100000000090265983293                              0000905619ANDRES ANTONIO CHABLE DZUL                             NOMINA                                                          0000       00
300010000000000002675550100000000090438055508                              0000905676JAKSIRI ESQUIVEL LIMON                                 NOMINA                                                          0000       00
300010000000000003228540100000000090433781626                              0000905698LUZ YESENIA PEREZ MENDEZ                               NOMINA                                                          0000       00
300010000000000003306640100000000090393392362                              0000905699WENDY BOCANEGRA VAZQUEZ                                NOMINA                                                          0000       00
300010000000000002892310100000000090278187585                              0000905832BEATRIZ AIDA MONTES LEON                               NOMINA                                                          0000       00
300010000000000002675550100000000090231210511                              0000905923ROBERTO CARLOS LANDA ALEJANDRO                         NOMINA                                                          0000       00
300010000000000002675550100000000090433691619                              0000905931DIANA HAYME MARTINEZ DIAZ                              NOMINA                                                          0000       00
300010000000000003306640100000000090459929583                              0000905966SERGIO GUADALUPE RODRIGUEZ BENITEZ                     NOMINA                                                          0000       00
300010000000000001867710100000000090377659839                              0000906023JOHAN JOSEPH RODRIGUEZ ZAMORA                          NOMINA                                                          0000       00
300010000000000002675550100000000090414381447                              0000906215ISAI MARTINEZ RAMIREZ                                  NOMINA                                                          0000       00
300010000000000003089350100000000090435282791                              0000906345BRENDA LORENA MACIAS CHAGOYA                           NOMINA                                                          0000       00
300010000000000002892310100000000090299035963                              0000906397MARCO ANTONIO SANCHEZ SANCHEZ                          NOMINA                                                          0000       00
300010000000000003089350100000000090340168347                              0000906405ADDY ARACELLY KUYOC CAB                                NOMINA                                                          0000       00
300010000000000002642310100000000090367868758                              0000906422EDGAR IVAN MARTINEZ SANDOVAL                           NOMINA                                                          0000       00
300010000000000002675550100000000090456027198                              0000906466VANESSA SANCHEZ SANCHEZ                                NOMINA                                                          0000       00
300010000000000006438040100000000070131317741                              0000906455ARIANA CUEVAS ROGRIGUEZ                                NOMINA                                                          0000       00
300010000000000002235370100000000090269629494                              0000906492ANA KAREN DELGADO GOMEZ                                NOMINA                                                          0000       00
300010000000000002675550100000000090461396959                              0000906548ARIANA GUADALUPE FLORES CRUZ                           NOMINA                                                          0000       00
300010000000000011364550100000000090208677097                              0000906674ANDRES ALEJANDRO HUERTA NAVARRO                        NOMINA                                                          0000       00
300010000000000003306640100000000090440287076                              0000906735BRENDA CRISTINA JUAREZ ZAVALA                          NOMINA                                                          0000       00
300010000000000002675550100000000070105337416                              0000906864DIANA ITZEL PINERA VIVEROS                             NOMINA                                                          0000       00
300010000000000000404930100000000090458406684                              0000907029ANDREA GUADALUPE GARCIA DIAZ                           NOMINA                                                          0000       00
300010000000000002235370100000000090462167651                              0000907033KAZTENY SHANIK DOMINGO CAMARGO                         NOMINA                                                          0000       00
300010000000000002892310100000000090457334833                              0000907056XOCHITL CARO LOPEZ                                     NOMINA                                                          0000       00
300010000000000003089350100000000090462578112                              0000907111JUAN MANUEL VAZQUEZ RAMIREZ                            NOMINA                                                          0000       00
300010000000000000389300100000000090462618815                              0000907147RUBEN ALFREDO DE LA TORRE RIVERA                       NOMINA                                                          0000       00
300010000000000005991710100000000070115390382                              0000907177ROBERTO JESUS PONCE CELIS                              NOMINA                                                          0000       00
300010000000000003050380100000000090381836176                              0000907205LESLIE NICOLE SUAREZ VENEGAS                           NOMINA                                                          0000       00
300010000000000002675550100000000090462841697                              0000907208OSCAR TELLEZ ALCANTARA                                 NOMINA                                                          0000       00
300010000000000002675550100000000090461395367                              0000907215EMMA HERNANDEZ QUEZADA                                 NOMINA                                                          0000       00
300010000000000003089350100000000090432298832                              0000907237JONATHAN MACHUCA CORNEJO                               NOMINA                                                          0000       00
300010000000000002892310100000000090417339298                              0000907246SONIA HERNANDEZ HERNANDEZ                              NOMINA                                                          0000       00
300010000000000002892310100000000090458926815                              0000907195MIGUEL ANGEL IBARRA MARITANO                           NOMINA                                                          0000       00
300010000000000002675550100000000090397207551                              0000907341FLORISEL NICANOR HERNANDEZ                             NOMINA                                                          0000       00
300010000000000002675550100000000090273957285                              0000907354MELISSA GONZALEZ CARDENAS                              NOMINA                                                          0000       00
300010000000000003661150100000000090459072658                              0000907370ABRAHAM BEAS CERVANTES                                 NOMINA                                                          0000       00
300010000000000002675550100000000090463142954                              0000907411MARCO ANTONIO CRUZ NERI                                NOMINA                                                          0000       00
300010000000000003661150100000000070163479344                              0000907476MARIA DEL ROSARIO PEREZ GUINTO                         NOMINA                                                          0000       00
300010000000000002675550100000000090457532082                              0000907485CHRISTIAN DIAZ CIBRIANO                                NOMINA                                                          0000       00
300010000000000002892310100000000090457175239                              0000907525HERIBERTO LARA GONZALEZ                                NOMINA                                                          0000       00
300010000000000003306640100000000090442391768                              0000907568OSCAR ALEJANDRO REYES MARTINEZ                         NOMINA                                                          0000       00
300010000000000002919600100000000090394974624                              0000907593NALLELY ITZEL CARDONA TOVAR                            NOMINA                                                          0000       00
300010000000000012213540100000000090358739627                              0000907659OSWALDO ANGEL LOPEZ CRUZ                               NOMINA                                                          0000       00
300010000000000003089350100000000090450017409                              0000907662ANGEL EFRAIN BASTARRACHEA PECH                         NOMINA                                                          0000       00
300010000000000002892310100000000090463806518                              0000907672GUILLERMO AVENDANO HERNANDEZ                           NOMINA                                                          0000       00
300010000000000002892310100000000090461785866                              0000907675HERIBERTO GARCIA VELAZQUEZ                             NOMINA                                                          0000       00
300010000000000002892310100000000090416495695                              0000907823MARIA DE LOS ANGELES DE LA CRUZ GONZALEZ               NOMINA                                                          0000       00
300010000000000003661150100000000090464184693                              0000907840ARMANDO MIGUEL CERVANTES BAUTISTA                      NOMINA                                                          0000       00
300010000000000001295970100000000090438124992                              0000907875LUIS ANGEL TURRUBIARTES MELENDEZ                       NOMINA                                                          0000       00
300010000000000002892310100000000090408323923                              0000907905DIEGO ARMANDO GONZALEZ CARRERA                         NOMINA                                                          0000       00
300010000000000002675550100000000090445300348                              0000907867EDUARDO URIBE GONZALEZ                                 NOMINA                                                          0000       00
300010000000000003089350100000000090271715381                              0000907937DARWIN ANTONIO CUPUL CHI                               NOMINA                                                          0000       00
300010000000000003306640100000000090441317726                              0000907969SAMUEL GRIMALDO ANTONIO                                NOMINA                                                          0000       00
300010000000000001880940100000000090429352141                              0000908005JESUS ALBERTO DOMINGUEZ VAZQUEZ                        NOMINA                                                          0000       00
300010000000000001979400100000000090369464417                              0000908042ALVARO CERON GARCIA                                    NOMINA                                                          0000       00
300010000000000004099670100000000090121079193                              0000908109JOSE LUIS MONTALVO PENA                                NOMINA                                                          0000       00
300010000000000005146770100000000090451557423                              0000908256RAMON FRANCISCO BARROSO HERNANDEZ                      NOMINA                                                          0000       00
300010000000000002117740100000000090406822914                              0000908259CRISTIAN FLORES CAMACHO                                NOMINA                                                          0000       00
300010000000000002892310100000000090445539782                              0000908275GLADIS FRANCO GONZALEZ                                 NOMINA                                                          0000       00
300010000000000002667990100000000090190632163                              0000908293OMAR ALBERTO VILLAGRAN RUIZ                            NOMINA                                                          0000       00
300010000000000002675550100000000090463227763                              0000908334ELIZABETH ACOSTA TORRES                                NOMINA                                                          0000       00
300010000000000003306640100000000090127712939                              0000908345JOSE DE JESUS CEDILLO RANGEL                           NOMINA                                                          0000       00
300010000000000002675550100000000090408723271                              0000908378MIGUEL ANGEL DIAZ CRUZ                                 NOMINA                                                          0000       00
300010000000000001677770100000000090463829771                              0000908408YOLANDA ANGELICA CANCINO GAYOSO                        NOMINA                                                          0000       00
300010000000000002675550100000000090441634128                              0000908417ALEXIS RUSSI PEREZ                                     NOMINA                                                          0000       00
300010000000000002892310100000000090464102158                              0000908510ROBERTO GUADALUPE TELLO ROA                            NOMINA                                                          0000       00
300010000000000005276420100000000090460716666                              0000908513OSCAR LUCIANO ALMARAL RODRIGUEZ                        NOMINA                                                          0000       00
300010000000000003089350100000000090428326228                              0000908629JORGE CORREA MIXTEGA                                   NOMINA                                                          0000       00
300010000000000006438030100000000090329443603                              0000908647MARTIN DE JESUS GARCIA PEREZ                           NOMINA                                                          0000       00
300010000000000002892310100000000090449163981                              0000908636MARLON ISMAEL DOMINGUEZ CAMPOS                         NOMINA                                                          0000       00
300010000000000005276420100000000090109592292                              0000908699MARIA GUADALUPE RODRIGUEZ ALCALA                       NOMINA                                                          0000       00
300010000000000002675550100000000070171421428                              0000908752ALAN YAIR CERVANTES RODRIGUEZ                          NOMINA                                                          0000       00
300010000000000002892300100000000090466222495                              0000908830MARIA MERCEDES  PACHECO  RUIZ                          NOMINA                                                          0000       00
300010000000000002675550100000000090352615454                              0000908800KARLA SUGEY JUNCO RAMAYO                               NOMINA                                                          0000       00
300010000000000003306730100000000090425593721                              0000908805EDWIN MIGUEL DE ATOCHA COCOM HERNANDEZ                 NOMINA                                                          0000       00
300010000000000003089350100000000090441187032                              0000908855JAVIER EDUARDO HERNANDEZ  PEREZ                        NOMINA                                                          0000       00
300010000000000002184620100000000090466249997                              0000908901OSCAR ANTONIO PAREDES  CIFUENTES                       NOMINA                                                          0000       00
300010000000000004267650100000000090465081375                              0000908863NAHUM CHAVEZ RAMOS                                     NOMINA                                                          0000       00
300010000000000003089350100000000070161792142                              0000908864LILIANA MARTINEZ VILLAGOMEZ                            NOMINA                                                          0000       00
300010000000000002892310100000000090460537621                              0000908983MARIO FRANCISCO GALICIA JUSTO                          NOMINA                                                          0000       00
300010000000000004776840100000000090341330636                              0000909091MAGALE OCADIZ VERA                                     NOMINA                                                          0000       00
300010000000000004776840100000000070021411181                              0000909191ANA YADIRA ANGUIANO CASTRO                             NOMINA                                                          0000       00
300010000000000003089350100000000070171781483                              0000909206ANA GUADALUPE PEREZ CRUZ                               NOMINA                                                          0000       00
300010000000000002235370100000000090466731136                              0000909221KARINA ARREGUIN  ALVAREZ                               NOMINA                                                          0000       00
300010000000000002675550100000000070147964968                              0000909224LUCERO GUADALUPE HERNANDEZ VILA                        NOMINA                                                          0000       00
300010000000000003967620100000000090456056392                              0000909246MARCOS  CORDERO CALVA                                  NOMINA                                                          0000       00
300010000000000004285290100000000090173680243                              0000909273ERIC TORRES HERNANDEZ                                  NOMINA                                                          0000       00
300010000000000004097570100000000090447040793                              0000909348CRISTIAN RODRIGO PERALES ANDRADE                       NOMINA                                                          0000       00
300010000000000003489620100000000090464894178                              0000909375JOSE MANUEL ALEJANDRO  REYES GAMEZ                     NOMINA                                                          0000       00
300010000000000003137080100000000090408121506                              0000909391YASMIN LOPEZ JIMENEZ                                   NOMINA                                                          0000       00
300010000000000003908680100000000090329102822                              0000909396GERARDO RAMON FUENTES IZQUIERDO                        NOMINA                                                          0000       00
300010000000000002362630100000000090462834836                              0000909417ZAIRA ANAHI GOMEZ CANALES                              NOMINA                                                          0000       00
300010000000000002675550100000000090465172095                              0000909504MONICA DEL CARMEN HERNANDEZ RAMOS                      NOMINA                                                          0000       00
300010000000000002094840100000000090432059358                              0000909509RODRIGO VARGAS  JIMENEZ                                NOMINA                                                          0000       00
300010000000000002675550100000000090467768092                              0000909543NANCY GONZALEZ LARA                                    NOMINA                                                          0000       00
300010000000000003089350100000000090467680322                              0000909507MA GUADALUPE BERNAL MEDRANO                            NOMINA                                                          0000       00
300010000000000002731830100000000090467966668                              0000909655VICTOR HUGO X SUAREZ                                   NOMINA                                                          0000       00
4001000180000000000060506369000001000000000060506369
