000000001                991530044865          000000000288291MARIA GUADALUPE LOPEZ ZAMBRANO          001001
000000002                991552339897          000000001758756FRANCISCO JAVIER PAZ IGLESIAS           001001
000000003                991545404819          000000000098212SILVIA LORENA FONSECA ROBLES            001001
000000004                991142508044          000000000243111FELICITAS RIOS CASTILLO                 001001
000000005                990458056137          000000000361610MIGUEL ANGEL GUTIERREZ MARTINEZ         001001
000000006                991168305323          000000000321049CYNTHIA GRACIELA ROMERO RODRIGUEZ       001001
000000007                992908812764          000000000128904PRISCILLA JAZMIN MANTEROLA MARCELINO    001001
000000008                991534074394          000000000642585JULIO CESAR BOCANEGRA HERNANDEZ         001001
000000009                991505963535          000000000302598JUAN ALBERTO MEJIA SARABIA              001001
000000010                991501269577          000000000873012MARIA GUADALUPE ESPINO ESPINO           001001
000000011                992982506610          000000000110332ANA PAULINA DELGADO REYES               001001
000000012                992912316331          000000000267555RICARDO ROLDAN PEREZ                    001001
