000000001                991512781573          000000000292008JORGE IVAN SANTIAGO DE LOS REYES        001001
000000002                991566905958          000000000330664LUISA VIRIDIANA OLIVAS MARTINEZ         001001
000000003                991553177419          000000000289231KRISNAR DE JESUS IXTEPAN TOTO           001001
000000004                991536311647          000000000121561JAQUELINE BAEZ COLEGIO                  001001
000000005                991538515074          000000000267555MARITZA ANGELICA BJORKELAND MORENO      001001
000000006                991529106402          000000000361610CLAUDIA ARELY CONTRERAS RODRIGUEZ       001001
000000007                992951451545          000000000252472MINERVA MUNGUIA SANCHEZ                 001001
000000008                991521379194          000000000399202GUADALUPE ALEJANDRA DIAZ CHOLICO        001001
000000009                991519983012          000000000310324KARINA HERNANDEZ HERNANDEZ              001001
000000010                991178356041          000000000252472EVELYN CORDOBA MARTINEZ                 001001
000000011                992892663856          000000000580710JULIO ADRIAN VALENTIN TORRES CORONA     001001
000000012                991506863007          000000000338369LUIS ANGEL ZETINA SOBERANO              001001
000000013                991564959474          000000000211264ANACELI HERNANDEZ MENDEZ                001001
000000014                991591132183          000000000271793FRANCISCO NIEBLAS ESPINOZA              001001
000000015                991523925363          000000000285751LEOPOLDO OVIEDO NEPOMUCENO              001001
000000016                995660933494          000000000310324MARIA REBECA SALCIDO MIRANDA            001001
000000017                991566811238          000000000267555JESUS HERNANDEZ HERNANDEZ               001001
000000018                991593614878          000000000308935MARIA GUADALUPE  MARTINEZ  SOMBRERO     001001
000000019                992995990505          000000000330664GRISELDA PULIDO  MATA                   001001
000000020                991541861219          000000000527642JULIO ISRAEL MATA CANO                  001001
000000021                991529784012          000000000431047MONICA ERIKA LOPEZ MORALES              001001
000000022                991543386861          000000000361610JOSE ALFREDO TUN CAUICH                 001001
000000023                991579703414          000000000308935LEONARDO RAFAEL  HERRERA  VARGAS        001001
000000024                991520778491          000000000267555DIEGO REYES MARTINEZ                    001001
000000025                992927111304          000000000267555DAVID ARTURO LOPEZ NUNEZ                001001
000000026                991546421618          000000000308935BRENDA BERENICE VIDAL RAMIREZ           001001
000000027                991506160163          000000000431047JOSE JAVIER REYES CHABLE                001001
000000028                991521459406          000000000267555ANDREI ALONSO CHAN  TEC                 001001
000000029                991553818738          000000000267555LUIS ALBERTO VAZQUEZ GONZALEZ           001001
000000030                991558243816          000000000330664ANGELA EDITH LOZANO  HERNANDEZ          001001
000000031                991532345567          000000000289231MARIEL ANGELICA  X YOCUPICIO            001001
000000032                991530901949          000000000439392ALMA FABIOLA CORDOVA  SERRANO           001001
000000033                991565153468          000000000682857LUIS ENRIQUE DE JESUS CENA ALVAREZ      001001
000000034                991585789702          000000000555058JOSUE JIMENEZ LOPEZ                     001001
000000035                991557626068          000000000332973VICTOR JULIAN  PEREZ  DE LA CRUZ        001001
000000036                991530439332          000000000289229JULIO CESAR  RODRIGUEZ  XIQUE           001001
000000037                991545521750          000000000329492ERICK  GONZALEZ  GUTIERREZ              001001
000000038                991591600527          000000000329492LOURDES ROSALBA JIMENEZ BRITO           001001
000000039                991502189898          000000000652226JONATHAN GONZALO  MELCHOR  RAMIREZ      001001
000000040                991506661095          000000000496513JESUS FRANCISCO  SANTOS  VAZQUEZ        001001
000000041                991510194959          000000000308935ALEJANDRA ELIZABETH GUERRERO BOLANOS    001001
000000042                991206014445          000000000268722CARLOS ROMAN  VILLASANA  RODRIGUEZ      001001
000000043                992725538742          000000000289231JOSE CARLOS AKE PEREZ                   001001
000000044                991510076671          000000000247688GERARDO IVAN CARDONA HUERTA             001001
000000045                991516991704          000000000439392VERONICA ARAUJO RODRIGUEZ               001001
000000046                991532593630          000000000555058OFELIA LEPE OLIVA                       001001
000000047                992708287988          000000000361886ALMA VIOLETA  SANTIAGO  DEL ANGEL       001001
000000048                991513119561          000000000361886UZIEL HATGAEL REBOLLEDO PALAGOT         001001
000000049                991599986734          000000000555058CLARA MERCEDES GARCIA HERNANDEZ         001001
000000050                991548822049          000000000458553JOSE LUIS PECH PECH                     001001
000000051                991564831698          000000000439392YISSEL GUADALUPE HERMOSILLO ROMAN       001001
000000052                991541900130          000000000332973ALONDRA ITZEL FIGUEROA BARRERA          001001
000000053                991539336211          000000000348962JOSE ISRAEL JIMENEZ SANTIAGO            001001
000000054                991544741208          000000000348962BERENICE ALEJO OSTOA                    001001
000000055                991564434002          000000000604529JOEL ERNESTO RUIZ MARTINEZ              001001
000000056                991557782494          000000000604529JOSUE HERRERA BRUNO                     001001
000000057                991506846383          000000000396762ESAUL  RIVERA  CASTILLO                 001001
000000058                991554307766          000000000428529CRISTIAN  SANCHEZ  JIMENEZ              001001
000000059                991597110832          000000000364953MARCO ANTONIO SANCHEZ  GARCIA           001001
000000060                991506849781          000000000428529DIANA MONSERRAT HERNANDEZ AGUIRRE       001001
000000061                991469100474          000000000176497MARCO ANTONIO  FALCON HERNANDEZ         001001
000000062                991546008860          000000000515378OSCAR ALLEN MARTIN CEBALLOS             001001
000000063                991506843219          000000000364953MANUEL ABRAHAM LIMON RUIZ               001001
000000064                991527874138          000000000458537CORAIMA CAROLINA VALENZUELA VILLA       001001
000000065                992962817500          000000000232215BLANCA ESTHER MARQUEZ ALVARADO          001001
000000066                991544424465          000000000428529KATIA GUADALUPE  FLORES  BARRANCA       001001
000000067                991573533395          000000000392552DIEGO ENRIQUE MARTINEZ CHIN             001001
000000068                991520248530          000000000911562KARLA DEL CARMEN MANRIQUE PUC           001001
000000069                991501082534          000000000396762TIRSO SOTO  DEL ANGEL                   001001
000000070                991545013453          000000000701630LUIS DANIEL ANTONIO BUSTOS DE LEON      001001
000000071                991159194118          000000000396762JUAN GONZALO MEJIA  SANTOS              001001
000000072                991564151239          000000000267555EDITH MICHEL  GUERRERO  MUNOZ           001001
000000073                991532031038          000000000267555ANTONIO DE JESUS REYES GUEVARA          001001
000000074                991576945651          000000000330664DELFINA CORDOVA SALDIERNA               001001
000000075                991534394626          000000000289238ANNA JULISSA UC YAM                     001001
000000076                991529803081          000000000330664LIZ IVONNE SANCHEZ DURAN                001001
000000077                991584982528          000000000426765MARINA ZARAZUA GARCIA                   001001
000000078                991541975709          000000000361610MARTIN FRANCISCO TAPIA GAMEZ            001001
000000079                991506820015          000000000289231ISMAEL  LOPEZ  SALAZAR                  001001
000000080                991532980777          000000000361610MARTIN JARET LUGO IX                    001001
000000081                991514222187          000000000289231ALMA REBECA LARA FELICIANO              001001
000000082                991506857962          000000000289231LAURA JAQUELINE ESPINOZA  SANCHEZ       001001
000000083                992896208177          000000000261257ALEJANDRA RAMIREZ PLASCENCIA            001001
000000084                991570043915          000000000289231DELFINO  AGUIRRE  ANDRES                001001
000000085                991530439009          000000000289231JUAN  FIGUEROA  AQUINO                  001001
000000086                991540254492          000000000308935GABRIELA ROCHA X                        001001
000000087                992701223003          000000000308935MARIA DEL ROCIO OROBIO VILLEGAS         001001
000000088                992926737528          000000000267555AMBAR LINETTE GALLEGOS ESPINO           001001
000000089                992976937748          000000000426765MOACIR ROMARIO TORRES VALERO            001001
000000090                991545446780          000000000308960MIGUEL ANGEL CERVERA  VARGUEZ           001001
000000091                991563018308          000000000308935ALEJANDRA  OLIVA  TORRES                001001
000000092                991585931749          000000000426765VERONICA MICHELLE VALDEZ RAMIREZ        001001
000000093                992925236746          000000000426765MARIO MANDUJANO MORALES                 001001
000000094                991592081078          000000000267555JOSUE EMMANUEL POC PISTE                001001
000000095                991550934205          000000000267555ANGEL JESUS LOZADA VAZQUEZ              001001
000000096                991553241609          000000000426765AMIR OSORIO MARTINEZ                    001001
000000097                991521616331          000000000267555ANTONIO  MATEOS ALEJO                   001001
000000098                991575639441          000000000308935ARACELI  ALMONASI  CALDERON             001001
000000099                991559874453          000000000267555JAZMIN ALEJANDRA PAREDES CAMPOS         001001
000000100                991541575188          000000000426765KAREN ANETH TRUEBA  CAMPOS              001001
000000101                991535459602          000000000426765PAULA AMAYRANI RUIZ  PEREZ              001001
000000102                991568947808          000000000200584GRISSEL YUDIRIA BELTRAN FLORES          001001
000000103                991599648201          000000000405067JOSE GILBERTO CAB BE                    001001
000000104                991179303766          000000000426765ANA KAREN MUNOZ ZAPATA                  001001
000000105                991558759863          000000000280540SUGEY VANESSA  SANTOS  ARAGON           001001
000000106                991558483139          000000000267555RUBI ZAMORA VARGAS                      001001
000000107                991563395076          000000000330673LUIS FELIPE LOPEZ ORTIZ                 001001
000000108                990471923307          000000000330664ELEAZAR SOTO TAMEZ                      001001
000000109                991596000366          000000000289238ABELARDO  PEREZ  JIMENEZ                001001
000000110                991566706374          000000000137377EDUARDO TONATHIU ALARCON  GARCIA        001001
000000111                991505935217          000000000308935FERNANDO  MONTIEL  HERNANDEZ            001001
000000112                992980116084          000000000527642HECTOR ANGULO RAMIREZ                   001001
000000113                991582374552          000000000289231ALVARO MANUEL CUHAUTEMOC BLANCO TORRES  001001
000000114                991536645689          000000000330664ANDREA ITZEL AVILA ARREDONDO            001001
000000115                991550702518          000000000426765ELDA ROMERO PARRA                       001001
000000116                991506895148          000000000289231EDGAR HUMBERTO MARTINEZ VILLALOBOS      001001
000000117                991545525691          000000000267555ANGEL EFREN RAMIREZ CASTRO              001001
000000118                991539054839          000000000468283CINTHIA MARISELA BERUMEN LOZANO         001001
000000119                991513206978          000000000426765FRANCISCO GOMEZ GALVAN                  001001
000000120                991530371243          000000000330664JACOBO YOVANY ROMERO CUACHAYO           001001
000000121                991529069863          000000000289231PAOLA PENA DIAZ                         001001
000000122                991539784414          000000000267561ARIZBETH  LOPEZ  MENDOZA                001001
000000123                991552161931          000000000330664ADRIANA BERENICE CABANAS PACHECO        001001
000000124                991539768480          000000000330664DANIEL GUTIERREZ TERRONES               001001
000000125                991572814331          000000000267555ANDRES ALEXIS  REYES  GALVAN            001001
000000126                991530557912          000000000308935CINTHYA VIRIDIANA RAMIREZ TORRES        001001
000000127                991541617203          000000000289231GABRIELA MARFIL OLAVIDE                 001001
000000128                991561803367          000000000289230VERONICA YAZMIN  CACHO  REYES           001001
000000129                991511379348          000000000447150JUAN CARLOS RODRIGUEZ SILVA             001001
000000130                991521399261          000000000426765NANCI SAMANTA BAEZA PALACIOS            001001
000000131                992886185517          000000000289231FIDELIO ACOSTA HERNANDEZ                001001
000000132                991521820938          000000000330664VALERIA LIZBETH ALCANTAR FLORES         001001
000000133                991520943056          000000000267555LAURA CARVAJAL GERON                    001001
000000134                991577168896          000000000289231FATIMA QUINONES VAZQUEZ                 001001
000000135                991515162251          000000000267555LUZ DARIANA NUNEZ RAMIREZ               001001
000000136                991511448137          000000000330664JULIO LOPEZ  ARREGUIN                   001001
000000137                991511089231          000000000289231JUAN MANUEL AROCHE HERNANDEZ            001001
000000138                991587868611          000000000366115YANELI ANAHI GUTIERREZ SOTO             001001
000000139                991510592484          000000000366115EVELIN DORIELA LOPEZ GUEVARA            001001
000000140                991510774232          000000000289231OLGA LYDIA ESCAMILLA CARRILO            001001
000000141                991578173250          000000000308935ARELY DIAZ  CRUZ                        001001
000000142                991559647643          000000000527642MARTIN ARMANDO HERNANDEZ MUNIZ          001001
000000143                991567810311          000000000267555JOSE ANGEL GONZALEZ KANTUN              001001
000000144                991590990854          000000000283897GLORIA MICHELLE DELGADO LOPEZ           001001
000000145                991551590352          000000000330664RICARDO EMMANUEL REYES MOLINA           001001
000000146                991545507308          000000000330664GUILLERMO ANTONIO GUTIERREZ QUILIHUA    001001
000000147                991549730106          000000000267555DORA ALICIA AYALA JUAREZ                001001
000000148                991567459534          000000000267420ANA ELIZABETH VELAZQUEZ HERNANDEZ       001001
000000149                991509781869          000000000361610ROSA ISELA RAMOS GARCIA                 001001
000000150                991560665947          000000000267555ARMANDO EMILIO BELMONTE BARRADAS        001001
000000151                991514576698          000000000527642OSCAR IVAN HERNANDEZ HERNANDEZ          001001
000000152                991529504683          000000000223537CITLALI GUADALUPE DOMINGUEZ PEREZ       001001
000000153                991560167964          000000000267555LEONOR DEL CARMEN CAPELLINI MARTINEZ    001001
000000154                991560428279          000000000599264ESMERALDA ESCARENO RIVERA               001001
000000155                991522581615          000000000366115MAYRA GUADALUPE CORRAL GARCIA           001001
000000156                991545814599          000000000330673YESLY ALFONSO CANZINO KUK               001001
000000157                991519198754          000000000527642JANIRA LURIEET CASTILLO RAMOS           001001
000000158                991503492866          000000000289231CARLOS ALBERTO ROMERO REYES             001001
000000159                991157317816          000000000267555ALFREDO JAIMES SOBAC                    001001
000000160                991526054045          000000000289231GEMMA MILAGROS ZULEYKA DIAZ CHAVEZ      001001
000000161                992955352371          000000000330664LUIS DANIEL BLANCARTE LOPEZ             001001
000000162                991542239942          000000000330664LAURA LIZBETH MARTINEZ ARIAS            001001
000000163                991563025802          000000000289231JOSE ROBERTO AGUILAR RICARDO            001001
000000164                991505967063          000000000593209PALOMA PAREDES ARGUELLES                001001
000000165                991543789834          000000000330664EDDER ALONSO BELTRAN IBARRA             001001
000000166                991522638786          000000000289231SHEYLA CRISTAL JIMENEZ REYES            001001
000000167                991518995328          000000000289231DANIELA KARINA RIVERO OJEDA             001001
000000168                991522689100          000000000330664ADELA CRUZ CRUZ                         001001
000000169                991551353469          000000000218503ARNALDO DE JESUS CHAN REJON             001001
000000170                991533440904          000000001136741VIRIDIANA YADIRA ELIZONDO NASSAR        001001
000000171                990455436842          000000000289231RAUL VICTORIANO MORENO                  001001
000000172                991549999164          000000000477684ALEJANDRA TERESA RODRIGUEZ ORTIZ        001001
000000173                990477613989          000000000223537ALEJANDRA ELIZABETH ENCISO ESPARZA      001001
000000174                991559757488          000000000267555ZAIRA PATRICIA DE LA FUENTE LOPEZ       001001
000000175                991559685666          000000000267555PRISCILA ESTHER SUAREZ MORALES          001001
000000176                991581050014          000000000289231LUIS ALEJANDRO MARTINEZ AYALA           001001
000000177                991559227234          000000000308935JUANA ESPINOZA FLORES                   001001
000000178                992885438527          000000000267555MIGUEL ANGEL TORRES ALONSO              001001
000000179                991559223476          000000000250602APOLINAR HERNANDEZ ESTRADA              001001
000000180                991501544202          000000000308935ANA VICTORIA HERNANDEZ PARRA            001001
000000181                991570643475          000000000289231MARIA GUADALUPE GARCIA GARCIA           001001
000000182                991556088139          000000000308935EDUARDO CRUZ GALAN                      001001
000000183                991537849084          000000000190916ROCIO BERENICE PENA DIAZ                001001
000000184                991581194707          000000000527642MARCO ANTONIO ORDUNO ORTEGA             001001
000000185                991558127576          000000000308935KARLA CITLALLY OSORIO SOLIS             001001
000000186                992993170632          000000000038930ELISEO APARICIO MIRANDA                 001001
000000187                991530109940          000000000267555OBDULIA EVELIN CONTRERAS RAMIREZ        001001
000000188                991561107164          000000000308935KARLA ELIZABETH LIMON DEL ANGEL         001001
000000189                991558883439          000000000308935MA. GABRIELA GONZALEZ ZERMENO           001001
000000190                991564219051          000000000267555GENER DAVID CHAY TUN                    001001
000000191                991586534077          000000000240458IGNACIO FOGLIA MELCHOR                  001001
000000192                991518353628          000000000477684ANTONIO MIGUEL COBOS HERNANDEZ          001001
000000193                991538137038          000000000289231ROCIO GUADALUPE OVALLE MORA             001001
000000194                991138793476          000000000527642KARINA REYES VERDEJA                    001001
000000195                991509152315          000000000289231ENRIQUE VARGAS DURAN                    001001
000000196                991558543361          000000000330664SERGIO ARTURO GUZMAN CALDERON           001001
000000197                991561099585          000000000330664KEYLA JOANA RENTERIA MORALES            001001
000000198                991135364868          000000000267555MARIA CONCEPCION LOPEZ ASCENCIO         001001
000000199                991574940680          000000000308935LAURA ARACELI RODRIGUEZ GAMEZ           001001
000000200                991556276039          000000000267555MITCHEL MONSERRAT BERMUDEZ PEREZ        001001
000000201                991173125939          000000000289230JUAN MANUEL SANCHEZ LOPEZ               001001
000000202                991554015746          000000000216931FELIPE PACHECO MARQUEZ                  001001
000000203                991557937217          000000000308935ITZEL GUADALUPE BONILLA HERNANDEZ       001001
000000204                991550320886          000000000330664JESUS ALBERTO LEYVA SANTOS              001001
000000205                991554465977          000000000223537ANDREA DEL PILAR RIVERA MERCHAN         001001
000000206                991566997896          000000000041965VERONICA RAMER PULIDO                   001001
000000207                991556754810          000000000213749ALEJANDRO LOPEZ GALAVIZ                 001001
000000208                991587648707          000000000267555AHTCIRY BAUTISTA RAMIREZ                001001
000000209                991537856811          000000000340506ALBERTO ISRAEL BARRON VELAZQUEZ         001001
000000210                992843777332          000000000308935DIEGO CARMONA VILLORDO                  001001
000000211                991137093233          000000000289231SILVESTRE AGUILERA MEZA                 001001
000000212                992874004345          000000000289231JUANA CRISTINA MAGALLON CHORA           001001
000000213                991524560350          000000000289231DANIELA DE LA CRUZ GONZALEZ             001001
000000214                991567924545          000000000040493BERTHA DANIELA MORO ORTIZ               001001
000000215                991555336399          000000000240545ASUNCION DE LA LUZ AGUILAR DIAZ         001001
000000216                991580665576          000000000330673MARIA SADIC GONZALEZ GOMEZ              001001
000000217                991535445202          000000000330664CAROLINA MUNOZ GARCIA                   001001
000000218                991541036079          000000000308935JONATHAN AXEL CAZAREZ VERDUGO           001001
000000219                991513698368          000000000308935MARIA DE JESUS MANCERA RODRIGUEZ        001001
000000220                991577350913          000000000308935SAUL VAZQUEZ PEREZ                      001001
000000221                991556112754          000000000267555MILTON ADRIAN SANTOS LEYVA              001001
000000222                991526903388          000000000174001OMAR DAVID SERRANO BLANCARTE            001001
000000223                991541630507          000000000289231SALVADOR CABALLERO SIBAJA               001001
000000224                991549323218          000000000405067PABLO ALBERTO MONTES NINO               001001
000000225                991595955095          000000000291960MARIO ULISES GARRIDO MORENO             001001
000000226                991502144669          000000000223537CLAUDIA ELENA GARCIA RIOS               001001
000000227                992842103818          000000000330664FELIPE DE JESUS GUTIERREZ PEREZ         001001
000000228                992918680191          000000000147749YASSEL DE JESUS VALENZUELA AGUIRRE      001001
000000229                991507727771          000000000267555LUIS ALBERTO LOPEZ CARMEN               001001
000000230                991542136330          000000000308935ABELINA RAMIREZ HERNANDEZ               001001
000000231                991513668320          000000000266085ALICIA ESTHER NAAL KUMUL                001001
000000232                990475876052          000000000271721ANGELICA DAVID GUTIERREZ                001001
000000233                992973114643          000000000289231ALBERTO PRIEGO HERNANDEZ                001001
000000234                991566934695          000000000308935JOSE DE JESUS CALLEJAS LEON             001001
000000235                991535493630          000000000208728VICTOR ANTONIO NUNEZ CEJA               001001
000000236                991504388450          000000000289231JUAN PABLO URIBE CONTRERAS              001001
000000237                992738055653          000000000617183OSWALDO LOMELI RODRIGUEZ                001001
000000238                991511054586          000000000308935JORGE LUIS FERNANDO MARTINEZ HERNANDEZ  001001
000000239                991533260024          000000000330664JESSICA ELENA GUERRERO GONZALEZ         001001
000000240                991151244493          000000000308935MARIA VERONICA REYES SEGURA             001001
000000241                991544150361          000000000289231DULCE MIRIAN MOTUTO MARTINEZ            001001
000000242                991146630995          000000000289231JOSE LUIS MURRIETA MONTOYA              001001
000000243                991561478990          000000000308935CARLOS REYES ARREOLA                    001001
000000244                991589474016          000000000289231FABIOLA IRACEMA GOMEZ ESPINOZA          001001
000000245                991558279486          000000000308935JUAN CARLOS MARQUEZ VAZQUEZ             001001
000000246                991586080246          000000000267555JULIO CESAR PERAZA BELTRAN              001001
000000247                991528707662          000000000235430JUAN CARLOS CHAVEZ CORZA                001001
000000248                991537307350          000000000267555ESTEFANIA REJON QUIROZ                  001001
000000249                992984133145          000000000272116JESUS MOISES SALGADO ORTIZ              001001
000000250                991565852099          000000000190797CYNTHIA PAOLA MARQUEZ GUERRERO          001001
000000251                991550059092          000000000267555JANET ORDAZ ORNELAS                     001001
000000252                991507648763          000000000289231JESUS GARCIA ROJAS FLORES               001001
000000253                991523124964          000000000375831ERIK JAVIER CAHUANTZI JIMENEZ           001001
000000254                991547117998          000000000308935JENNIFER REYES MALDONADO                001001
000000255                991521687333          000000000267555EDWIN ROJAS MARTINEZ                    001001
000000256                991520613670          000000000271692MARIA DE LOURDES YASMIN LORENZO NADAL   001001
000000257                991162417456          000000000289231MARIA TERESA LUNA DIAZ                  001001
000000258                991529813066          000000000527642GENARO RAFAEL CRUZ ZAVALA               001001
000000259                991537053131          000000000308935IVAN FLORES FLORES                      001001
000000260                991580276042          000000000267555DAVID EMMANUEL SANSORES BELTRAN         001001
000000261                991537098289          000000000308935SERGIO HERNANDEZ MONTALVO               001001
000000262                991512921011          000000000268925SERGIO ANDRES SANTOS                    001001
000000263                991549321309          000000000267229MIREYA JUDITH RAMIREZ CASTILLO          001001
000000264                991534735168          000000000194919DIEGO CASTRO VAZQUEZ                    001001
000000265                991515694881          000000000237076ESMERALDA AQUINO BERNAL                 001001
000000266                991552936221          000000000267555BEATRIZ GARCIA HERNANDEZ                001001
000000267                992972873753          000000000289231CELIA HERNANDEZ HERNANDEZ               001001
000000268                991531663353          000000000223537DIANA ESMERALDA GARCIA GARCIA           001001
000000269                991508476799          000000000267555OSCAR DAVID JIMENEZ ESCUDERO            001001
000000270                991569564627          000000000267555VIOLETA EUNICE REYES JIMENEZ            001001
000000271                991135268567          000000000221300JUAN DIEGO SANCHEZ PRIETO               001001
000000272                992990617482          000000000223537MARIA ANTONIA HIPOLITO SALVADOR         001001
000000273                991562707147          000000000267555LUIS CRUZ PLATON                        001001
000000274                992619581316          000000000038930JOSE HORACIO ARAMBULA HERNANDEZ         001001
000000275                992933357511          000000000289238JUAN DIEGO REJON GAMBOA                 001001
000000276                991524418321          000000000308935CRISTIAN JESUS ZARAGOZA VAZQUEZ         001001
000000277                991552633393          000000000289231CARLOS MISAEL FLORES MOGOLLON           001001
000000278                991513301377          000000000330664ANA MARGARITA ACUNA SANTANA             001001
000000279                992886484670          000000000330664KARLA KARINA GARZA SILVA                001001
000000280                991596561512          000000000289231MARIANA DEL CARMEN FUENTES ACOSTA       001001
000000281                991147792417          000000000330664JOANA RUBI REYES LOPEZ                  001001
000000282                991528582538          000000000107751SANJUANA ARMENDARIZ SOSA                001001
000000283                991535358054          000000000308935FERNANDO ANTONIO CAMPOS VALDEZ          001001
000000284                991585849104          000000000289238JESSICA ARACELI KOYOC CUA               001001
000000285                991565301513          000000000308935ERICK GALICIA ANTONIO                   001001
000000286                991525947726          000000000308935KARLA SELENE ORLANZZINI BOCANEGRA       001001
000000287                991524873844          000000000267555EMILY DENNISE GONZALEZ CORTES           001001
000000288                991564256093          000000000289231IVAN MORALES SAENZPARDO                 001001
000000289                992889448802          000000000152232JOSUE ALEXANDER HERNANDEZ VERA          001001
000000290                991543018377          000000000289231HECTOR EMMANUEL GARCIA RAMIREZ          001001
000000291                991561246808          000000000390507GLORIA ELENA RAMOS ARAUZ                001001
000000292                992947528191          000000000377343ADRIAN ALVARADO SANCHEZ                 001001
000000293                991544545926          000000000338908BRIGIDA ISABEL GARCIA RODRIGUEZ         001001
000000294                991520115137          000000000278164ARELY NOHEMI BONILLA GONZALEZ           001001
000000295                991540292403          000000000255204KARLA JUDITH HERRERA CORDOVA            001001
000000296                991599310463          000000000289231ADELA SANTIAGO GONZALEZ                 001001
000000297                991121841114          000000000223537MARIA FLOR LARIOS MORALES               001001
000000298                991529307276          000000000267555GUILLERMO ACOSTA DIAZ                   001001
000000299                991550160331          000000000267555LUCERO YURIDIANA ALVAREZ JIMENEZ        001001
000000300                991561457962          000000000289231BRYAN REYES ARCOS                       001001
000000301                991535028378          000000000289231ABIGAIL GONZALEZ ZAVALA                 001001
000000302                991553395553          000000000330664BENJAMIN TERAN FLORES                   001001
000000303                991555721156          000000000252379FRANCISCO DAVID MUNOZ GONZAGA           001001
000000304                991121298097          000000000198094JUAN JESUS ANZALDO SANCHEZ              001001
000000305                991564430924          000000000308935ZULEICA RAMOS CARCANO                   001001
000000306                991501668300          000000000420171GERMAN GONZALEZ RODRIGUEZ               001001
000000307                991513610381          000000000223537ANA KAREN ROJAS CRUZ                    001001
000000308                991521412012          000000000369632SERGIO LUIS CEN UCH                     001001
000000309                991536951978          000000000330664NINFA BEATRIZ ALFONSO ARROYO            001001
000000310                991500525840          000000000267555YADIRA MARIELA ANAYA CHAVEZ             001001
000000311                991555017877          000000000289231EDGAR RAMIREZ LOPEZ                     001001
000000312                991526386329          000000000240506MARIA TERESA RAMOS CERROS               001001
000000313                991526210638          000000000267555MIROSLAVA GUTIERREZ PLASCENCIA          001001
000000314                991534976548          000000000291768JONATHAN GALEANA CORTES                 001001
000000315                991539778621          000000000168625ROBERTO RECIO NIEVES                    001001
000000316                991506409448          000000000223537GABRIELA MERIDA OSORIO                  001001
000000317                991530683929          000000000643820ROGER JONATHAN CARRILLO CHAN            001001
000000318                991547810242          000000000267555RUTH ELIZETH SANCHEZ SALVADOR           001001
000000319                991556543084          000000000267555JESSICA PAMELA PADILLA SALAZAR          001001
000000320                991520801549          000000000289231GUADALUPE MARIA LEYVA ZAZUETA           001001
000000321                991536603316          000000000267555CLARISA DE LOS ANGELES CANUL KU         001001
000000322                991555953712          000000000289231MARIA GUADALUPE VAZQUEZ HERNANDEZ       001001
000000323                991558281629          000000000267555FATIMA RAMON CRUZ                       001001
000000324                991511943149          000000000289231PERLA CIGALA HERNANDEZ                  001001
000000325                991545182232          000000000322854MELISA ABIGAIL BENAVIDES MARTINEZ       001001
000000326                991163787214          000000000289231JAVIER ANTONIO AVILA MARTINEZ           001001
000000327                990476457304          000000000267555ANGELICA FERNANDEZ POLO                 001001
000000328                991537514252          000000000308935JESUS DANIEL SANDOVAL AGUIRRE           001001
000000329                991547417303          000000000330664RAUL BACA GARCIA                        001001
000000330                991510214504          000000000223537GRECIA PAOLA MORALES VARELA             001001
000000331                991529387991          000000000330664MAYRA ASCENCIO VAZQUEZ                  001001
000000332                991571162071          000000000244030EVANGELINA GARCIA RODRIGUEZ             001001
000000333                991555009874          000000000255204FERNANDO ANTONIO GARCIA GONZALEZ        001001
000000334                991525293264          000000000267555EVA LUZ CRUZ HERVERT                    001001
000000335                991521169327          000000000308935SALVADOR PALMER PEREZ                   001001
000000336                991550263109          000000000280664PABLO MISAEL PICAZO GUTIERREZ           001001
000000337                991188381089          000000000076019ANGEL ARTURO RESENDIZ GOMEZ             001001
000000338                991530348406          000000000267555HEDIE GEORGINA HUARACHA NAVARRO         001001
000000339                991596657764          000000000330664OLGA LIDIA MILLAN RIVERA                001001
000000340                991546370108          000000000223537ARACELI REYES PEREZ                     001001
000000341                991501571242          000000000330664MARCO ANTONIO JIMENEZ GUZMAN            001001
000000342                991545282957          000000000460362FELIX ALEJANDRO CASTILLO GUERRERO       001001
000000343                992917663013          000000000223537DALIA GUADALUPE MORALES ORTEGA          001001
000000344                991517155953          000000000260664BEATRIZ ALEJANDRA DE LOS SANTOS ARMEND  001001
000000345                991545697961          000000000308935ABIGAIL SANCHEZ BAUTISTA                001001
000000346                991513252504          000000001062145FRANCISCO GARCIA SERRANO                001001
000000347                991533063844          000000000405066JUDITH ESTEFANY MARTINEZ DELGADO        001001
000000348                992984990730          000000000356563CRISTIAN FUENTES ALVARADO               001001
000000349                991543220203          000000000330664JORGE ABRAHAM TEJEDA RIZO               001001
000000350                992841203312          000000000283897ANA KAREN LOPEZ REYES                   001001
000000351                991545512236          000000000267555MARLEN CASTRO CANO                      001001
000000352                991534868602          000000000289231OMAR SAMORI RAMIREZ GARCIA              001001
000000353                991141271032          000000000038885ALEJANDRA HERNANDEZ GARCIA              001001
000000354                991523469367          000000000289231SANDRA CASTILLO ESPINOSA                001001
000000355                991518561475          000000000267555ERIKA LIZBETH SOLORIO RODRIGUEZ         001001
000000356                991548860335          000000000527642ELEAZAR CALDERON JURADO                 001001
000000357                991524739003          000000000273183EMILIO ALEJANDRO GRACIA PEREZ           001001
000000358                991578345158          000000000215911MARIA GUDELIA CABALLERO CHI             001001
000000359                991583113674          000000000493170ROSA EDITH OLIVARES ESPINOZA            001001
000000360                991565449688          000000000308935ANGEL RODOLFO LEON GALLEGOS             001001
000000361                992876340008          000000000289231MARCO ANTONIO TREVINO REYES             001001
000000362                991531876872          000000000267555HENRY ARAEL VERA XEC                    001001
000000363                991531288547          000000000223537MARIEL FLORES DOMINGUEZ                 001001
000000364                991535708567          000000000289231PRISCILA YITCEL SAMANIEGO RODRIGUEZ     001001
000000365                991569218265          000000000075523DIANA CAROLINA CABALLERO SALMON         001001
000000366                991543777283          000000000291960GERARDO ABEL MARTINEZ RUEDA             001001
000000367                991543450926          000000000267555MARIA YERICAT DE LA TORRE ROSALES       001001
000000368                991537259880          000000000308935ALLFADIR YAKIN RUBIO GALINDO            001001
000000369                991507657351          000000000291768JANOS GERARDO LOZADA JUAREZ             001001
000000370                991501427659          000000000289231ALMA ROSA SARMIENTO RODRIGUEZ           001001
000000371                991504519016          000000000302857JESUS GUILLERMO GOMEZ TLALOLINI         001001
000000372                991502546356          000000000280664EDGAR JOSE GARCIA SARDINA               001001
000000373                991505375700          000000000267555BENEDICTO RIVERA OBISPO                 001001
000000374                991579600922          000000000276875MARIA GUADALUPE PEREZ CARMONA           001001
000000375                991536761154          000000000258567MARIA MONSERRATH SALAZAR MIRANDA        001001
000000376                991541615307          000000000298215DEVANHI NAYELI SANCHEZ MATAMOROS        001001
000000377                991538248055          000000000289231MARICRUZ GONZALEZ MARTINEZ              001001
000000378                991582280205          000000000142622DIANA KARINA VIZGUERRA ROCHA            001001
000000379                991553567420          000000000308935JORGE LUNA CASTILLO                     001001
000000380                991587365772          000000000038929MIGUEL ANGEL MARTINEZ MEDORIO           001001
000000381                991543619696          000000000330664DULCE ABIGAIL VILLAFANA ESTRADA         001001
000000382                991540017548          000000000289230SAGRARIO TRINIDAD RAMIREZ               001001
000000383                991520864968          000000000330664HECTOR JOSE ILLAN DE LA O               001001
000000384                991500418525          000000000308935CYNTHIA VIANEY HERNANDEZ FABIAN         001001
000000385                991526044495          000000000223537DAVID YANEZ AGUIRRE                     001001
000000386                991539856592          000000000037367SARA MICHEL SOLANO CARROUCHE            001001
000000387                991577780648          000000000267555JOSUE GUERRERO GONZALEZ                 001001
000000388                991569534989          000000000283897MARIA FERNANDA VAZQUEZ PEREZ            001001
000000389                992969404414          000000000230542MIGUEL ANGEL CASTRO HERNANDEZ           001001
000000390                991500142673          000000000149165MYRNA GUADALUPE VALDEZ BARRERAS         001001
000000391                991520349120          000000000289231ALEJANDRA CORTEZ MARQUEZ                001001
000000392                991115073650          000000000289231MIGUEL RAMIREZ CERVANTES                001001
000000393                991549569611          000000000271692JUAN URIEL HERNANDEZ CRUZ               001001
000000394                991530325241          000000000289231JAQUELINE GUADALUPE FIGUEROA CERDA      001001
000000395                991163146731          000000000267555MARIO ALEJANDRO GUZMAN QUEZADA          001001
000000396                991519141278          000000000267555KARINA MEJIA SALAS                      001001
000000397                992951136526          000000000308935ERICK ABRAHAM RAMIREZ SAN ROMAN         001001
000000398                991553952048          000000000062034JONATHAN MICHAEL GONZALEZ VERAZAS       001001
000000399                991245776406          000000000289231JOSEFINA DIAZ MERINOS                   001001
000000400                991537503161          000000000308935SARAHI ANTELO LOYA                      001001
000000401                991582539503          000000000289231PERFECTO ZARATE LOPEZ                   001001
000000402                991524470407          000000000289231ATALA GIOVANNA TEJEDA HERNANDEZ         001001
000000403                991548184774          000000000267555ALEXIS MICHELLE LUJANO BELTRAN          001001
000000404                991562156876          000000000267555MIGUEL ALFREDO DIAZ BACAB               001001
000000405                991544344998          000000000289231MAYRA MARTINEZ BAUTISTA                 001001
000000406                992894163818          000000000308935NAUM ALONSO RODRIGUEZ                   001001
000000407                991566844106          000000000223537BEATRIZ SALAZAR SANTOS                  001001
000000408                991536709815          000000000267555MARIA DEL CARMEN HERNANDEZ GOMEZ        001001
000000409                992797345631          000000000209555GLENDA IVONE PACHECO PANTOJA            001001
000000410                991572749583          000000000230898ALMA ROSA DE DIEGO HUERTA               001001
000000411                991558745334          000000000267555JULIAN ALFONSO MATA CASTILLO            001001
000000412                991534000814          000000000223537YULIANA MARTINEZ CASTRO                 001001
000000413                991534441955          000000000289231LAURA NOEMI RAMOS SOLIS                 001001
000000414                991598408893          000000000643804JUAN MANUEL ESPINOSA JARAMILLO          001001
000000415                992992560038          000000000268184VERONICA MARIA SAUCEDO GALVAN           001001
000000416                991562520265          000000000308935ROCIO ABIGAIL MENDOZA ARREDONDO         001001
000000417                991535009959          000000000037325ANALY GOMEZ REYES                       001001
000000418                991526610323          000000000267555ALEJANDRO MARIN MARTINEZ                001001
000000419                991510730826          000000000330664EDITH DEL SOCORRO DZIB HU               001001
000000420                991536296421          000000000267555MARIA CANDELARIA CASTILLO RODRIGUEZ     001001
000000421                991547424248          000000000289231MELANIE GISELLE LARA DIAZ               001001
000000422                991517847510          000000000271219JONATHAN ALFREDO ROMERO DURAN           001001
000000423                991557528054          000000000192995JAIME MENDOZA VALENCIA                  001001
000000424                991540704444          000000000330664PAKAL ROSALES GUERRERO                  001001
000000425                991519473609          000000000330664TITO ALEXSAIN PACHECO ESPINOZA          001001
000000426                991579271883          000000000267555MARIA ELIZABETH HERRADA CAMARILLO       001001
000000427                991507338152          000000000330664JOEL EDUARDO SILVA RAMIREZ              001001
000000428                991533299195          000000000280540MARIA GUADALUPE NAVARRO                 001001
000000429                990455112931          000000000289231RAFAEL CASTILLO CHAVEZ                  001001
000000430                991522615149          000000000308935RAYMUNDO GARCIA CAMPOS                  001001
000000431                991536958680          000000000223537SANDRA CAMACHO MUNOZ                    001001
000000432                991599149752          000000000308935LAURA ELIZABETH GUTIERREZ BARAJAS       001001
000000433                991597097754          000000000308935DAVID LEDEZMA CORONEL                   001001
000000434                991597312444          000000000330664BEATRIZ RODRIGUEZ JUAREZ                001001
000000435                991525413556          000000000267555JUAN GILBERTO UC POOT                   001001
000000436                991565436993          000000000112775JESSICA NOHEMI ALVAREZ SANCHEZ          001001
000000437                991562832112          000000000289231JUAN MIGUEL LEMUS DIAZ                  001001
000000438                991568210147          000000000289231CITLALY GUADALUPE GUTIERREZ HERNANDEZ   001001
000000439                991511067369          000000000289231ANAHI SANTOS HERNANDEZ                  001001
000000440                992846791514          000000000308935JORGE LEONARDO FLORES CHAVEZ            001001
000000441                991543437658          000000000366130ROSENDO CASTRO SERNA                    001001
000000442                991507374818          000000000289231MARIA ISABEL MANZANO LOPEZ              001001
000000443                991565288573          000000000322854ERIKA KARINA SANCHEZ RAMIREZ            001001
000000444                991526610695          000000000267555JOSE ANTONIO AVINA DIAZ                 001001
000000445                991571992026          000000000310204ERICK YAMIL RICARDO GARCIA RESENDIZ     001001
000000446                991585738086          000000000330664MOISES ALEJANDRO GALINDO QUINONES       001001
000000447                991142503654          000000000237487SANDRA ESTEBAN HERNANDEZ                001001
000000448                992979988890          000000000267555MARILU MARTINEZ ALVAREZ                 001001
000000449                991525538838          000000000330664CAROLINA GARZA LEIJA                    001001
000000450                991564539907          000000000267555HILDA GUADALUPE HERNANDEZ DIAZ          001001
000000451                991571209046          000000000152730ALEJANDRO LOPEZ ALONSO                  001001
000000452                991516059756          000000000330664EDGAR ALEJANDRO MORALES LOPEZ           001001
000000453                991573914461          000000000527642TANYA JIMENA MEDINA PINA                001001
000000454                991526092660          000000000289231SERGIO ELIUTH HUGHES RODRIGUEZ          001001
000000455                991516322522          000000000289231NAOMI CHAVARIN MADRIGAL                 001001
000000456                991564128281          000000000289231MAXIMILIANO AMARO JIMENEZ               001001
000000457                991539865248          000000000289231CAROL DENISSE CONTRERAS CABADA          001001
000000458                992907448570          000000000314881ALBERTO ALONSO MENDOZA VAZQUEZ          001001
000000459                991586131387          000000000204356MARIA DEL CARMEN CASTRO FLORES          001001
000000460                992937265328          000000000262716BERTHA ALICIA PERALES GARCIA            001001
000000461                991568170668          000000000399510ERICKA ELIZABETH ZACARIAS SANCHEZ       001001
000000462                991504449536          000000000219170GRECIA ALEJANDRA MONTANO GARCIA         001001
000000463                992875833531          000000000435408SANDRA IBARRA GARCIA                    001001
000000464                991592525677          000000000414027REYES OSVALDO ALANIS PICAZO             001001
000000465                991535721563          000000000638656EDGAR GUILLERMO ARAGON NAVARRO          001001
000000466                991569589201          000000000122864JOSE ALFREDO HERNANDEZ CHAVEZ           001001
000000467                991580022306          000000000366115BULMARO DANIEL ELIZARRARAS GONZALEZ     001001
000000468                991506963658          000000000198865IMELDA SANCHEZ SANDOVAL                 001001
000000469                991597679974          000000000330664MARIA RITA ADRIANA ZARATE RICO          001001
000000470                991539887722          000000000330664MISAEL CORTEZ ARENAS                    001001
000000471                991507264213          000000000283897MARIA FERNANDA MUNOZ NOYOLA             001001
000000472                991507954856          000000000330664JOSEFINA MEDINA GARCIA                  001001
000000473                991535217584          000000000330664LIZETH GUADALUPE PEREZ CARREON          001001
000000474                991477432399          000000000330664JUANITA ALEJANDRA ZAMUDIO REYES         001001
000000475                991597231894          000000000267555HEIDI MANZO SANCHEZ                     001001
000000476                991592887056          000000000242871GENY LILIANA HERNANDEZ NUNEZ            001001
000000477                991519783202          000000001075226GILBERTO DOMINGUEZ RODRIGUEZ            001001
000000478                991579302360          000000000232530ELIZABETH MIRELES ZARAGOZA              001001
000000479                991529850506          000000000192990VICTORIA AIXA PEREZ AVILA               001001
000000480                991551962035          000000000527192FRANCISCO GUERRA GONZALEZ               001001
000000481                991564488571          000000000289231MARIA DEL REFUGIO MOLINA IBOA           001001
000000482                992871159186          000000000542900JOSE CARLOS ARRAZATE JOSE               001001
000000483                992949140816          000000000720182KAROLA SILVANA RIVERA MORALES           001001
000000484                990473231429          000000000267555JHOVANNY MARTINEZ HERNANDEZ             001001
000000485                990457186428          000000000242299DELIA GUADALUPE HEREDIA GARCIA          001001
000000486                991571289608          000000000267555JULIO CESAR GODOY TOLENTINO             001001
000000487                992723086011          000000000097785ELIZABETH TORRES RAMOS                  001001
000000488                991516689496          000000000218338GUADALUPE VANESSA SIMENTAL NEVAREZ      001001
000000489                991513114934          000000000586735BLANCA ESTELA GARCIA HERNANDEZ          001001
000000490                991163070387          000000000267548JORGE LUIS GONZALEZ GARCIA              001001
000000491                992899365125          000000000366104LILIANA MONTANO GARCIA                  001001
000000492                991527450489          000000001247255GIBRAN GERMAN VALDEZ CHAVEZ             001001
000000493                991536999454          000000000197536SUSANA PATRICIA LARIOS PALACIOS         001001
000000494                992718706395          000000000267548VIOLETA LIZETH CARRILLO MENDIOLA        001001
000000495                991531856815          000000000323446HUGO GUERRERO IZAGUIRRE                 001001
000000496                990465162025          000000000049897KARLA YADIRA ESPARZA ALONSO             001001
000000497                991545667308          000000000330653ADRIANA ANAHY AVILA IRACHETA            001001
000000498                991501236469          000000000377541LIZETH ADRIANA CORONADO SANCHEZ         001001
000000499                992913009637          000000000125547VICTOR VARGAS GALINDO                   001001
000000500                991568061460          000000000298916ELIZABET DIAZ VILLANUEVA                001001
