65508020750     012180015828299598BACOMMARISOL HERNANDEZ DIAZ                  10010000000004702260100137 PAGO POR CUENTA Y ORDEN SUELDO                                                                                                 0000001
65508020750     012540015002717083BACOMMARIANA PAREDES MILLAN                  10010000000005284490100137 PAGO POR CUENTA Y ORDEN SUELDO                                                                                                 0000002
65508020750     012542028811374767BACOMHUGO HERNANDEZ HERRERA                  10010000000008112070100137 PAGO POR CUENTA Y ORDEN SUELDO                                                                                                 0000003
65508020750     012180015632119084BACOMSHEIRAN NETTEL CARMONA                  10010000000005426180100137 PAGO POR CUENTA Y ORDEN SUELDO                                                                                                 0000004
65508020750     012420004569103944BACOMANA KAREN DE LA CRUZ CALDERON           10010000000004478170100137 PAGO POR CUENTA Y ORDEN SUELDO                                                                                                 0000005
65508020750     012540029598355550BACOMADRIANA BALDERAS GARCIA                 10010000000004478170100137 PAGO POR CUENTA Y ORDEN SUELDO                                                                                                 0000006
65508020750     012544015470368222BACOMYESSICA ISABEL VEGA ALCANTARA           10010000000005284690100137 PAGO POR CUENTA Y ORDEN SUELDO                                                                                                 0000007
65508020750     012426015249100959BACOMYESSICA ESTRADA ALDAMA                  10010000000004478230100137 PAGO POR CUENTA Y ORDEN SUELDO                                                                                                 0000008
65508020750     012180004691795939BACOMJORDAN JAIR MARGARITO DAMIAN            10010000000005286100100137 PAGO POR CUENTA Y ORDEN SUELDO                                                                                                 0000009
65508020750     012444015690329219BACOMCITLALI MORALES SUAREZ                  10010000000003757120100137 PAGO POR CUENTA Y ORDEN SUELDO                                                                                                 0000010
65508020750     012180028905190141BACOMMIGUEL ANGEL CABRERA ANGELES            10010000000003816060100137 PAGO POR CUENTA Y ORDEN SUELDO                                                                                                 0000011
65508020750     012180029822533055BACOMFLORICELA SANCHEZ GARCIA                10010000000005284690100137 PAGO POR CUENTA Y ORDEN SUELDO                                                                                                 0000012
65508020750     012180004670082016BACOMSANAE NAVA SILVA                        10010000000009139630100137 PAGO POR CUENTA Y ORDEN SUELDO                                                                                                 0000013
65508020750     012180015089238767BACOMGABRIELA GARDUNO ACEVES                 10010000000005683000100137 PAGO POR CUENTA Y ORDEN SUELDO                                                                                                 0000014
65508020750     012180015149496876BACOMDANIELA ITZEL LOPEZ ALEMAN              10010000000007591790100137 PAGO POR CUENTA Y ORDEN SUELDO                                                                                                 0000015
65508020750     012180015568442207BACOMJANET ANDREA GARCIA RODRIGUEZ           10010000000007035190100137 PAGO POR CUENTA Y ORDEN SUELDO                                                                                                 0000016
65508020750     012180015819570666BACOMANA YANIN HUERTA GONZALEZ               10010000000005683000100137 PAGO POR CUENTA Y ORDEN SUELDO                                                                                                 0000017
65508020750     012180015517371581BACOMANAHI ALTAMIRANO HERNANDEZ              10010000000007592070100137 PAGO POR CUENTA Y ORDEN SUELDO                                                                                                 0000018
65508020750     012180011330557955BACOMOMAR ZERMENO NUNEZ                      10010000000004886080100137 PAGO POR CUENTA Y ORDEN SUELDO                                                                                                 0000019
65508020750     012133011515931880BACOMBRENDA PAOLA BRAVO CASTELLANOS          10010000000004732640100137 PAGO POR CUENTA Y ORDEN SUELDO                                                                                                 0000020
65508020750     012100015200855459BACOMJUAN CARLOS HERNANDEZ ALVAREZ           10010000000006259880100137 PAGO POR CUENTA Y ORDEN SUELDO                                                                                                 0000021
65508020750     012180015428838993BACOMJOSE LUIS GALDAMEZ PEREZ                10010000000005284690100137 PAGO POR CUENTA Y ORDEN SUELDO                                                                                                 0000022
65508020750     012180015294775206BACOMCUAUHTEMOC DONOVAN VAZQUEZ QUINTO       10010000000004478170100137 PAGO POR CUENTA Y ORDEN SUELDO                                                                                                 0000023
65508020750     012837015120022729BACOMTANIA ARCELIA VAZQUEZ CORDOVA           10010000000007592070100137 PAGO POR CUENTA Y ORDEN SUELDO                                                                                                 0000024
65508020750     012905015120049171BACOMPEDRO DAMIAN MARTINEZ BLANCO            10010000000004478170100137 PAGO POR CUENTA Y ORDEN SUELDO                                                                                                 0000025
65508020750     012650015216125490BACOMCARLOS ALBERTO MENDOZA ORTIZ            10010000000004478170100137 PAGO POR CUENTA Y ORDEN SUELDO                                                                                                 0000026
65508020750     012290014021592365BACOMVALENTIN LORENZO FILER                  10010000000003403550100137 PAGO POR CUENTA Y ORDEN SUELDO                                                                                                 0000027
65508020750     012813015136207785BACOMJERONIMO DEL ANGEL GARCIA               10010000000004478170100137 PAGO POR CUENTA Y ORDEN SUELDO                                                                                                 0000028
65508020750     012832015407369566BACOMCAROLINA MENDOZA MENDEZ                 10010000000003621340100137 PAGO POR CUENTA Y ORDEN SUELDO                                                                                                 0000029
65508020750     012905028694524009BACOMEDNA GISELDA CARDENA MUNOZ              10010000000004478170100137 PAGO POR CUENTA Y ORDEN SUELDO                                                                                                 0000030
65508020750     012700028619445339BACOMJOSE ANGEL MARTINEZ CRUZ                10010000000006181950100137 PAGO POR CUENTA Y ORDEN SUELDO                                                                                                 0000031
65508020750     012109029577873591BACOMFREDY GABRIEL VELASCO VELASCO           10010000000007622560100137 PAGO POR CUENTA Y ORDEN SUELDO                                                                                                 0000032
65508020750     012312015126563613BACOMTANIA LISBETH VARGAS CASTRO             10010000000007592070100137 PAGO POR CUENTA Y ORDEN SUELDO                                                                                                 0000033
65508020750     012180015109743556BACOMERIC OBED PARRA COTA                    10010000000012011920100137 PAGO POR CUENTA Y ORDEN SUELDO                                                                                                 0000034
65508020750     012180015490801550BACOMOSCAR EMIR CRUZ ILLESCAS                10010000000005027840100137 PAGO POR CUENTA Y ORDEN SUELDO                                                                                                 0000035
65508020750     012180015901136141BACOMANA PATRICIA AQUINO CHAVEZ              10010000000005877060100137 PAGO POR CUENTA Y ORDEN SUELDO                                                                                                 0000036
65508020750     012133028711591868BACOMJOSE CARLOS ARRAZATE JOSE               10010000000005439130100137 PAGO POR CUENTA Y ORDEN SUELDO                                                                                                 0000037
65508020750     012180015493178565BACOMMARCELA LOPEZ ORTEGA                    10010000000004875160100137 PAGO POR CUENTA Y ORDEN SUELDO                                                                                                 0000038
65508020750     012180015890899968BACOMCESAR ANASTACIO DEL ANGEL               10010000000006180370100137 PAGO POR CUENTA Y ORDEN SUELDO                                                                                                 0000039
65508020750     012180015584118670BACOMCARLOS JESUS PINON TREJO                10010000000007258740100137 PAGO POR CUENTA Y ORDEN SUELDO                                                                                                 0000040
65508020750     012180015488016849BACOMJOSE ARTURO MORENO ZARATE               10010000000004393210100137 PAGO POR CUENTA Y ORDEN SUELDO                                                                                                 0000041
65508020750     012180015564239760BACOMLADY TANIA CELAYA MENDOZA               10010000000005284690100137 PAGO POR CUENTA Y ORDEN SUELDO                                                                                                 0000042
65508020750     012180015192850676BACOMLUCERO ALVAREZ GONZALEZ                 10010000000004478170100137 PAGO POR CUENTA Y ORDEN SUELDO                                                                                                 0000043
65508020750     012180015473524540BACOMFERNANDA ISABEL SOLANO ROJAS            10010000000003704380100137 PAGO POR CUENTA Y ORDEN SUELDO                                                                                                 0000044
65508020750     012180015486644983BACOMCINTHIA VERENICE ARTIGAS LOPEZ          10010000000003894840100137 PAGO POR CUENTA Y ORDEN SUELDO                                                                                                 0000045
65508020750     012320015925256773BACOMREYES OSVALDO ALANIS PICAZO             10010000000004153320100137 PAGO POR CUENTA Y ORDEN SUELDO                                                                                                 0000046
65508020750     012180015584438004BACOMISELA ROSAS LARA                        10010000000004478170100137 PAGO POR CUENTA Y ORDEN SUELDO                                                                                                 0000047
65508020750     012637029462543149BACOMGABRIELA DEL CARMEN GUZMAN MARTINEZ     10010000000005284690100137 PAGO POR CUENTA Y ORDEN SUELDO                                                                                                 0000048
65508020750     012180015517298745BACOMJOSE ADOLFO MORENO BECERRIL             10010000000012073250100137 PAGO POR CUENTA Y ORDEN SUELDO                                                                                                 0000049
65508020750     012050015435217640BACOMCATHERINEE JOSELYN SOSA SARMIENTO       10010000000003163110100137 PAGO POR CUENTA Y ORDEN SUELDO                                                                                                 0000050
65508020750     012832015214548622BACOMELIAS MERINO HERNANDEZ                  10010000000004478170100137 PAGO POR CUENTA Y ORDEN SUELDO                                                                                                 0000051
65508020750     012260015640739350BACOMNOE JALIL ALAS GALLARDO                 10010000000003311180100137 PAGO POR CUENTA Y ORDEN SUELDO                                                                                                 0000052
65508020750     012109015744726595BACOMJOSE ALFREDO GIRON SANCHEZ              10010000000004506600100137 PAGO POR CUENTA Y ORDEN SUELDO                                                                                                 0000053
65508020750     012540015555502651BACOMIRIS VIRIDIANA TORRES GUTIERREZ         10010000000004978170100137 PAGO POR CUENTA Y ORDEN SUELDO                                                                                                 0000054
65508020750     012700015206987145BACOMMARIA ANTONIA LOPEZ HERNANDEZ           10010000000005884690100137 PAGO POR CUENTA Y ORDEN SUELDO                                                                                                 0000055
65508020750     012130015634021421BACOMSANDRA GUADALUPE RUIZ FONSECA           10010000000004056600100137 PAGO POR CUENTA Y ORDEN SUELDO                                                                                                 0000056
65508020750     012180015368871272BACOMITZUMY VIRIDIANA CRUZ SALGADO           10010000000004056600100137 PAGO POR CUENTA Y ORDEN SUELDO                                                                                                 0000057
65508020750     012650029849907301BACOMCRISTIAN FUENTES ALVARADO               10010000000004478170100137 PAGO POR CUENTA Y ORDEN SUELDO                                                                                                 0000058
65508020750     012225015330638447BACOMJUDITH ESTEFANY MARTINEZ DELGADO        10010000000004056590100137 PAGO POR CUENTA Y ORDEN SUELDO                                                                                                 0000059
65508020750     012580015452829578BACOMFELIX ALEJANDRO CASTILLO GUERRERO       10010000000004610550100137 PAGO POR CUENTA Y ORDEN SUELDO                                                                                                 0000060
65508020750     012180015966577648BACOMOLGA LIDIA MILLAN RIVERA                10010000000003311180100137 PAGO POR CUENTA Y ORDEN SUELDO                                                                                                 0000061
65508020750     012180015288101611BACOMLILIA MANUEL FERNANDEZ                  10010000000004478170100137 PAGO POR CUENTA Y ORDEN SUELDO                                                                                                 0000062
65508020750     012580015493232182BACOMPABLO ALBERTO MONTES NINO               10010000000003157420100137 PAGO POR CUENTA Y ORDEN SUELDO                                                                                                 0000063
65508020750     012180015487063084BACOMGABRIELA REBECA MEDINA LANDIN           10010000000003311180100137 PAGO POR CUENTA Y ORDEN SUELDO                                                                                                 0000064
65508020750     012180015853794440BACOMMAGALY GARCIA GARCIA                    10010000000004478170100137 PAGO POR CUENTA Y ORDEN SUELDO                                                                                                 0000065
65508020750     012760015191987546BACOMJANIRA LURIEET CASTILLO RAMOS           10010000000005284690100137 PAGO POR CUENTA Y ORDEN SUELDO                                                                                                 0000066
65508020750     012180015027296088BACOMPAOLA NEGRETE GONZALEZ                  10010000000003621340100137 PAGO POR CUENTA Y ORDEN SUELDO                                                                                                 0000067
65508020750     012180015119442740BACOMGUADALUPE GUSTAVO JUAREZ HERNANDEZ      10010000000005148730100137 PAGO POR CUENTA Y ORDEN SUELDO                                                                                                 0000068
65508020750     012180015565711892BACOMCECILIA PIMENTEL RODRIGUEZ              10010000000006448730100137 PAGO POR CUENTA Y ORDEN SUELDO                                                                                                 0000069
65508020750     012180015226828341BACOMGABRIELA LEZAMA SALAZAR                 10010000000003621340100137 PAGO POR CUENTA Y ORDEN SUELDO                                                                                                 0000070
65508020750     012180015578061131BACOMEDALI BASTIDA MARTINEZ                  10010000000004478170100137 PAGO POR CUENTA Y ORDEN SUELDO                                                                                                 0000071
65508020750     012180015634781889BACOMMOISES EDUARDO BELTRAN SANCHEZ          10010000000003057280100137 PAGO POR CUENTA Y ORDEN SUELDO                                                                                                 0000072
65508020750     012180015260181099BACOMGUADALUPE DE JESUS DIAZ POLANCO         10010000000002859450100137 PAGO POR CUENTA Y ORDEN SUELDO                                                                                                 0000073
65508020750     012180015637393999BACOMDAYRA MARLENE REYES USCANGA             10010000000002859450100137 PAGO POR CUENTA Y ORDEN SUELDO                                                                                                 0000074
65508020750     012877015066610954BACOMJESUS FRANCISCO SANTOS VAZQUEZ          10010000000003621340100137 PAGO POR CUENTA Y ORDEN SUELDO                                                                                                 0000075
65508020750     012180015199830123BACOMKARINA HERNANDEZ HERNANDEZ              10010000000003311180100137 PAGO POR CUENTA Y ORDEN SUELDO                                                                                                 0000076
65508020750     012813015420689556BACOMMARIA CONCEPCION ANTONIO MORALES        10010000000004056600100137 PAGO POR CUENTA Y ORDEN SUELDO                                                                                                 0000077
65508020750     012296015516939216BACOMJUANA LIZBETH HERNANDEZ HERNANDEZ       10010000000005286290100137 PAGO POR CUENTA Y ORDEN SUELDO                                                                                                 0000078
65508020750     012180015005942309BACOMGUADALUPE AGUILAR ESCOBEDO              10010000000004056600100137 PAGO POR CUENTA Y ORDEN SUELDO                                                                                                 0000079
65508020750     012180015985912815BACOMENNER ESPINOSA HERNANDEZ                10010000000003621340100137 PAGO POR CUENTA Y ORDEN SUELDO                                                                                                 0000080
65508020750     012180015753955745BACOMOSCAR ALEJANDRO MANDUJANO SILVA         10010000000004478170100137 PAGO POR CUENTA Y ORDEN SUELDO                                                                                                 0000081
65508020750     012180015746757866BACOMCHIRSTIAN ARACELI VILLALPANDO FLORES    10010000000004056600100137 PAGO POR CUENTA Y ORDEN SUELDO                                                                                                 0000082
65508020750     012060015488074231BACOMRODRIGO HUMBERTO TERRONES CEDILLO       10010000000004056600100137 PAGO POR CUENTA Y ORDEN SUELDO                                                                                                 0000083
65508020750     012885015837981121BACOMMARIA DE LOURDES ELIA DIAZ ALVARADO     10010000000003621340100137 PAGO POR CUENTA Y ORDEN SUELDO                                                                                                 0000084
65508020750     012180011175931040BACOMJONATHAN ANTONIO CANEDO RAMIREZ         10010000000003621340100137 PAGO POR CUENTA Y ORDEN SUELDO                                                                                                 0000085
65508020750     012180015991197983BACOMGABRIELA TORRES PADRON                  10010000000003621340100137 PAGO POR CUENTA Y ORDEN SUELDO                                                                                                 0000086
65508020750     012180015438552803BACOMBRANDON MARTINEZ AGUILAR                10010000000003621340100137 PAGO POR CUENTA Y ORDEN SUELDO                                                                                                 0000087
65508020750     012180015524888795BACOMGABRIELA NAVARRETE MARTINEZ             10010000000003621340100137 PAGO POR CUENTA Y ORDEN SUELDO                                                                                                 0000088
65508020750     012180015498110722BACOMCARMEN ABIGAIL DOMINGUEZ RAMIREZ        10010000000003621340100137 PAGO POR CUENTA Y ORDEN SUELDO                                                                                                 0000089
65508020750     012180015321198730BACOMOLGA XATZIE GARCIA CARDENAS             10010000000005284690100137 PAGO POR CUENTA Y ORDEN SUELDO                                                                                                 0000090
65508020750     012975074780262589BACOMANGELICA GUADALUPE ORTIZ DOMINGUEZ      10010000000002475250100137 PAGO POR CUENTA Y ORDEN SUELDO                                                                                                 0000091
