65508015015     002580902552286671  BANAMLUIS RICARDO IBARRA VILLARREAL          100100000000028200001001DEPOSI                                                                                                                            0000001
65508015015     002650902583024936  BANAMVICTOR DAVID VELAZQUEZ GONZALEZ         100100000000011745001001DEPOSI                                                                                                                            0000002
65508015015     002233901615608033  BANAMALEJANDRO PADILLA OLIVARES              100100000000052230001001DEPOSI                                                                                                                            0000003
65508015015     002215902588761396  BANAMMARIA SUSANA ALVAREZ BUSTAMANTE         100100000000027899001001DEPOSI                                                                                                                            0000004
65508015015     002320902608625362  BANAMRAQUEL BERENICE PEREZ GARCIA            100100000000027327501001DEPOSI                                                                                                                            0000005
65508015015     002537902012032512  BANAMELI MAGALI MEDINA GARCIA                100100000000005816401001DEPOSI                                                                                                                            0000006
65508015015     002225903940033512  BANAMFRANCISCO MARTIN BARAJAS GONZALEZ       100100000000016281601001DEPOSI                                                                                                                            0000007
65508015015     002040902525404069  BANAMGABRIELA CASTILLEJOS ESPONDA            100100000000011407501001DEPOSI                                                                                                                            0000008
65508015015     002239902814100157  BANAMMAGDALENA GARCIA CRUZ                   100100000000003389501001DEPOSI                                                                                                                            0000009
65508015015     002650902835037891  BANAMOSCAR MANUEL ESPINOZA HERNANDEZ         100100000000008850001001DEPOSI                                                                                                                            0000010
65508015015     002650701019435164  BANAMNATHALI RUIZ ESTRADA                    100100000000008850001001DEPOSI                                                                                                                            0000011
65508015015     002668700686911907  BANAMERICK CORDERO HERNANDEZ                 100100000000029310001001DEPOSI                                                                                                                            0000012
65508015015     002320902892243424  BANAMHECTOR RUBEN GARCIA BEJARANO            100100000000021750001001DEPOSI                                                                                                                            0000013
65508015015     002470902894823255  BANAMCARLOS ANTONIO LOVERA CAZARES           100100000000003389501001DEPOSI                                                                                                                            0000014
65508015015     002650901826230828  BANAMBEATRIZ ELENA VALERO MAGANA             100100000000016173101001DEPOSI                                                                                                                            0000015
65508015015     002650902892116315  BANAMDULCE MARIA ALANIS MORALES              100100000000019450001001DEPOSI                                                                                                                            0000016
65508015015     002543902917926924  BANAMPAULINA ARENAS MARTINEZ                 100100000000003389501001DEPOSI                                                                                                                            0000017
65508015015     002210902974401197  BANAMARACELI MARTINEZ GUTIERREZ              100100000000017270001001DEPOSI                                                                                                                            0000018
65508015015     002320903196279355  BANAMHUMBERTO ORENDAIN PEREZ                 100100000000013740001001DEPOSI                                                                                                                            0000019
65508015015     002650903407553825  BANAMYARED ALEXANDRA MENDIETA ESTANDIA       100100000000027403301001DEPOSI                                                                                                                            0000020
65508015015     002650903567970267  BANAMMIRIAM ALVAREZ ROJAS                    100100000000028380001001DEPOSI                                                                                                                            0000021
65508015015     002650903597301275  BANAMJESUS JAVIER TORRES GOMEZ               100100000000014265001001DEPOSI                                                                                                                            0000022
65508015015     002650903624621682  BANAMHECTOR RAMIREZ NICANOR                  100100000000003389501001DEPOSI                                                                                                                            0000023
65508015015     002650903647801913  BANAMADRIANA DE JESUS JIMENEZ                100100000000003389501001DEPOSI                                                                                                                            0000024
65508015015     002244903653808989  BANAMPEDRO CUELLAR GALLARDO                  100100000000031550001001DEPOSI                                                                                                                            0000025
65508015015     002225903578021983  BANAMDIANA MILAGROS GARCIA NAVARRO           100100000000003389501001DEPOSI                                                                                                                            0000026
65508015015     002650903675054347  BANAMERIKA HERNANDEZ BRAVO                   100100000000025310301001DEPOSI                                                                                                                            0000027
65508015015     002010903723122965  BANAMJOSE ADRIAN RAMIREZ ROSALES             100100000000003389501001DEPOSI                                                                                                                            0000028
65508015015     002244903784616927  BANAMGRACIELA ESTEFANIA HERNANDEZ ESPINOZA   100100000000003389501001DEPOSI                                                                                                                            0000029
65508015015     002667903777824523  BANAMSERGIO PEREZ IGLESIAS                   100100000000014751001001DEPOSI                                                                                                                            0000030
65508015015     002320903831099997  BANAMANA ROSA DE ANDA MORALES                100100000000005200001001DEPOSI                                                                                                                            0000031
65508015015     002010903840596694  BANAMAMADOR ALONSO ARCEO                     100100000000020160001001DEPOSI                                                                                                                            0000032
65508015015     002260903852719633  BANAMMARCO ANTONIO SANCHEZ VAZQUEZ           100100000000005200001001DEPOSI                                                                                                                            0000033
65508015015     002375903872579337  BANAMSARA MONSERRAT JUAREZ LOPEZ             100100000000014700001001DEPOSI                                                                                                                            0000034
65508015015     002650903878754596  BANAMANGELICA APARICIO ALVAREZ               100100000000003389501001DEPOSI                                                                                                                            0000035
65508015015     002650903899099544  BANAMGUADALUPE PATRICIA MENDOZA GARCIA       100100000000003389501001DEPOSI                                                                                                                            0000036
65508015015     002543903905798875  BANAMPAOLA LETICIA GOMEZ GALICIA             100100000000012700001001DEPOSI                                                                                                                            0000037
65508015015     002320903767005259  BANAMEMMANUEL SANDOVAL SOLTERO               100100000000101600001001DEPOSI                                                                                                                            0000038
65508015015     002540904417071419  BANAMROSA NAJERA MARTINEZ                    100100000000009435001001DEPOSI                                                                                                                            0000039
65508015015     002546904236455032  BANAMDAVID QUINTANA DIAZ                     100100000000017215001001DEPOSI                                                                                                                            0000040
65508015015     002180902683756852  BANAMJUAN MANUEL RAMOS CALIXTO               100100000000015165001001DEPOSI                                                                                                                            0000041
65508015015     002180901941946596  BANAMAYDEE DE DIOS CANO                      100100000000003666001001DEPOSI                                                                                                                            0000042
65508015015     002180902064700883  BANAMMARISOL VIDAL CRUZ                      100100000000027800001001DEPOSI                                                                                                                            0000043
65508015015     002670902179991961  BANAMLAURA PATRICIA CECILIO LEONARDO         100100000000003648501001DEPOSI                                                                                                                            0000044
65508015015     002545902200378342  BANAMFRANCISCA NAVA RODRIGUEZ                100100000000003684001001DEPOSI                                                                                                                            0000045
65508015015     002540902221879223  BANAMMARTIN ONOFRE TEODORO                   100100000000004258001001DEPOSI                                                                                                                            0000046
65508015015     002225902249644386  BANAMGLORIA CRISTINA MORENO GONZALEZ         100100000000003110201001DEPOSI                                                                                                                            0000047
65508015015     002540902251004961  BANAMCLAUDIA NIETO BENITEZ                   100100000000008850001001DEPOSI                                                                                                                            0000048
65508015015     002650902270085385  BANAMLUCERO CLARIBEL HERNANDEZ BAROJAS       100100000000021200001001DEPOSI                                                                                                                            0000049
65508015015     002650902281647628  BANAMROSALBA LOPEZ PAIS                      100100000000015357701001DEPOSI                                                                                                                            0000050
65508015015     002222900816875868  BANAMALEJANDRO CANSECO MONJARDIN             100100000000111765201001DEPOSI                                                                                                                            0000051
65508015015     002320902254515156  BANAMERNESTO ZAMBRANO AGUILAR                100100000000029200001001DEPOSI                                                                                                                            0000052
65508015015     002225902405682328  BANAMMONICA HORTA SALDANA                    100100000000003525001001DEPOSI                                                                                                                            0000053
65508015015     002210902411137940  BANAMYESSICA LEONOR MARTINEZ REGALADO        100100000000017010001001DEPOSI                                                                                                                            0000054
65508015015     002540902446406552  BANAMJOSE VICTOR DIAZ ROMAN                  100100000000017897501001DEPOSI                                                                                                                            0000055
65508015015     002650902465686094  BANAMALBERTO PEDRO HERNANDEZ VAZQUEZ         100100000000016972601001DEPOSI                                                                                                                            0000056
65508015015     002542901166087739  BANAMMOISES FLORES ATILANO                   100100000000046150001001DEPOSI                                                                                                                            0000057
65508015015     002225901212373410  BANAMANA ANGELICA TORRES HERNANDEZ           100100000000015950001001DEPOSI                                                                                                                            0000058
65508015015     002700901455851463  BANAMCESAR REYES GARCIA                      100100000000030618001001DEPOSI                                                                                                                            0000059
65508015015     002540902346688373  BANAMANICETO HERNANDEZ ROSAS                 100100000000018327701001DEPOSI                                                                                                                            0000060
65508015015     002542900888243098  BANAMMARIA DEL ROSARIO ANZURES SANTOS        100100000000025256501001DEPOSI                                                                                                                            0000061
65508015015     002180901080057414  BANAMJHEYNY ORTEGA IBARRA                    100100000000003748701001DEPOSI                                                                                                                            0000062
65508015015     002222904058217280  BANAMLORENA OLVERA GARCIA                    100100000000042106001001DEPOSI                                                                                                                            0000063
65508015015     002650901587461062  BANAMFRANCISCO VELAZQUEZ CASTILLO            100100000000019073301001DEPOSI                                                                                                                            0000064
65508015015     002650901706733432  BANAMCYNTHIA GUADALUPE AGUILAR GONZALEZ      100100000000041700001001DEPOSI                                                                                                                            0000065
65508015015     002225904075069272  BANAMDALIA SARAHI HERNANDEZ REYNOSO          100100000000002515001001DEPOSI                                                                                                                            0000066
65508015015     002222901729586557  BANAMARTURO JUAN IGNACIO GONZALEZ BARROSO    100100000000038847001001DEPOSI                                                                                                                            0000067
65508015015     002320902089946026  BANAMESTHER MAGDALENA CEDILLO OLIVARES       100100000000005915901001DEPOSI                                                                                                                            0000068
65508015015     002222904107801343  BANAMERNESTO GRANA ROJAS                     100100000000046472501001DEPOSI                                                                                                                            0000069
65508015015     002375903475812310  BANAMAURORA REA HERNANDEZ                    100100000000001700001001DEPOSI                                                                                                                            0000070
65508015015     002233903294558065  BANAMSANJUANA ROSILES ZAMORA                 100100000000021085201001DEPOSI                                                                                                                            0000071
65508015015     002537700871930617  BANAMVICTOR ANTONIO MORALES ORTUNO           100100000000022465601001DEPOSI                                                                                                                            0000072
65508015015     002650903960953344  BANAMJUAN FERNANDO TENORIO BALDERRAMA        100100000000020680001001DEPOSI                                                                                                                            0000073
65508015015     002650701555405658  BANAMYOLANDA SANCHEZ PRIEGO                  100100000000021200001001DEPOSI                                                                                                                            0000074
65508015015     002222904013504459  BANAMNOE GONZALEZ BALTAZAR                   100100000000044820001001DEPOSI                                                                                                                            0000075
65508015015     002375904256975514  BANAMNORMA ANGELICA GONZALEZ GONZALEZ        100100000000030130001001DEPOSI                                                                                                                            0000076
65508015015     002320904258642531  BANAMSANTIAGO GUERRERO JIMENEZ               100100000000009200001001DEPOSI                                                                                                                            0000077
65508015015     002180902909367475  BANAMJAIR SERRANO TREJO                      100100000000010760001001DEPOSI                                                                                                                            0000078
65508015015     002420902155619080  BANAMEDGAR MORALES SOTO                      100100000000019815001001DEPOSI                                                                                                                            0000079
65508015015     002543904291412482  BANAMYULIANA SOTELO CORDOVA                  100100000000017780001001DEPOSI                                                                                                                            0000080
65508015015     002542904650104358  BANAMSAMUEL GUZMAN FERNANDEZ                 100100000000025399201001DEPOSI                                                                                                                            0000081
65508015015     002320904307304270  BANAMCRISTIAN MICHEL HERNANDEZ CURIEL        100100000000010800001001DEPOSI                                                                                                                            0000082
65508015015     002674901641327992  BANAMJUAN CASTRO ISLAS                       100100000000021820001001DEPOSI                                                                                                                            0000083
65508015015     002180901259791721  BANAMYOLANDA BARRIENTOS ORTEGA               100100000000013782501001DEPOSI                                                                                                                            0000084
65508015015     002180901165965544  BANAMJOSE GUADALUPE DE LA ROSA VILLEGAS      100100000000013345001001DEPOSI                                                                                                                            0000085
65508015015     002180902928813544  BANAMLUIS GERARDO ROJAS DE ANDA              100100000000012750001001DEPOSI                                                                                                                            0000086
65508015015     002480701634933392  BANAMVASTHI CALDERON ROSAS                   100100000000011325001001DEPOSI                                                                                                                            0000087
65508015015     002650903569953910  BANAMARMANDO TIZO MARTINEZ                   100100000000018503701001DEPOSI                                                                                                                            0000088
65508015015     002560902676975147  BANAMCLAUDIA ELIZABETH RODRIGUEZ ZUNIGA      100100000000009840001001DEPOSI                                                                                                                            0000089
65508015015     002542904388871982  BANAMSANDRA LUZ ROSALES TREJO                100100000000016640801001DEPOSI                                                                                                                            0000090
65508015015     002320904386408854  BANAMBELEN LOPEZ SARACIBAR                   100100000000012700001001DEPOSI                                                                                                                            0000091
65508015015     002272902729708494  BANAMFRANCISCO ANTONIO RAMIREZ ESTRADA       100100000000008850001001DEPOSI                                                                                                                            0000092
65508015015     002320701287784951  BANAMJORGE ALEJANDRO CORTES ZAMORA           100100000000028880001001DEPOSI                                                                                                                            0000093
65508015015     002540904074493621  BANAMFABIOLA DAVALOS GRANADOS                100100000000026614801001DEPOSI                                                                                                                            0000094
65508015015     002659904385709335  BANAMADRIAN VALDEZ GARCIA                    100100000000008850001001DEPOSI                                                                                                                            0000095
65508015015     002010904405148622  BANAMBELKIS APARICIO SOSA                    100100000000011820001001DEPOSI                                                                                                                            0000096
65508015015     002215901285598672  BANAMHUGO CESAR GARCIA REYNA                 100100000000035225601001DEPOSI                                                                                                                            0000097
65508015015     002650701639713703  BANAMLIZBETH PORRAS CRUZ                     100100000000019676401001DEPOSI                                                                                                                            0000098
65508015015     002650701629506988  BANAMSARAHI HERNANDEZ SILVA                  100100000000010100001001DEPOSI                                                                                                                            0000099
65508015015     002320901259608548  BANAMJUAN PABLO IVAN UNDIANO VAZQUEZ         100100000000022650001001DEPOSI                                                                                                                            0000100
65508015015     002650904357605291  BANAMJAZMIN LOPEZ FLORES                     100100000000013404001001DEPOSI                                                                                                                            0000101
65508015015     002010904391601273  BANAMCLAUDIA ROJAS HERNANDEZ                 100100000000019411901001DEPOSI                                                                                                                            0000102
65508015015     002180904405629217  BANAMPAULA VARGAS CORNELIO                   100100000000009312001001DEPOSI                                                                                                                            0000103
65508015015     002215701576883490  BANAMLUIS ENRIQUE LUNA MENDOZA               100100000000025804001001DEPOSI                                                                                                                            0000104
65508015015     002239904389918665  BANAMJUANA KARINA PAULIN CASTILLO            100100000000010984401001DEPOSI                                                                                                                            0000105
65508015015     002276904008186485  BANAMNICTE-HA ALONSO OROPEZA                 100100000000012200001001DEPOSI                                                                                                                            0000106
65508015015     002225904220450733  BANAMYOLANDA ZACARIAS                        100100000000011480001001DEPOSI                                                                                                                            0000107
65508015015     002546904290921829  BANAMLUIS FELIPE CERVANTES ESTRELLA          100100000000016700001001DEPOSI                                                                                                                            0000108
65508015015     002544901048182336  BANAMLUIS ANGEL SANCHEZ SANTACRUZ            100100000000007200001001DEPOSI                                                                                                                            0000109
65508015015     002542904530335292  BANAMYOSELIN MARGARITA DOMINGUEZ SILVESTRE   100100000000009312001001DEPOSI                                                                                                                            0000110
65508015015     002010904388697180  BANAMALONDRA ALONSO MALPICA                  100100000000003200001001DEPOSI                                                                                                                            0000111
65508015015     002543701728781119  BANAMRENE ARTURO JUAREZ MARMOLEJO            100100000000009200001001DEPOSI                                                                                                                            0000112
65508015015     002210904445504217  BANAMBLANCA SORAYA SANCHEZ CARRILLO          100100000000007200001001DEPOSI                                                                                                                            0000113
65508015015     002312700151400011  BANAMLUIS BADILLO ANGELES                    100100000000011242501001DEPOSI                                                                                                                            0000114
65508015015     002546904580952715  BANAMJAIME CONTRERAS AVILA                   100100000000004200001001DEPOSI                                                                                                                            0000115
65508015015     002010904389603830  BANAMANA ROSA CENTENO HERNANDEZ              100100000000003200001001DEPOSI                                                                                                                            0000116
65508015015     002540901087054762  BANAMJORGE ALBERTO GUZMAN OCTAVIANO          100100000000004200001001DEPOSI                                                                                                                            0000117
65508015015     002010904403844119  BANAMNANCY MEJIA PEREZ                       100100000000003200001001DEPOSI                                                                                                                            0000118
65508015015     002552904654293983  BANAMALEJANDRO MENDOZA SUAYFETA              100100000000013965001001DEPOSI                                                                                                                            0000119
65508015015     002540904647701850  BANAMMAURICIO SANCHEZ PAREDES                100100000000004200001001DEPOSI                                                                                                                            0000120
65508015015     002546904515240298  BANAMAMADO MARTIN ALVA ARIAS                 100100000000003200001001DEPOSI                                                                                                                            0000121
65508015015     002542904495235628  BANAMGETSEMANI SINAI VAZQUEZ  AYON           100100000000004266701001DEPOSI                                                                                                                            0000122
65508015015     002546904472220429  BANAMRODRIGO DELGADO ROBLES                  100100000000007200001001DEPOSI                                                                                                                            0000123
65508015015     002544904134682475  BANAMRUBEN ZUNIGA BANDERA                    100100000000003200001001DEPOSI                                                                                                                            0000124
65508015015     002674701645351083  BANAMEDER MUNOZ OCAMPO                       100100000000050669801001DEPOSI                                                                                                                            0000125
65508015015     002180902070886911  BANAMCARLOS SANCHEZ MENDOZA                  100100000000020527101001DEPOSI                                                                                                                            0000126
65508015015     021540064857204071  BITALFELIPE EDUARDO  NERI ABARCA             100100000000003533301001DEPOSI                                                                                                                            0000127
65508015015     021542064941198499  BITALHECTOR HUGO OSORIO LOPEZ                100100000000003200001001DEPOSI                                                                                                                            0000128
65508015015     021549065107683070  BITALFAUSTO FUENTES LAUREANO                 100100000000003200001001DEPOSI                                                                                                                            0000129
65508015015     021220064799658856  BITALANA KARENT SALGADO RODRIGUEZ            100100000000005134501001DEPOSI                                                                                                                            0000130
65508015015     021540064860918998  BITALLUIS ALBERTO ESCOBAR VENCES             100100000000008850001001DEPOSI                                                                                                                            0000131
65508015015     021320064866465021  BITALMARIA DE LOS ANGELES MARTINEZ CARDONA   100100000000015260001001DEPOSI                                                                                                                            0000132
65508015015     021320064965280398  BITALJUAN ALBERTO GUERRA NARRO               100100000000013920001001DEPOSI                                                                                                                            0000133
65508015015     021320064815894342  BITALJUAN ANTONIO ESPINOZA MORAN             100100000000016845001001DEPOSI                                                                                                                            0000134
65508015015     021180064865475511  BITALCESAR ARANDA BURGUENO                   100100000000011300001001DEPOSI                                                                                                                            0000135
65508015015     021222064603308591  BITALOSCAR VELASCO PENA                      100100000000033788001001DEPOSI                                                                                                                            0000136
65508015015     021480064557832298  BITALERNESTO GARCIA PEREZ                    100100000000011764001001DEPOSI                                                                                                                            0000137
65508015015     030225900020793763  BAJIOELENA CAROLINA ALVAREZ PARRA            100100000000034570001001DEPOSI                                                                                                                            0000138
65508015015     044650036041518012  COMERRAFAEL ARIZMENDI GARCIA                 100100000000012200001001DEPOSI                                                                                                                            0000139
65508015015     044180001044351373  COMERMARCOS MUNOZ MOJICA                     100100000000020350001001DEPOSI                                                                                                                            0000140
65508015015     072580010958477074  BBANOGIOVANNI MENDEZ NAVARRO                 100100000000010913601001DEPOSI                                                                                                                            0000141
65508015015     072650010948827836  BBANOJORGE LUIS CANO PEDRAZA                 100100000000007200001001DEPOSI                                                                                                                            0000142
65508015015     072650010859067536  BBANOANA DORA ROJAS DIAZ                     100100000000010500001001DEPOSI                                                                                                                            0000143
65508015015     072667010864759576  BBANOLAURA VERENICE CANO CASAS               100100000000014220001001DEPOSI                                                                                                                            0000144
65508015015     072580010833001882  BBANOALMA DELIA SANTANA GOMEZ                100100000000010764001001DEPOSI                                                                                                                            0000145
65508015015     127540001414210860  BAZTELUIS ALBERTO ZAMORA OCAMPO              100100000000024448001001DEPOSI                                                                                                                            0000146
65508015015     127180001138401250  BAZTEJESUS ALEJANDRO MARTINEZ ALVAREZ        100100000000025894401001DEPOSI                                                                                                                            0000147
65508015015     127659001166684088  BAZTEMARIELY GARRIDO CRUZ                    100100000000017700001001DEPOSI                                                                                                                            0000148
65508015015     127215013712511199  BAZTELAURA YESSICA ESTRADA ROSAS             100100000000049116401001DEPOSI                                                                                                                            0000149
65508015015     127671001339825898  BAZTEREYNA RODRIGUEZ OLIVARES                100100000000017200001001DEPOSI                                                                                                                            0000150
65508015015     127669001260735302  BAZTEULISES ARIEL PALACIOS AGUILAR           100100000000012700001001DEPOSI                                                                                                                            0000151
65508015015     127239013447882629  BAZTEJESSICA REGINA LOYOLA VILLEGAS          100100000000017989201001DEPOSI                                                                                                                            0000152
65508015015     127650001347524623  BAZTEALMA LILIA ALBINO MENDEZ                100100000000030032801001DEPOSI                                                                                                                            0000153
65508015015     127650001210224445  BAZTESANTIAGO GONZALEZ MEDELLIN              100100000000011300001001DEPOSI                                                                                                                            0000154
65508015015     127671001348998224  BAZTEMANUEL ALEJANDRO RITO SALAZAR           100100000000016400001001DEPOSI                                                                                                                            0000155
65508015015     127650001348938768  BAZTEJOSE OSCAR TELLEZ CARMONA               100100000000013048401001DEPOSI                                                                                                                            0000156
65508015015     127260013673485788  BAZTEADRIANA TORRES VEGA                     100100000000016700001001DEPOSI                                                                                                                            0000157
65508015015     127248013182038033  BAZTELOURDES SANCHEZ GOMEZ                   100100000000031720501001DEPOSI                                                                                                                            0000158
65508015015     127320001335229192  BAZTEMAYRA ALEJANDRA FLORES BECERRA          100100000000057165001001DEPOSI                                                                                                                            0000159
65508015015     127671001330678400  BAZTESONIA CENTENO REYES                     100100000000025146001001DEPOSI                                                                                                                            0000160
65508015015     127540013938947199  BAZTEVICTOR MANUEL GONZALEZ MARTINEZ         100100000000017200001001DEPOSI                                                                                                                            0000161
65508015015     127546001155082500  BAZTEKEVIN GEOVANNY ORTIZ PEREZ              100100000000015200001001DEPOSI                                                                                                                            0000162
65508015015     127320001162282357  BAZTELUIS ALBERTO MACIAS ESPINOZA            100100000000011820001001DEPOSI                                                                                                                            0000163
65508015015     127650001130556073  BAZTEJUAN CARLOS FLORES OLMOS                100100000000018480001001DEPOSI                                                                                                                            0000164
65508015015     127225001318897565  BAZTENANCY ALINE LOPEZ MURILLO               100100000000009700001001DEPOSI                                                                                                                            0000165
65508015015     127653001510532193  BAZTECARLOS MORALES CHAVEZ                   100100000000003389501001DEPOSI                                                                                                                            0000166
65508015015     127544013178768613  BAZTEMIGUEL ANGEL GALVEZ VILLASALDO          100100000000007700001001DEPOSI                                                                                                                            0000167
65508015015     127546001288413198  BAZTEOSCAR HERNANDEZ PEREZ                   100100000000008850001001DEPOSI                                                                                                                            0000168
65508015015     127650013196398894  BAZTEALAIN FRANCISCO HERNANDEZ GARCIA        100100000000003445001001DEPOSI                                                                                                                            0000169
65508015015     127247001247322396  BAZTEJORGE LUIS GONZALEZ GAYTAN              100100000000016756001001DEPOSI                                                                                                                            0000170
65508015015     127537001143805724  BAZTEJUAN ANTONIO SANCHEZ RAMIREZ            100100000000015120001001DEPOSI                                                                                                                            0000171
65508015015     127215013857238780  BAZTEANGELICA LEONOR GOMEZ DURAN             100100000000033000001001DEPOSI                                                                                                                            0000172
65508015015     127650001379502655  BAZTEMARCELO EMMANUEL BASILIO MIXCOATL       100100000000046340001001DEPOSI                                                                                                                            0000173
65508015015     127650001237578585  BAZTEFABIAN CORTES GARCIA                    100100000000016016001001DEPOSI                                                                                                                            0000174
65508015015     127320001204314921  BAZTESERGIO ALFONSO GONZALEZ COVARRUBIAS     100100000000013220001001DEPOSI                                                                                                                            0000175
65508015015     127671001424901148  BAZTEJANETT BONILLA CESPEDES                 100100000000011600001001DEPOSI                                                                                                                            0000176
65508015015     127320013192474770  BAZTEREBECA GABRIELA VARGAS MARENTES         100100000000009322001001DEPOSI                                                                                                                            0000177
65508015015     127667001157012321  BAZTELADISLAO AGUILAR SANCHEZ                100100000000009500001001DEPOSI                                                                                                                            0000178
65508015015     127550001212557715  BAZTEISAEL FAUSTINO ROMAN                    100100000000012200001001DEPOSI                                                                                                                            0000179
65508015015     127655001214144500  BAZTESILVESTRE MUNGUIA FLORES                100100000000015979201001DEPOSI                                                                                                                            0000180
65508015015     127545001124905208  BAZTEJOSE DAVID SANCHEZ EVANGELISTA          100100000000003200001001DEPOSI                                                                                                                            0000181
65508015015     127542013519914853  BAZTEKEYLA SELENE OLVERA ARELLANO            100100000000003200001001DEPOSI                                                                                                                            0000182
65508015015     127662001282500538  BAZTEJOSE ANGEL GALVEZ PAREDES               100100000000003200001001DEPOSI                                                                                                                            0000183
65508015015     127180001330303554  BAZTEMELITON JESUS CADENAS MENECES           100100000000004200001001DEPOSI                                                                                                                            0000184
65508015015     127552001095059551  BAZTEHUGO ENRIQUE MILLAN GONZALEZ            100100000000004200001001DEPOSI                                                                                                                            0000185
65508015015     127266013042387149  BAZTEERASMO ANTONIO PEDROZA VELEZ            100100000000004200001001DEPOSI                                                                                                                            0000186
65508015015     127542001130967330  BAZTEJORGE ANTONIO OLVERA SANTAMARIA         100100000000004200001001DEPOSI                                                                                                                            0000187
65508015015     127542013412903709  BAZTECINTHYA HERNANDEZ GUTIERREZ             100100000000003200001001DEPOSI                                                                                                                            0000188
65508015015     127544001351032819  BAZTEPAUL AVILA PINEDA                       100100000000011700001001DEPOSI                                                                                                                            0000189
65508015015     127544013371011358  BAZTEBLANCA JAZMIN RAMIREZ EDUARDO           100100000000003200001001DEPOSI                                                                                                                            0000190
65508015015     127546013561564406  BAZTEMIGUEL ANGEL VALENCIA GARCIA            100100000000004200001001DEPOSI                                                                                                                            0000191
65508015015     127540001333162552  BAZTEVICTOR RAYAS HERNANDEZ                  100100000000004200001001DEPOSI                                                                                                                            0000192
65508015015     127543013990500733  BAZTEROSA GUADALUPE ESTRADA VALADEZ          100100000000004200001001DEPOSI                                                                                                                            0000193
65508015015     127542013348051518  BAZTEITZEL XIMENA TAPIA JIMENEZ              100100000000008764001001DEPOSI                                                                                                                            0000194
65508015015     127543013349237042  BAZTEKARLA KARINA JUAREZ ALVARADO            100100000000007200001001DEPOSI                                                                                                                            0000195
65508015015     127542001335862706  BAZTEALICIA ELIDETH HERRERA HERRERA          100100000000003200001001DEPOSI                                                                                                                            0000196
65508015015     127542001227488188  BAZTEEDGAR RICARDO PADILLA PEREZ             100100000000004200001001DEPOSI                                                                                                                            0000197
65508015015     127180013137519584  BAZTEALAN EMIR DURAN MENDEZ                  100100000000014158001001DEPOSI                                                                                                                            0000198
65508015015     127545001140824541  BAZTELUIS ANGEL DANIEL SALAZAR RAMIREZ       100100000000008200001001DEPOSI                                                                                                                            0000199
65508015015     127552001536610365  BAZTEMICHEL IVAN CLEMENT FRANCO              100100000000003200001001DEPOSI                                                                                                                            0000200
65508015015     127660001201321185  BAZTEGUILLERMO ROMERO PEREZ                  100100000000009650001001DEPOSI                                                                                                                            0000201
65508015015     127543001190066801  BAZTEGAMALIEL BAHENA LOPEZ                   100100000000004200001001DEPOSI                                                                                                                            0000202
65508015015     127544001515625101  BAZTEALBERTO MORA GILES                      100100000000003200001001DEPOSI                                                                                                                            0000203
65508015015     127180016019362649  BAZTESANDRA PALACIOS ROMERO                  100100000000016434001001DEPOSI                                                                                                                            0000204
65508015015     127266001140858016  BAZTEJAVIER SANTANA VILLALBA                 100100000000004200001001DEPOSI                                                                                                                            0000205
65508015015     127540001581810656  BAZTELIZBETH HERNANDEZ MARTINEZ              100100000000007200001001DEPOSI                                                                                                                            0000206
65508015015     127180016666600071  BAZTEJAIRO ISRAEL AYALA BRITO                100100000000007200001001DEPOSI                                                                                                                            0000207
65508015015     127180016006554509  BAZTEJESUS MARIO FERNANDEZ DELGADO           100100000000004200001001DEPOSI                                                                                                                            0000208
65508015015     127546001041878255  BAZTEMILCA FRANCO PADILLA                    100100000000022275001001DEPOSI                                                                                                                            0000209
65508015015     127545001137027115  BAZTEREYES TORRES VILDOZOLA                  100100000000004200001001DEPOSI                                                                                                                            0000210
65508015015     127542013855276006  BAZTEIVAN VARGAS PEREZ                       100100000000003200001001DEPOSI                                                                                                                            0000211
65508015015     127542001340449693  BAZTEMARCO ANTONIO RODRIGUEZ  ARZOLA         100100000000005200001001DEPOSI                                                                                                                            0000212
65508015015     127550013286583318  BAZTEYARIELA  RAMIREZ  OROZCO                100100000000005866701001DEPOSI                                                                                                                            0000213
65508015015     127552001329031245  BAZTEADOLFO ANGEL PONCE HERRERA              100100000000007533301001DEPOSI                                                                                                                            0000214
65508015015     132180000080376982  MULTIOSCAR MAURICIO MORENO PLASCENCIA        100100000000020600001001DEPOSI                                                                                                                            0000215
65508015015     137659100244081708  COPELJESUS EMMANUEL LAZCANO QUIROGA          100100000000014302001001DEPOSI                                                                                                                            0000216
65508015015     137234101976777898  COPELSARA GARCIA RICO                        100100000000021427201001DEPOSI                                                                                                                            0000217
65508015015     137546104057713958  COPELYAZMIN MARTINEZ BAHENA                  100100000000018700001001DEPOSI                                                                                                                            0000218
65508015015     137655101331207809  COPELMARTIN BALTAZAR MARISCAL                100100000000022168801001DEPOSI                                                                                                                            0000219
65508015015     137560102020222302  COPELCANDIDA ARIADNA ZULEMA ESTRADA GONZALEZ 100100000000010540001001DEPOSI                                                                                                                            0000220
65508015015     137542130047301720  COPELSANDRA CHIMAN MORALES                   100100000000008700001001DEPOSI                                                                                                                            0000221
65508015015     137210103417746203  COPELCARLOS ANTONIO MUNOZ PEREZ              100100000000011443501001DEPOSI                                                                                                                            0000222
65508015015     137650104121901799  COPELMARCO ANTONIO LOPEZ AGUILAR             100100000000015218501001DEPOSI                                                                                                                            0000223
65508015015     137543103597712963  COPELRICARDO ARELLANO ESTELA                 100100000000019700001001DEPOSI                                                                                                                            0000224
65508015015     137320103466803809  COPELGIEZI AZAEL CORDERO HERNANDEZ           100100000000022928801001DEPOSI                                                                                                                            0000225
65508015015     137667130049508574  COPELCARLOS EDUARDO ZEPEDA VEGA              100100000000010740001001DEPOSI                                                                                                                            0000226
65508015015     137655130054563927  COPELVICTOR MANUEL SARMIENTO SANDOVAL        100100000000011600001001DEPOSI                                                                                                                            0000227
65508015015     137544130043771705  COPELANGEL JONATHAN REYES  AMATES            100100000000002400001001DEPOSI                                                                                                                            0000228
65508015015     137540104313705525  COPELFRANCISCO JAVIER PENA CORTES            100100000000003200001001DEPOSI                                                                                                                            0000229
65508015015     137888100448791610  COPELADRIANA CASTILLO URBINA                 100100000000003200001001DEPOSI                                                                                                                            0000230
65508015015     137540104295225660  COPELKESIA ESMERALDA JULIAN MARTINEZ         100100000000011328001001DEPOSI                                                                                                                            0000231
65508015015     137659104033809171  COPELALAN AURELIO HERNANDEZ GARRIDO          100100000000017076001001DEPOSI                                                                                                                            0000232
65508015015     002180903931347899  BANAMARLETTE THALIA LIRA CARDENAS            100100000000014797201001DEPOSI                                                                                                                            0000233
65508015015     002705904622504862  BANAMEDUARDO PEREZ HERRERA                   100100000000002666701001DEPOSI                                                                                                                            0000234
65508015015     002711903773509439  BANAMAZUCENA ELIZABETH GOMEZ GONZALEZ        100100000000036200501001DEPOSI                                                                                                                            0000235
65508015015     002180904612583861  BANAMISAID JONATHAN SANDOVAL GALICIA         100100000000007200001001DEPOSI                                                                                                                            0000236
65508015015     002830700966617018  BANAMANDREA SANTACRUZ SALINAS                100100000000011837601001DEPOSI                                                                                                                            0000237
65508015015     002832904588314742  BANAMJOSE ERNESTO ACA LOPEZ                  100100000000004200001001DEPOSI                                                                                                                            0000238
65508015015     002180904055011893  BANAMHECTOR BRIHAN CRUZ SORIANO              100100000000011700001001DEPOSI                                                                                                                            0000239
65508015015     002180904568527094  BANAMLUIS EDUARDO GARCIA JASSO               100100000000035796301001DEPOSI                                                                                                                            0000240
65508015015     002709903734302179  BANAMSERGIO MONTANEZ MIRELES                 100100000000003200001001DEPOSI                                                                                                                            0000241
65508015015     002180904109415293  BANAMJUAN URIEL ALVAREZ TOLEDO               100100000000015725601001DEPOSI                                                                                                                            0000242
65508015015     002180904666706924  BANAMJOSE ANTONIO RAMIREZ NICOLAS            100100000000011215001001DEPOSI                                                                                                                            0000243
65508015015     002832701752154070  BANAMNESTOR UBALDO SANCHEZ ORTIZ             100100000000033512001001DEPOSI                                                                                                                            0000244
65508015015     002180901268904855  BANAMJONATHAN EDU RAMO FLORES                100100000000049006501001DEPOSI                                                                                                                            0000245
65508015015     002709904536151378  BANAMFATIMA JUDIHETL AGUILERA PUENTE         100100000000002666701001DEPOSI                                                                                                                            0000246
65508015015     002298901033359488  BANAMAURELIA MENDOZA MEZA                    100100000000009700001001DEPOSI                                                                                                                            0000247
65508015015     002180701338512733  BANAMMARIO ALBERTO MARTINEZ GALAN            100100000000011200001001DEPOSI                                                                                                                            0000248
65508015015     002010904385924652  BANAMPATRICIA VALERA LOPEZ                   100100000000004200001001DEPOSI                                                                                                                            0000249
65508015015     002711903882954645  BANAMMARIA GUADALUPE YANEZ GONZALEZ          100100000000052706501001DEPOSI                                                                                                                            0000250
65508015015     002180904506345212  BANAMCLARIVEL REYES ALFONSO                  100100000000008200001001DEPOSI                                                                                                                            0000251
65508015015     002180901668027837  BANAMMARIBEL TOLEDO RAMIREZ                  100100000000036835001001DEPOSI                                                                                                                            0000252
65508015015     002180901184839279  BANAMNAYELI NORIEGA RODRIGUEZ                100100000000022048401001DEPOSI                                                                                                                            0000253
65508015015     002180903091104626  BANAMDAVID JONATHAN URENA ALCANTARA          100100000000008672101001DEPOSI                                                                                                                            0000254
65508015015     002700701615503434  BANAMIRMA IRENE LOREDO MORALES               100100000000003200001001DEPOSI                                                                                                                            0000255
65508015015     002680903500237115  BANAMOMAR TREJO CHAVEZ                       100100000000014200001001DEPOSI                                                                                                                            0000256
65508015015     002180701716864566  BANAMALEJANDRO LAZARO CANTERO                100100000000015200001001DEPOSI                                                                                                                            0000257
65508015015     002430904289912997  BANAMJOCELIN GRANADOS SILVA                  100100000000009200001001DEPOSI                                                                                                                            0000258
65508015015     002180903434150512  BANAMDAYRON EMIR AMBROSIO RUIZ               100100000000008850001001DEPOSI                                                                                                                            0000259
65508015015     002180904443043745  BANAMMARIA ROSALBA TORRES CRUZ               100100000000007200001001DEPOSI                                                                                                                            0000260
65508015015     002180904646182270  BANAMABIGAHIN TORRES ROMERO                  100100000000013424001001DEPOSI                                                                                                                            0000261
65508015015     002180903463189363  BANAMFRANCISCO ECATZIN IXTLAMATI SERRANO     100100000000007200001001DEPOSI                                                                                                                            0000262
65508015015     002180904644368973  BANAMJESSICA ARISBETH REYES RAMIREZ          100100000000016008001001DEPOSI                                                                                                                            0000263
65508015015     002180902487902284  BANAMJOCELINE CHANTAL RUEDA ACOSTA           100100000000023000001001DEPOSI                                                                                                                            0000264
65508015015     002180902647757198  BANAMHORACIO VICTOR  GARCIA  ZAGAL           100100000000028150001001DEPOSI                                                                                                                            0000265
65508015015     002180901551549176  BANAMFERNANDO  HERRERA  PAVON                100100000000010780001001DEPOSI                                                                                                                            0000266
65508015015     002180901863796073  BANAMMARISA LOZADA RIVERA                    100100000000010780001001DEPOSI                                                                                                                            0000267
65508015015     002180904016769362  BANAMALBERTO VERGARA  ESTEVES                100100000000031366701001DEPOSI                                                                                                                            0000268
65508015015     002709904188729336  BANAMAIDEE GALLEGOS AMBRIZ                   100100000000007533301001DEPOSI                                                                                                                            0000269
65508015015     002680904319215796  BANAMJUAN  QUERO  ALVAREZ                    100100000000012200001001DEPOSI                                                                                                                            0000270
65508015015     002685903876874155  BANAMKARINA  AGUILAR  CORTES                 100100000000004200001001DEPOSI                                                                                                                            0000271
65508015015     002010904367607780  BANAMEDOARDO TOMAS TERAN PLATA               100100000000012200001001DEPOSI                                                                                                                            0000272
65508015015     002180903465716585  BANAMJOSE  TORRES  BENITEZ                   100100000000009200001001DEPOSI                                                                                                                            0000273
65508015015     002180904052695610  BANAMDAVID HIRWIN CHAVARRIA MORAL            100100000000018500001001DEPOSI                                                                                                                            0000274
65508015015     002180902695801342  BANAMCLAUDIA LETICIA GARCIA CRUZ             100100000000003200001001DEPOSI                                                                                                                            0000275
65508015015     002180904431985970  BANAMIRMA BETANCOURT PAREDES                 100100000000012200001001DEPOSI                                                                                                                            0000276
65508015015     002010904393321577  BANAMERANDY MONSERRATH CHANG ROJAS           100100000000009104001001DEPOSI                                                                                                                            0000277
65508015015     002617904651365364  BANAMITZEL DEL CARMEN CASTILLO VASQUEZ       100100000000003200001001DEPOSI                                                                                                                            0000278
65508015015     002180904467956423  BANAMLUIS ENRIQUE VARGAS ROJAS               100100000000012200001001DEPOSI                                                                                                                            0000279
65508015015     002180902173414099  BANAMEMMA VARGAS FERRER                      100100000000025192001001DEPOSI                                                                                                                            0000280
65508015015     002180901452343358  BANAMANA LAURA CALIXTO AGUILAR               100100000000124258101001DEPOSI                                                                                                                            0000281
65508015015     002830901385783128  BANAMIRAIS FERNANDEZ ISLAS                   100100000000021503001001DEPOSI                                                                                                                            0000282
65508015015     002180901186970217  BANAMTANIA MARLEN SALOMON MURILLO            100100000000028662501001DEPOSI                                                                                                                            0000283
65508015015     002180904654364080  BANAMADRIAN HERNANDEZ BALVERDE               100100000000036660801001DEPOSI                                                                                                                            0000284
65508015015     002312900885747523  BANAMCLAUDIA SUAREZ HERNANDEZ                100100000000003737601001DEPOSI                                                                                                                            0000285
65508015015     002180901012757863  BANAMHUGO ALBERTO SORIANO TAPIA              100100000000006815501001DEPOSI                                                                                                                            0000286
65508015015     002180901134431960  BANAMTANIA IRAIS OROZCO HERNANDEZ            100100000000040878801001DEPOSI                                                                                                                            0000287
65508015015     002180901195769613  BANAMKAREN ARELI HERNANDEZ HERNANDEZ         100100000000005960801001DEPOSI                                                                                                                            0000288
65508015015     002180901211771527  BANAMCARLOS ERIK VALDES HERNANDEZ            100100000000012701301001DEPOSI                                                                                                                            0000289
65508015015     002180901294535667  BANAMALEJANDRO MEDINA SEVERIANO              100100000000024384001001DEPOSI                                                                                                                            0000290
65508015015     002180901201458931  BANAMPATRICIA LORENA VAZQUEZ ZARATE          100100000000082115601001DEPOSI                                                                                                                            0000291
65508015015     002180901717554248  BANAMCAROLINA CALIXTO FLORES                 100100000000068068001001DEPOSI                                                                                                                            0000292
65508015015     002540901739713885  BANAMMA MAGDALENA OLAIS ESPINOZA             100100000000004541601001DEPOSI                                                                                                                            0000293
65508015015     002180901766331577  BANAMSERGIO CRUZ SALAZAR                     100100000000025290001001DEPOSI                                                                                                                            0000294
65508015015     002832901813062966  BANAMTERESA GARCIA GUERRERO                  100100000000003684001001DEPOSI                                                                                                                            0000295
65508015015     002180901956375628  BANAMOLGA LIDIA PEREZ ARISTA                 100100000000048649601001DEPOSI                                                                                                                            0000296
65508015015     002180901977431224  BANAMVERONICA CONCEPCION AYALA ZERMENO       100100000000031101401001DEPOSI                                                                                                                            0000297
65508015015     002180901981889040  BANAMVICTOR MANUEL RIVAS VIDAL               100100000000062745301001DEPOSI                                                                                                                            0000298
65508015015     002180901981604652  BANAMGABRIEL GORDILLO SANCHEZ                100100000000018369301001DEPOSI                                                                                                                            0000299
65508015015     002180902054746598  BANAMPONCIANO GARZON HERNANDEZ               100100000000028200001001DEPOSI                                                                                                                            0000300
65508015015     002180902069878891  BANAMFELIPE ARUQUIPA TICONA                  100100000000054484901001DEPOSI                                                                                                                            0000301
65508015015     002180902158070872  BANAMMONICA MARTINEZ YANEZ                   100100000000018257501001DEPOSI                                                                                                                            0000302
65508015015     002180902188896880  BANAMROSAURA GOMEZ HERNANDEZ                 100100000000027905001001DEPOSI                                                                                                                            0000303
65508015015     002180902429336122  BANAMMICHAEL IVAN DIAZ HERNANDEZ             100100000000028047001001DEPOSI                                                                                                                            0000304
65508015015     002180902456610015  BANAMELVIA CRUZ MARTINEZ                     100100000000064594001001DEPOSI                                                                                                                            0000305
65508015015     002180902607479157  BANAMRAUL GARCIA FLORES                      100100000000019082201001DEPOSI                                                                                                                            0000306
65508015015     002180902610933745  BANAMADRIANA ESPINOZA VILLALOBOS             100100000000004346001001DEPOSI                                                                                                                            0000307
65508015015     002180902620425447  BANAMOSCAR MELENDEZ GONZALEZ                 100100000000023305001001DEPOSI                                                                                                                            0000308
65508015015     002298902777168196  BANAMMAYRA AGUILAR GONZALEZ                  100100000000003389501001DEPOSI                                                                                                                            0000309
65508015015     002180902787767776  BANAMJULIAN CERCA LICONA                     100100000000016623101001DEPOSI                                                                                                                            0000310
65508015015     002180902808008631  BANAMDELFINO TLAYECA REYES                   100100000000042563001001DEPOSI                                                                                                                            0000311
65508015015     002540902899803252  BANAMOSCAR EDUARDO ESCALANTE CAMPOS          100100000000004346001001DEPOSI                                                                                                                            0000312
65508015015     002180902901067281  BANAMKATLIT GUTIERREZ ESTRADA                100100000000028216001001DEPOSI                                                                                                                            0000313
65508015015     002180903194878820  BANAMELIBETH GONZALEZ LEDEZMA                100100000000026788501001DEPOSI                                                                                                                            0000314
65508015015     002180903193942485  BANAMADRIAN MEDINA GONZALEZ                  100100000000016324701001DEPOSI                                                                                                                            0000315
65508015015     002180903409405548  BANAMANA MARIA HERNANDEZ SALCEDO             100100000000014466901001DEPOSI                                                                                                                            0000316
65508015015     002180903457486357  BANAMERIKA LOPEZ ORDONEZ                     100100000000039423001001DEPOSI                                                                                                                            0000317
65508015015     002180903489051624  BANAMMARY CARMEN LOPEZ MENDOZA               100100000000021200001001DEPOSI                                                                                                                            0000318
65508015015     002180903490223027  BANAMCRISTIAN REY RANGEL BELLO               100100000000026067501001DEPOSI                                                                                                                            0000319
65508015015     002180903574014369  BANAMFLORENTINO JAVIER MONTESINOS PENA       100100000000027487001001DEPOSI                                                                                                                            0000320
65508015015     002180903611053539  BANAMEDITH ARTEAGA MONTES                    100100000000025973401001DEPOSI                                                                                                                            0000321
65508015015     002856902016685484  BANAMMAGALI ANTONIA HERNANDEZ SANTIAGO       100100000000057867001001DEPOSI                                                                                                                            0000322
65508015015     002180902902387643  BANAMVIRIDIANA XOLALPA CASTANEDA             100100000000050919001001DEPOSI                                                                                                                            0000323
65508015015     002685904012680212  BANAMMARIA ELENA ACEVEDO GUTIERREZ           100100000000030302001001DEPOSI                                                                                                                            0000324
65508015015     002180903729746479  BANAMITZEL CARINA RAMIREZ SANCHEZ            100100000000013852101001DEPOSI                                                                                                                            0000325
65508015015     002180903804167850  BANAMCESAR JAIME RAMIREZ VILCHIS             100100000000003389501001DEPOSI                                                                                                                            0000326
65508015015     002180903842714045  BANAMKARLA RUBI DE LA ROSA HERNANDEZ         100100000000018414201001DEPOSI                                                                                                                            0000327
65508015015     002180903845267476  BANAMTLACAELEL OMAR QUINONES MARTINEZ        100100000000008850001001DEPOSI                                                                                                                            0000328
65508015015     002180903857410567  BANAMJUAN EDUARDO ESPINOSA GONZALEZ          100100000000016265001001DEPOSI                                                                                                                            0000329
65508015015     002680903872385054  BANAMMARIA DOLORES MARTINEZ DOMINGUEZ        100100000000038144801001DEPOSI                                                                                                                            0000330
65508015015     002291903924179578  BANAMESMERALDA AZPEITIA LOZANO               100100000000003389501001DEPOSI                                                                                                                            0000331
65508015015     002910700323807844  BANAMGUILLERMO TRINIDAD HERNANDEZ MARTINEZ   100100000000036946001001DEPOSI                                                                                                                            0000332
65508015015     002180901165973057  BANAMADAN MONTESINOS SANTIAGO                100100000000035112601001DEPOSI                                                                                                                            0000333
65508015015     002180901484524226  BANAMMARIO ENRIQUE BADILLO ROJAS             100100000000011700001001DEPOSI                                                                                                                            0000334
65508015015     002180901494018133  BANAMOSCAR CORNEJO RODRIGUEZ                 100100000000034730001001DEPOSI                                                                                                                            0000335
65508015015     002180903467026710  BANAMJUAN ANTONIO POZOS VALVERDE             100100000000035192801001DEPOSI                                                                                                                            0000336
65508015015     002180701255346927  BANAMNOEMI MONTERO HERNANDEZ                 100100000000026682001001DEPOSI                                                                                                                            0000337
65508015015     002180903998433584  BANAMFLOR DE MARIA PEREA OLGUIN              100100000000023700001001DEPOSI                                                                                                                            0000338
65508015015     002180904010263974  BANAMJUANA JANETH AYALA AYALA                100100000000003389501001DEPOSI                                                                                                                            0000339
65508015015     002180902221232071  BANAMJUAN CARLOS MORALES CASTILLO            100100000000003445001001DEPOSI                                                                                                                            0000340
65508015015     002180902122347285  BANAMADRIANA NATALY SOTO AMPUDIA             100100000000003122201001DEPOSI                                                                                                                            0000341
65508015015     002180902263327737  BANAMESTHER IVONNE LOPEZ ABURTO              100100000000003617301001DEPOSI                                                                                                                            0000342
65508015015     002180903412689652  BANAMLUIS ENRIQUE TORRES ACEVES              100100000000002915001001DEPOSI                                                                                                                            0000343
65508015015     002180901455295131  BANAMNANCY CORENO GARCIA                     100100000000004320601001DEPOSI                                                                                                                            0000344
65508015015     002180901935756750  BANAMUBALDO HERNANDEZ JIMENEZ                100100000000042328001001DEPOSI                                                                                                                            0000345
65508015015     002180902526194018  BANAMCARLOS MANUEL CASTRO ALONSO             100100000000017250001001DEPOSI                                                                                                                            0000346
65508015015     002320900740915466  BANAMANA LAURA MURRIETA VAZQUEZ              100100000000031591801001DEPOSI                                                                                                                            0000347
65508015015     002832901951082170  BANAMMARIA ANGELICA LUNA MONTIEL             100100000000003389501001DEPOSI                                                                                                                            0000348
65508015015     002180901399588797  BANAMADRIANA MIRAMON VALENCIA                100100000000004151501001DEPOSI                                                                                                                            0000349
65508015015     002180904097192437  BANAMJESSICA SOLANO ZURITA                   100100000000010240001001DEPOSI                                                                                                                            0000350
65508015015     002180904101983891  BANAMLUIS ALBERTO TAPIA MENDEZ               100100000000029505901001DEPOSI                                                                                                                            0000351
65508015015     002180408202449170  BANAMLUIS HERNANDEZ PEREZ                    100100000000449737801001DEPOSI                                                                                                                            0000352
65508015015     002180903748930677  BANAMELIAS ELIM OLIVARES PRADO               100100000000218557301001DEPOSI                                                                                                                            0000353
65508015015     002830902852964385  BANAMADRIANA LOPEZ BEDOLLA                   100100000000004346001001DEPOSI                                                                                                                            0000354
65508015015     002180901166119289  BANAMCAMELIA REYES EMBA                      100100000000047317101001DEPOSI                                                                                                                            0000355
65508015015     002180902216999112  BANAMCYNTHIA MAGALY PEREZ NEGRON             100100000000004346001001DEPOSI                                                                                                                            0000356
65508015015     002180901469266130  BANAMLILIANA ROMERO ZARAGOZA                 100100000000008359001001DEPOSI                                                                                                                            0000357
65508015015     002180902673781413  BANAMMARIANA SANCHEZ MARTINEZ                100100000000016198001001DEPOSI                                                                                                                            0000358
65508015015     002180901302997676  BANAMGRISELDA DONAJI VELASCO COQUIS          100100000000008850001001DEPOSI                                                                                                                            0000359
65508015015     002180904195521939  BANAMADRIAN ROMERO HUERTAS                   100100000000035353601001DEPOSI                                                                                                                            0000360
65508015015     002180901585545094  BANAMJESUS MARTINEZ RODRIGUEZ                100100000000020600001001DEPOSI                                                                                                                            0000361
65508015015     002830902711271452  BANAMFORTINO DE JESUS DEL OLMO HERNANDEZ     100100000000002500001001DEPOSI                                                                                                                            0000362
65508015015     002180903701898536  BANAMLUIS ALFONSO ARROYO GUTIERREZ           100100000000024681001001DEPOSI                                                                                                                            0000363
65508015015     002180902357652240  BANAMROMAN HERNANDEZ CHAVEZ                  100100000000038625001001DEPOSI                                                                                                                            0000364
65508015015     002180901256932282  BANAMHUGO ALEJANDRO SANCHEZ DIAZ             100100000000103438101001DEPOSI                                                                                                                            0000365
65508015015     002180903738860168  BANAMSANDRA YADIRA PADILLA MORENO            100100000000017561001001DEPOSI                                                                                                                            0000366
65508015015     002180901165980930  BANAMGUILLERMINA HERNANDEZ GARCIA            100100000000025732501001DEPOSI                                                                                                                            0000367
65508015015     002180903948349466  BANAMMARIA ISABEL MUNIZ ROQUEZ               100100000000002800001001DEPOSI                                                                                                                            0000368
65508015015     002463901702982759  BANAMJANETH CRISTAL ESCOBAR MEJIA            100100000000110781201001DEPOSI                                                                                                                            0000369
65508015015     002290902596274939  BANAMWENDY JANNETH MARTINEZ HERNANDEZ        100100000000009506501001DEPOSI                                                                                                                            0000370
65508015015     002180903608820034  BANAMDAVID ALFONSO CHAVEZ GUTIERREZ          100100000000040694001001DEPOSI                                                                                                                            0000371
65508015015     002180904605233610  BANAMROBERTO HERNANDEZ PEREZ                 100100000000011120001001DEPOSI                                                                                                                            0000372
65508015015     002180904090963786  BANAMARACELI GONZALEZ FLORES                 100100000000012390001001DEPOSI                                                                                                                            0000373
65508015015     002180700756057127  BANAMRENE GONZALEZ CORTES                    100100000000019950001001DEPOSI                                                                                                                            0000374
65508015015     002180904388381465  BANAMASUNCION ALEJANDRO ANDRADE GALVAN       100100000000014301301001DEPOSI                                                                                                                            0000375
65508015015     002180902250367124  BANAMJAVIER ROSALES TELLEZ                   100100000000020565001001DEPOSI                                                                                                                            0000376
65508015015     002180901811159387  BANAMJUAN CARLOS SILVA BRAVO                 100100000000007200001001DEPOSI                                                                                                                            0000377
65508015015     002180701131799517  BANAMNANCY RODRIGUEZ CAAMANO                 100100000000028156401001DEPOSI                                                                                                                            0000378
65508015015     002180901361762091  BANAMGUADALUPE ANAYANCI CRUZ ALVARADO        100100000000060668001001DEPOSI                                                                                                                            0000379
65508015015     002832902296988093  BANAMFRANCISCO IVAN BERNARDINO REYES         100100000000022040301001DEPOSI                                                                                                                            0000380
65508015015     002180903908096885  BANAMMARIO HERNANDEZ JIMENEZ                 100100000000014424001001DEPOSI                                                                                                                            0000381
65508015015     002180901505712182  BANAMANA LAURA SUAREZ LOPEZ                  100100000000004072501001DEPOSI                                                                                                                            0000382
65508015015     002180701640103319  BANAMKARLA DANIELA MARTINEZ HERNANDEZ        100100000000213174801001DEPOSI                                                                                                                            0000383
65508015015     002180901412588331  BANAMVIRIDIANA ROCIO CRUZ VELASCO            100100000000013020001001DEPOSI                                                                                                                            0000384
65508015015     002180904070149355  BANAMJAIR AMADOR RODRIGUEZ                   100100000000020400001001DEPOSI                                                                                                                            0000385
65508015015     002180904328559529  BANAMLOURDES DIANA MATEOS NOGUERON           100100000000013700001001DEPOSI                                                                                                                            0000386
65508015015     002215901473398516  BANAMARACELI SANCHEZ ELIZALDE                100100000000002065001001DEPOSI                                                                                                                            0000387
65508015015     021180064928384730  BITALANGEL NERI GOVEA SANCHEZ                100100000000018981301001DEPOSI                                                                                                                            0000388
65508015015     021180065025575771  BITALDORA MARIA BAUTISTA MARTINEZ            100100000000033020001001DEPOSI                                                                                                                            0000389
65508015015     021180064894773190  BITALCHRISTIAN DE JESUS ARENAS CABALLERO     100100000000038915001001DEPOSI                                                                                                                            0000390
65508015015     021180064742407068  BITALERIVALDO VIGUERAS JURADO                100100000000008850001001DEPOSI                                                                                                                            0000391
65508015015     021834064925822619  BITALDAISY FANNY LOPEZ NAVA                  100100000000004200001001DEPOSI                                                                                                                            0000392
65508015015     021180065184535555  BITALSERGIO GABRIEL ROBLES CASTILLO          100100000000012346001001DEPOSI                                                                                                                            0000393
65508015015     021711065122370879  BITALROBERTO ISARIAS MARTINEZ LOREDO         100100000000008866701001DEPOSI                                                                                                                            0000394
65508015015     021180064867934377  BITALJORGE ALBERTO ROJAS ANDRADE             100100000000016200001001DEPOSI                                                                                                                            0000395
65508015015     021180065024744846  BITALEDGAR OROZCO ARZATE                     100100000000011760001001DEPOSI                                                                                                                            0000396
65508015015     021180064738884970  BITALCHRISTIAN HERNANDEZ RAMOS               100100000000008850001001DEPOSI                                                                                                                            0000397
65508015015     021180065204598553  BITALFRANCISCO ENRIQUE MARTINEZ SEGURA       100100000000019220001001DEPOSI                                                                                                                            0000398
65508015015     021634065131572350  BITALBULMARO HERNANDEZ LOPEZ                 100100000000010100001001DEPOSI                                                                                                                            0000399
65508015015     036830500446790139  BINBUALEJANDRO ROMERO SALINAS                100100000000014200001001DEPOSI                                                                                                                            0000400
65508015015     044180001043830633  COMERCESAR IVAN REBOLLEDO MORALES            100100000000008850001001DEPOSI                                                                                                                            0000401
65508015015     044700016049048690  COMERBEATRIZ ESMERALDA GOMEZ MARTINEZ        100100000000013640801001DEPOSI                                                                                                                            0000402
65508015015     044685256038156656  COMERMARIA DEL PILAR NIETO CERVANTES         100100000000003200001001DEPOSI                                                                                                                            0000403
65508015015     044180001047223712  COMERIVONNE LOPEZ MERLOS                     100100000000021704001001DEPOSI                                                                                                                            0000404
65508015015     044610092030929175  COMERANDRES MENDEZ GARCIA                    100100000000005200001001DEPOSI                                                                                                                            0000405
65508015015     072180011529870836  BBANOALMA ROSA MONTANO  CRISTOBAL            100100000000012200001001DEPOSI                                                                                                                            0000406
65508015015     072680011016381503  BBANOADRIANA RODRIGUEZ SALAZAR               100100000000007866701001DEPOSI                                                                                                                            0000407
65508015015     072580011568642308  BBANOJUAN MANUEL CARRETO REYES               100100000000003200001001DEPOSI                                                                                                                            0000408
65508015015     072180010899139910  BBANORODRIGO MANRIQUEZ PEREZ                 100100000000013134501001DEPOSI                                                                                                                            0000409
65508015015     072180002381596930  BBANOARIVEL VERENA GONZALEZ UGALDE           100100000000003567501001DEPOSI                                                                                                                            0000410
65508015015     072180011417436308  BBANOWILIAN SOLANO PACHECO                   100100000000010171601001DEPOSI                                                                                                                            0000411
