000000001                991519458144          000000000681809LINDA CHAVEZ SIFUENTES                  001001
000000002                991121480251          000000000630655MARIA GUADALUPE FLORES CASTILLO         001001
000000003                992985358221          000000000237402NOEMI MIGUEL ORTIZ                      001001
000000004                991164153324          000000000681809SANDRA MARTINEZ FERRER                  001001
000000005                991162976757          000000000267548LUCERO VALENCIA ARIAS                   001001
000000006                992690988707          000000000321049GRACIELA CAMACHO GONZALEZ               001001
000000007                991512135922          000000000396802LIZBETH GARCIA LEON                     001001
000000008                990458111308          000000000321049ROSA ISELA LUNA MAYA                    001001
000000009                991504838866          000000000203318VERONICA MARTINEZ HERNANDEZ             001001
000000010                992998258910          000000000301594NOEMI CASTRO OLVERA                     001001
000000011                991516592201          000000000527622GLADIS KARINA SOTO HERNANDEZ            001001
000000012                991541574337          000000000267548LILIA TINAJERO VAZQUEZ                  001001
000000013                991545860407          000000000267548ALMA JOSEFINA LUCERO BRAVO              001001
000000014                992934414624          000000000965159TANIA VANESSA BAUTISTA RENDON           001001
000000015                991512656361          000000000757867TANIA LISBETH VARGAS CASTRO             001001
000000016                991578928754          000000000321049MARIA TERESA GARCIA DOMINGUEZ           001001
000000017                991534864433          000000000117689MARISELA MARCIAL ESQUIVEL               001001
000000018                991572277239          000000000321049MARBELL DE JESUS ROJAS PEREZ            001001
000000019                991554742080          000000000136839GUILLERMO ORTUNO MENA                   001001
000000020                991553681955          000000000477666MARIA DEL PILAR PASTRANA OTAMENDI       001001
000000021                991580005509          000000000321049BLANCA ESTELA REYES HERNANDEZ           001001
000000022                991505631696          000000000268864NADIA GRISEL PEREZ SANDOVAL             001001
000000023                991570457116          000000000314449HERMELINDA ROSALES VARGAS               001001
000000024                991510974355          000000000795896ERIC OBED PARRA COTA                    001001
000000025                990468887233          000000000681809MAURICIO GARCIA CASILLAS                001001
000000026                991565051770          000000000289231LILIA BAHENA GARCIA                     001001
000000027                991542505395          000000000267555JAVIER ESCOBAR LORA                     001001
000000028                991532023811          000000000267555FABIAN      GASPARIANO TLATELPA         001001
000000029                992851162454          000000000308935CARLOS HERNANDEZ CRUZ                   001001
000000030                991420039519          000000000258040ESTELA SOTO ROSAS                       001001
000000031                991494132661          000000000275252DAVID ZARATE GARCIA                     001001
000000032                991503212907          000000000289380LUIS DARIO ESTRADA GREGORIO             001001
000000033                992665979412          000000002013010EMMANUEL MENDEZ NERI                    001001
000000034                992688688443          000000000748740ANGELICA HERNANDEZ CAZAREZ              001001
000000035                991550892804          000000000625559CYNTHIA LIDIA TRUJILLO MUNOZ            001001
000000036                991420039357          000000003187960MARIA ISABEL RAMOS AVILA                001001
000000037                991509126658          000000000527622GERARDO DANIEL GUTIERREZ GOMEZ          001001
000000038                991577160909          000000000289224FRANCISCO REYES ARISTA                  001001
000000039                991133173690          000000000356502JORGE ESPARZA HERNANDEZ                 001001
000000040                992751157892          000000000527642ULISES FERNANDO RUBIO GARCIA            001001
000000041                991579359110          000000000700061CRISTINA VAZQUEZ ORTIZ                  001001
000000042                991504329619          000000004442456ILIANA DE SILVA MUNOZ                   001001
000000043                991143478939          000000000467488JANET PEREZ RAMIREZ                     001001
000000044                991219888888          000000000951387DENISE LOZA SAUCEDO                     001001
000000045                991175671655          000000000631609JAIME HUITRON LUJANO                    001001
000000046                992957771150          000000000240693MARIA GUADALUPE DONATO CONTRERAS        001001
000000047                991184203577          000000001923584JULIO CESAR VARGAS HUERTA               001001
000000048                991530471925          000000000349028TERESA GUADALUPE ZAMUDIO JUAREZ         001001
000000049                991549080155          000000000698799OSCAR EMIR CRUZ ILLESCAS                001001
000000050                991538013357          000000000267548ERIKA MERARI REYES SAMPERIO             001001
000000051                991548671386          000000000289231TANIA MICHEL SANTOS FLORES              001001
000000052                991525818567          000000000899419JOSE ALFREDO PERALTA MORALES            001001
000000053                991574276124          000000000158185FRANCISCO JAVIER HURTADO LUNA           001001
000000054                990462030381          000000000313272PAUL JORGE BERMUDEZ HERNANDEZ           001001
000000055                991526104282          000000000150882JORGE LUIS HERNANDEZ TIBURCIO           001001
000000056                992968608717          000000000477666ELIZABETH SANCHEZ PEREZ                 001001
000000057                991537924189          000000000659824MIGUEL ANGEL NAVARRO PEREZ              001001
000000058                991538665730          000000000267548BENJAMIN MIROS GONZALEZ                 001001
000000059                991437340699          000000000567370DIANA SIERRA RAMOS                      001001
000000060                991501642642          000000000500397JESUS ZAMORA GONZALEZ                   001001
000000061                992852152592          000000000757867RODRIGO ULLOA TERAN                     001001
000000062                991543321921          000000000365161ANA KAREN LIMA OROZCO                   001001
000000063                992971050664          000000000771518GUILLERMO ORTEGA ALMANZA                001001
000000064                991528273670          000000000304230JOSE DE JESUS MENDEZ YEPEZ              001001
000000065                991186968317          000000000649518MARIO CRISTIAN RIVERA MARTINEZ          001001
000000066                992986904572          000000000527622YURIDIA PAULETTE MARQUEZ CRUZ           001001
000000067                991582614891          000000001395339ROBERTO ANTONIO ORTIZ LAZCANO           001001
000000068                991134991532          000000000282586ARSENIO MORENO SOLANO                   001001
000000069                991520771503          000000000045154RAUL ARVIZU GONZALEZ                    001001
000000070                991297873719          000000000778307MARLON ALEXIS FIGUEROA ACEVEDO          001001
000000071                991545383831          000000000267555RUBEN ANGEL HERRERA VEGA                001001
000000072                991152097656          000000000095244CARMELO DE LUNA CORTES                  001001
000000073                992977397917          000000000330664RAFAEL DOMINGUEZ PALACIOS               001001
000000074                991503161300          000000000289231MARGARITA SERRALDE ESPINOZA             001001
000000075                992915643465          000000001321494ROSAURA RIVERA GUTIERREZ                001001
000000076                992905302757          000000000240752FRANCISCO JAVIER PEREZ SANCHEZ          001001
000000077                991526736726          000000000267555GRACIELA CORTES ZUNIGA                  001001
000000078                991578839905          000000000228693PAOLA SANCHEZ SANCHEZ                   001001
000000079                990463520919          000000000319861LUIS ANGEL GARCES JIMENEZ               001001
000000080                991550801341          000000000842532RAFAEL ALEJANDRO RUIZ MENDOZA           001001
000000081                991516389635          000000000527642ALEJANDRO PALOMO MARINO                 001001
000000082                992994978048          000000000267555JOSE ROBERTO HERNANDEZ HERNANDEZ        001001
000000083                991517835950          000000000267555OLIVA HERNANDEZ VASQUEZ                 001001
000000084                991539236794          000000000217555NIDIA LAURA VILLANUEVA FERNANDEZ        001001
000000085                991500237861          000000000387896LUIS ALBERTO LOPEZ RODRIGUEZ            001001
000000086                990464761251          000000000447150WALTER ANDRES PFEIFFER ALFARO           001001
000000087                991538656185          000000000409412YARA GEORGINA AGUILAR GALEANA           001001
000000088                991503950557          000000000432729SOFIA LIZBETH CORDOBA GONZALEZ          001001
000000089                992887695195          000000000424368LUIS EDUARDO GUTIERREZ ESPINOZA         001001
000000090                991514320867          000000000520670GRACIELA PASTRANA GONZALEZ              001001
000000091                991141101609          000000000675195CARLOS RUBEN NOVA LUPERCIO              001001
000000092                991588726577          000000000267555MIRNA VIRIDIANA MANRIQUEZ CHAVERO       001001
000000093                992924090535          000000001654851ADRIANA MARTINEZ TREVINO                001001
000000094                991576425766          000000000267555LIZBETH DANIELA GODINEZ HERNANDEZ       001001
000000095                991590113614          000000000586758ANA PATRICIA AQUINO CHAVEZ              001001
000000096                991525404408          000000000071142JOSE JUAN CUAMATZI PEREZ                001001
000000097                991556365973          000000000871988AZUCENA PERALES REYES                   001001
000000098                991595278981          000000000283897FERNANDO PEREZ GARCIA                   001001
000000099                992969023089          000000000871988JOSUE DAVID MEZA HERNANDEZ              001001
000000100                990466516149          000000000447150FERNANDO HERNANDEZ GONZALEZ             001001
000000101                991528121799          000000000267555MANUEL FELIPE AMAYA REYES               001001
000000102                991573776754          000000000102921JUAN ALBERTO FLORES SOLIS               001001
000000103                991522730472          000000001395398JONATHAN SANCHEZ CERON                  001001
000000104                992719476466          000000000527642MARLEN BEATRIZ PAULINO REYES            001001
000000105                991575478812          000000000308935ABILENE MARISOL BECERRA HERNANDEZ       001001
000000106                991500679727          000000000267555MARIO ALBERTO DIAZ QUINTERO             001001
000000107                991521778178          000000000491081JOSE VICENTE RODRIGUEZ RODRIGUEZ        001001
000000108                991501390859          000000000267555VANESA OVANDO ESPINOSA                  001001
000000109                990473231097          000000000267555GEAZUL SANTOS TOLENTINO                 001001
000000110                992955577381          000000000289231SANDRA CORTEZ VAZQUEZ                   001001
000000111                991533106571          000000000409412JAZMIN VENECIA CAMARENA SORIA           001001
000000112                992837129688          000000000115392JUVENCIO MEDINA AGUILAR                 001001
000000113                991515020638          000000000299862EDGAR ARROYO ALMAZAN                    001001
000000114                992981655167          000000001755115VANIA SALAS GARCIA                      001001
000000115                991559204884          000000000267555VERONICA GONZALEZ PONCE                 001001
000000116                991512515315          000000000267555JOSE MANUEL ALANIS RODRIGUEZ            001001
000000117                991565924505          000000000447150GRISELDA ESTHER NARVAEZ LINARES         001001
000000118                991548110352          000000000447150ALEJANDRA ALFARO MARTINEZ               001001
000000119                991526997913          000000000267555EMANUEL AURELIO AYALA ARROYO            001001
000000120                991510444771          000000000447150MARTHA REBECA RAMIREZ FLORES            001001
000000121                991510708387          000000000267555LUIS ROBERTO QUINTANA CARRETO           001001
000000122                991243679098          000000000757897DANIEL OLIVARES VAZQUEZ                 001001
000000123                991523773043          000000000447150JOSE FRANCISCO OCAMPO FRANCO            001001
000000124                991550766954          000000000370699VALERIA YOSELIN FLORES TREJO            001001
000000125                991547854126          000000000267555ERIK EDUARDO SANCHEZ CASTANEDA          001001
000000126                992704072200          000000001721411ANEDI SUSED CRUZ GARCIA                 001001
000000127                991502040972          000000000682026FERNANDO REYES MORUA                    001001
000000128                991557730012          000000000470494JOSE LUIS RUIZ SAUCEDO                  001001
000000129                992774063813          000000000236728JOSE JESUS MARTINEZ ESTRADA             001001
000000130                992907976755          000000000319231JONATHAN DANIEL RIVERA ROMERO           001001
000000131                991521745720          000000000497150VERONICA ESPINOSA RAMIREZ               001001
000000132                991532301779          000000000409412BRENDA MERLOS GONZALEZ                  001001
000000133                991498192286          000000000871988SANDRA ANGELES RAMIREZ                  001001
000000134                991558443800          000000000447150ISELA ROSAS LARA                        001001
000000135                991500306017          000000000486846BRAYAN NAFTALI RODRIGUEZ RUIZ           001001
000000136                990475358310          000000000193868EUNICE ORTEGA MARTINEZ                  001001
000000137                991514975177          000000000308935MARIO DE JESUS CANO GUTIERREZ           001001
000000138                991560253793          000000000527642BETSABE NALLELY TORNES MONTALVO         001001
000000139                991535798747          000000000267555ALEXIS JUAREZ PEREZ                     001001
000000140                992759379967          000000001261003JOSE SALVADOR TELLEZ RODRIGUEZ          001001
000000141                992795191475          000000000822166ARELI NOEMI PACHECO ARANDA              001001
000000142                991520568429          000000000267555JAQUELINE GARCIA SANCHEZ                001001
000000143                991551729874          000000000643804JOSE ADOLFO MORENO BECERRIL             001001
000000144                990472073838          000000000267555GUADALUPE YAZMIN DE LA CRUZ GOMEZ       001001
000000145                991508942096          000000000267555NORMA LILIANA LOPEZ CORONEL             001001
000000146                991122138107          000000000463950JUAN ANGEL MARQUEZ GARCIA               001001
000000147                992622070758          000000000420916VERELISA GUEVARA RUIZ                   001001
000000148                992715681847          000000000405067JAVIER GONZALEZ NORIEGA                 001001
000000149                991590213678          000000000252379FABIOLA CASTILLO OCAMPO                 001001
000000150                991553147665          000000000289231JAZMIN GALICIA MILLAN                   001001
000000151                991143212408          000000001724977ANAYANSI BERENICE REYES LOPEZ           001001
000000152                991518883303          000000000447150ERIKA CARRERA ORTEGA                    001001
000000153                992748473277          000000001395398LUIS ALBERTO LOPEZ HERNANDEZ            001001
000000154                992799510311          000000000267555ERIKA NATALIA JARAMILLO HERNANDEZ       001001
000000155                991527789251          000000000289231GERARDO ANTONIO CHAVARRIA CASTILLO      001001
000000156                991532004523          000000000289231LUIS DE JESUS CONSUEGRA PEREZ           001001
000000157                990466637388          000000000330664MARIA FERNANDA BALDERAS ESPINO          001001
000000158                991516894995          000000000527642UBALDO ROA MENDEZ                       001001
000000159                991145097215          000000000447150LUIS ROBERTO PRADO ESPINOSA             001001
000000160                991534373517          000000000209222YESSICA GONZALEZ PEREZ                  001001
000000161                992881291785          000000000267555VERONICA RAMOS HERNANDEZ                001001
000000162                991582381567          000000000397150RAUL CRUZ JAVIER                        001001
000000163                992948672601          000000000416004JUAN FERNANDO DE LA ROSA AVILA          001001
000000164                991554733978          000000000252379MONICA LOPEZ RODRIGUEZ                  001001
000000165                991507564565          000000000289231MARIA EUGENIA ALEJANDRA GARCIA GOMEZ    001001
000000166                992988916853          000000000447150OSCAR DAVID DE LOERA SEGUNDO            001001
000000167                991552127733          000000000267555BLANCA ALELI ROSAS DE LOS SANTOS        001001
000000168                991594067897          000000000103285EDGAR SAUL GUEVARA LARA                 001001
000000169                991531732869          000000000409412LIZBETH CASTILLO ZAMORA                 001001
000000170                991599631804          000000000308935JONATHAN COLUNGA SANTIAGO               001001
000000171                991586826116          000000000267555ARACELI MEDINA RIVERA                   001001
000000172                991532729268          000000000245061KARLA EDNEY HERNANDEZ GARCIA            001001
000000173                991589779259          000000000267555CRISTIAN TEJA PEREZ                     001001
000000174                991528518648          000000000409412MARIO REYNA BARRIOS                     001001
000000175                991536887127          000000000405067ITZUMY VIRIDIANA CRUZ SALGADO           001001
000000176                992759796991          000000000103609IVONNE ANGEL TORREBLANCA                001001
000000177                991518988045          000000000444684CARLOS ALBERTO RODRIGUEZ CRUZ           001001
000000178                991591530006          000000000289231JULIO CESAR REYES LEON                  001001
000000179                991579096453          000000000289231SONIA LESLIE MENDEZ CASTRO              001001
000000180                991122802341          000000000308935LEOBARDO FRANKLIN OLIVARES HERNANDEZ    001001
000000181                991582140624          000000000330664BLANCA MONICA GUERRERO CASTILLO         001001
000000182                991516929288          000000000447150ERICK ARZATE HERNANDEZ                  001001
000000183                991501553879          000000000235474NANCY BERENICE SANCHEZ CANO             001001
000000184                991514154921          000000000267555ARANDELI ALEJANDRO HERNANDEZ            001001
000000185                991254824865          000000000230898MISAEL RAMIREZ RIOS                     001001
000000186                992735329965          000000000477684SERGIO MEDINA SOTO                      001001
000000187                991550310859          000000000308935HILDA GUADALUPE DIAZ PEREZ              001001
000000188                992719336672          000000000757897TANIA ELIZABETH BARAJAS LEZAMA          001001
000000189                991552970671          000000000289231EDGAR ROMERO ZERMENO                    001001
000000190                991510517239          000000000289231ISAIAS FELIX PEREZ GUTIERREZ            001001
000000191                991536321014          000000000447150ALINE DEL CARMEN VALDEZ VARGAS          001001
000000192                991540465383          000000000289231SAMANTHA SEVILLA CORDOVA                001001
000000193                991547957656          000000000447150VICTOR LUNA POLO LOPEZ                  001001
000000194                991554965280          000000000447150LUZ ANDREA BARRIENTOS LOPEZ             001001
000000195                991575731164          000000000447150LUIS ALBERTO SEGUNDO ROSAS              001001
000000196                990474173740          000000000461366ROCIO SALCEDO RAMIREZ                   001001
000000197                992995487005          000000000252379CRISTOPHER GARCIA ALVAREZ               001001
000000198                991546829411          000000000267555MARIA DEL CARMEN PACHECO GREGORIO       001001
000000199                991578787860          000000000267555LIZBETH SARAI BALDERAS BRIONES          001001
000000200                991538091940          000000000267555ANTONIA SARAI CRUZ LUNA                 001001
000000201                991577479169          000000000267555DIANA GONZALEZ MAGANA                   001001
000000202                991560410179          000000000226263KARLA VIANEY CASTILLO RODRIGUEZ         001001
000000203                991531182407          000000000172447EMMANUEL MEDRANO CRUZ                   001001
000000204                991507740839          000000000308935DELFINA GUADALUPE GARCIA VEGA           001001
000000205                991516028672          000000000267555JENIFER BAEZ GUEVARA                    001001
000000206                991528810161          000000000447150LILIA MANUEL FERNANDEZ                  001001
000000207                991515387007          000000000267555DANIELA ABIGAIL AMAYA SALVADOR          001001
000000208                991509319775          000000000289231BRAULIO JAFET HERMOSILLO MORENO         001001
000000209                991543349702          000000000289231GUADALUPE JENIFFER MARTINEZ JIMENEZ     001001
000000210                991525529295          000000000289231ALFONSO ANDRES JIMENEZ                  001001
000000211                991549139041          000000000330664EVELINE CAROLINA DE LA ROSA VELAZQUEZ   001001
000000212                991587264898          000000000330664LUIS IVAN CAMPUZANO HERRERA             001001
000000213                991548423078          000000000527642NAHUM BERMEO JIMENEZ                    001001
000000214                991584893964          000000000527642ENRIQUE DE JESUS JUAREZ                 001001
000000215                991536829934          000000000527642EDILBERTO MENDOZA ESPINOSA              001001
000000216                991536655480          000000000527642RODRIGO RIOS MIRANDA                    001001
000000217                992968940754          000000001780814VICTOR HUGO OLMEDO GARCIA               001001
000000218                992798115974          000000000267555ERIKA CARRETO DIEGO                     001001
000000219                991589437480          000000000289231NAYELI ALVAREZ RIVERA                   001001
000000220                991580964363          000000000527642JULIO ARTURO ANASTACIO GARCIA           001001
000000221                991523460085          000000000527642ELIAS SEBASTIAN MARTINEZ CORTES         001001
000000222                991578851144          000000000527642EDUARDO DANIEL PAZ ESTRADA              001001
000000223                991565431594          000000000330664DULCE MARIA MEJIA AVALOS                001001
000000224                991247058195          000000000230898ESPERANZA GUADALUPE HERNANDEZ HERNANDE  001001
000000225                991501444682          000000000289231JUAN OMAR BARCENAS MARQUEZ              001001
000000226                991551944093          000000000071589LEOPOLDO ISRAEL ORDONEZ AGUILAR         001001
000000227                991557638135          000000000223537ARELI ZURITA LOAEZA                     001001
000000228                991557320356          000000000267555JOSE JUAN DURAN LIRA                    001001
000000229                991521966169          000000000308935ARI DANIEL REBOLLAR SANCHEZ             001001
000000230                991242216957          000000000477684ROSARIO LARA RAMIREZ                    001001
000000231                991511134374          000000000289231VIRGINIA MARTINEZ LOPEZ                 001001
000000232                991503158376          000000000308935MIGUEL ANGEL MAZATZI NAVA               001001
000000233                991528981198          000000000289230CARLOS HIPOLITO ANGULO                  001001
000000234                991546384857          000000000447150ALEJANDRO PEREZ CARDOSO                 001001
000000235                991131268546          000000000527642CRIZTELA LORENA BUSTOS IBARRA           001001
000000236                991547548920          000000000330664JENNY  DEL  ROCIO MORENO GALLARDO       001001
000000237                991549250182          000000000267555DARINKA MONSERRAT ORTIZ NOVELO          001001
000000238                991552952693          000000000340379CARLOS REYES MENDOZA                    001001
000000239                991552997718          000000000278802ABRAHAM CRUZ LOPEZ                      001001
000000240                991580272698          000000000267555SALVADOR ALEXIS CRUZ OCANA              001001
000000241                991537445547          000000000267555PATRICIA PAZARAN ALVAREZ                001001
000000242                991513956455          000000000267555DIEGO ALBERTO RUPERTO RAMIREZ           001001
000000243                991549689288          000000000527642ALEJANDRO SUAREZ MENDOZA                001001
000000244                991569200854          000000000037367SHARON WENDOLIN VARGAS LARA             001001
000000245                991503900614          000000000427642RUBEN MISAEL GOMEZ LOPEZ                001001
000000246                991558832320          000000000527642ANA REGINA SEPULVEDA TORRES             001001
000000247                992944447689          000000000330664RAFAEL ANGELES CARRANZA                 001001
000000248                991515013511          000000000340379FATIMA MONSERRAD RIOS AVILA             001001
000000249                991510418174          000000000511850MINERVA MORALES REYES                   001001
000000250                991556343015          000000000289231JOSE LUIS ARTURO SANCHEZ MAXIMO         001001
000000251                991535226616          000000000267555ANDREA VICTORIO CUELLAR                 001001
000000252                991555371411          000000000267555MARIA GUADALUPE TEJADIO SANCHEZ         001001
000000253                991533847210          000000000308935ALICIA RESENDIZ ALVARADO                001001
000000254                991514658895          000000000267555MOISES PEREZ HUERTA                     001001
000000255                992958001235          000000000251852FABIOLA PASTEN ULALDE                   001001
000000256                991556139784          000000000267555LUIS ANGEL AGUIRRE CRUZ                 001001
000000257                991556114217          000000000267555RODRIGO MONTOYA BOCANEGRA               001001
000000258                991557720486          000000000289231XOCHITL RUIZ VELAZQUEZ                  001001
000000259                991586148794          000000000335749ISAUL ARZATE CEBALLOS                   001001
000000260                991556191050          000000000308935ERIKA YAZMIN SAUCEDA GARCIA             001001
000000261                991530751289          000000000267555ANGELICA FABIOLA IZARRARAS VERA         001001
000000262                991509432854          000000000289231KATIA BERENICE PUEBLAS SEGURA           001001
000000263                991500505673          000000000308935CASSANDRA HERNANDEZ BOTELLO             001001
000000264                991501242660          000000000330664YASUNARI YAHOLLOSI FABILA               001001
000000265                991548706308          000000000330664GABRIELA REBECA MEDINA LANDIN           001001
000000266                991592352454          000000000289231HERMELINDO ESTEBAN VELASCO LOPEZ        001001
000000267                992877626657          000000000289231MISAEL VICENTE FLORES HUESCA            001001
000000268                991529615098          000000000340379ALBERTO ADAD PEREZ FLORES               001001
000000269                991599403453          000000000340379RICARDO MENDEZ CAMACHO                  001001
000000270                991553177708          000000000435886ARTURO MONTES MARTINEZ                  001001
000000271                991559542741          000000000267555ERANDI RIVERA RODRIGUEZ                 001001
000000272                991559758788          000000000308935ERIKA JOCELYN MONSIVAIS AVILA           001001
000000273                991553144097          000000000681835LUIS ENRIQUE ALCALA RAMIREZ             001001
000000274                992981267647          000000000252379VICTOR MANUEL ROSAS PICHARDO            001001
000000275                991502729608          000000000361610PAOLA NEGRETE GONZALEZ                  001001
000000276                992686070116          000000000361610KAREN JANELLY MADRIGAL VALDES           001001
000000277                991562058793          000000000289231CELIA URSULA DE LOS ANGELES VELAZQUEZ   001001
000000278                991517377688          000000000447150OSWALDO ERASMO ESTRADA REGALADO         001001
000000279                991591577363          000000000267555HECTOR  VAZQUEZ SANCHEZ                 001001
000000280                991587161355          000000000527642ARTURO IVAN GARCIA CRUZ                 001001
000000281                991546107369          000000000527642ABRAHAM MAXIMILIANO MENDOZA DURAN       001001
000000282                991551726714          000000000271692VICTOR HUGO CRUZ VALDOVINOS             001001
000000283                991564189854          000000000289231JOSE JUAN CASTANON NIGENDA              001001
000000284                991549161093          000000000330664OSKAR JAIME RAMIREZ HERNANDEZ           001001
000000285                992889709231          000000000303505JUAN MANUEL RIOS CRUZ                   001001
000000286                991511944274          000000000643804GUADALUPE GUSTAVO JUAREZ HERNANDEZ      001001
000000287                991556571189          000000000643804CECILIA PIMENTEL RODRIGUEZ              001001
000000288                991560698013          000000000267555BRISA ITZEL TELLEZ HUERTA               001001
000000289                991568047718          000000000289230MARIA FERNANDA RAMOS RAMOS              001001
000000290                991502200399          000000000267555NESTOR ABELARDO GUZMAN RAMIREZ          001001
000000291                991559729367          000000000267555ALEJANDRA TOBON BELLO                   001001
000000292                991563062786          000000000289231DULCE MARIA ZANABRIGA MENDOZA           001001
000000293                992933254216          000000000986097JUAN GERARDO SILVA DEL ANGEL            001001
000000294                991588609597          000000000289231JESUS EDUARDO HERNANDEZ MARTINEZ        001001
000000295                992955040485          000000000235474ALFREDO HUSIM KU ALBARRAN               001001
000000296                991561452743          000000000267555LUIS ALBERTO JUAREZ MENDOZA             001001
000000297                991561428993          000000000267555JOSE LUIS SALGADO  RODRIGUEZ            001001
000000298                991563435451          000000000267555LUIS REY CARRERA GONZALEZ               001001
000000299                991509337172          000000000235474JONATAN MISAEL MENDOZA REYES            001001
000000300                991592551482          000000000409412ADRIAN ACEVEDO RETA                     001001
000000301                991507635808          000000000361610DIANA BERENICE VARGAS VEGA              001001
000000302                991550158839          000000000280540MIRIAM ITZEL MARTINEZ HERRERA           001001
000000303                991573242075          000000000267555DAVID  LOPEZ  MELENDEZ                  001001
000000304                991595865614          000000000308935JOAN OLIVAN GARCIA                      001001
000000305                991520249224          000000000447150OLGA BEATRIZ HERNANDEZ VAZQUEZ          001001
000000306                991532663276          000000000447150LIZET DANIELA BERRUECOS  PEREZ          001001
000000307                991562444582          000000000447150VICTOR MANUEL MARTINEZ ROSAS            001001
000000308                992986014607          000000000255408AMAIRANY RODRIGUEZ  SILVA               001001
000000309                991573601873          000000000267555BRAYAN JOVANNY SALAZAR HERNANDEZ        001001
000000310                991582867519          000000000148274HECTOR MAURICIO HERNANDEZ PERALES       001001
000000311                991526049944          000000000461366CESAR TORRES ROJAS                      001001
000000312                991532166828          000000000435886FERNANDA ITZEL MARTINEZ GUEVARA         001001
000000313                991585868303          000000000447150ISRAEL SEBASTIAN OCAMPO JASSO           001001
000000314                991521782085          000000000235474YAZMIN ISABEL MONTIEL LOPEZ             001001
000000315                991522682834          000000000361610GABRIELA LEZAMA SALAZAR                 001001
000000316                991538712819          000000000289233BEATRIZ FLORES SANTOS                   001001
000000317                991487704267          000000000409412JOSE ALBERTO AGUILAR AVINA              001001
000000318                991529733876          000000000267555BRYAN ANTONY ALVAREZ ALVARADO           001001
000000319                991518587191          000000000447150MARIA NANCY GONZALEZ MENDEZ             001001
000000320                991485140463          000000000447150JORGE ALVAREZ FELICIANO                 001001
000000321                991563417057          000000000267555WILBERT ALEXIS GARCIA SANCHEZ           001001
000000322                991557025391          000000000289230MARIA FERNANDA  PAQUI MENDIETA          001001
000000323                991554000363          000000000675114JUANA ALEJANDRA RIVERA DIAZ             001001
000000324                991524816521          000000000396762ADRIAN RAMIREZ CHAVEZ                   001001
000000325                991542102975          000000000431351MICHELLE GUADALUPE  GONZALEZ  SALAS     001001
000000326                991592526754          000000000379324HILARIO DE LA ROSA HERNANDEZ            001001
000000327                990466738117          000000000348962EFREN RIGOBERTO LOPEZ FLORES            001001
000000328                991536690988          000000000332973ROCIO DEYANIRA HERNANDEZ PENA           001001
000000329                992751541757          000000000682857FELIPE DE JESUS  VELASCO  GONZALEZ      001001
000000330                991504206108          000000000581386MARIA FERNANDA FRANCA CASTRO            001001
000000331                991556751779          000000000344448CARLOS ALBERTO  RAMIREZ MORA            001001
000000332                991555632109          000000000267555ALISSON ZARATE  SOTO                    001001
000000333                992742646226          000000000289231YURI ANTONIA SANTIAGO SORIANO           001001
000000334                991555838803          000000000477684DAVID MARTINEZ REYES                    001001
000000335                991533482517          000000000431351SONIA HERNANDEZ  MORENO                 001001
000000336                991530889873          000000000458537VIRIDIANA YOSAJANDI SANCHEZ  AVALOS     001001
000000337                991536521093          000000000308935EZEQUIEL HERNANDEZ  CAMACHO             001001
000000338                991567010440          000000000200698LIZETH NOHEMI TAVERA SILVA              001001
000000339                991517299815          000000000310324JUAN IGNACIO TOBIAS LOPEZ               001001
000000340                992987304668          000000000382979SERGIO ANDRES RAMIREZ BARRON            001001
000000341                991562171333          000000000292070PEDRO ALEJANDRO CAMPUZANO GARCIA        001001
000000342                991550136193          000000000310324ADRIAN CARRASCO REYNA                   001001
000000343                991574709457          000000000498071YOSTING FABRIZZIO MARROQUIN FABIANI     001001
