65508020750     012180015828299598  012MARISOL HERNANDEZ DIAZ                  10010000000004702260100137 PAGO POR CUENTA Y ORDEN SUELDO                                                                                                 0000001
65508020750     012540015002717083  012MARIANA PAREDES MILLAN                  10010000000005284490100137 PAGO POR CUENTA Y ORDEN SUELDO                                                                                                 0000002
65508020750     012542028811374767  012HUGO HERNANDEZ HERRERA                  10010000000008112070100137 PAGO POR CUENTA Y ORDEN SUELDO                                                                                                 0000003
65508020750     012180015632119084  012SHEIRAN NETTEL CARMONA                  10010000000004191680100137 PAGO POR CUENTA Y ORDEN SUELDO                                                                                                 0000004
65508020750     012420004569103944  012ANA KAREN DE LA CRUZ CALDERON           10010000000004478170100137 PAGO POR CUENTA Y ORDEN SUELDO                                                                                                 0000005
65508020750     012540029598355550  012ADRIANA BALDERAS GARCIA                 10010000000004478170100137 PAGO POR CUENTA Y ORDEN SUELDO                                                                                                 0000006
65508020750     012544015470368222  012YESSICA ISABEL VEGA ALCANTARA           10010000000005284690100137 PAGO POR CUENTA Y ORDEN SUELDO                                                                                                 0000007
65508020750     012426015249100959  012YESSICA ESTRADA ALDAMA                  10010000000005288950100137 PAGO POR CUENTA Y ORDEN SUELDO                                                                                                 0000008
65508020750     012180004691795939  012JORDAN JAIR MARGARITO DAMIAN            10010000000005286100100137 PAGO POR CUENTA Y ORDEN SUELDO                                                                                                 0000009
65508020750     012444015690329219  012CITLALI MORALES SUAREZ                  10010000000003757120100137 PAGO POR CUENTA Y ORDEN SUELDO                                                                                                 0000010
65508020750     012180028905190141  012MIGUEL ANGEL CABRERA ANGELES            10010000000004478010100137 PAGO POR CUENTA Y ORDEN SUELDO                                                                                                 0000011
65508020750     012180015405351875  012ERIKA MARTINEZ MALVAEZ                  10010000000004478170100137 PAGO POR CUENTA Y ORDEN SUELDO                                                                                                 0000012
65508020750     012180029822533055  012FLORICELA SANCHEZ GARCIA                10010000000005284690100137 PAGO POR CUENTA Y ORDEN SUELDO                                                                                                 0000013
65508020750     012180004670082016  012SANAE NAVA SILVA                        10010000000009139630100137 PAGO POR CUENTA Y ORDEN SUELDO                                                                                                 0000014
65508020750     012180015089238767  012GABRIELA GARDUNO ACEVES                 10010000000005683000100137 PAGO POR CUENTA Y ORDEN SUELDO                                                                                                 0000015
65508020750     012180015149496876  012DANIELA ITZEL LOPEZ ALEMAN              10010000000007591790100137 PAGO POR CUENTA Y ORDEN SUELDO                                                                                                 0000016
65508020750     012180015568442207  012JANET ANDREA GARCIA RODRIGUEZ           10010000000007035190100137 PAGO POR CUENTA Y ORDEN SUELDO                                                                                                 0000017
65508020750     012180015819570666  012ANA YANIN HUERTA GONZALEZ               10010000000005683000100137 PAGO POR CUENTA Y ORDEN SUELDO                                                                                                 0000018
65508020750     012180015517371581  012ANAHI ALTAMIRANO HERNANDEZ              10010000000007592070100137 PAGO POR CUENTA Y ORDEN SUELDO                                                                                                 0000019
65508020750     012180011330557955  012OMAR ZERMENO NUNEZ                      10010000000004886080100137 PAGO POR CUENTA Y ORDEN SUELDO                                                                                                 0000020
65508020750     012133011515931880  012BRENDA PAOLA BRAVO CASTELLANOS          10010000000004732640100137 PAGO POR CUENTA Y ORDEN SUELDO                                                                                                 0000021
65508020750     012100015200855459  012JUAN CARLOS HERNANDEZ ALVAREZ           10010000000006259880100137 PAGO POR CUENTA Y ORDEN SUELDO                                                                                                 0000022
65508020750     012180015428838993  012JOSE LUIS GALDAMEZ PEREZ                10010000000005284690100137 PAGO POR CUENTA Y ORDEN SUELDO                                                                                                 0000023
65508020750     012180015294775206  012CUAUHTEMOC DONOVAN VAZQUEZ QUINTO       10010000000004478170100137 PAGO POR CUENTA Y ORDEN SUELDO                                                                                                 0000024
65508020750     012837015120022729  012TANIA ARCELIA VAZQUEZ CORDOVA           10010000000007592070100137 PAGO POR CUENTA Y ORDEN SUELDO                                                                                                 0000025
65508020750     012905015120049171  012PEDRO DAMIAN MARTINEZ BLANCO            10010000000004478170100137 PAGO POR CUENTA Y ORDEN SUELDO                                                                                                 0000026
65508020750     012650015216125490  012CARLOS ALBERTO MENDOZA ORTIZ            10010000000004478170100137 PAGO POR CUENTA Y ORDEN SUELDO                                                                                                 0000027
65508020750     012290014021592365  012VALENTIN LORENZO FILER                  10010000000003403550100137 PAGO POR CUENTA Y ORDEN SUELDO                                                                                                 0000028
65508020750     012813015136207785  012JERONIMO DEL ANGEL GARCIA               10010000000004478170100137 PAGO POR CUENTA Y ORDEN SUELDO                                                                                                 0000029
65508020750     012832015407369566  012CAROLINA MENDOZA MENDEZ                 10010000000003621340100137 PAGO POR CUENTA Y ORDEN SUELDO                                                                                                 0000030
65508020750     012905028694524009  012EDNA GISELDA CARDENA MUNOZ              10010000000004478170100137 PAGO POR CUENTA Y ORDEN SUELDO                                                                                                 0000031
65508020750     012700028619445339  012JOSE ANGEL MARTINEZ CRUZ                10010000000006181950100137 PAGO POR CUENTA Y ORDEN SUELDO                                                                                                 0000032
65508020750     012109029577873591  012FREDY GABRIEL VELASCO VELASCO           10010000000006181060100137 PAGO POR CUENTA Y ORDEN SUELDO                                                                                                 0000033
65508020750     012312015126563613  012TANIA LISBETH VARGAS CASTRO             10010000000007592070100137 PAGO POR CUENTA Y ORDEN SUELDO                                                                                                 0000034
65508020750     012180015109743556  012ERIC OBED PARRA COTA                    10010000000006596990100137 PAGO POR CUENTA Y ORDEN SUELDO                                                                                                 0000035
65508020750     012180015490801550  012OSCAR EMIR CRUZ ILLESCAS                10010000000005027840100137 PAGO POR CUENTA Y ORDEN SUELDO                                                                                                 0000036
65508020750     012180015901136141  012ANA PATRICIA AQUINO CHAVEZ              10010000000005877060100137 PAGO POR CUENTA Y ORDEN SUELDO                                                                                                 0000037
65508020750     012133028711591868  012JOSE CARLOS ARRAZATE JOSE               10010000000005439130100137 PAGO POR CUENTA Y ORDEN SUELDO                                                                                                 0000038
65508020750     012180015493178565  012MARCELA LOPEZ ORTEGA                    10010000000004240660100137 PAGO POR CUENTA Y ORDEN SUELDO                                                                                                 0000039
65508020750     012180015890899968  012CESAR ANASTACIO DEL ANGEL               10010000000005280370100137 PAGO POR CUENTA Y ORDEN SUELDO                                                                                                 0000040
65508020750     012180015584118670  012CARLOS JESUS PINON TREJO                10010000000007258740100137 PAGO POR CUENTA Y ORDEN SUELDO                                                                                                 0000041
65508020750     012180015488016849  012JOSE ARTURO MORENO ZARATE               10010000000004025750100137 PAGO POR CUENTA Y ORDEN SUELDO                                                                                                 0000042
65508020750     012180015564239760  012LADY TANIA CELAYA MENDOZA               10010000000005284690100137 PAGO POR CUENTA Y ORDEN SUELDO                                                                                                 0000043
65508020750     012180015192850676  012LUCERO ALVAREZ GONZALEZ                 10010000000004478170100137 PAGO POR CUENTA Y ORDEN SUELDO                                                                                                 0000044
65508020750     012180015473524540  012FERNANDA ISABEL SOLANO ROJAS            10010000000003704380100137 PAGO POR CUENTA Y ORDEN SUELDO                                                                                                 0000045
65508020750     012180015486644983  012CINTHIA VERENICE ARTIGAS LOPEZ          10010000000003894840100137 PAGO POR CUENTA Y ORDEN SUELDO                                                                                                 0000046
65508020750     012320015925256773  012REYES OSVALDO ALANIS PICAZO             10010000000004153320100137 PAGO POR CUENTA Y ORDEN SUELDO                                                                                                 0000047
65508020750     012180015584438004  012ISELA ROSAS LARA                        10010000000004478170100137 PAGO POR CUENTA Y ORDEN SUELDO                                                                                                 0000048
65508020750     012637029462543149  012GABRIELA DEL CARMEN GUZMAN MARTINEZ     10010000000005284690100137 PAGO POR CUENTA Y ORDEN SUELDO                                                                                                 0000049
65508020750     012180015517298745  012JOSE ADOLFO MORENO BECERRIL             10010000000005316840100137 PAGO POR CUENTA Y ORDEN SUELDO                                                                                                 0000050
65508020750     012050015435217640  012CATHERINEE JOSELYN SOSA SARMIENTO       10010000000003163110100137 PAGO POR CUENTA Y ORDEN SUELDO                                                                                                 0000051
65508020750     012832015214548622  012ELIAS MERINO HERNANDEZ                  10010000000004478170100137 PAGO POR CUENTA Y ORDEN SUELDO                                                                                                 0000052
65508020750     012260015640739350  012NOE JALIL ALAS GALLARDO                 10010000000003311180100137 PAGO POR CUENTA Y ORDEN SUELDO                                                                                                 0000053
65508020750     012109015744726595  012JOSE ALFREDO GIRON SANCHEZ              10010000000004506600100137 PAGO POR CUENTA Y ORDEN SUELDO                                                                                                 0000054
65508020750     012540015555502651  012IRIS VIRIDIANA TORRES GUTIERREZ         10010000000004978170100137 PAGO POR CUENTA Y ORDEN SUELDO                                                                                                 0000055
65508020750     012700015206987145  012MARIA ANTONIA LOPEZ HERNANDEZ           10010000000005884690100137 PAGO POR CUENTA Y ORDEN SUELDO                                                                                                 0000056
65508020750     012130015634021421  012SANDRA GUADALUPE RUIZ FONSECA           10010000000004056600100137 PAGO POR CUENTA Y ORDEN SUELDO                                                                                                 0000057
65508020750     012180015368871272  012ITZUMY VIRIDIANA CRUZ SALGADO           10010000000004056600100137 PAGO POR CUENTA Y ORDEN SUELDO                                                                                                 0000058
65508020750     012650029849907301  012CRISTIAN FUENTES ALVARADO               10010000000004478170100137 PAGO POR CUENTA Y ORDEN SUELDO                                                                                                 0000059
65508020750     012225015330638447  012JUDITH ESTEFANY MARTINEZ DELGADO        10010000000004056590100137 PAGO POR CUENTA Y ORDEN SUELDO                                                                                                 0000060
65508020750     012580015452829578  012FELIX ALEJANDRO CASTILLO GUERRERO       10010000000004610550100137 PAGO POR CUENTA Y ORDEN SUELDO                                                                                                 0000061
65508020750     012180015966577648  012OLGA LIDIA MILLAN RIVERA                10010000000003311180100137 PAGO POR CUENTA Y ORDEN SUELDO                                                                                                 0000062
65508020750     012180015288101611  012LILIA MANUEL FERNANDEZ                  10010000000004478170100137 PAGO POR CUENTA Y ORDEN SUELDO                                                                                                 0000063
65508020750     012580015493232182  012PABLO ALBERTO MONTES NINO               10010000000003157420100137 PAGO POR CUENTA Y ORDEN SUELDO                                                                                                 0000064
65508020750     012180015487063084  012GABRIELA REBECA MEDINA LANDIN           10010000000003311180100137 PAGO POR CUENTA Y ORDEN SUELDO                                                                                                 0000065
65508020750     012180015853794440  012MAGALY GARCIA GARCIA                    10010000000004478170100137 PAGO POR CUENTA Y ORDEN SUELDO                                                                                                 0000066
65508020750     012760015191987546  012JANIRA LURIEET CASTILLO RAMOS           10010000000005284690100137 PAGO POR CUENTA Y ORDEN SUELDO                                                                                                 0000067
65508020750     012180015027296088  012PAOLA NEGRETE GONZALEZ                  10010000000003621340100137 PAGO POR CUENTA Y ORDEN SUELDO                                                                                                 0000068
65508020750     012180015119442740  012GUADALUPE GUSTAVO JUAREZ HERNANDEZ      10010000000005148730100137 PAGO POR CUENTA Y ORDEN SUELDO                                                                                                 0000069
65508020750     012180015565711892  012CECILIA PIMENTEL RODRIGUEZ              10010000000006448730100137 PAGO POR CUENTA Y ORDEN SUELDO                                                                                                 0000070
65508020750     012180015226828341  012GABRIELA LEZAMA SALAZAR                 10010000000003621340100137 PAGO POR CUENTA Y ORDEN SUELDO                                                                                                 0000071
65508020750     012180015578061131  012EDALI BASTIDA MARTINEZ                  10010000000004478170100137 PAGO POR CUENTA Y ORDEN SUELDO                                                                                                 0000072
65508020750     012180015634781889  012MOISES EDUARDO BELTRAN SANCHEZ          10010000000003057280100137 PAGO POR CUENTA Y ORDEN SUELDO                                                                                                 0000073
65508020750     012877015066610954  012JESUS FRANCISCO SANTOS VAZQUEZ          10010000000003621340100137 PAGO POR CUENTA Y ORDEN SUELDO                                                                                                 0000074
65508020750     012180015199830123  012KARINA HERNANDEZ HERNANDEZ              10010000000003311180100137 PAGO POR CUENTA Y ORDEN SUELDO                                                                                                 0000075
65508020750     012813015420689556  012MARIA CONCEPCION ANTONIO MORALES        10010000000004056600100137 PAGO POR CUENTA Y ORDEN SUELDO                                                                                                 0000076
65508020750     012296015516939216  012JUANA LIZBETH HERNANDEZ HERNANDEZ       10010000000005286290100137 PAGO POR CUENTA Y ORDEN SUELDO                                                                                                 0000077
65508020750     012180015005942309  012GUADALUPE AGUILAR ESCOBEDO              10010000000004056600100137 PAGO POR CUENTA Y ORDEN SUELDO                                                                                                 0000078
65508020750     012180015985912815  012ENNER ESPINOSA HERNANDEZ                10010000000003621340100137 PAGO POR CUENTA Y ORDEN SUELDO                                                                                                 0000079
65508020750     012180015753955745  012OSCAR ALEJANDRO MANDUJANO SILVA         10010000000004478170100137 PAGO POR CUENTA Y ORDEN SUELDO                                                                                                 0000080
65508020750     012180015746757866  012CHIRSTIAN ARACELI VILLALPANDO FLORES    10010000000004056600100137 PAGO POR CUENTA Y ORDEN SUELDO                                                                                                 0000081
65508020750     012060015488074231  012RODRIGO HUMBERTO TERRONES CEDILLO       10010000000004056600100137 PAGO POR CUENTA Y ORDEN SUELDO                                                                                                 0000082
65508020750     012885015837981121  012MARIA DE LOURDES ELIA DIAZ ALVARADO     10010000000003621340100137 PAGO POR CUENTA Y ORDEN SUELDO                                                                                                 0000083
65508020750     012222015511048642  012ALEJANDRA LETICIA RESENDIZ HERRERA      10010000000005284690100137 PAGO POR CUENTA Y ORDEN SUELDO                                                                                                 0000084
65508020750     012180011175931040  012JONATHAN ANTONIO CANEDO RAMIREZ         10010000000003621340100137 PAGO POR CUENTA Y ORDEN SUELDO                                                                                                 0000085
65508020750     012180015991197983  012GABRIELA TORRES PADRON                  10010000000003621340100137 PAGO POR CUENTA Y ORDEN SUELDO                                                                                                 0000086
65508020750     012180015438552803  012BRANDON MARTINEZ AGUILAR                10010000000003621340100137 PAGO POR CUENTA Y ORDEN SUELDO                                                                                                 0000087
65508020750     012180015336733355  012RICARDO AGUILAR PIVARAL                 10010000000003972860100137 PAGO POR CUENTA Y ORDEN SUELDO                                                                                                 0000088
65508020750     012180015256865840  012AURA GUADALUPE PINEDA CRUZ              10010000000003812960100137 PAGO POR CUENTA Y ORDEN SUELDO                                                                                                 0000089
65508020750     012180015524888795  012GABRIELA NAVARRETE MARTINEZ             10010000000004315710100137 PAGO POR CUENTA Y ORDEN SUELDO                                                                                                 0000090
65508020750     012180015498110722  012CARMEN ABIGAIL DOMINGUEZ RAMIREZ        10010000000003853740100137 PAGO POR CUENTA Y ORDEN SUELDO                                                                                                 0000091
65508020750     012180015321198730  012OLGA XATZIE GARCIA CARDENAS             10010000000005284690100137 PAGO POR CUENTA Y ORDEN SUELDO                                                                                                 0000092
