100001E0110202265508020750     01102022
2000020011381PEREZ                         VALDOVINOS          YANETH                        60604968092     000000000000759207
2000030011466GONZALEZ                      GARCIA              JENNIFER MINERVA              60606810082     000000000000447801
2000040011901BAUTISTA                      DIAZ                ANA GUADALUPE                 60605308497     000000000000468228
2000050022748VILLA                         LORENZO             ABELARDO                      20010992296     000000000000261421
2000060050674RAMOS                         VILLEGAS            CESAR ADRIAN                  60607808148     000000000000410013
2000070070331JIMENEZ                       ALBOREZ             JUAN CARLOS                   56641625766     000000000000542471
2000080091342VILLANUEVA                    LOTINA              JOSE CARLOMAGNO               60598502105     000000000000509098
2000090093248MASTRANZO                     ROMERO              DENY PATRICIA                 20012083601     000000000000447817
2000100130074LAURENCE                      LUNA                JUAN ALFREDO                  56692186509     000000000000811333
2000110130091CHAN                          MARTIN              IRLANDA YAZMIN                20006245722     000000000000759207
2000120902097GARCIA                        RUIZ                ROSA GLADYS                   60602911401     000000000000366960
2000130903304CASTILLO                      ACUNA               NALLELY NOHEMI                20007928816     000000000000528469
2000140904228MARTINEZ                      DE DIOS             ALDO DE JESUS                 20012322826     000000000000450660
2000150905861BERMUDEZ                      CASTILLO            AURELIO                       56726140672     000000000000362134
2000160906252MORENO                        LOPEZ               VIRGINIA CAROLINA             60604973546     000000000000362134
2000170906657SCHIETEKAT                    ROSADO              VERONICA SOCORRO              60519857426     000000000001324014
2000180910303GARCIA                        VASQUEZ             SANDRA NALLELY                25001944374     000000000000405660
2000190910682RAMOS                         TELLEZ              CRISTIAN                      60597019611     000000000000362135
2000200912733SOLIS                         VARGAS              YEVGENNI IRAM                 56820203187     000000000000645486
30002100019000000000010224248
