0220005        0000000000116146686100000000000255390363000000007592070010012022PAGO POR CUENTA Y ORDEN SUELDO11HUM180523FF6 00000000000000grupo@dallheim.com.mx                  10012022SEVILLA VAZQUEZ MARCO ANTONIO                                         
0220504        0000000000116146686100000000000288716998000000007963360010012022PAGO POR CUENTA Y ORDEN SUELDO11HUM180523FF6 00000000000000grupo@dallheim.com.mx                  10012022BEDOLLA HERNANDEZ MONICA LIZBETH                                      
0250312        0000000000116146686100000000000357104044000000006448730010012022PAGO POR CUENTA Y ORDEN SUELDO11HUM180523FF6 00000000000000grupo@dallheim.com.mx                  10012022BAUTISTA VICENCIO MARCO ANTONIO                                       
0280338        0000000000116146686100000000000289261431000000005284690010012022PAGO POR CUENTA Y ORDEN SUELDO11HUM180523FF6 00000000000000grupo@dallheim.com.mx                  10012022ASCENCIO MEDINA MARIA TRINIDAD                                        
0290290        0000000000116146686100000000001023208187000000004478170010012022PAGO POR CUENTA Y ORDEN SUELDO11HUM180523FF6 00000000000000grupo@dallheim.com.mx                  10012022LARA AVENDANO GUILLERMO                                               
0291103        0000000000116146686100000000000322652794000000006484690010012022PAGO POR CUENTA Y ORDEN SUELDO11HUM180523FF6 00000000000000grupo@dallheim.com.mx                  10012022HERNANDEZ SANCHEZ MARIA INES                                          
02907943       0000000000116146686100000000001143817405000000004053590010012022PAGO POR CUENTA Y ORDEN SUELDO11HUM180523FF6 00000000000000grupo@dallheim.com.mx                  10012022VELASCO ROBALDINO SUGHEY GUADALUPE                                    
02910077       0000000000116146686100000000000592973416000000003621340010012022PAGO POR CUENTA Y ORDEN SUELDO11HUM180523FF6 00000000000000grupo@dallheim.com.mx                  10012022RUIZ RUIZ MIGUEL ALEJANDRO                                            
02911339       0000000000116146686100000000001151384359000000004056600010012022PAGO POR CUENTA Y ORDEN SUELDO11HUM180523FF6 00000000000000grupo@dallheim.com.mx                  10012022COUOH DIAZ MARIA FERNANDA                                             
02912898       0000000000116146686100000000001124779539000000004638530010012022PAGO POR CUENTA Y ORDEN SUELDO11HUM180523FF6 00000000000000grupo@dallheim.com.mx                  10012022ACOSTA VELAZQUEZ SCARLETT                                             
